:020000040800F2
:1000000068F30020994F0108012E0108032E010812
:10001000052E0108072E0108092E01080000000026
:100020000000000000000000000000009BCC000861
:100030000B2E01080000000055CC000819C0000874
:10004000B5510108B9510108BD510108C15101085C
:10005000C5510108C9510108CD510108D15101080C
:10006000D55101080D2E0108172E0108D95101089C
:10007000DD510108E1510108E5510108E95101088C
:10008000ED510108F1510108F5510108F95101083C
:10009000FD510108015201080552010809520108E9
:1000A0000D52010811520108155201081952010898
:1000B0001D520108212E0108215201082552010874
:1000C000295201082D520108315201083552010808
:1000D000395201083D5201084152010845520108B8
:1000E000495201084D520108515201085552010868
:1000F000595201085D520108615201086552010818
:10010000695201086D5201087152010875520108C7
:10011000795201087D5201082B2E010881520108F5
:1001200085520108895201088D5201089152010837
:1001300095520108352E0108995201089D52010877
:10014000A1520108A5520108A9520108AD520108A7
:10015000B1520108B5520108B9520108BD52010857
:10016000C1520108C5520108C9520108CD52010807
:10017000D1520108D5520108D952010800000000EF
:10018000DD5201082DE9FE4F0500DFF85C6C686860
:1001900030606889142804DA280001F07DFFBDE88A
:1001A000F78FDFF804773968786902F0A3F900283F
:1001B00004D1387D10F0F000E02800D1ECE7306881
:1001C000808902F0BDF980B2000BC0B28100080046
:1001D000C0B2142805DB28890A00D2B292B290423C
:1001E00000D2D9E7DFF8C4460800C0B21438208036
:1001F000DFF8BC860020C8F8000068890A00D2B287
:1002000092B290420AD32088DFF8A8261080C9B2A3
:10021000494209B2280001F033FF4DE02868002868
:1002200008D1DFF8F43BB222DFF88C16DFF8EC0BD4
:1002300002F09CF97FF01301280001F021FFDFF8A4
:10024000740669890180218804880C1BB0F90010AC
:1002500009B2494209B2280001F012FF286840891A
:10026000210089B2884297D328684068C8F8000006
:10027000210009B2494209B2286801F001FF28892A
:10028000041B2C816889002808D0DFF88C3BCF2222
:10029000DFF88C1BDFF8840B02F068F928892968E5
:1002A0000989884208D0DFF8703BD022DFF8741B40
:1002B000DFF8680B02F05AF93068008802F040F964
:1002C000316808803068408802F03AF93168488027
:1002D0003068406802F03CF931684860DFF8D01BB4
:1002E00008603068806802F033F931688860DFF8B0
:1002F000C48BC8F800003068C08902F021F9316869
:10030000C8813068808902F01BF910F03F00DFF8E7
:10031000A81B0870DFF8A00B007810F0030F01D0C5
:10032000012000E00020DFF8949B29894018A9F8FB
:1003300000005FF0000BDFF888ABDAF8004001E066
:10034000A346E468002C58D0207D002808D1DFF8AF
:10035000C83AE222DFF86C1BDFF8C00A02F006F9A7
:10036000207D0A2808D1DFF8B03AE322DFF8581BD5
:10037000DFF8A80A02F0FAF8207D012808D1DFF89A
:10038000983AE422DFF8441BDFF8900A02F0EEF816
:10039000208B316809888842D2D1E08A3168498847
:1003A0008842CDD1606839698842C9D120687969AD
:1003B0008842C5D1E068A04208D1DFF85C3AEC225F
:1003C000DFF80C1BDFF8540A02F0D0F8BBF1000F85
:1003D00007D0E068CBF80C00DAF80000E060CAF85B
:1003E0000040E068A04208D1DFF82C3AF422DFF8A0
:1003F000E41ADFF8280A02F0B9F8002C55D1DFF82A
:10040000D80A046800E0E468002C24D0207D0A2883
:1004100008D0DFF8043AFE22DFF8C01ADFF8FC0942
:1004200002F0A4F8208B316809888842EBD1E08A79
:10043000316849888842E6D1606839698842E2D1EA
:10044000206879698842DED1200000F0EBF92800AD
:1004500001F022FEA3E60022DFF8843A186806E0E5
:10046000002813D00168002910D00200C0680028BD
:100470000CD0C18AD6F800C0BCF802C06145F4D1E6
:100480000168D7F814C06145EAD1FFE700280CD015
:10049000002A04D0C168D1601968C160186000F0FA
:1004A00035F9280001F0F8FD79E6002C00F0EF8026
:1004B000DFF8307A00203860288938817D60306824
:1004C000F860DFF8246A00203060DFF8208A00201E
:1004D00088F80000DFF818BA0020ABF80000DFF859
:1004E000D8090078000703D5687B50F001006873D5
:1004F000606F002813D0200002F036FE10F10D0FBF
:1005000006D0606F00280AD0B9F80000002806D095
:10051000608D002802D1200003F05AFEA8E0DFF829
:10052000D4592C60200000F0C9F940B210F10D0F31
:1005300000F09E8098F80000000712D5D4F88C00D7
:10054000002805D07FF00D012069D4F88C20904759
:100550002100504602F0EFFF2100012004F045FA8F
:1005600086E00020BBF80000002813D0BBF8002074
:10057000E06F002805D092B221002069E36F984710
:1005800000E000207FF00C0140B2884270D00020D3
:10059000ABF80000200000F098F8002868D130681F
:1005A000002833D0606F002809D0DFF86C384FF492
:1005B000D272DFF84419DFF8640801F0D7FFA07E9B
:1005C000C00606D5306801F067FD200002F0CCF9C6
:1005D0004EE0D4F88000002807D0002332682100C4
:1005E0002069D4F880C0E04705E00023326821008C
:1005F000002002F02FFE01007FF00C0249B2914270
:1006000036D040B2002801D03068606798F800000A
:10061000800608D5606F00280DD0606F407B50F0D9
:100620002000616F487300202860200000F04DF822
:1006300000281AD01CE0208DB0F5066F02D0208D66
:10064000401C2085D4F88000002807D00023002219
:1006500021002069D4F880C0E04700E000207FF04E
:100660000C0140B28842DED102E0200003F0F0FD30
:100670000020DFF8801808600020306078680028CB
:1006800022D0786801F008FD002078601CE0306816
:10069000808901F055FF400713D43068008801902D
:1006A00030684088009017F1100317F11402DFF84A
:1006B00000080168B9F800004118D8F8000003F0FC
:1006C0007DFF280001F0E8FC69E510B50400DFF8C3
:1006D0001C080078C00617D5A07EC00609D4D4F83F
:1006E0008C00002805D07FF00E012069D4F88C2002
:1006F00090472100DFF8C80702F01DFF210001200C
:1007000004F073F9012000E0002010BDFEB50500E3
:10071000DFF8A4070178490700F183800178C90652
:1007200019D56148DFF8C0160A6812880192096875
:100730004988009110F1100310F11402DFF87007DE
:100740000168DFF8780700884118DFF8680700685B
:1007500003F034FF65E00078800762D5687D02F021
:1007600005FE0400002C0CD1A869002806D05FF01B
:10077000FF3200212869AB69984701E07FF00F0044
:100780004FE049484169216000696060E88AE08281
:10079000DFF8546630680088208303202075DFF876
:1007A00010773868401C6062606AE062200002F0E6
:1007B00010FF6065E0646064A0653868401E2065D5
:1007C00028692061A567287A10F00C002072DFF8F4
:1007D000F0060168E160046004F041F90120DFF8EF
:1007E0001C170870200001F0FCF83068C089A4F8DC
:1007F0005C00B4F85C00A4F85E00211D608E02F07D
:10080000F5FE60861221200003F021FC40B2002892
:1008100004D00021200002F02DF802E0200003F0B7
:1008200017FDF7BD1CB5DFF890160A7852073AD4C9
:100830000A78920725D5DFF878462268416A521A6D
:10084000002A25D42268416A521A018D521A012ABF
:100850001EDA1548DFF890150A68128801920968B7
:100860004988009110F1100310F114022168DFF89B
:100870004C0600884118DFF83C06006803F09EFE35
:1008800011E00978C90703D5DFF874160968016219
:10089000DFF828160988002905D0817E51F0020171
:1008A000817603F0D5FC13BD60ED002050EF0020F1
:1008B0000CEF002052EF0020184F01083EB5050054
:1008C00000200021DFF8F0452178490741D5297D36
:1008D000022907D1DFF8DC150968EA6C914219D1C9
:1008E000012017E0DFF8C82511686B6A994201D131
:1008F00001200FE01368696A5B1A002B0AD41268A2
:10090000696A521A298D521A012A03DAA97E51F016
:100910000201A976C0B2002819D0287D002809D18B
:10092000DFF8F43440F2E722DFF8D815DFF8EC0402
:1009300001F01CFEDFF8B405017851F008010170E8
:10094000A87E10F0FE00A8767FF00D0063E2002084
:1009500061E2207880070BD5287D022808D0287D09
:10096000032805D0A87E50F00200A876002052E2AD
:10097000A87EC00603D4DFF888050068286200203E
:1009800085F89600280001F02CF8287D022814D064
:10099000C0F04082042800F06B81C0F0CE800628B1
:1009A00000F0C281C0F07281082800F0EB81C0F035
:1009B0005F81092800F01A822CE2207810F01200E2
:1009C000122840F09480DFF8EC1408686A6C521C1E
:1009D000904240F08C80DFF8D8040268521C6A62B2
:1009E0006A6AEA6209686964DFF8FC130968C98900
:1009F000A5F85C10B5F85C10A5F85E100068401E04
:100A0000286504202875291D688E02F0EFFD688690
:100A100041F21D10698E4900814202D3698E49005E
:100A200001E041F21C116A8E92008A4203D2688E64
:100A300080B2800009E0698E4900814203D3688E4C
:100A400080B2400001E041F21C10A5F84800B5F862
:100A50006200002809D1DFF8C03340F21A32DFF813
:100A6000A814DFF8B80301F081FDB5F86200401E5C
:100A7000A5F86200EC6E002C0FD1AC6E002C09D1F1
:100A8000DFF8943340F22232DFF88014DFF88C0371
:100A900001F06CFD2068A86601E02068E86620008F
:100AA00002F0B4FBE86E002803D15FF0FF30288627
:100AB00004E000202886002085F84200D5F8840054
:100AC000002807D0002229002869D5F884309847EB
:100AD000010000E000217FF00C00020049B29142C9
:100AE00000F09981A87E50F00200A87624E02078DA
:100AF000C00621D5DFF81804BB490A6812880192A4
:100B000009684988009110F1100310F11402DFF810
:100B1000A0030168DFF8A40300884118DFF89403FC
:100B2000006803F04BFD95F84200062804DA002027
:100B30002886280003F0C8FD6CE12078C00640F14B
:100B40008A80DFF870432168686C091A491E002901
:100B50006CD42168E86C091A012967DA0420287529
:100B6000A86F00280BD0A86F8069002807D1AA4B76
:100B700040F25132DFF89C13A84801F0F7FCA86F4F
:100B8000002802D17FF005010DE0A86F80690028E0
:100B900007D0002229002869AB6F9B6998470100A4
:100BA00001E07FF00F01080040B2002809D049B2EF
:100BB00011F10D0F02D0280001F0D6FE7FF00C00DD
:100BC00029E1280000F0A8F9DFF82413088800289C
:100BD00002D00888401E088041F21D10698E49002D
:100BE000814202D3698E490001E041F21C116A8EF4
:100BF00092008A4203D2688E80B2800009E0698E3A
:100C00004900814203D3688E80B2400001E041F286
:100C10001C10A5F84800B5480078800627D5A87EA6
:100C200050F00200A8760720287520E0B8486E49E9
:100C30000A681288019209684988009110F110032E
:100C400010F114029A4801689C48008841182068F5
:100C500003F0B4FC0BE02078800708D594480068C6
:100C6000696A491E884202D1280003F04BFDD1E099
:100C7000280000F051F99D480078800605D5A87E2F
:100C800050F00200A87607202875C3E0280000F085
:100C900043F996480078800638D52078C0062ED5CE
:100CA00084480068E96C884229D1A86E002826D1C2
:100CB000A87E50F00200A876280002F013FC8048BD
:100CC0000168A94203D10168C968016009E00068B0
:100CD00000E0C068002804D0C168A942F9D1E968E1
:100CE000C1600020E8600120844908700A2028754E
:100CF00079480168E960056003F0B1FE13E0A87E61
:100D000050F00200A876082028750CE02078C00674
:100D100009D568480068E96C884204D1A86E0028AB
:100D200001D10620287575E0280000F0F5F86F481D
:100D30000078800625D5A87E50F00200A87628000D
:100D400002F0D0FB5E480168A94203D10168C9687E
:100D5000016009E0006800E0C068002804D0C168B4
:100D6000A942F9D1E968C1600020E8600120634927
:100D700008700A20287558480168E960056003F08A
:100D80006EFE47E0280000F0C7F82078C00629D59D
:100D900048480068E96C884224D1A86E002821D117
:100DA000280002F09FFB46480168A94203D1016870
:100DB000C968016009E0006800E0C068002804D04C
:100DC000C168A942F9D1E968C1600020E86001204A
:100DD0004A4908700A2028753F480168E9600560A3
:100DE00003F03DFE16E000BF08EF0020280000F0F1
:100DF00093F82078C0060CD52E480068E96C88422C
:100E000007D1A86E002804D13848017851F01001AC
:100E10000170FFE700203EBDFC290108443E0108A7
:100E2000E05001089045010838B505000C00E8685D
:100E3000808901F085FBC00716D5200002F0DDF99E
:100E4000002432E0E068808901F07AFBC00707D512
:100E5000012001F075FBE96889890843E968888108
:100E60002000246802F0D2F9002C0AD01048016852
:100E700028894118E0684068091A2089091A002960
:100E8000E0D5002C11D00A490A6828898218E06848
:100E90004068121A012A08DBE06842680868121AE2
:100EA0002A812989686800F0E8FF2C6031BD0000C4
:100EB00010EF002014EF002062EF002058EF002018
:100EC00000EF00206C3E010880390108943E0108C3
:100ED000AC390108D839010804EF002008370108AF
:100EE000FCEE002008EE002018EF002063EF002049
:100EF00056EF00201CEF0020144A01085FEF00208D
:100F0000F4EE0020B0450108184C0108984D010886
:100F100060ED0020D04501082DE9F84306000025CA
:100F2000307D042809DADFF8503B4FF48162DFF8A6
:100F30004C1BDFF84C0B01F019FBDFF8480B007875
:100F4000C00640F1EC81B6F85C10706D4118DFF816
:100F5000382B336D10681B1A002B18D4306D1368B2
:100F6000984206D1736DDFF8240B00681B1A002B22
:100F70000DD4706DDFF8143B1B68984233D1B6F87E
:100F80005C00DFF80C3B1B68DB8998422BD2DFF852
:100F9000000B0068C089A6F85C00B6F85E00B6F8E1
:100FA0005C30984203D2B6F85C00A6F85E00106888
:100FB0003065DFF8D80A00687065B6F85C00002874
:100FC0000AD196F8950000280DD1002086F89400EB
:100FD000012086F8950006E096F89500002802D0DA
:100FE000002086F89500DFF8A44A2268706C121A77
:100FF000012A42DADFF89C0A0088002836D1726D97
:10100000B6F85C0082188A4230D1B6F93000002868
:101010002CD4706C2168884228D1012596F84300B1
:1010200096F84310491CC9B2884204D296F843008E
:10103000401C86F8430096F8430004280FDBB6F8FE
:101040004810B6F84820708E821892B291420DD2A4
:10105000B6F84810708E4118A6F8481006E096F8C9
:101060004300032802D1300003F07DFB002D40F047
:101070000081002086F84300FBE02168706C091AAB
:10108000491E002900F1B0802168F06C091A01297D
:1010900080F2AA80B07E400707D5B07E10F0FB003A
:1010A000B076B6F84A00A6F84800002086F842005C
:1010B000B6F93C00B6F93E1011EBE001A6F840107D
:1010C000002086F8430020687064307D042863DBCC
:1010D000B6F84800B6F84A1088420FD2B6F8481061
:1010E000B6F84820708E821892B2914254D2B6F867
:1010F0004810708E4118A6F848104DE0B6F8481018
:10110000728E708E4243B6F8480092FBF0F04118A0
:10111000B6F848000A0092B290423DD2A6F84810B4
:101120003AE0F56EF06E0068F066686801F030F83D
:10113000B6F8621080B2814209D2DFF83C3940F241
:101140009E42DFF85419DFF8380901F00FFA686899
:1011500001F01EF8B6F86210081AA6F86200DFF86F
:101160003C190A88288982180A80280002F04EF863
:10117000B6F8620000280FD0F06E00280CD1B06ED7
:10118000002809D1DFF8F03840F2A742DFF8101943
:10119000DFF8EC0801F0EAF9F06E002818D0F06EE4
:1011A000C068406801F0D4F90500F06EC06880891D
:1011B00001F0C6F910F0030F01D0012100E0002179
:1011C000F06E008945194D1920682D1A012DA8DBF4
:1011D000F06E002803D15FF0FF30308601E0002080
:1011E00030860020F07644E0300002F0F1FF40E06D
:1011F000B56EB06E0068B066B06E002802D10020F7
:10120000A6F86400686800F0C3FFB6F8621080B208
:10121000814209D2DFF8603840F2D542DFF8781811
:10122000DFF85C0801F0A2F9686800F0B1FFB6F8D9
:101230006210081AA6F86200DFF860180A88288988
:1012400082180A80280001F0E1FFB6F86200002849
:101250000FD0F06E00280CD1B06E002809D1DFF855
:10126000183840F2DD42DFF83818DFF8140801F0D2
:101270007DF9B06E00281DD0B06EC068406801F0E6
:1012800067F90500B06EC068808901F059F910F067
:10129000030F01D0012100E000212068451BB06E42
:1012A00000892D1A6D1A002D04D42168F06C091ADA
:1012B00001299DDBB6F86010DFF8E00700884118CF
:1012C000A6F86010706B002829D0B16B2068091A4D
:1012D000002924D5DFF8CC070168706B081A00B22A
:1012E000B6F93C10B0EBE100B18F4118B1870100B5
:1012F00009B2002901D500B2404200B2B6F93E1051
:10130000B0EBA100F18F4018F087B6F93C00B6F9B8
:101310003E1011EBE001A6F8401000207063DFF8EA
:101320007487B8F80000002800F02683307D072875
:1013300080F22283DFF85077716A3868091A491EF3
:10134000002900F18080716A3868091AB8F8000035
:10135000091A491C012976DADFF84C476568706A7A
:10136000D7F80090B0EB09096068002809D1DFF8D0
:10137000083740F23C52DFF83417DFF8040701F079
:10138000F5F847F6FF70814509DBDFF8EC3640F2EF
:101390003D52DFF81C17DFF8E80601F0E7F8606857
:1013A0004089484530DA60680089484509DADFF845
:1013B000C83640F23F52DFF8FC16DFF8C40601F0F1
:1013C000D5F860680189B1EB090106E06889B9EBDD
:1013D00000092981002068812D6868894845F5DB6E
:1013E000D9F10009494609B2280000F049FE002859
:1013F0001DD0DFF8843640F24C52DFF8BC16DFF81F
:10140000800601F0B3F812E0D9F10009494609B2AB
:10141000606800F035FE002809D0DFF85C3640F245
:101420005152DFF89416DFF8580601F09FF8218931
:10143000726A3868121A891A2181706A38603868AD
:10144000E168486008E03968706A091A002903D524
:10145000B07E50F00200B0763968706A091A00292F
:1014600000F186823968706A091A308D091A491CA0
:10147000012980F27D82706A3968884240F0968145
:10148000DFF82456E868808901F05AF810F0030F5D
:1014900001D0012000E0002029894018A8F80000B0
:1014A000308DB8F80010884245D2E868808901F094
:1014B00047F8C0070FD5E868808901F041F810F0BF
:1014C0003E0001F03DF8E9688A894CF2FF010A40CC
:1014D0001043E9688881308D2881E868808901F0AF
:1014E0002FF8800702D52889401E2881298968683D
:1014F00000F0C3FCE868808901F022F810F0030FC7
:1015000001D0012000E0002029894018A8F800003F
:101510003968B8F800004118726A308D821891421B
:1015200009D0DFF8543540F27F52DFF89015DFF82C
:10153000500501F01BF8306F002800F08380E86848
:10154000808900F0FDFFC00709D5306F002879D0F1
:10155000306F316F0968316701F058FEF5E7346F7D
:1015600025E000201BE0E068808900F0E9FFC0076B
:1015700019D5E868808900F0E3FF800713D40120C3
:1015800000F0DEFFE96889890843E9688881E86836
:10159000808900F0D5FF10F0030FE2D001202989E7
:1015A0004018A8F800002000246801F02FFE002C4D
:1015B0000AD03968B8F800004118E0684068091A94
:1015C0002089091A0029CED5002C3AD03968B8F8FC
:1015D00000004118E0684068091A012931DBE06821
:1015E00041683868091A2981E868808900F0A8FFF5
:1015F000800702D52889401E28812989686800F063
:101600003CFCE868808900F09BFF10F0030F01D0DC
:10161000012000E0002029894018A8F8000039685E
:10162000B8F800004118E0684068814209D0DFF84E
:10163000483440F2AF52DFF88814DFF8440400F079
:1016400095FF34673968B8F8000041187162308D31
:10165000B8F80010884209D2DFF81C3440F2B952C1
:10166000DFF86014DFF8180400F080FF318DB8F85F
:101670000000091A3185300001F0E1F9686800893D
:10168000002805D06868DFF8401408600020686012
:10169000E868808900F054FFC00737D5DFF82C04D4
:1016A000017851F02001017030E06068106015E0B1
:1016B0000021328D2089121A511A3185300001F033
:1016C000BEF96068008900280AD0DFF8FC231068A2
:1016D0000028EAD06168106800F07CFD002060609E
:1016E000E068808900F02CFFC0070AD5DFF8DC0332
:1016F000017851F020010170307D042801D10720CC
:10170000307520683067200001F080FD306F0028C0
:101710003BD0306FC0684068716A884235D1346F01
:10172000306FC06840683860E068808900F008FF6A
:1017300010F0030F01D0012000E00020716A22891F
:10174000801840187062E068808900F0F9FE10F09F
:10175000030F01D0012000E00020318D2289801884
:10176000814209D2DFF8103340F2DE52DFF8601315
:10177000DFF80C0300F0FAFEE068808900F0E0FE7C
:1017800010F0030F94D0012193E7B07EC00708D575
:10179000B07E10F0FE00B076B07E50F00200B07661
:1017A00003E0B07E50F00100B076F7E0300002F0C8
:1017B0000FFD306F002804D1BB4801F036FD3067C3
:1017C000ECE00024356F0AE02868002805D139686C
:1017D000E8684068091A012959DA2C002D68002DA3
:1017E00000F0DC803868E9684968884211D0002C34
:1017F00022D13968E8684068091A0029E4D5AA4866
:1018000001F013FD002803D030672900FFF70CFB1F
:10181000C4E0A5482989028991420CD201F005FD56
:10182000002807D0002C01D0206000E0306729009C
:10183000FFF7FAFAB2E0B1E03968E0684068091AE7
:10184000491E0029C0D43968E8684068091A491C53
:101850000129B9DA944801F0E8FC0600002E15D001
:10186000E0684168208941183868091A012908DBB5
:101870003968E0684068091A21812189606800F0B0
:10188000FCFA266029003000FFF7CEFA86E0E8680F
:10189000808900F055FEC00700F18080824801F089
:1018A000C4FC28602868002861D0E868416828895D
:1018B00041183868091A012908DB3968E868406866
:1018C000091A29812989686800F0D7FAB8F8001048
:1018D00038684118706A091A308D091A012946DBE7
:1018E0002868C068808900F02BFEC00712D52868E0
:1018F000C068808900F024FE10F03E0000F020FE59
:101900002968C9688A894CF2FF010A401043296896
:10191000C9688881716A308D41183868091A286849
:101920000181286801892868406800F0A6FA2868C3
:10193000C068808900F004FE10F0030F01D0012080
:1019400000E00020296809894018A8F800003968DB
:10195000B8F800004118726A308D8218914206D0A2
:10196000454B40F27B625549454800F0FFFD15E0CC
:10197000300002F02DFC11E043490A68706A121A27
:10198000002A07D40968706A091A308D091A491C9F
:10199000012903DBB07E50F00200B076BDE8F18390
:1019A00010B44C490868002805D04B484B4A1388AE
:1019B0000488A3420AD23648006810F1140147484F
:1019C0000288531C038092B2885C08E01388008868
:1019D000181A13885B1C13800968C0B2085C10BC1D
:1019E0007047F8B504003E4D288800283DD03B4E96
:1019F00000203080FFE730882988884235D2FFF701
:101A0000CFFFC0B200280ED002280DD0F3D3FFF7CD
:101A1000C7FF0100C9B2022926DB3188C0B2801E8F
:101A200041183180E7E720E0FFF7BAFF042804D12E
:101A300028883188891C884200DA16E0FFF7B0FF59
:101A400007003F02FFF7ACFF0743380080B240F2C7
:101A50001921884203DA380080B2002802D14FF4FD
:101A60000677FFE76786C6E7FFE7F1BD174801780D
:101A700051F0100101707047FC290108304A01083B
:101A8000443E010862EF002010EF002014EF002018
:101A900008EF002058EF0020BC3E010856EF002060
:101AA000F0450108F4EE002008EE0020284F010860
:101AB000384F0108484F0108AC4D0108E4310108D6
:101AC0004C3001081046010818EF002063EF002099
:101AD000E43E01080CEF002052EF002054EF0020FC
:101AE00050EF002010B503F0D7F90021DFF874297A
:101AF000117003F0DAF9DFF87409046800E0E468B3
:101B0000002C08D0206F0028F9D0206F01F075FB61
:101B100000202067FFE710BD80B5FFF7E3FF01BDA0
:101B200038B503F0B9F9DFF83C4925780121217077
:101B300003F0BBF9EDB2002D0DD100220021DFF83A
:101B4000300903F04EFA002805D003F0A5F9002172
:101B5000217003F0AAF931BD2DE9F0410E00170004
:101B6000C0B2002806D002281ED01BD304281FD0E4
:101B70001CD31FE036253800C0B2002800F0DD80FD
:101B8000022800F01681C0F01481032840F0228161
:101B90000C2002F0FDFE0400002C17D1FFF7C0FF5F
:101BA0000020C8E02225E6E70E25E4E70025E2E76D
:101BB0000025E0E7DFF8BC384FF48B72DFF8A81897
:101BC000DFF8B40800F0D2FC0020B4E02773002056
:101BD0002060280080B220441030C01C80088000A3
:101BE0006060207910F0030F09D0DFF8883840F2E8
:101BF0002912DFF88818DFF8800800F0B7FC26818A
:101C0000300080B2290089B2C91C89088900D1F549
:101C10001471884201D2310007E0290089B2C91C41
:101C20004FF6FC700140D1F51471618114F5187004
:101C3000616862891144884209D2DFF838384FF46C
:101C40009872DFF83C18DFF8300800F08FFCADB276
:101C5000ED1CAD08AD00D5F51475002D09D1DFF8E8
:101C600014384FF49972DFF81C18DFF80C0800F0F4
:101C70007DFC0120E081A046B6B26089361A46E0BC
:101C80004FF414701BE02F7300206873002028604D
:101C9000C8F800504FF6FF70864209DBDFF8D437F2
:101CA0004FF4A672DFF8E017DFF8CC0700F05EFC17
:101CB0002E81300080B2B0F5147FE1D2300068810F
:101CC00015F110006860287910F0030F09D0DFF8D3
:101CD000A4374FF4A972DFF8B417DFF89C0700F0BF
:101CE00045FC14F51870616862891144884209D274
:101CF000DFF8803740F25512DFF88417DFF87807F5
:101D000000F034FC0120E8816889361AA846012ECB
:101D10000CDB0C2002F03CFE0500002DB3D1FFF7D8
:101D2000FFFE200000F0B8F9002004E00120E0816F
:101D3000002060732000BDE8F08115F113004FF61C
:101D4000FC710840320092B2D21C4FF6FC710A407E
:101D50001018010089B2320092B2D21C920892008F
:101D6000914201D20020E6E780B203F065FB040057
:101D7000002C01D10020DEE7ADB204EB05001030ED
:101D8000C01C80088000606026812089608100205E
:101D900020602773207910F0030F09D0DFF8D436C4
:101DA00040F27712DFF8E816DFF8CC0600F0DEFB31
:101DB000BCE70B2002F0ECFD0400002C01D1002058
:101DC000B9E70020606026812089608100202060C2
:101DD0002773ABE7DFF89C364FF4C672DFF8B41612
:101DE000DFF8940600F0C2FB0020A4E770B5040001
:101DF0001800E4B2002C06D0022C15D012D3042C0B
:101E000016D013D316E03625059B9BB22E00B6B232
:101E1000F61CB608B6000C00A4B2A619B34215D23F
:101E2000002029E02225EFE70E25EDE70025EBE76E
:101E30000025E9E7DFF83C3640F2C512DFF8581616
:101E4000DFF8340600F092FB002015E0049B00242C
:101E50000460002B06D0ADB2ED1CAD08AD002B44E4
:101E6000436001E000234360022343730181018941
:101E7000418102730121C18170BD70B504000D0064
:101E8000002C09D1DFF8EC3540F2F312DFF80C1624
:101E9000DFF8E40500F06AFB207B032812D0207BEA
:101EA00001280FD0207B00280CD0207B022809D0ED
:101EB000DFF8C03540F2F712DFF8E415DFF8B805B7
:101EC00000F054FB2800218980B2884253D22800B8
:101ED00080B22689861B1FE060892D1A4FF6FF709D
:101EE000864209DBDFF88C3540F20B22DFF8B415AF
:101EF000DFF8840500F03AFB20893018208124683F
:101F0000002C09D1DFF86C3540F20F22DFF898156C
:101F1000DFF8640500F02AFB6089290089B2884255
:101F2000DAD3207B00281BD12800618980B2884247
:101F300016D0607B800713D46168091B691889B2C9
:101F4000200003F0CBF90400002C09D1DFF8243580
:101F500040F21D22DFF85415DFF81C0500F006FBE7
:101F60006581608920812068002802D0206800F007
:101F700093F80020206070BD70B504000E001500BD
:101F8000002C09D1DFF8EC3440F23F22DFF82015B5
:101F9000DFF8E40400F0EAFA300000B2002801D0D3
:101FA000002C01D100204EE0300000B2002814D5F2
:101FB00033001BB25B426089190089B288420BD2A0
:101FC000DFF8B03440F24722DFF8E814DFF8A80465
:101FD00000F0CCFA012036E001E033009BB2217B17
:101FE0006268080080B2002803D0080080B203288D
:101FF0000DD16068310009B24942084460606068F0
:1020000014F11001884217D2626001201BE0080021
:1020100080B2022802D089B2012925D1300000B255
:10202000002811D560899BB298420DD360683100B9
:1020300009B2494208446060608930186081208993
:1020400036182681002070BD300000B2012809DB5F
:10205000EDB2002D06D06068310009B24942084453
:102060006060E9E70120EEE7DFF8083440F277220C
:10207000DFF84414DFF8000400F078FA0120E2E70A
:1020800080B5002209B2FFF777FF02BD80B50122BB
:1020900009B2FFF771FF02BDF8B50400002C0DD1A5
:1020A000002C09D1DFF8CC3340F2D222DFF8001443
:1020B000DFF8C40300F05AFA002068E0207B002813
:1020C00012D0207B01280FD0207B02280CD0207B4F
:1020D000032809D0DFF89C3340F2DE22DFF8DC135E
:1020E000DFF8940300F042FA002504E0200003F03A
:1020F000A3F86D1C3400002C47D002F0CDFE070081
:10210000E089002809D1DFF86C3340F2EB22DFF8D8
:10211000B013DFF8640300F029FAE089401EE08183
:10212000E689380002F0C1FEB6B2002E2BD1266837
:10213000207B617B890711D527003869002809D1E8
:10214000DFF8303340F2F922DFF87813DFF82803A4
:1021500000F00CFA200039698847CAE7010089B20B
:10216000032904D121000C2002F03FFCC1E701004B
:1021700089B2012902D080B20228B7D121000B20F8
:1021800002F033FCB5E70024B5E72800C0B2F2BD89
:102190000100002001E0401C09680029FBD180B249
:1021A000704710B50400002C13D002F075FEE189D1
:1021B000491CE18102F079FEE089002809D1DFF8AD
:1021C000B43240F23932DFF80013DFF8AC0200F02D
:1021D000CDF910BD38B504000D00002C01D0002D44
:1021E0000AD1DFF8903240F24D32DFF8E012DFF82A
:1021F000880200F0BBF928E004E021892889411811
:102200002181246820680028F7D1208961898842CB
:1022100009D0DFF8603240F25532DFF8B412DFF84F
:10222000580200F0A3F92068002809D0DFF84432F2
:1022300040F25632DFF89C12DFF83C0200F096F9CB
:102240002189288941182181256031BD10B50C00F4
:102250002100FFF7BFFF2000FFF7A3FF10BD2DE90E
:10226000F84305000C0000270026002D05D0002CA7
:1022700003D02889218988420CD2DFF8F83140F256
:10228000BD32DFF85412DFF8F00100F06FF97FF093
:102290000F0069E06989380080B2091A628930004C
:1022A00080B2121A914204DBB4F80A80B8EB060837
:1022B00003E0B5F80A80B8EB0708424692B26068BE
:1022C000310089B2014468683B009BB200EB03090E
:1022D000484603F093F918EB070718EB06066889E0
:1022E000390089B2884209D2DFF8883140F2CD3214
:1022F000DFF8E811DFF8800100F038F9608931007B
:1023000089B2884209D2DFF86C3140F2CE32DFF870
:10231000D011DFF8640100F029F93000618980B242
:10232000884201D3002624683800698980B2884237
:1023300005D100272D68002D01D1002C16D1002CCD
:1023400006D060892189884202D12068002818D1EE
:10235000002D06D068892989884202D12868002882
:102360001AD1002C96D10020BDE8F283414B4FF4E6
:102370007672DFF87011404800F0F8F87FF00F0037
:10238000F2E73C4B40F2DE32DFF85C113A4800F0F5
:10239000EDF87FF00500E7E7364B40F2E332DFF877
:1023A0004811354800F0E2F87FF00500DCE72DE940
:1023B000F04704000D0090460027002C08D12D4B5B
:1023C00040F2FE3249492C4800F0D0F8002046E0A7
:1023D000002D08D1274B40F2FF324549264800F036
:1023E000C5F800203BE00026002C01D0002D01D1D3
:1023F000002034E02BE0B4F80A90B9EB0309404622
:10240000494680B289B2884200D2C1464A4692B259
:1024100060689BB200EB0301300080B205EB000A5C
:10242000504603F0EBF819EB070719EB0606B8EB7B
:10243000090800230AE0180080B20028DBD0180049
:10244000618980B28842D6D360891B1A24684046CD
:1024500080B2002801D0002CEDD1380080B2BDE858
:10246000F08700005DEF00203449010800EF0020F4
:10247000191B000888290108DC3C0108B83501084F
:10248000C4330108F83301085C4D0108E835010840
:102490007838010850490108D4410108584B010817
:1024A0006C490108704D0108704B0108884901080A
:1024B000C850010830450108A84E0108884B0108A2
:1024C000A04B0108F8410108844D0108AC31010816
:1024D00018360108B84E010848360108B84B010803
:1024E000A4490108C84E0108A43801085045010854
:1024F0001C42010810B40300C243002A01D0002886
:1025000001D101201AE091F82B20920701D400207C
:1025100014E04A68904201D100200FE08A6813401D
:102520004C688A681440A34207D18A68904389683E
:10253000C943884201D1012000E0002010BC70474F
:102540000100080080B2000A50EA012080B2704702
:102550000100080210F47F0050EA01600A00120A2C
:1025600012F47F42104350EA116070470EB4C0B5B8
:10257000024603A800210190009101AB012104480B
:1025800078440C3003F0CAF806BC5DF810FB00BFBD
:1025900031270100704780B500F0A4FDDFF8140773
:1025A0000178491C01700078C00701D500F092FB4A
:1025B00001BD05E0826F8A4201D100228267C068B6
:1025C0000028F7D1704738B50400002C08D1DFF897
:1025D000E836C022DFF8E416DFF8F80AFFF7C6FF96
:1025E000207D012808D0DFF8D036C122DFF8D016D0
:1025F000DFF8E00AFFF7BAFF012508E02100DFF865
:10260000D80A50F825000068FFF7D3FF6D1C042D91
:10261000F4D331BD1CB50400C9B200295AD0207DC5
:10262000042802D0207D072854D1606F002803D1F0
:10263000208DB0F5066F4DD0A07EC00609D4DFF81E
:10264000783640F20F12DFF87C16DFF8880AFFF7C1
:102650008DFF208B0190E08A0090231D2200616A8B
:10266000E06C01F0ABFF200000F03CFFDFF8580603
:102670000168A14203D10168C968016009E00068EE
:1026800000E0C068002804D0C168A142F9D1E16827
:10269000C1600020E0600120DFF8C01A0870207DD2
:1026A000042809D10A202075DFF820060168E160BE
:1026B000046002F0D4F90BE0DFF814060068A042D1
:1026C00002D1FFF7D3F903E02100012002F08DF9D8
:1026D000002023E0207D002803D002282CD01ED328
:1026E00038E0E08A002814D0DFF8F0090168A14240
:1026F00003D10168C968016009E0006800E0C068B2
:10270000002804D0C168A142F9D1E168C16000206D
:10271000E0602100012002F068F9002016BD2000D1
:10272000FFF751FF2100DFF8B80900F004FF210096
:10273000022002F05AF9F0E72100DFF88C0500F0E2
:10274000FAFE0120DFF8141A08702100012002F0BF
:102750004CF9E2E7200000F001F8DFE738B50400AB
:10276000002C09D1DFF8503540F24D12DFF84C153E
:10277000DFF86009FFF7FAFE207D032804D0042863
:1027800016D007281FD029E0200001F012F805001C
:10279000280040B2002801D105202075280040B251
:1027A00000281DD1200001F053FD280040B232BDA9
:1027B000200000F0FEFF0500280040B2002801D1F3
:1027C00005202075EAE7200000F0F3FF050028004F
:1027D00040B2002801D109202075DFE70020E6E79C
:1027E00028005FF0FF3140B28842DED1A07E50F079
:1027F0000800A0760020DAE780B5017D012903D02A
:10280000817E51F0100181760121FFF703FF02BDA7
:1028100070B506000D001400307D012802D17FF054
:102820000A0026E0002D12D0B07E50F01000B076E5
:10283000002C04D001213000FFF7ECFE19E0706F8E
:10284000002804D0706FFFF727FC00207067002C71
:102850000ED0307DC01E012801D9001F05D12900EE
:10286000C9B23000FFF7D6FE03E07FF00A0000E0B7
:10287000002070BD2DE9FE4F05008B46287D012804
:1028800009D1DFF834344FF4F072DFF8D418DFF8F0
:102890004408FFF76BFE287D0A2809D12900DFF8DC
:1028A0002C0400F048FE2900012002F09EF859E0B7
:1028B00000240026EF6CD5F82480D5F88C90D5F84C
:1028C00010A0287D002818D1E88A002820D0DFF841
:1028D0000C080168A94203D10168C968016009E0D8
:1028E000006800E0C068002804D0C168A942F9D19E
:1028F000E968C1600020E8600AE05C46EE8A2900D1
:10290000DFF8C40300F017FE0120DFF8501808704C
:10291000E86E002802D0E86E00F06FFCA86E002878
:1029200002D0A86E00F069FC286F002802D0286F42
:1029300000F063FC002C09D0288B0190B6B2009601
:102940002B1D2A004146380001F038FE287D290061
:10295000012002F04AF84846002803D07FF00C011D
:102960005046C847BDE8F78F80B50121FFF782FFC9
:1029700001BDF8B505000C000423002C01D1DFF8DF
:10298000E449002D01D0002C02D17FF0050055E074
:10299000287D00280CD0DFF820334FF41172DFF8C7
:1029A000C819DFF83007FFF7E1FD7FF0050045E0CB
:1029B000100080B2002809D100F0B2F80200100027
:1029C00080B2002826D17FF0010037E0002600E029
:1029D000761C9E421EDADFF8000750F826000068D9
:1029E00000E0C0680028F3D0C18A1700BFB2B94226
:1029F000F7D100280BD00168002908D0002C06D0A0
:102A00002168002903D001682768B942E9D17FF025
:102A1000070013E0002C08D02068002805D0002C07
:102A200001D1002000E020682860EA82DFF8AC06CF
:102A30000168E960056002F012F80020F2BD38B5C7
:102A40000400606A218D0818618E40F23142914283
:102A500002DB4FF4866100E0618EE26A821A511A4D
:102A6000002904D4218D6185E16A401A18E0616A69
:102A7000E06A091A012902DB002060850FE0E06AA4
:102A8000656A451BB5F5803F08D38B4B4FF4427206
:102A9000DFF8441ADFF8CC06FFF768FD65850020F3
:102AA00032BD38B504000D00207D012808D1824BCD
:102AB0004FF44872DFF8241ADFF8A806FFF756FD36
:102AC000208D2D182585208D40F66101884203DB7D
:102AD0004FF40660208515E0208D002812D1207D5E
:102AE000072802D0207D092803D14FF406602085F5
:102AF00008E0714B40F22D32DFF8E419DFF864068C
:102B0000FFF734FD2000FFF79AFFB0F5067F06DBE4
:102B1000A07E50F00200A076200001F099FB31BDAC
:102B200030B40021FFE7DFF8BC3A1888421C1A8055
:102B30004FF6FF7280B2904202D14FF440401880AD
:102B4000002200E0521C1000C0B2042816DADFF8A0
:102B500088051400E4B250F82400006800E0C06862
:102B60000028EFD0C48A1D88AC42F8D1491C080067
:102B700080B2B0F5804FD6DB002000E0188830BC72
:102B8000704770B504001E00002C01D0002902D14E
:102B90007FF005008CE0207D00280BD0464B4FF4E1
:102BA0005E72DFF8441ADFF82C05FFF7DFFC7FF0D8
:102BB00009007DE0002901D1002000E00868606084
:102BC0002283002C02D02068002810D1201D03F0A1
:102BD0007FFD002801D0011D00E00021002801D068
:102BE000002902D17FF0030062E008682060E58AD6
:102BF000E08A002808D1FFF793FFE082E08A0028EE
:102C000002D17FF0010053E0200000F0E2FC00213F
:102C10006162E064411E6164411E6165401EA06501
:102C20004FF406606085618D2185616AE162A4F8D8
:102C30005C004FF406706086211D608E00F0D6FCAB
:102C400060860120A4F84800C4F8846002212000B6
:102C500001F0FDF90600300040B2002826D1022024
:102C60002075ADB2002D14D0DFF870040168A142C8
:102C700003D10168C968016009E0006800E0C0682C
:102C8000002804D0C168A142F9D1E168C1600020E8
:102C9000E0600D480168E160046001F0E0FE0120A1
:102CA000DFF8EC190870200001F0D2FA300040B2D1
:102CB00070BD000060EF0020C82B0108D45001084F
:102CC000D04B0108C049010800EF002004EF0020AC
:102CD0001CEF00202DE9FE4F0020DFF8B889D8F85E
:102CE0000000401CC8F80000DFF8AC9999F800001B
:102CF000401C89F8000034E0DAF80000A84209D04E
:102D0000DFF8983940F28D42DFF89419DFF8540467
:102D1000FFF72CFCE868CAF80000F6B2002E09D0D4
:102D2000288B0190E88A00902B1D2A00696AE86CC4
:102D300001F044FC2E69287D2900ED68012001F096
:102D400054FEDFF818B400208BF80000380000288B
:102D500003D07FF00C013000B8479BF8000000283A
:102D600006D00024DFF83CA9DAF8005000E0ED6856
:102D7000002D00F06481287D002809D1DFF81C397E
:102D80004FF47C72DFF82019DFF8D803FFF7EEFB71
:102D9000287D012809D1DFF8043940F2F132DFF84B
:102DA0000C19DFF8C003FFF7E1FB287D0A2809D1E1
:102DB000DFF8E83840F2F232DFF8F418DFF8A40365
:102DC000FFF7D4FB687F99F800108842CFD099F8BC
:102DD0000000687700270026287D022805D195F895
:102DE0004200062801DB7F1C7CE095F842000C289D
:102DF00001DB7F1C76E095F89500002828D0DFF8ED
:102E0000B40895F89510084410F8010C95F8941042
:102E10000200D2B2914204D295F89410491C85F870
:102E2000941095F89410C0B281425BD3280001F051
:102E3000FBFC002856D1002085F8940095F89500F9
:102E400007284FD295F89500401C85F8950049E079
:102E5000B5F93000002802D4288E401C2886E86E80
:102E600000283FD0B5F93000B5F94010884239DB71
:102E7000287D022814D095F842000C2802D295F83B
:102E8000420000E00C20B5F93C10B5F93E2012EBF1
:102E9000E102DFF82418C0B208568240A5F84020AD
:102EA00000202886B5F84800B5F85C10884202D2A8
:102EB000B5F8480001E0B5F85C0080B24008A5F81C
:102EC0004A00B5F84A00698E490089B2884203D2A7
:102ED000688E4000A5F84A00688EA5F848002800D2
:102EE00001F0F2FB287D062809D1A87EC00606D590
:102EF000D8F80010286A091A292900D37F1C287ADB
:102F0000000734D5287D042802D0287D07282ED13B
:102F1000D5F89010DFF8A40741184FF4FA70B1FB10
:102F2000F0F1D8F80020286A121A914202D27F1CD0
:102F3000761C1CE0D5F8901095F89620DFF88007F5
:102F400000FB02114FF4FA70B1FBF0F1D8F8002049
:102F5000286A121A91420AD2280001F039FC40B2C4
:102F6000002804D195F89600401C85F89600286F3B
:102F700000280ED0D8F80010286A091AB5F94020A8
:102F800006204243914204D3286F00F036F9002016
:102F90002867287D032806D1D8F80010286A091A66
:102FA000292900D37F1C287D092806D1D8F80010D4
:102FB000286A091AF12900D37F1CFFB2002F17D00D
:102FC000D5F88C70280000F08DFA002C3FF494AEF8
:102FD000DAF80000854208D1DFF8C03640F28942B5
:102FE000DFF8E0165F48FFF7C1FAE868E06094E6B2
:102FF0002C00ED68E07E401CE076E07E217F884278
:10300000FFF4B6AE0020E076544E00203070D4F8C5
:103010008800002806D021002069D4F88820904735
:10302000010000E00021307800287FF49AAE49B218
:1030300000297FF49DAE200001F00AF998E60024F3
:10304000DFF88466356812E03068A84208D0DFF8FF
:103050004C3640F2CF42DFF874164248FFF786FA4A
:10306000E86830602900ED68012001F0BEFC002D09
:103070002DD0287D0A2808D0DFF8203640F2BD4246
:10308000DFF84C163748FFF771FA0020D8F8002017
:10309000296A521AF12A00D3401CC0B2002813D06A
:1030A000280000F01FFA002CCED03068854208D1ED
:1030B000DFF8E83540F2CB42DFF818162948FFF771
:1030C00055FAE868E060CDE72C00ED68CFE7BDE891
:1030D000F78F0000043D0108084F0108F8EE0020BA
:1030E000FCEE0020F8B5DFF8B0552878401C2870B9
:1030F00026E028786077A07EC0070AD5A07E50F031
:103100000200A076200001F0A3F8A07E10F0FC00E1
:10311000A076A07E000706D5A07E10F0F700A0766E
:103120002000FFF71BFBE668606F00280CD00B4FF8
:1031300000203870200000F017F83878002803D0FD
:10314000DFF86005046800E03400002C05D0607FE3
:1031500029788842CDD1E468F7E7F1BD5FEF002020
:103160002C340108043D0108F8B50400606F467B6B
:10317000656F00206067D4F88000002807D0002326
:103180002A0021002069D4F88070B84705E00023A8
:103190002A002100002000F05DF8010049B200295A
:1031A0001DD1B00627D5208DB0F5066F02D0208D39
:1031B000401C2085D4F88000002808D0002300227D
:1031C00021002069D4F88040A047010000E00021E0
:1031D0007FF00C00020049B291420CD10CE07FF06C
:1031E0000C010A0040B2904201D1080004E065677A
:1031F0007FF0040000E00020F2BD10B503E0046899
:1032000000F004F820000028F9D110BD10B504002A
:10321000002C09D06068002802D06068FEF73CFFEF
:103220002100032001F0E1FB10BD70B50500032073
:1032300001F0AEFB0400002C01D1002009E01022B7
:1032400026002900300002F0D9F96068FEF7A9FFD6
:10325000200070BD10B508001400002C07D0218993
:10326000FFF71FFC2000FEF717FF002010BD5BB228
:10327000002BFAD1FFF7C0FAF8E770B50100C9B228
:10328000802901DB7F20FFE700240022DFF81414EF
:10329000096811E003004D7DDBB2AB420BD3DFF8D0
:1032A000F4532E680B6AF61AA64204D328680C6AF7
:1032B000041B0A00487DC9680029EBD1002A02D00E
:1032C0001000FFF751FB70BD70B504002000C0B2C4
:1032D00008280DD02000C0B2092809D0DFF8BC337F
:1032E00040F2DC52DFF8F013DFF8F003FFF73EF9AD
:1032F00000230022DFF8AC03006810E0017D250008
:10330000EDB2A9420AD1DFF88C532E68016A761A11
:103310009E4203D32968036ACB1A0200C0680028C2
:10332000ECD1002A03D000211000FFF7A3FA70BDF2
:1033300038B500230020DFF8901309680BE0DFF8B0
:10334000544325680A6AAD1A9D4203D320680B6A6C
:10335000C31A0800C9680029F1D1002801D0FFF77D
:1033600003FB31BDA05101082C3D010870B50500DB
:10337000012001F00DFB0400002C21D1FFF7D8FF44
:10338000012001F005FB0400002C19D10920FFF7F2
:103390009BFF012001F0FCFA0400002C10D1082052
:1033A000FFF792FF012001F0F3FA0400002C07D18F
:1033B0002800C0B2FFF761FF012001F0E9FA040024
:1033C000002C2DD0982100222600300003F04CFB69
:1033D00065754FF4E660A4F860004FF406616185FE
:1033E000618D2185FF21A1724FF40671618606214E
:1033F000A4F840100621E1875FF0FF31218601210A
:10340000A4F84810A34909682162A34909786177A3
:10341000A4F84A00B248C4F88000B248C4F890004A
:10342000200070BD80B54020FFF7A0FF02BD00283E
:1034300000D00161704738B504000D00002C0BD09E
:10344000207D012806D1954B40F2BB62A649A348D6
:10345000FFF78CF8C4F8805031BD38B504000D007A
:10346000002C0AD0207D012806D18C4B40F2CC6282
:103470009E499A48FFF77AF8E56731BD000038B5F4
:1034800004000D00002C0BD0207D012806D1834BB9
:103490004FF4DC6296499148FFF768F8C4F88C5005
:1034A00031BD002803D0027D012A00D1816170471F
:1034B00070B504000D001600207D012806D1774B61
:1034C00040F203728B498548FFF750F8C4F88850E2
:1034D000267770BD00000000DC490108543D01085A
:1034E0004042010810B50400207D002822D0207D34
:1034F0000A281FD0207D01281CD0606F002804D02E
:10350000606FFEF7C9FD00206067206FFFF775FE52
:10351000002020675FF0FF302086A06EFFF76DFE71
:10352000E06EFFF76AFE0020A066A06EE066002055
:10353000A4F8640010BD10B50C000168A14203D1CD
:103540000168C968016009E0006800E0C0680028FF
:1035500004D0C168A142F9D1E168C1600020E060F7
:103560002000FFF7BFFF207D0A280CD0207D012816
:1035700009D0A07EC00706D5A07E50F00200A0763C
:10358000200000F065FE207D01281DD0A06E0028DF
:1035900006D0424B40F2537257495048FEF7E6FFBF
:1035A000E06E002806D03D4B40F2547253494B4820
:1035B000FEF7DCFF206F002806D0384B40F2567231
:1035C0004F494648FEF7D2FF002020750020E082D8
:1035D00010BD4C490A682F48006882180A600868C4
:1035E00070470000940100207836010810B50400EF
:1035F000080003F06DF8002802D1200080B210E02E
:10360000B0F92210080000B2002808D0B1F128005B
:103610002100020089B292B2914200D3040020003E
:1036200080B210BD38B50400080003E0C568FFF79C
:103630009BF92800002805D0016822689142F5D046
:10364000C068F7E731BD38B504000D00002C1ED06E
:10365000206800281BD0134801682000FFF7E2FF14
:10366000294801682000FFF7DDFF002D0FD02868F2
:1036700000280CD02548006807E0C168026823686C
:103680009A4201D12A68026008000028F5D131BDB4
:103690005FEF0020F4EE002061EF0020C82B01084E
:1036A0005439010800EF0020D0380108FC38010827
:1036B000A836010878510108F84E0108B84C0A00F4
:1036C000F82401002839010804EF0020A43D010876
:1036D000D83601087C3D0108E84E0108043D010888
:1036E0005532000800DD6D00CC3D0108F43D0108B5
:1036F0001C3E010870450108E84B0108F849010823
:10370000004C010810000020F8EE0020FCEE002024
:103710002DE9F04105000E0011001F00002289195B
:10372000143189B20120FEF717FA0400002C3DD0B5
:103730006089310089B21431884208DADFF8803AB2
:103740007322DFF8801ADFF8800AFEF70FFFD4F843
:103750000480E88AFEF7F4FEA8F80000288BFEF744
:10376000EFFEA8F80200C8F80470686AFEF7F0FEE1
:10377000C8F80800B6B2042096FBF0F0401D000324
:1037800050F0100080B2FEF7DBFEA8F80C00688D48
:10379000FEF7D6FEA8F80E000020A8F810000020C2
:1037A000A8F81200696A688D4118E9622000BDE836
:1037B000F08138B50400A06E00281AD0A56E00E094
:1037C0002D6828680028FBD1E8688089FEF7B8FEDC
:1037D00010F0070F0DD10120FEF7B2FEE9688989CC
:1037E0000843E9688881A07E50F02000A076002080
:1037F00003E00121200000F02AFC32BD2DE9F04752
:1038000081468A4617001E00089DE80702D55FF032
:10381000040801E05FF00008A80701D5002000E0DF
:103820000020290701D5002100E0002110EB080845
:1038300011EB0808032001F0ABF80400002C04D1C0
:103840005046FEF729FC00204CE0A57200202060C5
:10385000C4F804A0BAF808004146C9B289B2884247
:1038600008D2DFF85C39BA22DFF86019DFF85809AE
:10387000FEF77CFEBAF808104046C0B2091A218152
:1038800014215046FEF7FCFB002804D02000FFF76F
:10389000BDFC002026E060684068E060B9F81600D2
:1038A000FEF74EFEE1680880B9F81800FEF748FE02
:1038B000E16848803000FEF74BFEE16848605FFA3F
:1038C00088F8042098FBF0F0401DFFB257EA00375B
:1038D000380080B2FEF734FEE16888810020E1689C
:1038E00048822000BDE8F08770B50D001E002B0057
:1038F0002900140089B2A4B2A14223D205998907F4
:103900000DD4049CA17E49061CD40699C9B2002995
:1039100005D0A16E002902D1E16E002912D011005C
:1039200089B22B009BB203F21B239B089B00994298
:1039300001D2130006E02B009BB203F21B234FF6CB
:10394000FC710B400022190089B2C0B2FEF704F9E5
:103950000400002C01D1002013E02068002809D0C9
:10396000DFF85C384FF48872DFF88C1BDFF85808FA
:10397000FEF7FCFD6089401B308025812089608135
:10398000200070BD80B5027D042A0BD0027D072A7D
:1039900008D0027D022A05D0027D032A02D07FF0E2
:1039A0000A0048E00A0092B2002A01D1002042E059
:1039B000B0F8602089B28A4206D2817E51F080013F
:1039C00081765FF0FF3036E0B0F86210112905DA39
:1039D000B0F862104FF6FD72914206D3817E51F02D
:1039E000800181765FF0FF3025E0B0F86210002999
:1039F00010D0C16E00290CD1806E002809D1DFF8EB
:103A0000C0374FF4AB72DFF8AC1BDFF8BC07FEF732
:103A1000ADFD0FE0C16E002902D1806E002809D0F3
:103A2000DFF89C3740F25912DFF88C1BDFF898075B
:103A3000FEF79CFD002002BD2DE9F84F8AB007007B
:103A40009A460020069000250026002009900024B8
:103A50005FF0000900208DF8110000208DF81C0097
:103A60000020ADF80C005FF000080020ADF8140055
:103A7000B7F85E00022390FBF3F07B8E834201DAFD
:103A80007B8E04E0B7F85E00022390FBF3F318008E
:103A900080B2002802D0ADF8163002E0788EADF882
:103AA00016000891089800280CD1DFF814374FF45D
:103AB000C972DFF8B41BDFF81007FEF757FD7FF07F
:103AC0000F00FAE0ADF80E20BDF80E103800FFF739
:103AD00059FF010049B2002901D040B2EDE0B7F82A
:103AE00062B08DF810A0B86E002800F03681BD6E6F
:103AF00000E02D6828680028FBD1A87AC00702D50D
:103B00005FF0040A01E05FF0000AA87A800701D59F
:103B1000002000E00020A97A090701D5002100E07B
:103B2000002110EB0A0A11EB0A0ABDF816102A89C7
:103B3000504680B28218914209DADFF8843640F2AA
:103B4000C712DFF8281BDFF88006FEF70FFDBDF86F
:103B500016102889091AB1EB0A0AB7F86400ADF803
:103B60000C00BDF80C00002836D05046BDF80C10F3
:103B700080B2884209D2DFF8483640F2D912DFF825
:103B8000F01ADFF84406FEF7F1FC2E00BDF80C0039
:103B9000BDF80E10884202D2BDF80C0001E0BDF85D
:103BA0000E00514689B2814201DAD0460AE0BDF8E2
:103BB0000C00BDF80E10884202D2BDF80C8001E066
:103BC000BDF80E8018EB0909BDF80C00B0EB080039
:103BD000ADF80C00BAEB080ABDF80C0000280FD0B5
:103BE0004846BDF80E1080B2884209D0DFF8D035C3
:103BF00040F2E112DFF87C1ADFF8CC05FEF7B6FCE4
:103C00004846BDF80E1080B2884280F000815046D0
:103C100080B2002800F0FB802889002800F0F7809F
:103C2000514689B2BDF80E20484680B2121A914220
:103C300002DAADF812A005E0BDF80E00B0EB090005
:103C4000ADF812002E009DF81000C0074AD50120E3
:103C500002909DF810000190009703AB524692B27B
:103C6000BDF812100420FFF73FFE0690002827D170
:103C7000B87E50F08000B8760698002802D00698EA
:103C8000FEF70AFA002C02D02000FFF7B6FAB7F8C8
:103C9000620000280FD0F86E00280CD1B86E002802
:103CA00009D1DFF81C3540F20232DFF8CC19DFF819
:103CB0001805FEF75BFC5FF0FF300BB0BDE8F08F3E
:103CC000BDF812200898494689B201440698D0F8F8
:103CD00004A0504601F092FC0698FEF759FA10EB4A
:103CE0000B0B35E0696800E0096808680028FBD123
:103CF000087B012818D148684989084408998842F6
:103D000012D1484680B2002809D0DFF8B4344FF40D
:103D10000372DFF86819DFF8B004FEF727FCBDF87E
:103D20001200ADF8140013E00122BDF812100420B7
:103D3000FDF712FF069000289AD00898494689B2EC
:103D40000844069948600698FEF722FA10EB0B0B20
:103D5000BDF8120010EB090959E0B7F8640000281B
:103D600009D0DFF85C3440F22522DFF81419DFF8BF
:103D70005804FEF7FBFB4AE00998002809D1DFF858
:103D8000403440F28522DFF8FC18DFF83C04FEF7EF
:103D9000EDFB0998066037E00898494689B2084467
:103DA0000099486000229DF8111089B20020FDF7AB
:103DB000D3FE0600002800F0968000993000FEF740
:103DC00009FA3000FEF7E4F910EB0B0B584680B20D
:103DD000122880F28C80584680B24FF6FD718842DE
:103DE00080F085809DF81C000090BB6D484680B235
:103DF000C318002231003800FFF700FD060000283C
:103E000079D0002CB8D1340009961AEB090948463C
:103E1000BDF80E1080B288426ED2BDF80E00B0EB35
:103E20000900BDF816109DF811A0B1EB0A0A0100B7
:103E3000524689B292B2914201D28246FFE79DF882
:103E40001000C00738D5002C01D1012000E000206F
:103E5000C0B202909DF810000190009703ABBDF82E
:103E600016209DF8111011EB0A0189B20020FFF70E
:103E70003BFD060000281ED07089514689B2884259
:103E800009D2DFF83C3340F24122DFF8FC17DFF8BB
:103E90003803FEF76BFB524692B20898494689B246
:103EA000014470689DF8113018440090009801F0AA
:103EB000A5FB009885E7DBE6BDF80C00002807D0DD
:103EC000BF4B40F24B22DFF8C417BF48FEF74EFB52
:103ED0000122514689B20020FDF73EFE00900028E5
:103EE0007FF45AAFC4E60098FEF7D6F8C0E630007B
:103EF000FEF7D2F8BCE6BBE6404680B2002828D0E8
:103F0000D5F804901DE0B9F8080018EB0000A9F8F6
:103F10000800D9F80000002811D1424692B2089951
:103F2000D9F80400B9F80A3000EB030A504601F052
:103F300065FBB9F80A0018EB0000A9F80A00D9F8E7
:103F40000090B9F1000FDED1288918EB0008A5F820
:103F50000880BDF80C00A7F864000698002813D06C
:103F6000002D07D1964B40F2BB22DFF8241796486C
:103F7000FEF7FCFA06996868FEF72CF9298906987D
:103F80000089411829812AE0BDF81400002826D0B4
:103F9000002D02D06868002807D1894B40F2C12269
:103FA000DFF8F0168848FEF7E1FA696805E00A894B
:103FB000BDF8140082180A81096808680028F6D143
:103FC0000A89BDF8140082180A814A89BDF81400D4
:103FD00082184A812989BDF8140041182981002DD1
:103FE00001D1BC6600E02C60B96DBDF80E0041182F
:103FF000B965B7F86010BDF80E00091AA7F860108F
:10400000A7F862B0B7F8620000280DD0F86E00285B
:104010000AD1B86E002807D1694B40F2ED22DFF8D3
:1040200058166948FEF7A2FA002E0ED0F068002854
:104030000BD09DF81000800707D40820FEF780FA07
:10404000F16889890843F1688881002035E62DE907
:10405000FC4104000D000026002015F0030F07D1DD
:10406000574B40F21B32DFF830165748FEF77EFA06
:10407000B4F86200112805DAB4F862004FF6FD7159
:10408000884208D3E80706D4A07E50F08000A076CE
:104090005FF0FF3092E0A80700D50126F00701D5B8
:1040A000042700E00027B00701D5002000E0002031
:1040B000310701D5002100E00021C719CF190022E6
:1040C0003900C9B289B20020FDF746FD80460028BC
:1040D00006D1A07E50F08000A0765FF0FF306DE04A
:1040E000B8F80A00FFB2BFB2B84207D2344B40F270
:1040F0004132DFF8A8153448FEF738FAF6B20096D8
:10410000A36D2A00D2B241462000FFF777FB0600DC
:10411000002806D1A07E50F08000A0765FF0FF302E
:104120004CE0307B10F0030F07D0254B40F24932B2
:10413000DFF86C152448FEF719FA3089002807D0FB
:104140001F4B40F24A32DFF85C151F48FEF70EFAAB
:10415000A06E002801D1A66606E0A16E00E0096805
:1041600008680028FBD10E600020A4F8640015F058
:10417000030F02D0A06D401CA065E80703D5A07E08
:1041800050F02000A0767068FEF702F8B4F86210D4
:104190004018A4F86200B4F8620000280DD0E06E68
:1041A00000280AD1A06E002807D1054B40F26D32DD
:1041B000DFF8F4140448FEF7D9F90020BDE8F681D1
:1041C000702A0108383701080C3F0108304C0108FB
:1041D0007FB505000024E86CFEF7BAF90300002261
:1041E000E4B2210089B22800FFF792FA0400002C03
:1041F00006D1A87E50F00300A8767FF0010025E0EC
:10420000281D02F065FA002802D17FF003060BE0BA
:10421000029006200190687A0090AB7A2A1D29004E
:10422000200002F088FB06002000FDF735FF30007B
:1042300040B2002804D0A87E50F00300A87603E026
:10424000A87E10F0FC00A876300040B204B070BD2B
:104250002DE9F0470600307D012809D1DFF84C3404
:1042600040F2ED32DFF84814DFF84804FEF77EF93B
:10427000DFF844040068B04201D100206EE0B6F8D7
:104280005C00B6F84810884202D2B6F85C7001E0D3
:10429000B6F84870B46EB07E80070FD5002C09D0F8
:1042A000E0684068FEF754F9716C401A21890818DB
:1042B000874203D23000FFF78BFF4FE0D6F86C80C7
:1042C000B8F1000F06D001E0D8F80080D8F800005F
:1042D0000028F9D1301D02F0FBF90500002D02D1B4
:1042E0007FF003003AE0002E02D0306800280BD1A6
:1042F000002D01D0281D00E00020002802D17FF011
:1043000003002BE000683060002C77D0E068406844
:10431000FEF71EF9716C401A2189081887426DD288
:10432000002F6BD0B6F85C00874267D1F06E002892
:1043300064D196F89500002805D1002086F89400F5
:10434000012086F89500B06E002802D10020A6F862
:104350006400B07E10F07F00B0760020BDE8F087EA
:104360002000FEF753FF48E0307D022807D01020E0
:10437000FEF7E6F8E16889890843E16888812A0048
:104380003100200000F0BAF8010049B2002975D1CF
:104390002068B066307D022803D0B07E10F0FC00AB
:1043A000B076E0684068FEF7D3F88146E06880891F
:1043B000FEF7C6F810F0030F66D00121208910EB3C
:1043C000090911EB0909F06CB0EB0900002801D5CF
:1043D000C6F84C90E0688089FEF7B2F810F0030F41
:1043E00054D00120218940180028B9D00020206035
:1043F000F06E00284CD1F466A046B46E002CA2D01A
:10440000E0684068FEF7A4F8716C401A218908182A
:10441000874298D3E0688089FEF792F8400706D576
:10442000A24B40F24642A549A248FEF79FF8F06E23
:10443000002817D0B07E10F0440F13D1B06E0028C2
:1044400008D0B06E006800280CD1B06E0089718E63
:10445000884207D2B6F86000002803D0B6F86200A0
:10446000112801DB012000E0002000287FF47CAF50
:10447000B07E10F0A00F7FF477AF64E7B17E51F00B
:104480008001B17640B269E7002197E70020A9E7F3
:10449000E0684068FEF75CF88146D8F80C00406898
:1044A000FEF756F8B9EB0009B9F1000F1ED516F169
:1044B0006C0901E0D9F80090D9F8000000280FD06D
:1044C000D9F80000C0684068FEF742F88246E0680C
:1044D0004068FEF73DF8BAEB000ABAF1000FE9D4E4
:1044E000D9F800002060C9F8004086E7C8F800400D
:1044F000D8F8008081E70000C04D0108FEB5040037
:104500000D0016006068C089012801D0002050E02D
:10451000686AFEF71DF8E1688860688DFEF710F89C
:10452000E168C881696A688D4118E962E06810F144
:104530001407A07AC0070BD5291D4FF40670FFF7AA
:1045400055F880B250F00170FEF702F83860381D5F
:10455000B5F93000002801D500202886686B0028B6
:1045600007D1574800686863E0684068FDF7F0FFCE
:10457000A863E16860684068081A61684989091A97
:104580006268518161680989081A61680881E06878
:10459000616848600020E168088202960620019068
:1045A000687A0090AB7A2A1D2900606802F0C3F98E
:1045B00040B2FEBD88300108603401082DE9FF4794
:1045C0008146884615001F00002214210120FDF7B6
:1045D000C3FA0400002C45D06089142806D2334B5E
:1045E00040F24D5237493348FDF7C0FF0D9E0C98FD
:1045F000D4F804A080B2FDF7A3FFAAF800003000B1
:1046000080B2FDF79DFFAAF802004846FDF7A0FF23
:10461000CAF804004046FDF79BFFCAF8080045F2BF
:104620001400FDF78DFFAAF80C0046F20800AAF866
:104630000E000020AAF810000020AAF8120038008E
:1046400002F046F800280AD02900029006200190C6
:1046500000200090FF233A00200002F06CF92000B7
:10466000FDF71AFDBDE8FF8794340108484C0108A6
:10467000304601085046010870460108043A010816
:1046800068370108D44D0108542F0108584F01081C
:104690001C32010854320108002D0108C430010801
:1046A000604C0108303A0108343F0108702A0108C3
:1046B0005C3F01080C3F01081CEF0020784C01080A
:1046C000F4EE00203837010880B5C16E002918D0FB
:1046D000C26E00E0126811680029FBD1816E116082
:1046E000C16E81660021C16690F84210FF2904D096
:1046F00090F84210491C80F8421000214163FFF7F6
:10470000A7FD01BDF8B50400E06E00282AD0E56ED3
:104710002868E06614F1680600E036683068002812
:104720000CD03068C0684068FDF712FF0700E868E9
:104730004068FDF70DFF3F1A002FEED43068286067
:1047400035602868002802D10020A4F8640094F89D
:104750004200FF2804D094F84200401C84F8420034
:1047600000206063F1BD10B50400E06E00282ED07B
:10477000A07E40072BD42000FFF7C4FFB4F8480008
:10478000B4F85C10884202D2B4F8480001E0B4F8F2
:104790005C00022190FBF1F0A4F84A00B4F84A0052
:1047A000618EB0EB410F04D2608E80B24000A4F85D
:1047B0004A00B4F84A10628E032000FB0211A4F8EC
:1047C0004810A07E50F00400A0760020208610BD86
:1047D0003EB50500E86C401EFDF7BAFE030000225E
:1047E00000212800FEF794FF0400002C02D15FF0A6
:1047F000FF3018E0281D01F06BFF002802D17FF088
:1048000003050BE002900620019000200090AB7A97
:104810002A1D2900200002F08EF805002000FDF777
:104820003BFC280040B23EBD2DE9FF410700FC6E75
:10483000002C00D1BC6E002C01D100205FE0E068AC
:104840008089FDF77DFEC00704D52089002801D1AD
:10485000012600E000263000C0B2002801D000226E
:1048600000E00122E068436892B200213800FEF7C0
:104870004FFF0500002D02D15FF0FF303FE0D5F87B
:104880000480F6B2002E0BD01120FDF759FEB8F8C7
:104890000C204CF2FF010A401043A8F80C000BE07A
:1048A000686810F114016068038920891B1A9BB2A3
:1048B00001226068FDF77BFDE0684068FDF748FE77
:1048C000401CF96C091A002900D5F864381D01F064
:1048D000FFFE002802D17FF003040BE002900620C7
:1048E000019000200090BB7A3A1D3900280002F0A8
:1048F00022F804002800FDF7CFFB200040B204B0EE
:10490000BDE8F0810021826811604268D21C9208E3
:104910009200002107E083681B68136083681A60B7
:1049200003881A44491C43889942F4DB704710B548
:10493000002407E03848210089B250F82100FFF731
:10494000E1FF641C200080B20D28F3D310BD70B5C8
:10495000050000F0A1FA0600A8680468002C12D037
:104960002068A968086014F00300002806D02B4BCB
:1049700040F249122A492B48FDF7F8FD300000F0BB
:1049800094FA200003E0300000F08FFA002070BDA0
:1049900080B50100C9B20D2908DB204B40F2871217
:1049A00021492048FDF7E2FD002005E01A49C0B288
:1049B00051F82000FFF7CBFF02BD38B504000D0011
:1049C00015F00300002806D0144B40F29D12174941
:1049D0001448FDF7CBFD00F05FFAA1680968296073
:1049E000A1680D6000F061FA31BD80B50200D2B25D
:1049F0000D2A07DB094B40F2DB120D490948FDF790
:104A0000B5FD07E0002905D0034AC0B252F82000E6
:104A1000FFF7D3FF01BD0000903301082C280108E7
:104A20008C410108643C0108F0440108104501086C
:104A3000FC48010880B5FDF7AEFD874800680028F6
:104A400003D186480068002805D000228449FA2056
:104A500000F038F802E000208249086001BD80B50E
:104A60008049086800280ED17B480068002803D1DF
:104A70007A480068002806D00120086000227849A2
:104A8000FA2000F01FF801BD38B504002500686861
:104A9000804722007449286800F014F831BD10B531
:104AA000012408E0714800EBC4026F4950F834005B
:104AB00000F008F8641C032CF4D302F069FA6C4986
:104AC000086010BDF8B505000E0017000A20FFF7BA
:104AD0005FFF0400002C08D1002C05D1654BD422C7
:104AE00065496648FDF742FD4BE002F051FA0100CE
:104AF000634A1068002803D100205D4B196003E071
:104B00005B480068091A080000212160A660E76080
:104B1000401960601068002801D1146031E010680D
:104B20004068854208D210684068451B106845609F
:104B300010682060146024E0106800E0006800281D
:104B40001FD0636841685B1A63600168002904D064
:104B5000616803685B689942F0D20168002906D059
:104B600001684A686168521A01684A6006E0616833
:104B70008D4203D2116849684D1965600168216052
:104B80000460F1BD2DE9F0473D4C206800282BD092
:104B900002F0FEF9364D2F68C71B00262168002958
:104BA0001FD0486887421CD301262A6848688218AB
:104BB0002A6048683F1A08682060D1F80880D1F858
:104BC0000C900A20FFF711FF4046002809D0DFF8BB
:104BD000B4A0504600F03BF94846C047504600F0AC
:104BE0003DF9F6B2002ED8D1BDE8F08710B5244CBF
:104BF0002068002802D15FF0FF300EE002F0C8F913
:104C000001001B480068081A21684968814201D2E6
:104C1000002002E021684968081A10BD38B5040078
:104C20000D000DE0FFF7E2FF0200002A06D0290088
:104C3000200000F060F810F1010F0BD1FFF7A2FF88
:104C40000F4800680028EDD100222900200000F064
:104C500052F8FFE731BD000000EF002004EF002014
:104C6000354A000838EF0020894A0008904C0108B6
:104C700034EF002058260108942F0108AC3F0108AA
:104C800030EF00202CEF00201CB504008A48D0E94A
:104C90000023CDE9002300910021684602F0B1FA1B
:104CA00020602068002802D15FF0FF3000E0002083
:104CB00016BD10B50400206802F030FB206802F039
:104CC0003BFB10BD38B504000D005FF0FF3229003A
:104CD000206802F09DFA0028F7D131BD80B500228E
:104CE000006802F095FA002801D1002001E05FF091
:104CF000FF3040B202BDFEB505000E00140002F008
:104D000064F90700002C11D022002968684602F0DF
:104D1000AFFA0098102806D10198306002F055F9DA
:104D2000C71B38000EE05FF0FF300BE05FF0FF3292
:104D30002968684602F09CFA0198306002F045F953
:104D4000C71B3800FEBD1FB50C0000220168684675
:104D500002F08EFA0098102803D1019820600020FC
:104D600001E05FF0FF3004B010BD0068002801D101
:104D7000002000E00120704700210160704738B535
:104D800004000D004D48006800900121684602F0C3
:104D9000B1F920602068002802D15FF0FF3007E001
:104DA000EDB2002D03D10021206802F0BAF90020F5
:104DB00032BD70B505000C0002F007F90600002CAA
:104DC0000DD02100286802F0ACF9002804D102F0CF
:104DD000FCF8861B30000DE05FF0FF300AE05FF06A
:104DE000FF31286802F09DF90028F8D102F0EDF8B3
:104DF000861B300070BD80B5006802F0CCF901BDA3
:104E000080B5006802F0F0F901BD0068002801D10A
:104E1000002000E00120704700210160704780B54C
:104E2000274802F0FFF82749086001BD1CB50400BF
:104E3000254800680090684602F0F4F82060206879
:104E4000002802D15FF0FF3000E0002016BD80B5E1
:104E50005FF0FF31006802F0EAF801BD80B500683C
:104E600002F01FF901BD2DE9F84185B007000E00E1
:104E700014001D00DDF830806846142102F06AFA43
:104E800000970196ADF8088004952100684602F06D
:104E9000A7F806B0BDE8F08180B55FF0FF310948A2
:104EA000006802F0C4F8012002BD80B50548006822
:104EB00002F0F7F801BD000060510108A851010897
:104EC000B0510108B4EE0020AC5101081CB57D4979
:104ED0000868002803D07C480068096888477B4C34
:104EE0002000FFF7B4FF05E0794B692279497A4841
:104EF000FDF73CFB2000FFF7B1FF69467748FFF75D
:104F00008DFE2000FFF7A3FF00980028ECD000984A
:104F10000078022804D01FD3042817D00CD31BE03C
:104F20000098816800984068009AD268904700997C
:104F30000920FFF75AFDDDE700988068009949686D
:104F4000884700990820FFF750FDD3E70098806854
:104F5000009949688847CDE75D4B9B225D495E48D3
:104F6000FDF704FBC6E72DE9F04105000E00170030
:104F7000DFF868814046FFF7F8FE002805D1544B62
:104F8000B52257495448FDF7F1FA0920FFF700FD13
:104F90000400002C02D15FF0FF3012E002202070EC
:104FA0006560A660E76021004046FFF797FE002895
:104FB00006D021000920FFF718FD5FF0FF3000E068
:104FC0000020BDE8F08180B591F82B2012F0180F79
:104FD00003D0444AFFF7C7FF02E0434AFFF7C3FF8D
:104FE00002BD2DE9F04106000F001500DFF8EC804E
:104FF0004046FFF7BAFE002805D1354BEE2238496E
:105000003548FDF7B3FA0820FFF7C2FC0400002C76
:1050100002D15FF0FF300BE0032020706660A760D4
:10502000EDB2002D06D021004046FFF74BFE0020D8
:10503000BDE8F08121004046FFF750FE0028F6D081
:1050400021000820FFF7D1FC5FF0FF30F0E770B5DA
:1050500004000D001D4E3000FFF7F9FE2800A047A8
:105060003000FFF7FBFE002070BD38B504000D00D6
:1050700002F074F9134804601348056006211748CC
:10508000FFF702FE002806D0114B40F2D512174957
:105090001148FDF76BFA0D48FFF7C8FE002806D04F
:1050A0000B4B40F2D91212490B48FDF75FFA03206F
:1050B00000904FF4806300220E490F48FFF7D3FEA3
:1050C00031BD000020EF002024EF00202CEF002055
:1050D000E42A010890460108843F010828EF0020D7
:1050E000684F0108DDCC00084367000864420108EE
:1050F00088420108CD4E0008784F010870B50400C1
:10510000DFF8A4542868844209D2DFF8A03440F2C2
:105110005D12DFF89C14DFF89C04FDF727FADFF836
:1051200098643068844209D3DFF880344FF4AF725A
:10513000DFF88814DFF87C04FDF718FA20790028DE
:1051400009D0DFF8683440F25F12DFF87414DFF83A
:105150006404FDF70BFA208840F24161884209D3CC
:10516000DFF848344FF4B172DFF85814DFF8440424
:10517000FDF7FCF92868218801448C4213D0087996
:10518000002810D1306881420DD0DFF83C0402685D
:105190008A4200D10460088820802868201A2A6882
:1051A000098811444880286861880144A14210D0D0
:1051B000087900280DD1DFF810040268A24200D15E
:1051C0000160208808802868091A2868228810440D
:1051D000418070BD10B5DFF8D013DFF8F003800810
:1051E0008000086008684FF4C86202800023438092
:1051F00000230371DFF8C0030B6813F5C863036075
:1052000001230468237103681A80006842800868DB
:10521000DFF8B4130860DFF8B803FFF707FE0028D3
:1052200009D0DFF888334FF4CC72DFF8A813DFF829
:105230008403FDF79BF910BD38B50400002C4CD059
:1052400014F00300002809D0DFF860334FF4D67261
:10525000DFF88413DFF85C03FDF788F9DFF84853C3
:105260002868844204D3DFF850030068844209D3DD
:10527000DFF8383340F2AF12DFF86013DFF83403A1
:10528000FDF774F92868844204D3DFF82C03006822
:10529000844204D3FFF700FEFFF707FE1DE0DFF8AE
:1052A00030532800FFF7D3FD083C2079002807D1B0
:1052B000BE4B4FF4E072DFF82813BE48FDF756F9F5
:1052C00000202071C04801688C4200D20460200098
:1052D000FFF714FF2800FFF7C1FD31BD2DE9F047AE
:1052E0000D00ADB2ED1C4FF6FC710D40290089B2E6
:1052F0000C2900D20C25290089B240F2416291426A
:1053000001D3002096E00400A74E3068844203D306
:10531000A9480068844206D3A44B4FF4FA72B149FD
:10532000A448FDF723F93068844203D3A2480068FB
:10533000844205D3FFF7B0FDFFF7B7FD200079E009
:10534000B4F10807D6F80080B7EB08083988404662
:1053500080B2091AB1F1080A5046290080B289B218
:10536000884206D2914B40F206229F499148FDF7B0
:10537000FDF85046290080B289B2884201D200204F
:1053800058E02800514680B289B2884201D12000FD
:1053900050E0DFF83C924846FFF759FD3068398805
:1053A0000144087900281FD1088815EB0805083545
:1053B000854A13688B4204D131682B009BB2194493
:1053C000116031682A0092B2114400220A710880EB
:1053D000A1F802803D800888B0F5C86F26D03068FB
:1053E00009880844458021E01FFA8AFA280080B223
:1053F000143082451AD315EB0805083530682900AA
:1054000089B2084470490A68904200D208600021BD
:10541000017139880180A0F802803D800188B1F5D2
:10542000C86F03D031680088084445804846FFF7BC
:1054300015FD2000BDE8F087F8B50500280080B212
:10544000002801D10020ADE0ADB2ED1C4FF6FC709C
:105450000540280080B20C2800D20C25280080B21C
:1054600040F24161884201D300209BE0584E300059
:10547000FFF7EDFC4C49544A10680B68C31A02E070
:1054800008689BB2C35A180080B22C00A4B2D4F5AD
:10549000C864A04280F0828008681C00A4B2044462
:1054A00020790028ECD12788180080B23F1A083FE5
:1054B000280080B28742E3D32788180080B23F1AC1
:1054C000083F280080B2143087421BD3E818083008
:1054D0000F6884461FFA8CFC67445FF0000C87F865
:1054E00004C0B4F800C0A7F800C07B80208001236E
:1054F00023713B88B3F5C86F06D00B683F883B44E7
:10550000588001E001202071106884421CD113688A
:1055100002E008681B8803441879002803D0264855
:1055200000688342F5D113601068234909688842F6
:105530000AD010680079002806D01C4B40F2CF2218
:105540002A491C48FDF712F83000FFF787FC1A487B
:105550000068ADB22D190835A84206D2134B4FF49E
:10556000357223491348FDF701F814F003000028B1
:1055700006D00E4B40F2D6221E490E48FCF7F6FF2D
:1055800014F00300002806D0084B4FF436721A4975
:105590000848FCF7EBFF14F1080003E03000FFF7C8
:1055A0005DFC0020F2BD000060EE0020582B0108D9
:1055B000F84A01083C3C010864EE00208C480108D0
:1055C000A84801084C38010868EE002043CF0020AD
:1055D0006CEE0020C448010844410108104B01084A
:1055E000484D0108284B0108D0440108E048010853
:1055F00058350108883501086841010862B38B07F6
:1056000008D0521E11F8013B00F8013B00F0248045
:105610008B07F6D1830740F0208000BF103A07D3F4
:1056200030B4B1E83810103AA0E83810F9D230BCE4
:10563000530724BFB1E80810A0E8081044BF51F890
:10564000043B40F8043BD20724BF31F8022B20F87A
:10565000022B44BF0B7803707047121F17D35B00F7
:1056600009D151F8043B20F8023B1B0C121F20F813
:10567000023BF6D20BE051F8043B00F8013B1B0A59
:1056800020F8023B1B0C121F00F8013BF3D238BF7D
:10569000121D521E24BF11F8013B00F8013BF8D83F
:1056A0007047F0B40246106895681318506803EB11
:1056B0005004C0071DD54D441BE013F8017B05F8CD
:1056C000017B491EF9D1A0B1B60813F8011B06F001
:1056D0000306032E08BF13F8016B01EB06214942B4
:1056E000801C294405D011F8016B05F8016B401EA0
:1056F000F9D1A3420ED013F8016B16F0030104BFD9
:1057000013F8011BC91C30090F28DAD113F8010B5B
:105710000F30D6E7F0BC02F10C0070472DE9F04FD6
:105720000FF2A41CA1B0DCE90089CDE900892A9D13
:10573000DFF8109C049100248DF843500D944FF035
:10574000FF38824616461F460FE0B3462C461BF82C
:10575000011B0498D0470028049000F0A2800D9807
:10576000401C641E0D90F2D176193078252808D19E
:10577000002100220791089209910A920B910C9244
:105780000DE06A464146304601F03EFE050001D17B
:105790000D98A1E0D9D50125E6E741F0010116F801
:1057A000010F2028F9D023280CD02B2804D02D2835
:1057B00005D0302809D076E041F00201EFE741F052
:1057C0000401ECE741F00801E9E741F01001E6E7E8
:1057D0000F9209E00F98484505DA00EB800402EBD0
:1057E0004402303A0F92761C3278A2F130000A2837
:1057F000F0D330782E2818BFCDF8388022D116F893
:10580000010F2A2807D138683860761C50F8042B1D
:1058100038600E9216E02D280CBF761C0020002266
:105820000E920AE040B90E9A4A4505DA02EB82046C
:1058300003EB4403303B0E93761C3378A3F1300224
:105840000A2AEFD3ADF8401021A0317801F0E6FD2F
:1058500008B116F8010B8DF842009DF84200682847
:1058600004D1307868280AD1622105E06C2804BF91
:1058700030786C2803D171218DF84210761C12A863
:1058800006903A4616F8013B02A9504600F064F82B
:1058900038B912AA02A9504600F0CAF900287FF5CB
:1058A00064AF404618E02A2892D13A683A6052F82C
:1058B000040B3A6000280F9003D540420F9041F04E
:1058C0000401761C95E700000000000000000000C5
:1058D000686A6C747A4C000021B0BDE8F08F6228D1
:1058E00020D0682811D06A2803D06C2827D07128CE
:1058F00025D10868C01D20F007000860D0E900230A
:1059000008300860194610467047002A0A680A6085
:10591000106803D0121D0A6000B217E0121D0A6061
:1059200080B217E0002A0A680A60106803D0121DCE
:105930000A6040B20AE0121D0A60C0B20AE0002A02
:105940000A680A60106803D0121D0A60C117704708
:10595000121D0A60002170477CB50D4611461C4699
:105960002E69B4F1250200F051811C3A00F08680C6
:10597000121F022A40F282800E3A00F00B81521F61
:105980005AD0093A7AD0921E16D0521E35D0521EE5
:10599000022A73D9121F30D0521F00F09A80521E73
:1059A0004AD0521E00F0E480D21E00F00181921E07
:1059B00042D0D21E40D02FE195F83A406C2C09D04D
:1059C0006869421C6A610A680A6052F8043B0A600E
:1059D00033542BE10A680A6052F8043B0A600093D2
:1059E000002201924FF0FF332B636A46294600F0F4
:1059F0009AF9002840F11A8105E195F83A00012250
:105A0000FFF76DFFC5E900010023994204DA6869D8
:105A1000411C69612D220DE0288F810704D568693A
:105A2000411C69612B2205E0C00722D56869411C31
:105A30006961202232541CE095F83A000022FFF7F9
:105A40004EFFC5E9000195F83800010711D5D5E9E9
:105A500000230020834208BF82420AD044F0200085
:105A6000782806D1686930213154401C421C6A6193
:105A70003454214668693044E86087E00868C01DF6
:105A800020F007000860D0E9002308300860C5E96D
:105A90000023D5E90001C80F04D06869411C696181
:105AA0002D220DE0288F810704D56869411C6961AA
:105AB0002B2205E0C00704D56869411C69612022DA
:105AC000325468693044E8602146284600F03AFACA
:105AD000ACE005F13A02507820B14FF0FF340FF6F8
