:020000040800F2
:10000000E0E2002065B0000809AF00080BAF00086F
:100010000DAF00080FAF000811AF0008000000008E
:10002000000000000000000000000000338B00080A
:1000300013AF000800000000ED8A000815AF0008AB
:1000400091B1000895B1000899B100089DB1000870
:10005000A1B10008A5B10008A9B10008ADB1000820
:10006000B1B10008B5B10008B9B10008BDB10008D0
:10007000C1B10008C5B10008C9B10008CDB1000880
:10008000D1B10008D5B10008D9B10008DDB1000830
:10009000E1B10008E5B10008E9B10008EDB10008E0
:1000A000F1B10008F5B10008F9B10008FDB1000890
:1000B00001B2000805B2000809B200080DB200083C
:1000C00011B2000815B2000819B200081DB20008EC
:1000D00021B2000825B2000829B200082DB200089C
:1000E00031B2000835B2000839B200083DB200084C
:1000F00041B2000845B2000849B200084DB20008FC
:1001000051B2000855B2000859B200085DB20008AB
:1001100061B2000865B2000869B200086DB200085B
:1001200071B2000875B2000879B200087DB200080B
:1001300081B2000821AF000885B2000889B200082A
:100140008DB2000891B2000895B2000899B200087B
:100150009DB20008A1B20008A5B20008A9B200082B
:10016000ADB20008B1B20008B5B20008B9B20008DB
:10017000BDB20008C1B20008C5B20008000000000E
:10018000C9B200082DE9FE4F0500DFF8706B686802
:1001900030606889142804DA280001F089FCBDE881
:1001A000F78FDFF85C7B3968786901F0E9FD00289A
:1001B00004D1387D10F0F000E02800D1ECE7306881
:1001C000808901F003FE80B2000BC0B281000800FC
:1001D000C0B2142805DB28890A00D2B292B290423C
:1001E00000D2D9E7DFF81C4B0800C0B214382080D9
:1001F000DFF8148B0020C8F8000068890A00D2B22A
:1002000092B290420AD32088DFF8002B1080C9B246
:10021000494209B2280001F03FFC27E07FF01301BA
:10022000280001F039FCDFF8E40A6989018021889F
:1002300004880C1BB0F9001009B2494209B2280029
:1002400001F02AFC28684089210089B28842A3D3A2
:1002500028684068C8F80000210009B2494209B284
:10026000286801F019FC2889041B2C81306800885B
:1002700001F0ACFD316808803068408801F0A6FDCF
:10028000316848803068406801F0A8FD31684860F6
:10029000DFF87C8AC8F800003068806801F09EFDB5
:1002A00031688860DFF8BC9BC9F800003068C089FD
:1002B00001F08CFD3168C8813068808901F086FDCD
:1002C00010F03F00DFF84C1A0870DFF8480A007899
:1002D00010F0030F01D0012000E00020DFF838AA61
:1002E00029894018AAF800000020DFF830BADBF8AE
:1002F000004001E02000E468002C1AD0218B326815
:1003000012889142F6D1E18A326852889142F1D145
:1003100061683A699142EDD121687A699142E9D1E7
:10032000002806D0E168C160DBF80000E060CBF88F
:100330000040002C49D1DFF8E809046800E0E468D7
:10034000002C18D0208B316809888842F7D1E08AC8
:10035000316849888842F2D1606839698842EED1B3
:10036000206879698842EAD1200000F0C6F92800A7
:1003700001F09EFB13E70022DFF8A839186806E0B9
:10038000002813D00168002910D00200C06800289E
:100390000CD0C18AD6F800C0BCF802C06145F4D1C7
:1003A0000168D7F814C06145EAD1FFE700280CD0F6
:1003B000002A04D0C168D1601968C160186000F0DB
:1003C0000FF9280001F074FBE9E6002C00F0EB8047
:1003D000DFF8547900203860288938817D603068E2
:1003E000F860DFF8486900203060DFF844890020B9
:1003F00088F80000DFF8289C0020A9F80000DFF84A
:1004000014090078000703D5687B50F00100687379
:10041000606F00280DD0200002F0C0F910F10D0F20
:1004200006D0606F002804D0BAF80000002800D081
:1004300090E0DFF800592C60200000F0A1F940B2F4
:1004400010F10D0F00F0868098F80000000712D51B
:10045000D4F88C00002805D07FF00D012069D4F875
:100460008C2090472100584602F03BFB21000120E0
:1004700002F035FC6EE00020B9F80000002813D02F
:10048000B9F80020E06F002805D092B22100206961
:10049000E36F984700E000207FF00C0140B28842F3
:1004A00058D00020A9F8000098F80000C00615D523
:1004B000A07EC00609D4D4F88C00002805D07FF0B7
:1004C0000E012069D4F88C2090472100584602F094
:1004D00008FB2100012002F002FC3BE0306800280C
:1004E00026D0A07EC00606D5306801F0E1FA2000D3
:1004F00001F022FE2EE0D4F88000002807D000236F
:10050000326821002069D4F880C0E04705E000236C
:1005100032682100002002F0B7F901007FF00C02E0
:1005200049B2914216D040B2002801D030686067CD
:1005300098F80000800608D5606F002819D0606F19
:10054000407B50F02000616F48730020286020003D
:1005500002F0DAFF0020DFF8DC17086000203060CE
:10056000786800283BD0786801F0A2FA0020786013
:1005700035E0208DB0F5006F02D0208D401C208525
:10058000D4F88000002807D0002300222100206931
:10059000D4F880C0E04700E000207FF00C0140B2BA
:1005A0008842D2D1D6E73068808901F00FFC40073D
:1005B00012D430680088019030684088009017F1AC
:1005C000100317F11402D8F80010BAF8000041180F
:1005D000D9F8000003F00EF9280001F069FADEE511
:1005E0007CB50500DFF83C0A0178490700F18480FA
:1005F0000178C9061AD5DFF80807DFF800170A687E
:100600001288019209684988009110F1100310F1D5
:100610001402DFF8FC060168DFF8FC0600884118C8
:10062000DFF84008006803F0E5F865E0007880072F
:1006300062D5687D02F0AAF90400002C0ED1002DCD
:1006400009D0A869002806D05FF0FF320021286990
:10065000AB69984701E07FF00F004DE0DFF8A0069E
:100660004169216000696060E88AE082DFF88C6699
:1006700030680088208303202075DFF89406016825
:10068000491C6162616AE1620068401E2065286958
:100690002061A567287A10F00C002072DFF87C0634
:1006A0000168E160046003F020FA0120DFF8881699
:1006B0000870200000F0C3FF3068C089A4F85C0017
:1006C000B4F85C00A4F85E00B4F85C00A4F84A003A
:1006D000211D608E02F03CFA60861221200002F09B
:1006E0005DFE40B2002804D00021200001F0B9FCDA
:1006F00002E0200002F008FF73BD1CB5DFF82419EA
:100700000A7852073BD40A78920726D5DFF80046CC
:100710002268416A521A002A26D42268416A521A73
:10072000018D521A012A1FDADFF8D405DFF8CC1543
:100730000A681288019209684988009110F1100333
:1007400010F114022168DFF8D00500884118DFF8A5
:100750001407006803F04EF811E00978C90703D5C3
:10076000DFF8D81509680162DFF8AC15098800299F
:1007700005D0817E51F00201817602F0C5FE13BDE5
:100780003EB5040000200021DFF898582978490779
:1007900034D5217D022907D1DFF8C8160968E26C3B
:1007A000914219D1012017E0DFF864251168636ACE
:1007B000994201D101200FE01368616A5B1A002B96
:1007C0000AD41268616A521A218D521A012A03DA78
:1007D000A17E51F00201A176C0B200280CD0DFF852
:1007E0005005017851F008010170A07E10F0FE0064
:1007F000A0767FF00D003DE200203BE228788007E4
:100800000BD5207D022808D0207D032805D0A07EAE
:1008100050F00200A07600202CE2A07EC00603D497
:10082000DFF8180500682062002084F89600200098
:1008300000F005FF207D022814D0C0F01A820428A1
:1008400000F04781C0F0B280062800F09F81C0F020
:100850004E81082800F0C881C0F03B81092800F0D3
:10086000F48106E2287810F0120012287BD1DFF81C
:10087000F4150868626C521C904274D1DFF8900441
:100880000268521C6262626AE26209686164DFF8AF
:100890006C140968C989A4F85C10B4F85C10A4F859
:1008A0005E100068401E206504202075211D608EAA
:1008B00002F04EF96086B4F85C00A4F84A0041F2F8
:1008C0001D10618E4900814202D3618E490001E012
:1008D00041F21C11628E92008A4203D2608E80B275
:1008E000800009E0618E4900814203D3608E80B2AE
:1008F000400001E041F21C10A4F84800B4F8620086
:10090000401EA4F86200E06E002803D1A06E0168CA
:10091000A16601E00168E16601F092FFE06E002847
:1009200003D15FF0FF30208604E000202086002005
:1009300084F84200D4F88400002807D00022210067
:100940002069D4F884309847010000E000217FF04E
:100950000C00020049B2914200F08C81A07E50F060
:100960000200A07621E02878C0061ED5DFF89003AB
:10097000DFF888130A681288019209684988009193
:1009800010F1100310F11402DFF884030168DFF89E
:10099000880300884118DFF8CC04006802F02AFFC1
:1009A00000202086200002F070FF62E12878C00657
:1009B00040F18280DFF8AC542968606C091A491E46
:1009C000002964D42968E06C091A01295FDA04203F
:1009D0002075A06F002802D17FF0050110E0A06F04
:1009E00000280BD0A06F8069002807D000222100CA
:1009F0002069A36F9B699847010001E07FF00F0118
:100A0000080040B2002809D049B211F10D0F02D000
:100A1000200001F091FB7FF00C002BE1200000F0A2
:100A20008FF9B4F85C00A4F84A00DFF8F4150888E0
:100A3000002802D00888401E088041F21D10618EF7
:100A40004900814202D3618E490001E041F21C114C
:100A5000628E92008A4203D2608E80B2800009E0EA
:100A6000618E4900814203D3608E80B2400001E074
:100A700041F21C10A4F84800AD480078800627D544
:100A8000A07E50F00200A0760720207520E09C4850
:100A90009A490A681288019209684988009110F100
:100AA000100310F114029A4801689B48008841180D
:100AB000286802F09FFE0BE02878800708D594484C
:100AC0000068616A491E884202D1200002F0F7FEE8
:100AD000CFE0200000F034F995480078800605D575
:100AE000A07E50F00200A07607202075C1E0200013
:100AF00000F026F98E480078800639D52878C0069F
:100B00002FD5DFF860030068E16C884229D1A06E20
:100B1000002826D1A07E50F00200A076200001F02F
:100B2000B7FF7E480168A14203D10168C96801602E
:100B300009E0006800E0C068002804D0C168A14254
:100B4000F9D1E168C1600020E06001207A490870B5
:100B50000A20207572480168E160046002F0C5FF58
:100B600013E0A07E50F00200A076082020750CE073
:100B70002878C00609D5BB480068E16C884204D1DA
:100B8000A06E002801D10620207572E0200000F040
:100B9000D7F867480078800625D5A07E50F002007F
:100BA000A076200001F074FF5C480168A14203D1E7
:100BB0000168C968016009E0006800E0C0680028B9
:100BC00004D0C168A142F9D1E168C1600020E060B1
:100BD0000120594908700A20207551480168E160D8
:100BE000046002F082FF44E0200000F0A9F82878B9
:100BF000C00629D59B480068E16C884224D1A06ECC
:100C0000002821D1200001F043FF44480168A1429F
:100C100003D10168C968016009E0006800E0C068AC
:100C2000002804D0C168A142F9D1E168C160002068
:100C3000E0600120404908700A20207538480168AA
:100C4000E160046002F051FF13E0200000F078F84A
:100C50002878C0060CD583480068E16C884207D12B
:100C6000A06E002804D13248017851F010010170C3
:100C7000FFE700203EBD38B505000C00E86880891C
:100C800001F0A4F8C00716D5200001F0D0FD002423
:100C900032E0E068808901F099F8C00707D50120AB
:100CA00001F094F8E96889890843E968888120009F
:100CB000246801F0C5FD002C0AD015480168288978
:100CC0004118E0684068091A2089091A0029E0D50E
:100CD000002C11D00E490A6828898218E068406803
:100CE000121A012A08DBE06842680868121A2A8191
:100CF0002989686800F037FE2C6031BD8CDE002049
:100D00000CDD0020C8DE002090DE0020CADE0020BE
:100D100094DE0020DADE0020D0DE002084DE002019
:100D200088DE002080DE002088DD00209CDE0020A0
:100D3000DBDE0020A0DE0020D7DE002078DE0020F1
:100D40002DE9F04106000024B6480078C00640F1C5
:100D5000AE81B6F85C10706D4118DFF87829336DFC
:100D600010681B1A002B16D4306D1368984205D1F9
:100D7000736D3C4800681B1A002B0CD4706D394B06
:100D80001B68984232D1B6F85C00DFF84C391B681A
:100D9000DB8998422AD2DFF840090068C089A6F8AA
:100DA0005C00B6F85E00B6F85C30984203D2B6F844
:100DB0005C00A6F85E00106830652A48006870651F
:100DC000B6F85C0000280AD196F8950000280DD1ED
:100DD000002086F89400012086F8950006E096F839
:100DE0009500002802D0002086F895001D4D2A6845
:100DF000706C121A012A45DADFF8FC070088002817
:100E000039D1726DB6F85C0082188A4233D1B6F9D6
:100E1000300000282FD4706C296888422BD101241F
:100E200096F8430096F84310491CC9B2884204D290
:100E300096F84300401C86F8430096F843000428C7
:100E400012DBB6F84810B6F84820708E821892B2BD
:100E5000914210D2B6F84810708E4118A6F848108A
:100E600009E000BF98DE002096F84300032802D175
:100E7000300002F051FD002C40F0BE80002086F8CA
:100E80004300B9E02968706C091A491E002900F175
:100E90008F802968F06C091A012980F28980B07E60
:100EA000400707D5B07E10F0FB00B076B6F84A00D8
:100EB000A6F84800002086F84200B6F93C00B6F9D2
:100EC0003E1011EBE001A6F84010002086F8430028
:100ED00028687064307D042842DBB6F84800B6F814
:100EE0004A1088420FD2B6F84810B6F84820708EE3
:100EF000821892B2914233D2B6F84810708E4118DF
:100F0000A6F848102CE0B6F84810728E708E424356
:100F1000B6F8480092FBF0F04118B6F848000A0015
:100F200092B290421CD2A6F8481019E0F46EF06E0E
:100F30000068F066606800F0F9FD606800F0F6FD9A
:100F4000B6F86210081AA6F8620035490A882089A6
:100F500082180A80200001F073FCB6F862000028B5
:100F6000F06E002818D0F06EC068406800F036FFC0
:100F70000400F06EC068808900F028FF10F0030FB5
:100F800001D0012100E00021F06E008904190C1944
:100F90002868241A012CC9DBF06E002803D15FF009
:100FA000FF30308601E0002030860020F07623E01C
:100FB000300002F069FA1FE0B46EB06E0068B066EF
:100FC000B06E002802D10020A6F86400606800F02E
:100FD000ADFD606800F0AAFDB6F86210081AA6F828
:100FE00062000F490A88208982180A80200001F0D7
:100FF00027FCB6F862000028B06E002822D0B06E40
:10100000C068406800F0EAFE0400B06EC0688089E5
:1010100000F0DCFE10F0030F06D0012105E000BF58
:10102000CEDE0020DADE002000212868041BB06E2E
:101030000089241A641A002C04D42968F06C091A57
:101040000129B9DBB6F86010DFF890060088411876
:10105000A6F86010706B002829D0B16B2868091AB7
:10106000002924D5DFF878060168706B081A00B2F1
:10107000B6F93C10B0EBE100B18F4118B187010027
:1010800009B2002901D500B2404200B2B6F93E10C3
:10109000B0EBA100F18F4018F087B6F93C00B6F92B
:1010A0003E1011EBE001A6F8401000207063DFF85D
:1010B0004885B8F80000002800F08982307D0728B4
:1010C00080F28582DFF80C76716A3868091A491E49
:1010D000002938D4716A3868091AB8F80000091A6A
:1010E000491C01292FDADFF8FC456068726A39680B
:1010F000511A626852898A4213DA626813895B1A4C
:1011000005E04289891A03810022428100684289F0
:101110008A42F6DB494209B200F0BEFC002806D044
:1011200005E0494209B2606800F0B6FC0028218958
:10113000726A3868121A891A2181706A38603868B0
:10114000E168486008E03968706A091A002903D527
:10115000B07E50F00200B0763968706A091A002932
:1011600000F131823968706A091A308D091A491CF8
:10117000012980F22882706A3968884240F05281E1
:10118000DFF86055E868808900F020FE10F0030F5A
:1011900001D0012000E0002029894018A8F80000B3
:1011A000308DB8F80010884232D2E868808900F0AB
:1011B0000DFEC0070FD5E868808900F007FE10F02B
:1011C0003E0000F003FEE9688A894CF2FF010A4004
:1011D0001043E9688881308D2881E868808900F0B3
:1011E000F5FD800702D52889401E28812989686875
:1011F00000F0B9FBE868808900F0E8FD10F0030F0B
:1012000001D0012000E0002029894018A8F8000042
:10121000306F002870D0E868808900F0D7FDC007E3
:1012200009D5306F002867D0306F316F096831679A
:1012300001F006FBF5E7346F25E000201BE0E068D5
:10124000808900F0C3FDC00719D5E868808900F0E7
:10125000BDFD800713D4012000F0B8FDE96889893D
:101260000843E9688881E868808900F0AFFD10F0E4
:10127000030FE2D0012029894018A8F800002000BF
:10128000246801F0DDFA002C0AD03968B8F80000B3
:101290004118E0684068091A2089091A0029CED54A
:1012A000002C28D03968B8F800004118E068406880
:1012B000091A01291FDBE06841683868091A298189
:1012C000E868808900F082FD800702D52889401EE9
:1012D00028812989686800F046FBE868808900F069
:1012E00075FD10F0030F01D0012000E000202989D6
:1012F0004018A8F8000034673968B8F800004118B1
:101300007162318DB8F80000091A3185300000F0A3
:1013100074FF68680089002805D06868DFF8C81382
:10132000086000206860E868808900F04FFDC00711
:1013300037D5DFF8B803017851F02001017030E0B3
:101340006068106015E00021328D2089121A511A50
:101350003185300000F051FF6068008900280AD014
:10136000DFF8842310680028EAD06168106800F074
:10137000F2FB00206060E068808900F027FDC00774
:101380000AD5DFF86803017851F020010170307D43
:10139000042801D10720307520683067200001F053
:1013A0004FFA306F00282CD0306FC0684068716AE7
:1013B000884226D1346F306FC06840683860E0687A
:1013C000808900F003FD10F0030F01D0012000E040
:1013D0000020716A2289801840187062E068808954
:1013E00000F0F4FC10F0030F01D0012000E0002019
:1013F000E068808900F0EAFC10F0030FA3D001211F
:10140000A2E7B07EC00708D5B07E10F0FE00B0762F
:10141000B07E50F00200B07603E0B07E50F00100E4
:10142000B076E6E0300002F02FF8306F002804D1EB
:10143000AC4801F014FA3067DBE00024356F0AE0B5
:101440002868002805D13968E8684068091A012928
:1014500059DA2C002D68002D00F0CB803868E9683F
:101460004968884211D0002C22D13968E868406868
:10147000091A0029E4D59B4801F0F1F9002803D0AE
:1014800030672900FFF7F7FBB3E096482989028906
:1014900091420CD201F0E3F9002807D0002C01D0D2
:1014A000206000E030672900FFF7E5FBA1E0A0E045
:1014B0003968E0684068091A491E0029C0D43968B3
:1014C000E8684068091A491C0129B9DA854801F021
:1014D000C6F90600002E15D0E06841682089411841
:1014E0003868091A012908DB3968E0684068091A78
:1014F00021812189606800F036FA266029003000D9
:10150000FFF7B9FB75E0E868808900F05FFCC00771
:101510006FD4744801F0A3F928602868002851D0DE
:10152000E8684168288941183868091A012908DBE8
:101530003968E8684068091A29812989686800F0D3
:1015400012FAB8F8001038684118706A091A308D1C
:10155000091A012936DB2868C068808900F036FC4A
:10156000C00712D52868C068808900F02FFC10F0F1
:101570003E0000F02BFC2968C9688A894CF2FF0103
:101580000A4010432968C9688881716A308D411802
:101590003868091A28680181286801892868406824
:1015A00000F0E1F92868C068808900F00FFC10F0B5
:1015B000030F01D0012000E00020296809894018AC
:1015C000A8F8000015E0300001F05EFF11E041498D
:1015D0000A68706A121A002A07D40968706A091A20
:1015E000308D091A491C012903DBB07E50F002003E
:1015F000B076BDE8F0810000D0DE002010B43C4998
:101600000868002805D03B483B4A13880488A34259
:101610000AD23148006810F1140137480288531C7F
:10162000038092B2885C08E013880088181A138837
:101630005B1C13800968C0B2085C10BC7047F8B529
:1016400004002E4D288800283DD02B4E00203080ED
:10165000FFE730882988884235D2FFF7CFFFC0B234
:1016600000280ED002280DD0F3D3FFF7C7FF0100EA
:10167000C9B2022926DB3188C0B2801E41183180F0
:10168000E7E720E0FFF7BAFF042804D12888318873
:10169000891C884200DA16E0FFF7B0FF07003F021E
:1016A000FFF7ACFF0743380080B240F2CD1188420B
:1016B00003DA380080B2002802D14FF4E677FFE762
:1016C0006786C6E7FFE7F1BD0848017851F01001D1
:1016D0000170704794DE00208CDE0020CEDE0020FA
:1016E00078DE002088DD00209CDE0020DBDE00208C
:1016F00090DE0020CADE0020CCDE0020C8DE002004
:1017000010B502F001FC0021184A117002F005FC2E
:101710001748046800E0E468002C08D0206F002817
:10172000F9D0206F01F083F800202067FFE710BD9B
:1017300080B5FFF7E5FF01BD38B502F0E5FB0B4CC6
:1017400025780121217002F0E8FBEDB2002D0CD1CB
:1017500000220021074802F068FC002805D002F0B2
:10176000D3FB0021217002F0D8FB31BDD5DE002073
:1017700084DE002031170008F8B50E001500C0B255
:10178000002806D002281DD01AD304281ED01BD34F
:101790001EE036272800C0B2002870D0022800F0D2
:1017A0009180C0F08F80032840F09D800C2001F0D4
:1017B0007BFA0400002C0DD1FFF7BEFF00205DE096
:1017C0002227E7E70E27E5E70027E3E70027E1E721
:1017D000002053E0257300202060380080B22044B0
:1017E0001030C01C8008800060602681300080B20C
:1017F000390089B2C91C89088900D1F50171884274
:1018000001D2370006E0BFB2FF1C4FF6FC70074064
:10181000D7F5017767810120E0812700B6B26089A2
:10182000361A18E04FF401710CE005730021417382
:101830000021016038600681310089B2B1F5017F75
:10184000F0D23100418110F1100141600121C181CC
:101850004189761A0700012E0BDB0C2001F024FAD7
:101860000028E2D1FFF768FF200000F021F90020F6
:1018700004E00120E081002060732000F2BD17F138
:1018800013004FF6FC710840320092B2D21C4FF6A2
:10189000FC710A40101880B202F03BFD0400002CDD
:1018A00001D10020EAE7BFB204EB07001030C01CF2
:1018B000800880006060268120896081002020608F
:1018C0002573D6E70B2001F0EFF90400002C01D1BD
:1018D0000020D3E7002060602681208960810020FD
:1018E00020602573C5E70020C8E770B40400180025
:1018F000E4B2002C06D0022C15D012D3042C16D042
:1019000013D316E03625049B9BB22E00B6B2F61C0C
:10191000B608B6000C00A4B2A619B3420BD2002040
:101920001FE02225EFE70E25EDE70025EBE7002578
:10193000E9E7002015E0039B00240460002B06D09B
:10194000ADB2ED1CAD08AD002B44436001E00023B7
:1019500043600223437301810189418102730121A4
:10196000C18170BC704738B504000D002800218982
:1019700080B288422DD2280080B22189411A05E028
:1019800060892D1A208908182081246860892A001E
:1019900092B29042F4D3207B00280FD128006189B5
:1019A00080B288420AD0607B800707D46168091B37
:1019B000691889B2200002F019FC04006581608971
:1019C00020812068002802D0206800F071F80020F3
:1019D000206031BD70B40B001BB2002B01D0002879
:1019E00001D1002044E00B001BB2002B0AD50E00F1
:1019F00036B2764243893400A4B2A34201D2012018
:101A000036E001E00E00B6B2047B456823009BB2CD
:101A1000002B03D023009BB2032B0DD142680B0097
:101A20001BB25B421A444260426810F110039A42B2
:101A300017D2456001201BE023009BB2022B02D08D
:101A4000A4B2012C26D10B001BB2002B12D5438966
:101A5000B6B2B3420ED342680B001BB25B421A44CB
:101A6000426042898A1842810289891801810020D6
:101A700070BC70470B001BB2012B09DBD2B2002AED
:101A800006D042680B001BB25B421A444260E8E792
:101A90000120EDE70120EBE780B5002209B2FFF756
:101AA00099FF02BD80B5012209B2FFF793FF02BD85
:101AB00070B50400002C01D1002036E0002504E0C0
:101AC000200002F06FFB6D1C3400002C2BD002F0C4
:101AD0001BFAE189491EE181E68902F01EFAB6B2DD
:101AE000002E1ED12668207B617B890704D521004A
:101AF000200009698847E6E7010089B2032904D17B
:101B000021000C2001F0EBF8DDE7010089B201298A
:101B100002D080B20228D3D121000B2001F0DFF8DF
:101B2000D1E70024D1E72800C0B270BD0100002039
:101B300001E0401C09680029FBD180B2704710B554
:101B40000400002C06D002F0DFF9E189491CE18194
:101B500002F0E3F910BD002801D0002900D10DE00A
:101B600004E003890A89D318038100680268002A07
:101B7000F7D103890A89D31803810160704710B532
:101B80000C002100FFF7E7FF2000FFF7D8FF10BD92
:101B90002DE9F84305000C0000270026002D05D094
:101BA000002C03D028892189884202D27FF00F00BF
:101BB0004BE06989380080B2091A6289300080B22E
:101BC000121A914204DBB4F80A80B8EB060803E06D
:101BD000B5F80A80B8EB0708424692B26068310057
:101BE00089B2014468683B009BB200EB0309484698
:101BF00002F016FC18EB070718EB060630006189A7
:101C000080B2884201D3002624683800698980B2F6
:101C1000884205D100272D68002D01D1002C16D156
:101C2000002C06D060892189884202D120680028D2
:101C300010D1002D06D068892989884202D12868F0
:101C400000280AD1002CB4D10020BDE8F2837FF037
:101C50000F00FAE77FF00500F7E77FF00500F4E7F3
:101C60002DE9F04704000D0090460027002C01D11B
:101C700000203FE0002D01D100203BE00026002C99
:101C800001D0002D01D1002034E02BE0B4F80A90FF
:101C9000B9EB03094046494680B289B2884200D276
:101CA000C1464A4692B260689BB200EB0301300025
:101CB00080B205EB000A504602F0B2FB19EB0707B1
:101CC00019EB0606B8EB090800230AE0180080B2F9
:101CD0000028DBD01800618980B28842D6D36089A1
:101CE0001B1A2468404680B2002801D0002CEDD198
:101CF000380080B2BDE8F0872DE9F84304000D00FC
:101D000016000027002C02D17FF00F0036E0002DD6
:101D100002D17FF00F0031E02089110089B28842A2
:101D200002D25FF0FF3029E0002C05D0002D03D057
:101D3000208992B2904202D27FF00F001EE018E09C
:101D4000B0466089414689B2884201D2B4F80A801F
:101D5000424692B2380080B205EB0001D4F80490FC
:101D6000484602F05DFBB6EB080618EB070847464D
:101D70002468300080B20028E2D10020BDE8F28360
:101D800010B40300C243002A01D0002801D1012071
:101D90001AE091F82B20920701D4002014E04A6841
:101DA000904201D100200FE08A6813404C688A6895
:101DB0001440A34207D18A6890438968C943884286
:101DC00001D1012000E0002010BC70470100080094
:101DD00080B2000A50EA012080B270470100080278
:101DE00010F47F0050EA01600A00120A12F47F42E8
:101DF000104350EA11607047704780B500F09CFCBA
:101E0000DFF8F80A0178491C01700078C00701D595
:101E100000F001FB01BD05E0826F8A4201D1002282
:101E20008267C0680028F7D1704738B504000125E3
:101E300008E02100DFF8C80A50F825000068FFF725
:101E4000EAFF6D1C042DF4D331BD3EB50400C9B2C8
:101E500000294DD0207D042802D0207D072847D1BD
:101E6000606F002803D1208DB0F5006F40D0208B2B
:101E70000190E08A0090231D2200616AE06C01F06D
:101E8000B9FC200000F004FEDFF8780A0168A142E6
:101E900003D10168C968016009E0006800E0C0681A
:101EA000002804D0C168A142F9D1E168C1600020D6
:101EB000E0600120DFF8C41A0870207D042809D1F1
:101EC0000A202075DFF8800A0168E160046001F0F3
:101ED0000CFE0BE0DFF8A80A0068A04202D1FFF771
:101EE000F3FB03E02100012000F0F9FE002079E07F
:101EF000207D00280AD0012827D0022834D00328CA
:101F000042D004284BD0072854D05EE00025E08A58
:101F1000002814D0DFF86C0A0168A14203D10168DF
:101F2000C968016009E0006800E0C068002804D0CA
:101F3000C168A142F9D1E168C1600020E0602100E0
:101F4000012000F0CCFE002441E000252000FFF736
:101F50006CFF2100DFF8300A00F0C3FD21000220F1
:101F600000F0BDFE002432E000252100DFF89409D6
:101F700000F0B7FD0120DFF8041A087021000120ED
:101F800000F0ADFE002422E0200000F0FBFE050082
:101F9000280040B2002801D10520207517E020005C
:101FA00000F0F0FE0500280040B2002801D1052015
:101FB00020750CE0200000F0E5FE0500280040B28E
:101FC000002801D10920207501E000250024002C03
:101FD00006D0280040B2002802D1200001F094FA77
:101FE000280040B23EBD80B5017D012903D0817E2D
:101FF00051F0100181760121FFF727FF02BD70B576
:1020000006000D001400307D012802D17FF00A0087
:1020100026E0002D12D0B07E50F01000B076002CDB
:1020200004D001213000FFF710FF19E0706F002885
:1020300004D0706FFFF73CFD00207067002C0ED0BD
:10204000307DC01E012801D9001F05D12900C9B269
:102050003000FFF7FAFE03E07FF00A0000E0002006
:1020600070BD2DE9FC470500287D0A2809D129000B
:10207000DFF8D40800F035FD2900012000F02FFE24
:1020800058E000240026EF6CD5F82480D5F88C9019
:10209000D5F810A0287D002818D1E88A002820D083
:1020A000DFF8E0080168A94203D10168C96801604E
:1020B00009E0006800E0C068002804D0C168A942B7
:1020C000F9D1E968C1600020E8600AE00C00EE8AFE
:1020D0002900DFF8300800F004FD0120DFF89C182B
:1020E0000870E86E002802D0E86E00F0A0FBA86E31
:1020F000002802D0A86E00F09AFB286F002802D0BA
:10210000286F00F094FB002C09D0288B0190B6B208
:1021100000962B1D2A004146380001F06BFB290078
:10212000012000F0DCFD4846002803D07FF00C01C0
:102130005046C847BDE8F38780B50121FFF791FFFE
:1021400001BDF8B505000C000423002C01D1DFF817
:10215000A84A002D01D0002C02D17FF005004BE0F1
:10216000287D002802D07FF0050045E0100080B2F5
:10217000002809D100F08FF80200100080B200287A
:1021800026D17FF0010037E0002600E0761C9E4259
:102190001EDADFF86C0750F82600006800E0C0681F
:1021A0000028F3D0C18A1700BFB2B942F7D1002886
:1021B0000BD00168002908D0002C06D02168002926
:1021C00003D001682768B942E9D17FF0070013E026
:1021D000002C08D02068002805D0002C01D1002058
:1021E00000E020682860EA82DFF8100A0168E960F0
:1021F000056001F07AFC0020F2BD0100486A0A8DFA
:1022000010184A8E40F201439A4202DB4FF480627A
:1022100000E04A8ECB6AC31A9A1A002A04D40A8DA7
:102220004A85C96A401A0CE04A6AC86A121A012A29
:1022300002DB0020488503E0CA6A486A101A488514
:102240000020704710B50400208D09182185208DCD
:1022500040F60101884203DB4FF4006020850CE06A
:10226000208D002809D1207D072802D0207D092853
:1022700003D14FF400602085FFE72000FFF7BDFF8A
:10228000B0F5007F06DBA07E50F00200A0762000B3
:1022900001F03AF910BD30B40021FFE7DFF86039F2
:1022A0001888421C1A804FF6FF7280B2904202D109
:1022B0004FF440401880002200E0521C1000C0B2D1
:1022C000042816DADFF838061400E4B250F82400C7
:1022D000006800E0C0680028EFD0C48A1D88AC42C6
:1022E000F8D1491C080080B2B0F5804FD6DB002041
:1022F00000E0188830BC7047F8B504001E00002CC0
:1023000001D0002902D17FF0050083E0207D002864
:1023100002D07FF009007DE0002901D1002000E01B
:10232000086860602283002C02D02068002810D149
:10233000201D02F0E5F8002801D0011D00E0002179
:10234000002801D0002902D17FF0030062E0086874
:102350002060E58AE08A002808D1FFF79CFFE08230
:10236000E08A002802D17FF0010053E000F0E8FB92
:1023700000216162E064411E6164401EA0654FF46B
:1023800000676785608D2085606AE062A4F85C70F4
:102390004FF4E6706086211D608E00F0D9FB6086E8
:1023A0000120A4F84800A4F84A70C4F8846002210F
:1023B000200000F0F3FF0600300040B2002827D1D3
:1023C00002202075ADB2002D14D0DFF8B8050168E9
:1023D000A14203D10168C968016009E0006800E01A
:1023E000C068002804D0C168A142F9D1E168C16089
:1023F0000020E060DFF80C050168E160046001F096
:1024000074FB0120DFF8FC170870200001F07CF855
:10241000300040B2F2BD2DE9FE4F0020DFF8E88722
:10242000D8F80000401CC8F80000DFF8E09799F8E1
:102430000000401C89F8000025E0E868CAF80000A8
:10244000F6B2002E09D0288B0190E88A00902B1D4F
:102450002A00696AE86C01F0CDF92E692900ED685F
:10246000012000F03CFCDFF814B500208BF80000E0
:102470003800002803D07FF00C013000B8479BF8EB
:102480000000002806D00024DFF878A4DAF8005015
:1024900000E0ED68002D00F02981687F99F80010B8
:1024A0008842F6D099F80000687700270026287D3A
:1024B000022805D195F84200062801D17F1C75E05D
:1024C00095F842000C2801D17F1C6FE095F895002B
:1024D000002828D0DFF8380795F89510084410F840
:1024E000010C95F894100200D2B2914204D295F8F2
:1024F0009410491C85F8941095F89410C0B281424C
:1025000054D3280001F06EFA00284FD1002085F83E
:10251000940095F89500072848D295F89500401C3E
:1025200085F8950042E0B5F93000002802D4288EE5
:10253000401C2886E86E002838D0B5F93000B5F97F
:102540004010884232DB287D02280DD0B5F93C00CE
:10255000B5F93E1011EBE001DFF8B80695F842201E
:1025600080568140A5F8401000202886B5F8480024
:10257000B5F85C10884202D2B5F8480001E0B5F821
:102580005C0080B24008A5F84A00B5F84A00698EA0
:10259000490089B2884203D2688E4000A5F84A00FB
:1025A000688EA5F84800280001F06FF9287D0628FC
:1025B00009D1A87EC00606D5D8F80010286A091AE5
:1025C000292900D37F1C287A000734D5287D0428C8
:1025D00002D0287D07282ED1D5F89010DFF83806D4
:1025E00041184FF4FA70B1FBF0F1D8F80020286AD6
:1025F000121A914202D27F1C761C1CE0D5F8901072
:1026000095F89620DFF8140600FB02114FF4FA70DB
:10261000B1FBF0F1D8F80020286A121A91420AD2D0
:10262000280001F0B3F940B2002804D195F89600D3
:10263000401C85F89600286F00280ED0D8F80010AE
:10264000286A091AB5F9402006204243914204D372
:10265000286F00F0ECF800202867287D032806D1B9
:10266000D8F80010286A091A292900D37F1C287D70
:10267000092806D1D8F80010286A091AF12900D3D0
:102680007F1CFFB2002F0AD0D5F88C70280000F014
:10269000FFF9002C3FF4D1AEE868E060D0E62C00F2
:1026A000ED68E07E401CE076E07E217F8842FFF40A
:1026B000F1AE0020E076B14E00203070D4F88800F2
:1026C000002806D021002069D4F888209047010016
:1026D00000E00021307800287FF4D5AE49B200290F
:1026E0007FF4D8AE200000F00FFFD3E60024DFF81F
:1026F0003065356806E0E86830602900ED68012043
:1027000000F0EDFA002D15D00020D8F80020296A3D
:10271000521AF12A00D3401CC0B2002807D028006A
:1027200000F0B6F9002CE6D0E868E060E5E72C00A0
:10273000ED68E7E7BDE8F78FF8B5DFF8D054287803
:10274000401C28701CE028786077A07EC0070AD55E
:10275000A07E50F00200A076200000F0D5FEA07E02
:1027600010F0FC00A076E668606F00280CD0834F64
:1027700000203870200000F011F83878002803D0CD
:10278000DFF8A004046800E03400002C05D0607F6E
:1027900029788842D7D1E468F7E7F1BDF8B504009D
:1027A000606F467B656F00206067D4F8800000286A
:1027B00007D000232A0021002069D4F88070B84790
:1027C00005E000232A002100002000F05DF8010050
:1027D00049B200291DD1B00627D5208DB0F5006F74
:1027E00002D0208D401C2085D4F88000002808D01D
:1027F0000023002221002069D4F88040A047010076
:1028000000E000217FF00C00020049B291420CD19F
:102810000CE07FF00C010A0040B2904201D10800A8
:1028200004E065677FF0040000E00020F2BD10B511
:1028300003E0046800F004F820000028F9D110BD7E
:1028400010B50400002C09D06068002802D0606830
:10285000FFF72EF92100032000F041FA10BD70B5FA
:102860000500032000F020FA0400002C01D1002014
:1028700009E0102226002900300001F0D1FD606837
:10288000FFF75DF9200070BD10B508001400002CA2
:1028900007D02189FFF7D6FC2000FFF709F90020B7
:1028A00010BD5BB2002BFAD1FFF79DFBF8E770B5C6
:1028B0000100C9B2802901DB7F20FFE7002400224C
:1028C0001049096811E003004D7DDBB2AB420BD328
:1028D000DFF834532E680B6AF61AA64204D3286830
:1028E0000C6A041B0A00487DC9680029EBD1002A44
:1028F00002D01000FFF720FC70BD0000D8DE0020E1
:1029000044B0000884DE002070B500240022DFF807
:10291000141309680FE00B7D0500EDB2AB4209D13D
:10292000B94D2E680B6AF61AA64203D32A680C6AC0
:10293000141B0A00C9680029EDD1002A03D0002128
:102940001000FFF78EFB70BD88DE002038B5002335
:102950000020B34909680AE0AB4C25680A6AAD1A41
:102960009D4203D320680B6AC31A0800C968002976
:10297000F2D1002801D0FFF7DFFB31BDD7DE002008
:10298000A0DE00207CDE002080DE002070B5050087
:10299000012000F089F90400002C21D1FFF7D6FFB7
:1029A000012000F081F90400002C19D10920FFF763
:1029B000ABFF012000F078F90400002C10D10820B2
:1029C000FFF7A2FF012000F06FF90400002C07D1EF
:1029D0002800C0B2FFF76BFF012000F065F904008A
:1029E000002C31D0982100222600300001F02EFF6B
:1029F00065754FF4E660A4F860004FF400606085F0
:102A0000608D2085FF20A0724FF4E670608606205E
:102A1000A4F840000620E0875FF0FF302086012008
:102A2000A4F8480000F08CF86065E0646064A0657C
:102A30007548006820627548007860777A48C4F865
:102A400080007A48C4F89000200070BD80B5402016
:102A5000FFF79CFF02BD002800D0016170470028ED
:102A600001D0C0F880107047002800D0C1677047BF
:102A7000002801D0C0F88C107047002803D0027DD8
:102A8000012A00D181617047C0F888100277704731
:102A900010B50400207D002822D0207D0A281FD0F8
:102AA000207D01281CD0606F002804D0606FFEF7E5
:102AB000FFFF00206067206FFFF7B9FE002020674E
:102AC0005FF0FF302086A06EFFF7B1FEE06EFFF7EB
:102AD000AEFE0020A066A06EE0660020A4F86400B0
:102AE00010BD10B50C000168A14203D10168C9688E
:102AF000016009E0006800E0C068002804D0C168F7
:102B0000A142F9D1E168C1600020E0602000FFF738
:102B1000BFFF207D0A280CD0207D012809D0A07E8F
:102B2000C00706D5A07E50F00200A076200000F07D
:102B3000EBFC207D0128002020750020E08210BDE4
:102B40003B490A683048006882180A600868704784
:102B500010B50400080001F0D3FC002802D12000C9
:102B600080B210E0B0F92210080000B2002808D0AE
:102B7000B1F128002100020089B292B2914200D343
:102B80000400200080B210BD38B50400080003E046
:102B9000C568FFF7D1FA2800002805D0016822682F
:102BA0009142F5D0C068F7E731BD38B504000D009B
:102BB000002C1ED0206800281BD01A480168200075
:102BC000FFF7E2FF0D4801682000FFF7DDFF002D51
:102BD0000FD0286800280CD01648006807E0C168AC
:102BE000026823689A4201D12A680260080000281E
:102BF000F5D131BD000000007CB100087CDE002072
:102C00000C000020D7DE002078DE0020D9DE002076
:102C10006CB1000834B00008B84C0A00F824010078
:102C200088DE002084DE00208928000800DD6D0099
:102C30000800002080DE00200021826811604268C8
:102C4000D21C92089200002107E083681B68136081
:102C500083681A6003881A44491C43889942F4DB4C
:102C6000704710B5002407E02448210089B250F8CD
:102C70002100FFF7E1FF641C200080B20D28F3D390
:102C800010BD38B5050001F03FF9A9680C68002CAB
:102C900006D02168AA68116001F03FF9200002E027
:102CA00001F03BF9002032BD80B50100C9B20D2909
:102CB00001DB002005E01149C0B251F82000FFF708
:102CC000E0FF02BD38B504000D0001F01DF9A16858
:102CD00009682960A1680D6001F01FF931BD80B558
:102CE0000200D2B20D2A07DA002905D0034AC0B289
:102CF00052F82000FFF7E6FF01BD0000A8AE000873
:102D00002DE9F04105000E0011001F000022891975
:102D1000143189B20120FEF72FFD0400002C2ED0C3
:102D2000D4F80480E88AFFF751F8A8F80000288B4F
:102D3000FFF74CF8A8F80200C8F80470686AFFF7BB
:102D40004DF8C8F80800B6B2042096FBF0F0401D1C
:102D5000000350F0100080B2FFF738F8A8F80C001C
:102D6000688DFFF733F8A8F80E000020A8F81000CF
:102D70000020A8F81200696A688D4118E9622000F5
:102D8000BDE8F08138B50400A06E00281AD0A56E09
:102D900000E02D6828680028FBD1E8688089FFF7EB
:102DA00015F810F0070F0DD10120FFF70FF8E968B3
:102DB00089890843E9688881A07E50F02000A076C8
:102DC000002003E00121200000F0E8FA32BD2DE9E7
:102DD000F04781468A4617001E00089DE80702D585
:102DE0005FF0040801E05FF00008A80701D50020AB
:102DF00000E00020290701D5002100E0002110EBB0
:102E0000080811EB08080320FFF74EFF0400002C10
:102E100004D15046FEF74CFE00203CE0A572002095
:102E20002060C4F804A0BAF808104046C0B2091ADD
:102E3000218114215046FEF72FFE002804D02000E7
:102E4000FFF7FEFC002026E060684068E060B9F80B
:102E50001600FEF7BBFFE1680880B9F81800FEF71E
:102E6000B5FFE16848803000FEF7B8FFE1684860D0
:102E70005FFA88F8042098FBF0F0401DFFB257EA93
:102E80000037380080B2FEF7A1FFE168888100209A
:102E9000E16848822000BDE8F08770B50C001D0095
:102EA00023002100160089B2B6B2B14223D205999F
:102EB00089070DD4049EB17E49061CD40699C9B277
:102EC000002905D0B16E002902D1F16E002912D07F
:102ED000110089B223009BB203F2CF139B089B0021
:102EE000994201D2130006E023009BB203F2CF13F4
:102EF0004FF6FC710B400022190089B2C0B2FEF7F8
:102F00003BFC002801D1002005E04189091B2980F4
:102F100004810189418170BD027D042A0BD0027DAC
:102F2000072A08D0027D022A05D0027D032A02D09A
:102F30007FF00A0027E00A0092B2002A01D10020A7
:102F400021E0B0F8602089B28A4206D2817E51F039
:102F5000800181765FF0FF3015E0B0F86210102933
:102F600005DAB0F862104FF6FD72914206D3817E09
:102F700051F0800181765FF0FF3004E0B0F862002C
:102F80000028FFD1002070472DE9F04F89B00700DD
:102F90009A46002005900025002600200890002475
:102FA0005FF0000900208DF8110000208DF81A0054
:102FB0000020ADF80C005FF00008B7F85E000223B7
:102FC00090FBF3F07B8E834201DA7B8E04E0B7F84E
:102FD0005E00022390FBF3F3180080B2002802D0B9
:102FE000ADF8183002E0788EADF818000791079818
:102FF000002802D17FF00F00ADE0ADF80E20BDF843
:103000000E103800FFF788FF010049B2002901D0F7
:1030100040B2A0E0B7F862B08DF810A0B86E0028FA
:1030200000F0C280BD6E00E02D6828680028FBD14A
:10303000A87AC00701D5042200E00022A87A800700
:1030400001D5002000E00020A97A090701D5002160
:1030500000E0002182188A18BDF818102889091A82
:103060008A1AB7F86400ADF80C00BDF80C0000280F
:1030700026D02E00BDF80C00BDF80E10884202D2FA
:10308000BDF80C0001E0BDF80E00110089B28142CC
:1030900001DA90460AE0BDF80C00BDF80E10884237
:1030A00002D2BDF80C8001E0BDF80E8018EB0909D2
:1030B000BDF80C00B0EB0800ADF80C00B2EB080254
:1030C0004846BDF80E1080B2884280F0A8801000FB
:1030D00080B2002800F0A3802889002800F09F809B
:1030E000110089B2BDF80E30484680B21B1A9942D1
:1030F00002DAADF8122005E0BDF80E00B0EB0900D1
:10310000ADF812002E009DF81000C00733D5012045
:1031100002909DF810000190009703AB92B2BDF8A9
:1031200012100420FFF7B9FE0590002816D1B87ED2
:1031300050F08000B8760598002802D00598FEF778
:10314000B7FC002C02D02000FFF771FBB7F862003B
:1031500000285FF0FF3009B0BDE8F08FBDF8122005
:103160000798494689B201440598D0F804A0504612
:1031700001F056F90EE00122BDF812100420FEF70E
:10318000FBFA05900028D2D00798494689B2084436
:1031900005994860BDF8120010EB09090598FEF783
:1031A000C5FC10EB0B0B3AE039E00898066033E001
:1031B0000798494689B20844706000229DF81110B2
:1031C00089B20020FEF7D8FA0190002877D03100AC
:1031D0000198FEF7C0FC0198FEF7A8FC10EB0B0B62
:1031E000584680B211286EDA584680B24FF6FD710B
:1031F000884268D29DF81A000090BB6D484680B2A4
:10320000C318002201993800FFF7E1FD06000028ED
:103210005DD0002CC9D1340008961AEB0909484644
:10322000BDF80E1080B2884252D2BDF80E00B0EB4D
:103230000900BDF818109DF811A0B1EB0A0A51461B
:10324000020089B292B2914200D382469DF81000EA
:10325000C00729D5002C01D1012000E00020C0B218
:1032600002909DF810000190009703ABBDF8182064
:103270009DF8111011EB0A0189B20020FFF70DFE35
:10328000019000280FD0524692B20798494689B261
:103290000144019840689DF8113000EB03063000AE
:1032A00001F0BEF897E742E70122514689B20020BB
:1032B000FEF762FA060000287FF47AAF37E73000A5
:1032C000FEF7F6FB33E70198FEF7F2FB2FE72EE758
:1032D000404680B2002828D0D5F804901DE0B9F807
:1032E000080018EB0000A9F80800D9F80000002831
:1032F00011D1424692B20799D9F80400B9F80A30C0
:1033000000EB030A504601F08BF8B9F80A0018EBFD
:103310000000A9F80A00D9F80090B9F1000FDED139
:10332000288918EB0008A5F80880BDF80C00A7F85C
:1033300064000598002808D005996868FEF70BFC22
:1033400029890598008941182981002D01D1BC6681
:1033500000E02C60B96DBDF80E004118B965B7F8F2
:103360006010BDF80E00091AA7F86010A7F862B047
:10337000B7F862000028002E0ED0F06800280BD0AD
:103380009DF81000800707D40820FEF71FFDF168A4
:1033900089890843F16888810020DCE67CB5040057
:1033A0000D0000260020B4F86200102805DAB4F8F9
:1033B00062004FF6FD71884208D3E80706D4A07E6C
:1033C00050F08000A0765FF0FF305CE0A80700D5E9
:1033D0000126F00701D5042100E00021B00701D546
:1033E000002000E00020320701D5002200E000228A
:1033F000411851180022C9B289B20020FEF7BCF969
:103400000100002806D1A07E50F08000A0765FF079
:10341000FF3038E0F6B20096A36D2A00D2B2200049
:10342000FFF7D5FC0100002806D1A07E50F08000F7
:10343000A0765FF0FF3026E0A06E002801D1A166E3
:1034400006E0A26E00E0126810680028FBD111604F
:103450000020A4F8640015F0030F02D0A06D401CFA
:10346000A065E80703D5A07E50F02000A07648684C
:10347000FEF75CFBB4F862104018A4F86200B4F8E0
:1034800062000028002076BD7FB505000024E86CAE
:10349000FEF7A4FC03000022E4B2210089B2280058
:1034A000FFF72EFC0400002C06D1A87E50F003008C
:1034B000A8767FF0010025E0281D01F021F8002802
:1034C00002D17FF003060BE0029006200190687A9B
:1034D0000090AB7A2A1D2900200001F03BF906007C
:1034E0002000FEF7E5FA300040B2002804D0A87EA4
:1034F00050F00300A87603E0A87E10F0FC00A87648
:10350000300040B204B070BD2DE9F0470600B74866
:103510000068B04201D10020CFE0B6F85C00B6F8F8
:103520004810884202D2B6F85C8001E0B6F84880C4
:10353000B46EB07E80070FD5002C09D0E0684068DB
:10354000FEF74CFC716C401A21890818804503D2A3
:103550003000FFF799FFB0E0F76E002F04D000E0D5
:103560003F6838680028FBD1301D00F0C9FF050016
:10357000002D02D17FF003009FE0002E02D03068C2
:1035800000285AD1002D01D0281D00E0002000287D
:1035900002D17FF0030090E0006830604DE0200031
:1035A000FFF74EF948E0307D022807D01020FEF7E3
:1035B0000DFCE16889890843E16888812A003100AF
:1035C000200000F0B6F8010049B2002977D1206848
:1035D000B066307D022803D0B07E10F0FC00B076DB
:1035E000E0684068FEF7FAFB8146E0688089FEF7F4
:1035F000EDFB10F0030F68D00121208910EB0909C1
:1036000011EB0909F06CB0EB0900002801D5C6F8F0
:103610004C90E0688089FEF7D9FB10F0030F56D07C
:103620000120218940180028B9D000202060F06EC8
:1036300000284ED1F4662700B46E002C32D0E0682A
:103640004068FEF7CBFB716C401A21890818804551
:1036500028D3E0688089FEF7B9FBF06E002817D008
:10366000B07E10F0440F13D1B06E002808D0B06EB9
:10367000006800280CD1B06E0089718E884207D294
:10368000B6F86000002803D0B6F86200102801DB0D
:10369000012000E00020002885D1B07E10F0A00FAE
:1036A0007FF481AFB06E002802D10020A6F864003C
:1036B000B07E10F07F00B0760020BDE8F087B17ECC
:1036C00051F08001B17640B2F7E7002195E7002084
:1036D000A7E7E0684068FEF781FB8146F86840682C
:1036E000FEF77CFBB9EB0009B9F1000F1ED516F10E
:1036F0006C0901E0D9F80090D9F8000000280FD03B
:10370000D9F80000C0684068FEF768FB8246E068B0
:103710004068FEF763FBBAEB000ABAF1000FE9D488
:10372000D9F800002060C9F8004085E73C603F6898
:1037300082E7FEB504000D0016006068C08901280C
:1037400001D0002050E0686AFEF748FBE16888601D
:10375000688DFEF73BFBE168C881696A688D411896
:10376000E962E06810F11407A07AC0070BD5291DA3
:103770004FF4E670FFF7ECF980B250F00170FEF7FD
:103780002DFB3860381DB5F93000002801D5002028
:103790002886686B002807D1154800686863E068D0
:1037A0004068FEF71BFBA863E16860684068081A80
:1037B00061684989091A6268518161680989081A32
:1037C00061680881E068616848600020E1680882FB
:1037D000029606200190687A0090AB7A2A1D290093
:1037E000606800F0B7FF40B2FEBD0000A0DE002020
:1037F00078DE00202DE9FF478146884615001F002E
:10380000002214210120FDF7B7FF0400002C3AD05C
:103810000D9E0C98D4F804A080B2FEF7D7FAAAF84F
:103820000000300080B2FEF7D1FAAAF80200484644
:10383000FEF7D4FACAF804004046FEF7CFFACAF8F9
:10384000080045F21400FEF7C1FAAAF80C0008209F
:10385000AAF80E000020AAF810000020AAF8120012
:10386000380000F04DFE00280AD029000290062002
:10387000019000200090FF233A00200000F06AFF32
:103880002000FEF715F9BDE8FF8780B5C16E00295D
:1038900014D0C26E00E0126811680029FBD1816E5D
:1038A0001160C16E81660021C16690F84210491C0A
:1038B00080F8421000214163FFF726FE01BDF8B5F4
:1038C0000400E06E002826D0E56E2868E06614F15A
:1038D000680600E03668306800280CD03068C068A0
:1038E0004068FEF77BFA0700E8684068FEF776FA62
:1038F0003F1A002FEED43068286035602868002811
:1039000002D10020A4F8640094F84200401C84F81E
:10391000420000206063F1BD10B50400E06E002895
:1039200033D0A07E400730D42000FFF7C8FFB4F8A2
:103930005C00B4F84810884207D2B4F85C00022159
:1039400090FBF1F0A4F84A0006E0B4F84800022128
:1039500090FBF1F0A4F84A00B4F84A00618EB0EB95
:10396000410F04D2608E80B24000A4F84A00B4F83F
:103970004A10628E032000FB0211A4F84810A07EBA
:1039800050F00400A0760020208610BD3EB5050052
:10399000E86C401EFEF722FA0300002200212800F6
:1039A000FFF7AEF90400002C02D15FF0FF3018E001
:1039B000281D00F0A5FD002802D17FF003050BE0D3
:1039C00002900620019000200090AB7A2A1D290069
:1039D000200000F0BFFE05002000FEF769F8280077
:1039E00040B23EBD2DE9FF410700FC6E002C00D126
:1039F000BC6E002C01D100205FE0E0688089FEF7FA
:103A0000E5F9C00704D52089002801D1012600E08E
:103A100000263000C0B2002801D0002200E00122C0
:103A2000E068436892B200213800FFF769F90500A9
:103A3000002D02D15FF0FF303FE0D5F80480F6B2F0
:103A4000002E0BD01120FEF7C1F9B8F80C204CF273
:103A5000FF010A401043A8F80C000BE0686810F161
:103A600014016068038920891B1A9BB201226068D7
:103A7000FEF7F6F8E0684068FEF7B0F9401CF96C14
:103A8000091A002900D5F864381D00F039FD002816
:103A900002D17FF003040BE0029006200190002089
:103AA0000090BB7A3A1D3900280000F053FE040054
:103AB0002800FDF7FDFF200040B204B0BDE8F08112
:103AC00080B5FEF79AF983480068002803D1824840
:103AD0000068002805D000228049FA2000F038F85C
:103AE00002E000207E49086001BD80B57C4908687D
:103AF00000280ED177480068002803D17648006876
:103B0000002806D00120086000227449FA2000F045
:103B10001FF801BD38B50400250068688047220001
:103B20007049286800F014F831BD10B5012408E090
:103B30006D4800EBC4026B4950F8340000F008F8FF
:103B4000641C032CF4D301F00DF96849086010BD22
:103B5000F8B505000E0017000A20FFF7A5F80400CD
:103B6000002C4BD001F0FEF80100614A10680028DB
:103B700003D100205D4B196003E05C480068091A1E
:103B8000080000212160A660E760401960601068AD
:103B9000002801D1146031E010684068854208D2E5
:103BA00010684068451B106845601068206014600C
:103BB00024E0106800E0006800281FD063684168B6
:103BC0005B1A63600168002904D0616803685B6860
:103BD0009942F0D20168002906D001684A686168FC
:103BE000521A01684A6006E061688D4203D211688A
:103BF00049684D196560016821600460F1BD2DE9D7
:103C0000F0473B4C206800282BD001F0ABF8374D33
:103C10002F68C71B0026216800291FD048688742EB
:103C20001CD301262A68486882182A6048683F1A0F
:103C300008682060D1F80880D1F80C900A20FFF7BE
:103C40004EF84046002809D0DFF8A8A0504600F002
:103C500036F94846C047504600F038F9F6B2002E13
:103C6000D8D1BDE8F08710B5214C2068002802D1DA
:103C70005FF0FF300EE001F075F801001B480068AE
:103C8000081A21684968814201D2002002E02168B7
:103C90004968081A10BD38B504000D000DE0FFF7A3
:103CA000E2FF0200002A06D02900200000F05BF8A5
:103CB00010F1010F0BD1FFF7A2FF0D48006800289B
:103CC000EDD100222900200000F04DF8FFE731BDC2
:103CD0000000000084DE002088DE0020C13A0008D9
:103CE000BCDE0020153B0008D4AF0008B8DE002081
:103CF000B4DE0020B0DE00201CB504008A48D0E904
:103D00000023CDE9002300910021684601F065F908
:103D100020602068002802D15FF0FF3000E0002022
:103D200016BD10B50400206801F0ECF9206801F020
:103D3000F7F910BD38B504000D005FF0FF3229001F
:103D4000206801F051F90028F7D131BD80B500227B
:103D5000006801F049F9002801D1002001E05FF07E
:103D6000FF3040B202BDFEB505000E00140001F0A8
:103D700016F80700002C11D022002968684601F0CF
:103D800063F90098102806D10198306001F007F817
:103D9000C71B38000EE05FF0FF300BE05FF0FF3232
:103DA0002968684601F050F90198306000F0F7FF8B
:103DB000C71B3800FEBD1FB50C0000220168684615
:103DC00001F042F90098102803D1019820600020EA
:103DD00001E05FF0FF3004B010BD0068002801D1A1
:103DE000002000E00120704700210160704738B5D5
:103DF00004000D004D48006800900121684601F064
:103E000065F820602068002802D15FF0FF3007E0ED
:103E1000EDB2002D03D10021206801F06CF80020E4
:103E200032BD70B505000C0000F0B9FF0600002C93
:103E30000DD02100286801F05EF8002804D100F0C0
:103E4000AEFF861B30000DE05FF0FF300AE05FF050
:103E5000FF31286801F04FF80028F8D100F09FFFEB
:103E6000861B300070BD80B5006801F080F801BD90
:103E700080B5006801F0A4F801BD0068002801D1F8
:103E8000002000E00120704700210160704780B5EC
:103E9000274800F0B1FF2749086001BD1CB50400A8
:103EA000254800680090684600F0A6FF2060206862
:103EB000002802D15FF0FF3000E0002016BD80B581
:103EC0005FF0FF31006800F09CFF01BD80B5006825
:103ED00000F0D3FF01BD2DE9F84185B007000E00C9
:103EE00014001D00DDF830806846142101F026F929
:103EF00000970196ADF8088004952100684600F00F
:103F000059FF06B0BDE8F08180B55FF0FF31094888
:103F1000006800F076FF012002BD80B5054800680A
:103F200000F0ABFF01BD00005CB1000884B10008E7
:103F30008CB1000830DE002088B100081CB567494C
:103F40000868002803D06648006809688847654CFF
:103F50002000FFF7B4FFFFE72000FFF7B7FF694637
:103F60006148FFF798FE2000FFF7A9FF009800289E
:103F7000F2D000980078022804D01FD3042817D06C
:103F80000CD31BE00098816800984068009AD268C2
:103F9000904700990920FEF7A2FEDDE700988068AF
:103FA00000994968884700990820FEF798FED3E7F2
:103FB00000988068009949688847CDE7CCE72DE9EB
:103FC000F04105000E001700DFF81C814046FFF7A6
:103FD00004FF0920FEF768FE0400002C02D15FF008
:103FE000FF3012E0022020706560A660E7602100CB
:103FF0004046FFF7ABFE002806D021000920FEF75F
:104000006EFE5FF0FF3000E00020BDE8F08180B57B
:1040100091F82B2012F0180F03D0344AFFF7CFFF8E
:1040200002E0334AFFF7CBFF02BD2DE9F041060065
:104030000F001500DFF8B0804046FFF7CEFE0820E5
:10404000FEF732FE0400002C02D15FF0FF300BE0DF
:10405000032020706660A760EDB2002D06D021001D
:104060004046FFF767FE0020BDE8F0812100404692
:10407000FFF76CFE0028F6D021000820FEF72FFE87
:104080005FF0FF30F0E770B504000D00154E300012
:10409000FFF715FF2800A0473000FFF717FF0020AB
:1040A00070BD38B504000D0001F04BF80B480460FA
:1040B0000B48056006210C48FFF71EFE0028094842
:1040C000FFF7ECFE0028032000904FF480630022ED
:1040D00008490948FFF7FFFE31BD0000A4DE0020BB
:1040E000A8DE0020B0DE0020ACDE0020BD96000877
:1040F000714500083D3F000854B0000810B4C34AA1
:10410000116803880B44984213D01979002910D103
:10411000BF4909688B420CD0BE490C689C4200D153
:104120000860198801801168411A14681B882344AB
:104130005980116843880B4483420FD019790029B4
:104140000CD1B4490C68844200D10B6001881980FD
:1041500011685B1A116800880844438010BC7047DE
:1041600010B5AA49AC4880088000086008684FF480
:10417000C86202800023438000230371A4480B68B7
:1041800013F5C863036001230468237103681A8070
:104190000068428008689F490860A048FFF77EFEDB
:1041A000002810BD38B50400002C1ED097480068C8
:1041B000844203D396480068844204D3FFF7A4FEE8
:1041C000FFF7ABFE11E0954D2800FFF778FEB4F144
:1041D0000800002101718F490A68904200D20860EE
:1041E000FFF78CFF2800FFF771FE31BD2DE9F04786
:1041F0000D00ADB2ED1C4FF6FC710D40290089B2E7
:104200000C2900D20C25290089B240F2416291426A
:1042100001D300207BE004007C4E3068844203D34D
:104220007B480068844205D3FFF76EFEFFF775FEFA
:1042300020006CE0B4F10807D6F80080B7EB08085E
:104240003988404680B2091AB1F1080A504629005F
:1042500080B289B2884201D2002058E0280051463D
:1042600080B289B2884201D1200050E0DFF8AC91E1
:104270004846FFF724FE3068398801440879002851
:104280001FD1088815EB08050835624A13688B4270
:1042900004D131682B009BB21944116031682A00A7
:1042A00092B2114400220A710880A1F802803D8078
:1042B0000888B0F5C86F26D0306809880844458062
:1042C00021E01FFA8AFA280080B2143082451AD3FE
:1042D00015EB080508353068290089B208444D49B6
:1042E0000A68904200D2086000210171398801807B
:1042F000A0F802803D800188B1F5C86F03D0316815
:104300000088084445804846FFF7E0FD2000BDE8EE
:10431000F087F8B50600300080B2002801D10020F7
:1043200073E0B6B2F61C4FF6FC700640300080B267
:104330000C2800D20C26300080B240F24161884245
:1043400001D3002061E0354C2000FFF7B8FD2F4974
:10435000304A10680B68C31A02E008689BB2C35A5F
:10436000180080B23500ADB2D5F5C865A84248D274
:1043700008681D00ADB2054428790028EDD12F88CA
:10438000180080B23F1A083F300080B28742E4D361
:104390002F88180080B23F1A083F300080B21430D6
:1043A000874216D3F618083608683700BFB238447B
:1043B000002707712F88078043802E8001232B71EF
:1043C0000388B3F5C86F06D00B6800881844468090
:1043D00001E001202871106885420CD1136802E0C9
:1043E00008681B8803441879002803D0084800682F
:1043F0008342F5D113602000FFF768FD15F1080036
:1044000003E02000FFF762FD0020F2BDDCDD0020AC
:10441000E0DD0020E4DD0020F7C80020E8DD00201A
:1044200062B38B0708D0521E11F8013B00F8013B24
:1044300000F024808B07F6D1830740F0208000BF76
:10444000103A07D330B4B1E83810103AA0E8381069
:10445000F9D230BC530724BFB1E80810A0E8081017
:1044600044BF51F8043B40F8043BD20724BF31F865
:10447000022B20F8022B44BF0B7803707047121FE9
:1044800017D35B0009D151F8043B20F8023B1B0C09
:10449000121F20F8023BF6D20BE051F8043B00F863
:1044A000013B1B0A20F8023B1B0C121F00F8013BCA
:1044B000F3D238BF121D521E24BF11F8013B00F881
:1044C000013BF8D8704730B4002513E050F8042BB6
:1044D000D30744BFA9F101039A18091F042942F820
:1044E000045BFAD213468C0744BF15809B1CC90796
:1044F00048BF1D7050F8041B0029E7D130BC70473D
:1045000010B40200DFF83003006808E090F82B10C8
:10451000890703D41168C368994214D00068002841
:1045200012D090F82B1011F005010529F6D1416841
:104530000029F3D0136881680B40446881680C40FF
:10454000A342E3D112E011E0BC49086800280AD078
:10455000086890F82B0010F00500052803D10868C2
:104560004068002801D1002000E0086810BC7047B6
:104570002DE9F04706008A4677683878C0B200090E
:10458000C0B2042804D03000FDF792FA0020DFE02A
:10459000387810F00F0080B25FEA80087888FDF765
:1045A00015FC04002000318980B2884204D2210029
:1045B00089B23000FDF7D7F97089414689B2884247
:1045C00007D33089A4B2A04203D3404680B2142856
:1045D00004DA3000FDF76CFA0020B9E0DFF86092F1
:1045E0003869C9F81400F868C9F8100099F814007F
:1045F00010F0F000E0281CD19AF82B00C00716D567
:10460000DAF80400002812D054465146D9F81000B8
:10461000FDF7B6FB002805D199F8100010F0F00066
:10462000E02829D13000FDF743FA002090E0002473
:10463000EBE70125544694F82B00C0070ED56068BF
:1046400000280BD0D9F814006168884211D02100ED
:10465000D9F81400FDF794FB00280AD1002D09D0E9
:10466000002575480468544500D12468002CE2D127
:10467000CBE7CAE72468F6E7002C04D13000FDF749
:1046800017FA002064E0F8884FF63F71084208D01E
:10469000300000F0C3FE0600002E01D1002057E0DC
:1046A0007768C9F80040C9F804A0C9F808703878DC
:1046B00010F00F0080B28000A9F80C00414609B24A
:1046C000494209B23000FDF7E7F9787A01280DD0A8
:1046D000062806D011280ED15146300001F0C4F84A
:1046E00023E051463000FBF74DFD1EE051463000FF
:1046F00001F0DCFA19E02100D9F81400FDF740FBC5
:1047000000280FD199F8140010F0F000E02809D02B
:10471000414609B23000FDF7C5F97760022130004B
:1047200001F092FB3000FDF7C3F90020C9F800004A
:104730000020C9F804000020C9F808000020A9F8EA
:104740000C000020C9F810000020C9F81400002057
:10475000BDE8F0877FB50A9E0C00002A05D000292D
:1047600002D00968002900D1341D0999089D0296DC
:10477000C9B20191EDB20095DBB2210000F002F860
:1047800004B070BD2DE9F84306000D0014009946F1
:10479000002C38D05FF0140814213000FDF77CF9AC
:1047A000002802D07FF0010044E00998089977685A
:1047B00087F808907872206838611FFA88F804201A
:1047C00098FBF0F050F04000387079703089FDF7B8
:1047D000FDFA78800020F880DFF86880B8F80000E3
:1047E000FDF7F4FAB880B8F80000401CA8F8000003
:1047F000002D03D114480068F86001E02868F860D3
:104800000020788103E07068006900906C460A9B84
:10481000588C002809D0588C3189884205D2220052
:104820001900300000F0EAFE04E022003100180018
:104830005B699847BDE8F28320DE002024DE00207B
:104840000CDD0020C4DE00207CB1000862F30F22E2
:1048500062F31F42401810F0030308D0C91A1FD397
:10486000DB0748BF00F8012D28BF20F8022D1300F8
:1048700030B414461546103928BF20E93C00FAD858
:10488000490728BF20E90C0048BF40F8042D8900E3
:1048900028BF20F8022D48BF00F8012D30BC70471A
:1048A000C91818BF00F8012DCB0728BF00F8012D4B
:1048B0007047000080B586B00068DFF86814884251
:1048C00040F0958000200590DFF85C04016851F00D
:1048D00000710160016811F00071059105990021D6
:1048E0000591016851F080610160016811F08061FB
:1048F0000591059900210591016851F00061016061
:10490000016811F000610591059900210591016888
:1049100051F004010160016811F00401059105994D
:1049200000210591016851F001010160016811F059
:1049300001010591059900210591016851F00201DD
:104940000160016811F002010591059900210591AE
:10495000016851F040010160006810F040000590CE
:104960000598322000900220019000200290032040
:1049700003900B2004906946DFF8B00301F0ACFA15
:1049800086200090022001900020029003200390D6
:104990000B2004906946DFF8980301F09DFA4FF46C
:1049A000005000900220019000200290032003900C
:1049B0000B2004906946DFF87C0301F08DFA4FF478
:1049C00020500090022001900020029003200390CC
:1049D0000B2004906946DFF8600301F07DFA0022A5
:1049E00005213D2001F0FFFB3D2001F00DFC07B04B
:1049F00000BD80B5D148006800F0B9FA01BD30B5FE
:104A000089B0040000200090CD4DC64828600120E8
:104A100068600020288200208DF8080002A880210C
:104A20004170E12181701221C17034210171562140
:104A3000417102A868610120A8610020E8615FF46B
:104A400000002862280001F0F9FBC0B2002805D15F
:104A500094F82B0050F0040084F82B000423B94A8A
:104A6000B949280001F005FD0423B84AB8492800D7
:104A700001F03DFD062084F824006869007884F880
:104A800025006869407884F826006869807884F891
:104A900027006869C07884F828006869007984F87C
:104AA00029006869407984F82A0040F2DC5060846B
:104AB00094F82B0050F00A0084F82B00A5480068F9
:104AC0000190012101A800F001FA9C49086004A8A6
:104AD000A1491422FFF7B4FC210004A800F06AF9F0
:104AE000280001F0ECFE6A461D21280001F065FE59
:104AF000009850F00B000090009A1D21280001F052
:104B00009EFE6A461D21280001F057FE09B030BD07
:104B10002DE9F84F8A4DE86AD0F808B05FF0000937
:104B2000002000200020EE6A5FF0000A0C000DE07B
:104B30003A00606800EB08010BEB0A084046FFF7FB
:104B40006FFC17EB0A0A17EB09092468002C32D016
:104B50003068002803D467895FF0000813E07FF015
:104B600007002DE0D6F808B0AAF2F450C71908F2F1
:104B7000F458B8EB0A0809F2F4594846D146B0EBAC
:104B800009095FF0000A1AEB070040F2F55188426C
:104B9000CED340F2F452B2EB0A02606800EB080197
:104BA000D3445846FFF73CFCF66830680028D9D556
:104BB0007FF0070004E04946280001F0D7FC002000
:104BC00041F214012A685258920607D520222B6818
:104BD0005A5000212A6841F20403D15040B2BDE886
:104BE000F28F2DE9F84F0025002000200020002042
:104BF00000200020524E300001F04FFD002801D06F
:104C0000002062E0F16BD6F84080080080B20028F6
:104C100005D0032289B20420FCF7AEFD0500002D6B
:104C200036D0376B5FF0000A2C002AE040F2F452D5
:104C3000B2EB0A0208EB0A01606800EB0B08404681
:104C4000FFF7EEFBFF68D7F80880AAF2F45010EBEC
:104C500009090BF2F45BBBEB0A0AD3465FF0000ACA
:104C60001AEB090040F2F5518842DFD24A4608EBC0
:104C70000A01606883445846FFF7D2FB19EB0A0A21
:104C80002468002C04D0B4F80A905FF0000BE7E72A
:104C9000306B002105E0026852F000420260C068FB
:104CA000491CB26B9142F6D30020B06341F214006C
:104CB00031680958090607D5802132681150002053
:104CC000316841F2080288502800BDE8F28F38B5FB
:104CD00005005FF0FF311948006800F00CF900286A
:104CE000F7D12800FFF77DFF0400002C08D0290031
:104CF00020002A699047002802D02000FCF7D8FE47
:104D0000002CEED1E5E780B5732180F82C107421DA
:104D100080F82D101149416111498161FFF76FFE43
:104D2000002002BD008002403038024000080240EE
:104D3000000002400004024000180240A8DD0020EC
:104D4000FCDB002024B100207CDB002054990020F3
:104D5000FCDA002074B10008ECAF0008F9900008FC
:104D6000114B000880B501F08FFF02BD010000204B
:104D70000A0012B2842A03D009B2C91C091808001B
:104D80007047EFF30580002801D0012000E00020EB
:104D9000C0B2704780B502F086F8002002BD80B531
:104DA000FFF7EFFF002802D002F02DF901E002F03A
:104DB00026F902BD3EB504000D00B4F90800FFF766
:104DC000D5FF02A9019100902B00226992B22168BF
:104DD000606801F05FFF012801D0002000E0029828
:104DE0003EBD80B50121B0FBF1F0002800D10120CB
:104DF00002F033F8002002BD80B5012002F0CEFCA5
:104E000002BD38B5050000200090002D01D18020A2
:104E100028E0002411F1010F02D15FF0FF3407E018
:104E2000002905D00120B1FBF0F4002C00D10124B1
:104E3000FFF7A7FF002816D06A460021280002F0DD
:104E40002DFF012801D0FF200CE00098002808D099
:104E50005FF08050DFF8A8120860BFF34F8FBFF3F8
:104E60006F8F002032BD002322000021280002F0B5
:104E700038FE0128F5D0FF20F4E738B504000025FE
:104E800000200090FFF77DFF002814D06946200025
:104E900002F0CBFD012801D0FF2016E00098002889
:104EA00012D05FF08050DFF858120860BFF34F8FC8
:104EB000BFF36F8F08E0002300220021200002F0E2
:104EC0007AFC012800D0FF25280032BD10B5012949
:104ED0000FD103220021012002F01BFC0400002C52
:104EE00005D0002300220021200002F064FC2000F5
:104EF00000E0002010BD38B5050000200090002D16
:104F000001D1802028E0002411F1010F02D15FF0CF
:104F1000FF3407E0002905D00120B1FBF0F4002C9C
:104F200000D10124FFF72DFF002816D06A4600218A
:104F3000280002F0B3FE012801D0FF200CE0009809
:104F4000002808D05FF08050DFF8B4110860BFF38C
:104F50004F8FBFF36F8F002032BD0023220000214E
:104F6000280002F0BEFD0128F5D0FF20F4E738B597
:104F70000400002500200090FFF703FF002814D054
:104F80006946200002F051FD012801D0FF2016E003
:104F90000098002812D05FF08050DFF8641108609C
:104FA000BFF34F8FBFF36F8F08E000230022002173
:104FB000200002F000FC012800D0FF25280032BDAF
:104FC00010B50400FFF7DDFE002801D0822003E0C9
:104FD000200002F0D9FE002010BD80B500224168FB
:104FE000006802F096FB02BD33B581B005000020D9
:104FF00000900120B2FBF0F4002C00D10124FFF757
:10500000C0FE002816D000236A4602A9280002F03C
:105010009DFC012801D0FF200BE00098002807D05C
:105020005FF0805036490860BFF34F8FBFF36F8F3A
:1050300000203EBD0023220002A9280002F0BBFB95
:105040000128F5D0FF20F4E77FB506000D0002959A
:1050500000200190002D07D180200090684690E844
:105060000E0086E80E0042E000200390002412F1BA
:10507000010F02D15FF0FF3407E0002A05D00120C4
:10508000B2FBF0F4002C00D10124FFF77AFE0028D7
:1050900017D003AA01A9280002F000FE012802D1BE
:1050A0001020009001E0002000900398002819D003
:1050B0005FF0805012490860BFF34F8FBFF36F8FCE
:1050C00010E00023220001A9280002F00AFD0128B7
:1050D00002D11020009005E0002C01D1002000E05A
:1050E00040200090684690E80E0086E80E007FBDE4
:1050F00080B502F09AF9012801D002F0AAFF01BDA3
:1051000004ED00E010B50400FFF73BFE002803D0DB
:10511000200002F02DFE02E0200002F016FE10BD7D
:1051200010B50400FFF72DFE002801D0822003E017
:10513000200002F029FE002010BD0000002202F035
:10514000E7BF80B5FEF7A3FEFFF70AF8FDF789FD7C
:1051500002F0F8FF00F03AFBFCF74EFEFEF7E5FC2C
:1051600001BD000038B50025DFF85406046804E0EE
:10517000E07F401EE07725002468002C08D0E07F07
:105180000028F5D120002468290000F002F8F4E797
:1051900031BD2DE9F04107000D000026002D786893
:1051A00041688888002815D17C68086878601422D6
:1051B00017F10801D4F804804046FFF731F90121C6
:1051C000200000F048FE2000FCF7B0FC861920000B
:1051D000FCF76EFC7C6809E06068A0460468404605
:1051E000FCF7A4FC86194046FCF762FC002CF3D1C6
:1051F0002900380000F077F8DFF8C8050188891B1E
:105200000180B6B23000BDE8F081F8B504000D00B1
:10521000002600205FF0000C00230027DFF8A01517
:10522000096814E0C27F91F81FE072450AD30800B4
:10523000634607E00022002A04D07F1C0028F1D139
:10524000080063460A68002A00D08C4609680029D5
:1052500010D04A69D4F80CE0724509D18A69D4F8B3
:1052600010E0724504D18A89B4F804E07245E1D0B7
:105270000122E0E7002803D01900FFF78AFF861912
:10528000AE4201DA022FC4DA3000F2BD70B505007B
:105290000E000420FDF708FD0400002C0DD13100A4
:1052A0002800FFF7B2FFB04203DB0420FDF7FCFC4F
:1052B0000400002C01D1002014E02021002226004F
:1052C0003000FFF7C3FA0320E077DFF8F404016849
:1052D00021600460142214F1080629003000FFF751
:1052E0009FF8200070BD80B5DFF8D4241368834296
:1052F00002D10168116001E002680A600100042027
:10530000FDF7EDFC01BD2DE9F84306000F00002478
:105310000125D7F80490B9F80200FCF757FD804644
:105320001FFA88F899F8000010F00F00B8EB800819
:10533000B9F80600FCF74AFDC004C00C80B2C000FA
:10534000796800220A60888018EB0000C8807068C5
:1053500010E08888938898423CD08888D388984207
:1053600039D3002C04D0E0889388984200D00025DF
:1053700010681400002822D042688B88B2F804C05C
:105380006345E6D20860002C18D08B88B4F806C0BC
:10539000634503D39288CB889A420DD23800FCF73C
:1053A000C5FBDFF820140A88101A08803800FCF7C3
:1053B0007FFB0020BDE8F283276000E077600028D3
:1053C0000BD1002C08D02760E0888A88904204D056
:1053D000002502E0E2E7E1E77760B07FC0071BD578
:1053E000002D17D07068002804D07068406880884D
:1053F000002801D000250DE00A00086801E0020045
:105400000068002805D04068D18882889142F6D093
:105410000025002D2800CDE70020CBE72DE9F84F2F
:105420000500D5F8048098F8000010F00F00800007
:10543000142805D02800FCF73BFB0020BDE8F28FC4
:10544000B8F80600FCF7C2FCC004C00C80B25FEAEA
:10545000C009B8F80200FCF7B9FC82461FFA8AFAC4
:1054600098F8000010F00F00BAEB800A2800FCF753
:105470005DFB8346DFF84C633188584680B24118A3
:105480000B290DDB594689B24046FFF7BEFE0028C6
:1054900005D03188584680B241180B2900DBC9E796
:1054A000C74F3C6800E02468002C13D06069D8F82E
:1054B0000C1088420BD1A069D8F81010884206D190
:1054C000A089B8F80410884201D1012000E0002032
:1054D0000028E8D0002C08D1594689B24046FFF791
:1054E000D5FE0400002C14D1A4E7B8F80600FCF7A0
:1054F0006DFCC0040DD1E089FCF768FCC00408D045
:105500001422414614F1080000900098FEF788FF2D
:10551000009830881BEB000BA6F800B098F8060046
:10552000800607D4A07F50F00100A0771AEB09098C
:10553000A4F81C9029002000FFF7E5FE002844D0C5
:10554000A08B1430A0836068406805686068D0F85C
:105550000480142214F10801C1464846FEF760FF9A
:10556000A08BFCF733FCA8F802000020A8F8060086
:105570000020A8F80A00D4F804800CE0D5F80490C4
:105580007FF013012800FCF787FA29004046FCF75A
:10559000E2FAD9F80050002DF0D13868844201D1E8
:1055A000002107E0396800E00968002902D0086896
:1055B000A042F9D12000FFF796FE4046FCF7B6FA6C
:1055C0003188081A3080404638E7002036E780B539
:1055D0000520FDF769FB02BD80B501000520FDF740
:1055E0007EFB01BD10B504006069002802D060692F
:1055F000FCF75EFA2000FFF7EFFF10BD2DE9F34F37
:1056000087B0070014000898408C1438082190FBDC
:10561000F1F0ADF80C005FF014095FF0000A786853
:1056200005900598017811F00F018900142902D026
:105630007FF0050072E0C088FCF7C8FBC104C90C0C
:10564000ADF80A10800402D57FF0050066E03889C5
:10565000B0F11408069438E0002009E01AEB0909BB
:105660000898408C1438414689B28842F4DB012006
:10567000BDF80A10C904C90C002801D151F4005129
:10568000080080B2FCF7A2FB0499C880BDF80800AE
:10569000143080B2FCF79AFB0499488000200499EA
:1056A0004881069A31000898089B5B69984730004A
:1056B000FCF7FEF9BDF80800B8EB0008BDF80A10C9
:1056C000BDF80C004118ADF80A10404680B2002821
:1056D00074D0404680B2BDF80C10B0EBC10F02DAB6
:1056E000ADF8088005E0BDF80C0080B2C000ADF850
:1056F0000800002214210220FCF73EF80600002ECC
:105700000AD01422059974682000FEF789FE70689B
:105710000490BDF808B007E05FF0FF3009B0BDE8C5
:10572000F08F5FF000093F68584680B2002895D09E
:10573000B7F80AA0BAEB090A5846514680B289B2B6
:10574000884201D2DA46FFE7504680B20028E8D00E
:10575000FFF73DFF0400002C03D13000FCF7A8F94F
:10576000DAE7504680B201907868494689B2084429
:10577000009023000222514689B20420FCF7B5F8BC
:105780000500002D06D12000FFF726FF3000FCF7B2
:105790008FF9C1E73800FCF7D2F967610A48206148
:1057A00029003000FCF7D7F9BBEB0A0B584680B252
:1057B0000028B9D05FF000093F68B5E70020ADE7E9
:1057C000BCDD0020C6DE0020E5550008704710B49F
:1057D0000021FFE7DFF8C4241088431C13804FF634
:1057E000FF7380B2984202D14FF440401080DFF83E
:1057F000B004006800E0C06800280BD0438A148819
:10580000A342F8D1491C080080B2B0F5804FE1DB1B
:10581000002000E0108810BC7047D2B2002A14D0DB
:10582000002810D00268002A0DD0DFF878245369D0
:1058300013F1010F07D00368886803405269886834
:10584000024093420ED101200DE0002808D00168EB
:10585000002905D00068DFF84C144969884201D15D
:10586000012000E0002070472DE9FE4F06008B4626
:1058700000207089082803DA3000FCF719F994E059
:105880007468DFF8207439687869FCF779FA804623
:105890002088FCF79BFA81466088FCF797FAADF800
:1058A00000000020002500200190DFF8F4A3DAF8C2
:1058B000004001E02500E468002C28D0608ABDF893
:1058C00000108842F6D14246D2B259462000FFF776
:1058D000A4FF0028EED0207C400703D401980028C4
:1058E00000D10194A08A494689B28842E2D1606819
:1058F000002803D0606839698842DBD1002D06D0CA
:10590000E068E860DAF80000E060CAF80040002CC7
:1059100000D1019C002C01D0012007E0DBF804003D
:105920007969884201D1012000E00020C0B200283E
:1059300038D07FF007013000FCF7AEF8002803D024
:105940003000FCF7B5F830E0002C12D0A069002838
:105950000BD01FFA89F9CDF8009017F1100332002F
:105960002100E069A469A0471FE03000FCF7A0F81F
:105970001BE05FFA88F8B8F1000F0FD1387D10F006
:10598000F000E0280AD0B7F90C10083109B2300055
:10599000FCF788F80321300000F056FA3000FCF7DD
:1059A00087F802E03000FCF783F8BDE8F78F80B598
:1059B000002802D17FF0050003E0838A021D00F079
:1059C00001F802BDF8B505000E0014001F0020000C
:1059D000002D01D0002C02D17FF005000EE0FEF773
:1059E0008FFD002802D17FF0030007E000903B000C
:1059F0009BB222003100280000F001F8F2BD7CB516
:105A0000002801D0002A02D17FF0050019E0069D90
:105A1000002807D00468002C04D0047814F0F004A7
:105A2000E02C01D12C1D07E004686E68B44202D05E
:105A30007FF0050005E00400019400959BB200F0A2
:105A400001F876BD2DE9FE4F05000E001F00002D68
:105A500002D01400002C02D17FF0050059E0688AC2
:105A600000280AD16A8A2900280000F054F80100B1
:105A700049B2002901D040B24BE0B046082140466F
:105A8000FCF70AF8002813D0002208210120FBF7B8
:105A900073FE0600002E02D15FF0FF3039E0B8F847
:105AA0000800002805D041463000FCF768F800E007
:105AB0004646DDF83490DDF830A0D6F804B0688AA8
:105AC000FCF784F9ABF80000380080B2FCF77EF9EF
:105AD000ABF802000020ABF806003089FCF776F93D
