:020000040800F2
:10000000D8E900201DFB0008A9F70008ABF700089D
:10001000ADF70008AFF70008B1F7000800000000D6
:10002000000000000000000000000000079500082C
:10003000B3F7000800000000C1940008B5F70008FD
:10004000B1FB0008B5FB0008B9FB0008BDFB0008C8
:10005000C1FB0008C5FB0008C9FB0008D1F7000878
:10006000CDFB0008E5F70008D1FB0008D5FB000830
:10007000D9FB0008DDFB0008E1FB0008E5FB0008F8
:10008000E9FB0008EDFB0008F1FB0008F5FB0008A8
:10009000F9FB0008FDFB000801FC0008DBF7000885
:1000A00005FC000809FC00080DFC000811FC000814
:1000B00015FC000819FC00081DFC000821FC0008C4
:1000C00025FC000829FC00082DFC000831FC000874
:1000D00035FC000839FC00083DFC000841FC000824
:1000E00045FC000849FC00084DFC000851FC0008D4
:1000F00055FC000859FC00085DFC000861FC000884
:1001000065FC000869FC00086DFC000871FC000833
:1001100075FC000879FC00087DFC000881FC0008E3
:1001200085FC000889FC00088DFC000891FC000893
:1001300095FC0008C1F7000899FC00089DFC000828
:10014000A1FC0008A5FC0008A9FC0008ADFC000803
:10015000B1FC0008B5FC0008B9FC0008BDFC0008B3
:10016000C1FC0008C5FC0008C9FC0008CDFC000863
:10017000D1FC0008D5FC0008D9FC000800000000F4
:10018000DDFC00082DE9F84F84B00500DFF8B46B02
:10019000B6F89200401CA6F89200DFF8347C68683C
:1001A0003860688914280FDAB6F89A00401CA6F85F
:1001B0009A00B6F89600401CA6F89600280001F0B8
:1001C000E1FC05B0BDE8F08FDFF8088CD8F800102E
:1001D000D8F8140001F0FAFD002805D198F81400B1
:1001E00010F0F000E02805D1B6F8A000401CA6F8F9
:1001F000A000DEE718F11000039018F1140002903F
:1002000002980090039B2A890621280001F099FE9C
:1002100080B2002805D0B6F89800401CA6F89800D7
:10022000C7E73868808901F009FF80B2000BC0B2CF
:1002300081000800C0B2142805DB28890A00D2B268
:1002400092B2904205D2B6F89A00401CA6F89A00E5
:10025000AFE7DFF8844B0800C0B214382080DFF825
:100260007C9B0020C9F8000068890A00D2B292B2D3
:1002700090420AD32088DFF8682B1080C9B2494227
:1002800009B2280001F072FC2DE07FF01301280074
:1002900001F06CFCDFF8480B698901802188048833
:1002A0000C1BB0F9001009B2494209B2280001F054
:1002B0005DFC28684089210089B2884205D2B6F8E1
:1002C0009A00401CA6F89A0073E728684068C9F8AD
:1002D0000000210009B2494209B2286801F046FC39
:1002E0002889041B2C813868008801F0A7FE396832
:1002F00008803868408801F0A1FE39684880386875
:10030000406801F0A3FE39684860DFF8D81A086039
:100310003868806801F09AFE39688860DFF81C9CB4
:10032000C9F800003868C08901F088FE3968C881C2
:100330003868808901F082FE10F03F00DFF8A81ACB
:100340000870DFF8A40A007810F0030F01D0012034
:1003500000E00020DFF894AA29894018AAF80000DC
:100360000020DFF88CBADBF8004001E02000E468F0
:10037000002C22D0218B3A6812889142F6D1E18A72
:100380003A6852889142F1D16168D8F810209142C0
:10039000ECD12168D8F814209142E7D1002807D089
:1003A000E168C160DBF80000E060CBF8004004E0E9
:1003B000B6F8A600401CA6F8A600002C51D1DFF824
:1003C000340A046800E0E468002C1AD0208B3968F5
:1003D00009888842F7D1E08A396849888842F2D191
:1003E0006068D8F810108842EDD12068D8F8141051
:1003F0008842E8D1200000F0E6F9280001F0C2FBB5
:10040000DFE60022DFF8F039186806E0002813D094
:100410000168002910D00200C06800280CD0C18AF1
:10042000D7F800C0BCF802C06145F4D10168D8F823
:1004300014C06145EAD1FFE7002812D0002A05D098
:10044000C168D1601968C160186004E0B6F8A610F0
:10045000491CA6F8A61000F022F9280001F092FB32
:10046000AFE6002C00F0F580DFF890890020C8F896
:1004700000002889A8F80800C8F804503868C8F8AF
:100480000C00DFF87C79002038600020DFF8741958
:100490000870DFF874990020A9F80000DFF8480917
:1004A0000078000703D5687B50F001006873606F27
:1004B000002812D0200002F0A9FA10F10D0F06D08A
:1004C000606F002809D0BAF80000002805D0B6F8FF
:1004D0009600401CA6F896008FE0DFF830592C609B
:1004E000200000F0B3F940B210F10D0F00F085804C
:1004F000DFF810693078000712D5D4F88C00002896
:1005000005D07FF00D012069D4F88C2090472100A0
:10051000584602F04AFC2100012002F06EFD6CE01A
:100520000020B9F80000002813D0B9F80020E06FCF
:10053000002805D092B221002069E36F984700E0BF
:1005400000207FF00C0140B2884256D00020A9F86C
:1005500000003078C00615D5A07EC00609D4D4F8B6
:100560008C00002805D07FF00E012069D4F88C2083
:1005700090472100584602F018FC2100012002F0AB
:100580003CFD3AE03868002826D0A07EC00606D59B
:10059000386801F0F7FA200001F006FF2DE0D4F8EA
:1005A0008000002807D000233A6821002069D4F891
:1005B00080C0E04705E000233A682100002002F0F7
:1005C0009BFA01007FF00C0249B2914215D040B273
:1005D000002801D0386860673078800608D5606FE1
:1005E00000281CD0606F407B50F02000616F487382
:1005F00000202860200003F04BF90020DFF80C18E1
:10060000086000203860D8F80400002846D0D8F8E8
:10061000040001F0B7FA0020C8F804003EE0208D85
:10062000B0F5206F02D0208D401C2085D4F88000CA
:10063000002807D00023002221002069D4F8806020
:10064000B04700E000207FF00C0140B28842CFD1DB
:10065000D3E73868808901F0F1FC40071BD4B6F875
:10066000A000401CA6F8A000B6F89600401CA6F812
:100670009600386800880190386840880090039B95
:10068000029ADFF860070168BAF800004118D9F84B
:10069000000003F081FA280001F074FA91E57CB5BE
:1006A0000500DFF89C080178490700F18B8001788C
:1006B000C9061AD5DFF81C07DFF814170A68128874
:1006C000019209684988009110F1100310F1140299
:1006D000DFF810070168DFF8140700884118DFF819
:1006E0005C08006803F058FA6CE00078800769D570
:1006F000687D02F087FA0400002C15D1DFF844066B
:10070000B0F89C10491CA0F89C10002D09D0A869D5
:10071000002806D05FF0FF3200212869AB699847B6
:1007200001E07FF00F004DE0DFF8A806416921608D
:1007300000696060E88AE082DFF8946630680088CB
:10074000208303202075DFF89C060168491C616244
:10075000616AE1620068401E206528692061A56722
:10076000287A10F00C002072DFF884060168E1603E
:10077000046003F0C8FB0120DFF894160870200025
:1007800000F0C7FF3068C089A4F85C00B4F85C00D2
:10079000A4F85E00B4F85C00A4F84A00211D608E45
:1007A00002F03EFB60861221200002F09CFF40B266
:1007B000002804D00021200001F08BFD02E0200081
:1007C00003F066F873BD1CB5DFF874170A7852079A
:1007D0003BD40A78920726D5DFF808462268416A9A
:1007E000521A002A26D42268416A521A018D521ADE
:1007F000012A1FDADFF8DC05DFF8D4150A68128851
:10080000019209684988009110F1100310F1140257
:100810002168DFF8D80500884118DFF82007006854
:1008200003F0BAF911E00978C90703D5DFF8E41538
:1008300009680162DFF8B4150988002905D0817EB6
:1008400051F00201817603F023F813BD3EB5040098
:1008500000200021DFF8E8562978490734D5217DAA
:10086000022907D1DFF8D4160968E26C914219D148
:10087000012017E0DFF86C251168636A994201D105
:1008800001200FE01368616A5B1A002B0AD412681A
:10089000616A521A218D521A012A03DAA17E51F09F
:1008A0000201A176C0B200280CD0DFF8580501780B
:1008B00051F008010170A07E10F0FE00A0767FF0DC
:1008C0000D003DE200203BE2287880070BD5207D1B
:1008D000022808D0207D032805D0A07E50F0020019
:1008E000A07600202CE2A07EC00603D4DFF8240509
:1008F00000682062002084F89600200000F009FFC4
:10090000207D022814D0C0F01A82042800F047810C
:10091000C0F0B280062800F09F81C0F04E81082808
:1009200000F0C881C0F03B81092800F0F48106E2A4
:10093000287810F0120012287BD1DFF80016086822
:10094000626C521C904274D1DFF898040268521C09
:100950006262626AE26209686164DFF874140968BD
:10096000C989A4F85C10B4F85C10A4F85E100068A3
:10097000401E206504202075211D608E02F050FA73
:100980006086B4F85C00A4F84A0041F21D10618E44
:100990004900814202D3618E490001E041F21C11FD
:1009A000628E92008A4203D2608E80B2800009E09B
:1009B000618E4900814203D3608E80B2400001E025
:1009C00041F21C10A4F84800B4F86200401EA4F8DC
:1009D0006200E06E002803D1A06E0168A16601E00C
:1009E0000168E16602F064F8E06E002803D15FF070
:1009F000FF30208604E000202086002084F842009A
:100A0000D4F88400002807D0002221002069D4F8FF
:100A100084309847010000E000217FF00C000200C4
:100A200049B2914200F08C81A07E50F00200A07685
:100A300021E02878C0061ED5DFF89803DFF8901370
:100A40000A681288019209684988009110F1100320
:100A500010F11402DFF88C030168DFF890030088BE
:100A60004118DFF8D804006803F096F800202086CB
:100A7000200003F0ECF862E12878C00640F18280A3
:100A8000DFF8B8542968606C091A491E002964D43B
:100A90002968E06C091A01295FDA04202075A06F2B
:100AA000002802D17FF0050110E0A06F00280BD0D4
:100AB000A06F8069002807D0002221002069A36F61
:100AC0009B699847010001E07FF00F01080040B2E8
:100AD000002809D049B211F10D0F02D0200001F019
:100AE00063FC7FF00C002BE1200000F095F9B4F8D6
:100AF0005C00A4F84A00DFF810130888002802D030
:100B00000888401E088041F21D10618E4900814214
:100B100002D3618E490001E041F21C11628E920005
:100B20008A4203D2608E80B2800009E0618E490063
:100B3000814203D3608E80B2400001E041F21C107C
:100B4000A4F84800AF480078800627D5A07E50F072
:100B50000200A0760720207520E09E489C490A6884
:100B60001288019209684988009110F1100310F170
:100B700014029C4801689D4800884118286803F0C9
:100B80000BF80BE02878800708D596480068616A62
:100B9000491E884202D1200003F073F8CFE0200004
:100BA00000F03AF997480078800605D5A07E50F00D
:100BB0000200A07607202075C1E0200000F02CF98B
:100BC00090480078800639D52878C0062FD5DFF800
:100BD0006C030068E16C884229D1A06E002826D100
:100BE000A07E50F00200A076200002F0B5F8804808
:100BF0000168A14203D10168C968016009E0006889
:100C000000E0C068002804D0C168A142F9D1E168C1
:100C1000C1600020E06001207D4908700A20207535
:100C200074480168E160046003F06DF913E0A07E90
:100C300050F00200A076082020750CE02878C0064D
:100C400009D5BE480068E16C884204D1A06E002836
:100C500001D10620207572E0200000F0DDF869481F
:100C60000078800625D5A07E50F00200A0762000F6
:100C700002F072F85E480168A14203D10168C968B8
:100C8000016009E0006800E0C068002804D0C16885
:100C9000A142F9D1E168C1600020E06001205C4917
:100CA00008700A20207553480168E160046003F071
:100CB0002AF944E0200000F0AFF82878C00629D5D2
:100CC0009E480068E16C884224D1A06E002821D1A2
:100CD000200002F041F846480168A14203D10168B2
:100CE000C968016009E0006800E0C068002804D01D
:100CF000C168A142F9D1E168C1600020E060012033
:100D0000434908700A2020753A480168E160046090
:100D100003F0F9F813E0200000F07EF82878C00610
:100D20000CD586480068E16C884207D1A06E002887
:100D300004D13448017851F010010170FFE7002020
:100D40003EBD000008D9002038B505000C00E86859
:100D5000808901F073F9C00716D5200001F09FFECD
:100D6000002432E0E068808901F068F9C00707D507
:100D7000012001F063F9E96889890843E9688881FD
:100D80002000246801F094FE002C0AD01548016868
:100D900028894118E0684068091A2089091A002941
:100DA000E0D5002C11D00F490A6828898218E06824
:100DB0004068121A012A08DBE06842680868121AC3
:100DC0002A812989686800F038FE2C6031BD000056
:100DD00078E5002038E30020C0E500207CE5002015
:100DE000C2E5002080E50020D2E50020C8E5002013
:100DF00070E5002074E500206CE50020E0E30020B1
:100E000088E50020D3E50020C6E500208CE5002021
:100E1000CFE5002064E500202DE9F0410600002424
:100E200047480078C00640F1AD81B6F85C10706D9F
:100E30004118DFF87429336D10681B1A002B16D483
:100E4000306D1368984205D1736D3C4800681B1AD9
:100E5000002B0CD4706D394B1B68984232D1B6F818
:100E60005C00DFF848391B68DB8998422AD2DFF83A
:100E70003C090068C089A6F85C00B6F85E00B6F8C8
:100E80005C30984203D2B6F85C00A6F85E001068A9
:100E900030652A4800687065B6F85C0000280AD101
:100EA00096F8950000280DD1002086F894000120C6
:100EB00086F8950006E096F89500002802D00020FC
:100EC00086F895001D4D2A68706C121A012A47DABF
:100ED000DFF8F807008800283BD1726DB6F85C0097
:100EE00082188A4235D1B6F93000002831D4706CAE
:100EF000296888422DD1012496F8430096F84310C2
:100F0000491CC9B2884204D296F84300401C86F8B6
:100F1000430096F84300042814DBB6F84810B6F8EE
:100F20004820708E821892B2914212D2B6F84810C0
:100F3000708E4118A6F848100BE000BF84E5002031
:100F4000D2E5002096F84300032802D1300002F0D9
:100F5000C5FE002C40F0C080002086F84300BBE0B6
:100F60002968706C091A491E002900F190802968CF
:100F7000F06C091A012980F28A80B07E400707D5FB
:100F8000B07E10F0FB00B076B6F84A00A6F8480034
:100F9000002086F84200B6F93C00B6F93E1011EB8D
:100FA000E001A6F84010002086F84300286870642D
:100FB000307D042843DBB6F84800B6F84A10884272
:100FC0000FD2B6F84810B6F84820708E821892B248
:100FD000914234D2B6F84810708E4118A6F84810E5
:100FE0002DE0B6F84810728E708E4243B6F8480075
:100FF00092FBF0F04118B6F848000A0092B2904215
:101000001DD2A6F848101AE0F46EF06E0068F06683
:10101000606800F0F5FD606800F0F2FDB6F862105F
:10102000081AA6F86200DFF888170A882089821853
:101030000A80200001F03CFDB6F862000028F06E46
:10104000002818D0F06EC068406800F0FFFF040070
:10105000F06EC068808900F0F1FF10F0030F01D03E
:10106000012100E00021F06E008904190C192868A4
:10107000241A012CC8DBF06E002803D15FF0FF308A
:10108000308601E0002030860020F07624E0300039
:1010900002F0B4FB20E0B46EB06E0068B066B06ED3
:1010A000002802D10020A6F86400606800F0A8FDC6
:1010B000606800F0A5FDB6F86210081AA6F8620094
:1010C000DFF8EC160A88208982180A80200001F0D7
:1010D000EFFCB6F862000028B06E00281DD0B06E9C
:1010E000C068406800F0B2FF0400B06EC06880893C
:1010F00000F0A4FF10F0030F01D0012100E0002157
:101100002868041BB06E0089241A641A002C04D4C9
:101110002968F06C091A0129BDDBB6F86010DFF808
:10112000900600884118A6F86010706B002829D03E
:10113000B16B2868091A002924D5DFF87806016800
:10114000706B081A00B2B6F93C10B0EBE100B18F39
:101150004118B187010009B2002901D500B240420F
:1011600000B2B6F93E10B0EBA100F18F4018F08745
:10117000B6F93C00B6F93E1011EBE001A6F84010BC
:1011800000207063DFF84485B8F80000002800F004
:101190008982307D072880F28582DFF80C76716ABB
:1011A0003868091A491E002938D4716A3868091A42
:1011B000B8F80000091A491C01292FDADFF8F845B0
:1011C0006068726A3968511A626852898A4213DA11
:1011D000626813895B1A05E04289891A038100223B
:1011E0004281006842898A42F6DB494209B200F036
:1011F000BDFC002806D005E0494209B2606800F055
:10120000B5FC00282189726A3868121A891A21816E
:10121000706A38603868E168486008E03968706A68
:10122000091A002903D5B07E50F00200B076396863
:10123000706A091A002900F131823968706A091A46
:10124000308D091A491C012980F22882706A396898
:10125000884240F05281DFF86055E868808900F0EC
:10126000EDFE10F0030F01D0012000E000202989DD
:101270004018A8F80000308DB8F80010884232D22B
:10128000E868808900F0DAFEC0070FD5E868808939
:1012900000F0D4FE10F03E0000F0D0FEE9688A892C
:1012A0004CF2FF010A401043E9688881308D2881A3
:1012B000E868808900F0C2FE800702D52889401EB8
:1012C00028812989686800F0B8FBE868808900F007
:1012D000B5FE10F0030F01D0012000E000202989A5
:1012E0004018A8F80000306F002870D0E8688089A6
:1012F00000F0A4FEC00709D5306F002867D0306F1A
:10130000316F0968316701F0D3FBF5E7346F25E0F1
:1013100000201BE0E068808900F090FEC00719D52E
:10132000E868808900F08AFE800713D4012000F06D
:1013300085FEE96889890843E9688881E8688089C9
:1013400000F07CFE10F0030FE2D001202989401844
:10135000A8F800002000246801F0AAFB002C0AD0A5
:101360003968B8F800004118E0684068091A208917
:10137000091A0029CED5002C28D03968B8F8000009
:101380004118E0684068091A01291FDBE0684168DC
:101390003868091A2981E868808900F04FFE8007C3
:1013A00002D52889401E28812989686800F045FBFC
:1013B000E868808900F042FE10F0030F01D00120A0
:1013C00000E0002029894018A8F800003467396837
:1013D000B8F8000041187162318DB8F80000091AA0
:1013E0003185300001F041F868680089002805D097
:1013F0006868DFF8C813086000206860E8688089C2
:1014000000F01CFEC00737D5DFF8B403017851F0B7
:101410002001017030E06068106015E00021328D1D
:101420002089121A511A3185300001F01EF86068C7
:10143000008900280AD0DFF8842310680028EAD049
:101440006168106800F0F1FB00206060E06880894E
:1014500000F0F4FDC0070AD5DFF86403017851F00D
:1014600020010170307D042801D1072030752068EB
:101470003067200001F01CFB306F00282CD0306F4B
:10148000C0684068716A884226D1346F306FC06886
:1014900040683860E068808900F0D0FD10F0030FEC
:1014A00001D0012000E00020716A228980184018D4
:1014B0007062E068808900F0C1FD10F0030F01D078
:1014C000012000E00020E068808900F0B7FD10F006
:1014D000030FA3D00121A2E7B07EC00708D5B07EDC
:1014E00010F0FE00B076B07E50F00200B07603E05F
:1014F000B07E50F00100B076E6E0300002F07EF9F8
:10150000306F002804D1AC4801F0E1FA3067DBE02D
:101510000024356F0AE02868002805D13968E8689A
:101520004068091A012959DA2C002D68002D00F0B5
:10153000CB803868E9684968884211D0002C22D1F4
:101540003968E8684068091A0029E4D59A4801F02A
:10155000BEFA002803D030672900FFF7F5FBB3E09F
:1015600095482989028991420CD201F0B0FA0028ED
:1015700007D0002C01D0206000E030672900FFF781
:10158000E3FBA1E0A0E03968E0684068091A491E61
:101590000029C0D43968E8684068091A491C012943
:1015A000B9DA854801F093FA0600002E15D0E068FC
:1015B0004168208941183868091A012908DB39680F
:1015C000E0684068091A21812189606800F035FAD5
:1015D000266029003000FFF7B7FB75E0E8688089D6
:1015E00000F02CFDC0076FD4734801F070FA28603A
:1015F0002868002851D0E86841682889411838686F
:10160000091A012908DB3968E8684068091A298144
:101610002989686800F011FAB8F800103868411894
:10162000706A091A308D091A012936DB2868C068EA
:10163000808900F003FDC00712D52868C068808942
:1016400000F0FCFC10F03E0000F0F8FC2968C968CE
:101650008A894CF2FF010A4010432968C9688881D1
:10166000716A308D41183868091A28680181286824
:1016700001892868406800F0E0F92868C06880891E
:1016800000F0DCFC10F0030F01D0012000E000208E
:10169000296809894018A8F8000015E0300002F018
:1016A000ADF811E040490A68706A121A002A07D49E
:1016B0000968706A091A308D091A491C012903DB6F
:1016C000B07E50F00200B076BDE8F081C8E50020A1
:1016D00010B43C490868002805D03B483B4A1388B1
:1016E0000488A3420AD23148006810F11401374837
:1016F0000288531C038092B2885C08E0138800883B
:10170000181A13885B1C13800968C0B2085C10BCEF
:101710007047F8B504002E4D288800283DD02B4E88
:1017200000203080FFE730882988884235D2FFF7D3
:10173000CFFFC0B200280ED002280DD0F3D3FFF7A0
:10174000C7FF0100C9B2022926DB3188C0B2801E62
:1017500041183180E7E720E0FFF7BAFF042804D101
:1017600028883188891C884200DA16E0FFF7B0FF2C
:1017700007003F02FFF7ACFF0743380080B240F29A
:10178000CD11884203DA380080B2002802D14FF42C
:10179000E677FFE76786C6E7FFE7F1BD084801780F
:1017A00051F010010170704780E5002078E50020BD
:1017B000C6E5002064E50020E0E3002088E5002085
:1017C000D3E500207CE50020C2E50020C4E5002030
:1017D000C0E5002010B502F0FBFD0021184A117091
:1017E00002F0FFFD1748046800E0E468002C08D010
:1017F000206F0028F9D0206F01F051F900202067F8
:10180000FFE710BD80B5FFF7E5FF01BD38B502F079
:10181000DFFD0B4C25780121217002F0E2FDEDB2D5
:10182000002D0CD100220021074802F064FE0028A0
:1018300005D002F0CDFD0021217002F0D2FD31BDB6
:10184000CDE5002070E5002005180008F8B50E0071
:101850001500C0B2002806D002281DD01AD30428D3
:101860001ED01BD31EE036272800C0B2002870D03F
:10187000022800F09180C0F08F80032840F09D8006
:101880000C2001F09AFB0400002C0DD1FFF7BEFFE5
:1018900000205DE02227E7E70E27E5E70027E3E7E2
:1018A0000027E1E7002053E0257300202060380086
:1018B00080B220441030C01C800880006060268107
:1018C000300080B2390089B2C91C89088900D1F57D
:1018D0000171884201D2370006E0BFB2FF1C4FF60B
:1018E000FC700740D7F5017767810120E081270070
:1018F000B6B26089361A18E04FF401710CE0057336
:10190000002141730021016038600681310089B2F5
:10191000B1F5017FF0D23100418110F11001416039
:101920000121C1814189761A0700012E0BDB0C20B1
:1019300001F043FB0028E2D1FFF768FF200000F030
:1019400021F9002004E00120E081002060732000E4
:10195000F2BD17F113004FF6FC710840320092B24D
:10196000D21C4FF6FC710A40101880B202F072FFD0
:101970000400002C01D10020EAE7BFB204EB07000D
:101980001030C01C80088000606026812089608142
:10199000002020602573D6E70B2001F00EFB040029
:1019A000002C01D10020D3E700206060268120892F
:1019B0006081002020602573C5E70020C8E770B46F
:1019C00004001800E4B2002C06D0022C15D012D36B
:1019D000042C16D013D316E03625049B9BB22E00A0
:1019E000B6B2F61CB608B6000C00A4B2A619B342F3
:1019F0000BD200201FE02225EFE70E25EDE70025A2
:101A0000EBE70025E9E7002015E0039B00240460D4
:101A1000002B06D0ADB2ED1CAD08AD002B444360E9
:101A200001E0002343600223437301810189418166
:101A300002730121C18170BC704738B504000D00EC
:101A40002800218980B288422DD2280080B22189C5
:101A5000411A05E060892D1A208908182081246820
:101A600060892A0092B29042F4D3207B00280FD1E3
:101A70002800618980B288420AD0607B800707D441
:101A80006168091B691889B2200002F032FE040067
:101A90006581608920812068002802D0206800F0DC
:101AA00071F80020206031BD70B40B001BB2002B18
:101AB00001D0002801D1002044E00B001BB2002B14
:101AC0000AD50E0036B2764243893400A4B2A3424E
:101AD00001D2012036E001E00E00B6B2047B456879
:101AE00023009BB2002B03D023009BB2032B0DD10C
:101AF00042680B001BB25B421A444260426810F11C
:101B000010039A4217D2456001201BE023009BB2CC
:101B1000022B02D0A4B2012C26D10B001BB2002B49
:101B200012D54389B6B2B3420ED342680B001BB242
:101B30005B421A44426042898A18428102898918AC
:101B40000181002070BC70470B001BB2012B09DB28
:101B5000D2B2002A06D042680B001BB25B421A4484
:101B60004260E8E70120EDE70120EBE780B50022C5
:101B700009B2FFF799FF02BD80B5012209B2FFF754
:101B800093FF02BD70B50400002C01D1002036E0A7
:101B9000002504E0200002F078FD6D1C3400002CCC
:101BA0002BD002F015FCE189491EE181E68902F0A3
:101BB00018FCB6B2002E1ED12668207B617B8907F7
:101BC00004D52100200009698847E6E7010089B2B1
:101BD000032904D121000C2001F00FFADDE70100F8
:101BE00089B2012902D080B20228D3D121000B2072
:101BF00001F003FAD1E70024D1E72800C0B270BD9C
:101C00000100002001E0401C09680029FBD180B2DE
:101C1000704710B50400002C06D002F0D9FBE18912
:101C2000491CE18102F0DDFB10BD002801D0002934
:101C300000D10DE004E003890A89D318038100680C
:101C40000268002AF7D103890A89D3180381016049
:101C5000704710B50C002100FFF7E7FF2000FFF7E9
:101C6000D8FF10BD2DE9F84305000C000027002621
:101C7000002D05D0002C03D028892189884202D26A
:101C80007FF00F004BE06989380080B2091A628941
:101C9000300080B2121A914204DBB4F80A80B8EB2B
:101CA000060803E0B5F80A80B8EB0708424692B28E
:101CB0006068310089B2014468683B009BB200EB68
:101CC0000309484602F080FE18EB070718EB0606EA
:101CD0003000618980B2884201D300262468380030
:101CE000698980B2884205D100272D68002D01D175
:101CF000002C16D1002C06D060892189884202D19F
:101D00002068002810D1002D06D0688929898842D2
:101D100002D1286800280AD1002CB4D10020BDE8E7
:101D2000F2837FF00F00FAE77FF00500F7E77FF01E
:101D30000500F4E72DE9F04704000D009046002768
:101D4000002C01D100203FE0002D01D100203BE01C
:101D50000026002C01D0002D01D1002034E02BE022
:101D6000B4F80A90B9EB03094046494680B289B2FB
:101D7000884200D2C1464A4692B260689BB200EBEC
:101D80000301300080B205EB000A504602F01CFE51
:101D900019EB070719EB0606B8EB090800230AE060
:101DA000180080B20028DBD01800618980B2884218
:101DB000D6D360891B1A2468404680B2002801D01F
:101DC000002CEDD1380080B2BDE8F08710B40300DC
:101DD000C243002A01D0002801D101201AE091F865
:101DE0002B20920701D4002014E04A68904201D1D0
:101DF00000200FE08A6813404C688A681440A342B0
:101E000007D18A6890438968C943884201D101207B
:101E100000E0002010BC704718B40022ADF800208C
:101E2000002410F00102002A06D0012904DB037807
:101E30008DF80130401C491E03E003881C19801CEA
:101E4000891E0229F9DA012902DB00788DF80000E9
:101E5000BDF800000419A1B211EB144188B210EBD7
:101E60001140002A06D0020212F47F42C0F307217B
:101E70001000084380B212BC70472DE9F041040005
:101E80000E001700984600251FE061896068FFF783
:101E9000C3FF10EB0808404680461FFA88F818EB8D
:101EA00010486089022190FBF1F201FB120000282A
:101EB0000AD0D5F101055FEA082111F47F41C8F38A
:101EC0000720884650EA08082468002CDDD1EDB2CE
:101ED000002D08D05FEA082111F47F41C8F30720E4
:101EE000884650EA0808F6B2300080B200F0A6F842
:101EF00010EB0808380080B200F0A0F810EB0808DA
:101F00001FFA88F111EB184188B210EB1140C04361
:101F100080B2BDE8F08138B5049C1B689DB215EB1A
:101F200013452468A3B25D1915EB1445ACB214EB4C
:101F30001544A3B213EB144392B2C9B2FFF79DFF4D
:101F400032BD1CB5049C009492B2C9B2FFF7E3FF06
:101F500016BD80B589B2FFF75FFFC04380B202BDF6
:101F600070B50400002600251BE061896068FFF75A
:101F700053FF861930000600B6B216EB1046608992
:101F8000022190FBF1F201FB1200002808D0D5F1EC
:101F90000105310211F47F41C6F307200E0006430C
:101FA0002468002CE1D1EDB2002D06D0310211F4ED
:101FB0007F41C6F307200E000643F643300080B28F
:101FC00070BDF0B40246106895681318506803EBB2
:101FD0005004C0071DD54D441BE013F8017B05F8E4
:101FE000017B491EF9D1A0B1B60813F8011B06F018
:101FF0000306032E08BF13F8016B01EB06214942CB
:10200000801C294405D011F8016B05F8016B401EB6
:10201000F9D1A3420ED013F8016B16F0030104BFEF
:1020200013F8011BC91C30090F28DAD113F8010B72
:102030000F30D6E7F0BC02F10C0070470100080039
:1020400080B2000A50EA012080B270470100080205
:1020500010F47F0050EA01600A00120A12F47F4275
:10206000104350EA11607047704780B500F09CFC47
:10207000DFF8F80A0178491C01700078C00701D523
:1020800000F001FB01BD05E0826F8A4201D1002210
:102090008267C0680028F7D1704738B50400012571
:1020A00008E02100DFF8C80A50F825000068FFF7B3
:1020B000EAFF6D1C042DF4D331BD3EB50400C9B256
:1020C00000294DD0207D042802D0207D072847D14B
:1020D000606F002803D1208DB0F5206F40D0208B99
:1020E0000190E08A0090231D2200616AE06C01F0FB
:1020F00053FD200000F030FEDFF8780A0168A142AD
:1021000003D10168C968016009E0006800E0C068A7
:10211000002804D0C168A142F9D1E168C160002063
:10212000E0600120DFF8CC1A0870207D042809D176
:102130000A202075DFF8840A0168E160046001F07C
:10214000E2FE0BE0DFF8B00A0068A04202D1FFF720
:1021500025FB03E02100012000F04FFF002079E083
:10216000207D00280AD0012827D0022834D0032857
:1021700042D004284BD0072854D05EE00025E08AE6
:10218000002814D0DFF8740A0168A14203D1016865
:10219000C968016009E0006800E0C068002804D058
:1021A000C168A142F9D1E168C1600020E06021006E
:1021B000012000F022FF002441E000252000FFF76D
:1021C0006CFF2100DFF8380A00F0EFFD210002204B
:1021D00000F013FF002432E000252100DFF894090D
:1021E00000F0E3FD0120DFF80C1A08702100012047
:1021F00000F003FF002422E0200000F053FF050060
:10220000280040B2002801D10520207517E02000E9
:1022100000F048FF0500280040B2002801D1052049
:1022200020750CE0200000F03DFF0500280040B2C2
:10223000002801D10920207501E000250024002C90
:1022400006D0280040B2002802D1200001F020FB77
:10225000280040B23EBD80B5017D012903D0817EBA
:1022600051F0100181760121FFF727FF02BD70B503
:1022700006000D001400307D012802D17FF00A0015
:1022800026E0002D12D0B07E50F01000B076002C69
:1022900004D001213000FFF710FF19E0706F002813
:1022A00004D0706FFFF76EFC00207067002C0ED01A
:1022B000307DC01E012801D9001F05D12900C9B2F7
:1022C0003000FFF7FAFE03E07FF00A0000E0002094
:1022D00070BD2DE9FC470500287D0A2809D1290099
:1022E000DFF8D80800F061FD2900012000F085FE2C
:1022F00058E000240026EF6CD5F82480D5F88C90A7
:10230000D5F810A0287D002818D1E88A002820D010
:10231000DFF8E8080168A94203D10168C9680160D3
:1023200009E0006800E0C068002804D0C168A94244
:10233000F9D1E968C1600020E8600AE00C00EE8A8B
:102340002900DFF8300800F030FD0120DFF8A41884
:102350000870E86E002802D0E86E00F0A0FBA86EBE
:10236000002802D0A86E00F09AFB286F002802D047
:10237000286F00F094FB002C09D0288B0190B6B296
:1023800000962B1D2A004146380001F005FC29006B
:10239000012000F032FE4846002803D07FF00C01F7
:1023A0005046C847BDE8F38780B50121FFF791FF8C
:1023B00001BDF8B505000C000423002C01D1DFF8A5
:1023C0005C4A002D01D0002C02D17FF005004BE0CB
:1023D000287D002802D07FF0050045E0100080B283
:1023E000002809D100F08FF80200100080B2002808
:1023F00026D17FF0010037E0002600E0761C9E42E7
:102400001EDADFF86C0750F82600006800E0C068AC
:102410000028F3D0C18A1700BFB2B942F7D1002813
:102420000BD00168002908D0002C06D021680029B3
:1024300003D001682768B942E9D17FF0070013E0B3
:10244000002C08D02068002805D0002C01D10020E5
:1024500000E020682860EA82DFF8680A0168E96025
:10246000056001F050FD0020F2BD0100486A0A8DB0
:1024700010184A8E40F201539A4202DB4FF4A062D8
:1024800000E04A8ECB6AC31A9A1A002A04D40A8D35
:102490004A85C96A401A0CE04A6AC86A121A012AB7
:1024A00002DB0020488503E0CA6A486A101A4885A2
:1024B0000020704710B50400208D09182185208D5B
:1024C00040F60121884203DB4FF4206020850CE0B8
:1024D000208D002809D1207D072802D0207D0928E1
:1024E00003D14FF420602085FFE72000FFF7BDFFF8
:1024F000B0F5207F06DBA07E50F00200A076200021
:1025000001F0C6F910BD30B40021FFE7DFF8B8399B
:102510001888421C1A804FF6FF7280B2904202D196
:102520004FF440401880002200E0521C1000C0B25E
:10253000042816DADFF838061400E4B250F8240054
:10254000006800E0C0680028EFD0C48A1D88AC4253
:10255000F8D1491C080080B2B0F5804FD6DB0020CE
:1025600000E0188830BC7047F8B504001E00002C4D
:1025700001D0002902D17FF0050083E0207D0028F2
:1025800002D07FF009007DE0002901D1002000E0A9
:10259000086860602283002C02D02068002810D1D7
:1025A000201D02F081FA002801D0011D00E0002169
:1025B000002801D0002902D17FF0030062E0086802
:1025C0002060E58AE08A002808D1FFF79CFFE082BE
:1025D000E08A002802D17FF0010053E000F014FCF3
:1025E00000216162E064411E6164401EA0654FF4F9
:1025F00020676785608D2085606AE062A4F85C7062
:102600004FF4E6706086211D608E00F009FC608644
:102610000120A4F84800A4F84A70C4F8846002219C
:10262000200001F060F80600300040B2002827D1F9
:1026300002202075ADB2002D14D0DFF8C00501686E
:10264000A14203D10168C968016009E0006800E0A7
:10265000C068002804D0C168A142F9D1E168C16016
:102660000020E060DFF80C050168E160046001F023
:102670004AFC0120DFF854180870200001F008F926
:10268000300040B2F2BD2DE9FE4F0020DFF8408857
:10269000D8F80000401CC8F80000DFF8389899F816
:1026A0000000401C89F8000025E0E868CAF8000036
:1026B000F6B2002E09D0288B0190E88A00902B1DDD
:1026C0002A00696AE86C01F067FA2E692900ED6852
:1026D000012000F092FCDFF81CB500208BF8000010
:1026E0003800002803D07FF00C013000B8479BF879
:1026F0000000002806D00024DFF878A4DAF80050A3
:1027000000E0ED68002D00F02981687F99F8001045
:102710008842F6D099F80000687700270026287DC7
:10272000022805D195F84200062801D17F1C75E0EA
:1027300095F842000C2801D17F1C6FE095F89500B8
:10274000002828D0DFF8900795F89510084410F875
:10275000010C95F894100200D2B2914204D295F87F
:102760009410491C85F8941095F89410C0B28142D9
:1027700054D3280001F02CFB00284FD1002085F80D
:10278000940095F89500072848D295F89500401CCC
:1027900085F8950042E0B5F93000002802D4288E73
:1027A000401C2886E86E002838D0B5F93000B5F90D
:1027B0004010884232DB287D02280DD0B5F93C005C
:1027C000B5F93E1011EBE001DFF8100795F8422053
:1027D00080568140A5F8401000202886B5F84800B2
:1027E000B5F85C10884202D2B5F8480001E0B5F8AF
:1027F0005C0080B24008A5F84A00B5F84A00698E2E
:10280000490089B2884203D2688E4000A5F84A0088
:10281000688EA5F84800280001F019FA287D0628DE
:1028200009D1A87EC00606D5D8F80010286A091A72
:10283000292900D37F1C287A000734D5287D042855
:1028400002D0287D07282ED1D5F89010DFF8900609
:1028500041184FF4FA70B1FBF0F1D8F80020286A63
:10286000121A914202D27F1C761C1CE0D5F89010FF
:1028700095F89620DFF86C0600FB02114FF4FA7011
:10288000B1FBF0F1D8F80020286A121A91420AD25E
:10289000280001F05DFA40B2002804D195F89600B6
:1028A000401C85F89600286F00280ED0D8F800103C
:1028B000286A091AB5F9402006204243914204D300
:1028C000286F00F0ECF800202867287D032806D147
:1028D000D8F80010286A091A292900D37F1C287DFE
:1028E000092806D1D8F80010286A091AF12900D35E
:1028F0007F1CFFB2002F0AD0D5F88C70280000F0A2
:102900002BFA002C3FF4D1AEE868E060D0E62C0052
:10291000ED68E07E401CE076E07E217F8842FFF497
:10292000F1AE0020E076B34E00203070D4F888007D
:10293000002806D021002069D4F8882090470100A3
:1029400000E00021307800287FF4D5AE49B200299C
:102950007FF4D8AE200000F09BFFD3E60024DFF820
:102960008865356806E0E86830602900ED68012078
:1029700000F043FB002D15D00020D8F80020296A74
:10298000521AF12A00D3401CC0B2002807D02800F8
:1029900000F0E2F9002CE6D0E868E060E5E72C0002
:1029A000ED68E7E7BDE8F78FF8B5DFF82855287838
:1029B000401C28701CE028786077A07EC0070AD5EC
:1029C000A07E50F00200A076200000F061FFA07E03
:1029D00010F0FC00A076E668606F00280CD0854FF0
:1029E00000203870200000F011F83878002803D05B
:1029F000DFF8F804046800E03400002C05D0607FA4
:102A000029788842D7D1E468F7E7F1BDF8B504002A
:102A1000606F467B656F00206067D4F880000028F7
:102A200007D000232A0021002069D4F88070B8471D
:102A300005E000232A002100002000F05DF80100DD
:102A400049B200291DD1B00627D5208DB0F5206FE1
:102A500002D0208D401C2085D4F88000002808D0AA
:102A60000023002221002069D4F88040A047010003
:102A700000E000217FF00C00020049B291420CD12D
:102A80000CE07FF00C010A0040B2904201D1080036
:102A900004E065677FF0040000E00020F2BD10B59F
:102AA00003E0046800F004F820000028F9D110BD0C
:102AB00010B50400002C09D06068002802D06068BE
:102AC000FFF760F82100032000F097FA10BD70B501
:102AD0000500032000F071FA0400002C01D1002051
:102AE00009E0102226002900300001F06DFF606827
:102AF000FFF78FF8200070BD10B508001400002CFF
:102B000007D02189FFF7D6FC2000FFF73BF8002013
:102B100010BD5BB2002BFAD1FFF79DFBF8E770B553
:102B20000100C9B2802901DB7F20FFE700240022D9
:102B30001049096811E003004D7DDBB2AB420BD3B5
:102B4000DFF88C532E680B6AF61AA64204D3286865
:102B50000C6A041B0A00487DC9680029EBD1002AD1
:102B600002D01000FFF720FC70BD0000D0E500206F
:102B7000ECFA000870E5002070B500240022DFF8B0
:102B80006C13096810E00B7D0500EDB2AB420AD171
:102B9000DFF83C532E680B6AF61AA64203D32A6864
:102BA0000C6A141B0A00C9680029ECD1002A03D062
:102BB00000211000FFF78DFB70BD000074E50020C0
:102BC00038B500230020DFF8201309680BE0DFF898
:102BD000004325680A6AAD1A9D4203D320680B6A38
:102BE000C31A0800C9680029F1D1002801D0FFF7F5
:102BF000DBFB31BDCFE500208CE5002068E500203F
:102C00006CE5002070B50500012000F0D6F9040045
:102C1000002C49D1FFF7D4FF012000F0CEF90400C9
:102C2000002C37D10920FFF7A7FF012000F0C5F9DC
:102C30000400002C24D10820FFF79EFF012000F0A3
:102C4000BCF90400002C11D12800C0B2FFF767FFC7
:102C5000012000F0B2F90400002C07D0A448D0F8FD
:102C6000B8100988491ED0F8B8000180002C07D0A0
:102C70009F48D0F8B8100988491ED0F8B8000180E4
:102C8000002C07D09A48D0F8B8100988491ED0F80F
:102C9000B8000180002C07D09548D0F8B8100988FA
:102CA000491ED0F8B8000180002C31D098210022B4
:102CB0002600300002F032F965754FF46670A4F812
:102CC00060004FF420606085608D2085FF20A07239
:102CD0004FF4E67060860620A4F840000620E087E6
:102CE0005FF0FF3020860120A4F8480000F08CF847
:102CF0006065E0646064A06575480068206275489E
:102D0000007860777B48C4F880007B48C4F8900066
:102D1000200070BD80B54020FFF774FF02BD002881
:102D200000D001617047002801D0C0F880107047C2
:102D3000002800D0C1677047002801D0C0F88C106F
:102D40007047002803D0027D012A00D181617047BD
:102D5000C0F888100277704710B50400207D002865
:102D600022D0207D0A281FD0207D01281CD0606F32
:102D7000002804D0606FFEF705FF00206067206F19
:102D8000FFF78DFE002020675FF0FF302086A06EE9
:102D9000FFF785FEE06EFFF782FE0020A066A06EC2
:102DA000E0660020A4F8640010BD10B50C000168B6
:102DB000A14203D10168C968016009E0006800E030
:102DC000C068002804D0C168A142F9D1E168C1609F
:102DD0000020E0602000FFF7BFFF207D0A280CD014
:102DE000207D012809D0A07EC00706D5A07E50F026
:102DF0000200A076200000F04BFD207D012800207D
:102E000020750020E08210BD3C490A683048006807
:102E100082180A6008687047000000009CFB0008E8
:102E200010B50400080001F03FFE002802D1200088
:102E300080B210E0B0F92210080000B2002808D0DB
:102E4000B1F128002100020089B292B2914200D370
:102E50000400200080B210BD38B50400080003E073
:102E6000C568FFF7A1FA2800002805D0016822688C
:102E70009142F5D0C068F7E731BD38B504000D00C8
:102E8000002C1ED0206800281BD0184801682000A4
:102E9000FFF7E2FF0B4801682000FFF7DDFF002D80
:102EA0000FD0286800280CD01548006807E0C168DA
:102EB000026823689A4201D12A680260080000284B
:102EC000F5D131BD68E5002084010020CFE5002068
:102ED00064E50020D1E5002084FB0008DCFA00084E
:102EE000B84C0A00F824010074E5002070E50020C9
:102EF00008D90020F92A000800DD6D000800002034
:102F00006CE500200021C26811608268D21C920822
:102F10009200002107E0C3681B681360C3681A6051
:102F200083881A44491CC3889942F4DBC18800682D
:102F30004180704738B5002413E0374D200080B23F
:102F400055F82000FFF7DEFF200080B255F8200082
:102F500000683249220092B201EB8201C1F8B4004C
:102F6000641C200080B20D28E7D331BD38B50500C0
:102F700001F02EFAE9680C68002C15D02168EA6887
:102F8000116029688988491C2A6891802968C98844
:102F90002A689288914203D2296889882A68D18058
:102FA00001F01FFA200007E029680988491C2A68F7
:102FB000118001F016FA002032BD80B50100C9B2BF
:102FC0000D2901DB002005E01349C0B251F82000B3
:102FD000FFF7CCFF02BD38B504000D0001F0F8F991
:102FE00021688988491E22689180E1680968296002
:102FF000E1680D6001F0F5F931BD80B50200D2B293
:103000000D2A07DA002905D0034AC0B252F8200081
:10301000FFF7E1FF01BD00003CF8000808D90020DF
:103020002DE9F04105000E0011001F000022891952
:10303000143189B20120FEF709FC0400002C2ED0C7
:10304000D4F80480E88AFEF7F9FFA8F80000288B7E
:10305000FEF7F4FFA8F80200C8F80470686AFEF7EB
:10306000F5FFC8F80800B6B2042096FBF0F0401D4A
:10307000000350F0100080B2FEF7E0FFA8F80C004B
:10308000688DFEF7DBFFA8F80E000020A8F81000FE
:103090000020A8F81200696A688D4118E9622000D2
:1030A000BDE8F08138B50400A06E00281AD0A56EE6
:1030B00000E02D6828680028FBD1E8688089FEF7C9
:1030C000BDFF10F0070F0DD10120FEF7B7FFE96833
:1030D00089890843E9688881A07E50F02000A076A5
:1030E000002003E00121200000F0FDFA32BD2DE9AF
:1030F000F04781468A4617001E00089DE80702D562
:103100005FF0040801E05FF00008A80701D5002087
:1031100000E00020290701D5002100E0002110EB8C
:10312000080811EB08080320FFF747FF0400002CF4
:1031300004D15046FEF726FD002043E0A572002092
:103140002060C4F804A0BAF808104046C0B2091ABA
:10315000218114215046FEF709FD00280BD0DFF82D
:103160006C0CB0F8A410491CA0F8A4102000FFF7C4
:103170009FFC002026E060684068E060B9F8160017
:10318000FEF75CFFE1680880B9F81800FEF756FF0B
:10319000E16848803000FEF759FFE16848605FFA57
:1031A00088F8042098FBF0F0401DFFB257EA003782
:1031B000380080B2FEF742FFE16888810020E168B4
:1031C00048822000BDE8F08770B50C001D00230088
:1031D0002100160089B2B6B2B14223D205998907FF
:1031E0000DD4049EB17E49061CD40699C9B20029AB
:1031F00005D0B16E002902D1F16E002912D0110064
:1032000089B223009BB203F2CF139B089B00994223
:1032100001D2130006E023009BB203F2CF134FF656
:10322000FC710B400022190089B2C0B2FEF70EFB00
:10323000002801D1002005E04189091B2980048173
:103240000189418170BD027D042A0BD0027D072ACD
:1032500008D0027D022A05D0027D032A02D07FF029
:103260000A002EE00A0092B2002A01D1002028E0D4
:10327000B0F8602089B28A4206D2817E51F0800186
:1032800081765FF0FF301CE0B0F86210082905DAA3
:10329000B0F862104FF6FD7291420DD3DFF82C1B8F
:1032A000B1F89C20521CA1F89C20817E51F0800135
:1032B00081765FF0FF3004E0B0F862000028FFD1B3
:1032C000002070472DE9F04F89B007009A46002092
:1032D0000590002500260020089000245FF00009DA
:1032E00000208DF8110000208DF81A000020ADF8A4
:1032F0000C005FF00008B7F85E00022390FBF3F0CB
:103300007B8E834201DA7B8E04E0B7F85E000223F5
:1033100090FBF3F3180080B2002802D0ADF818300B
:1033200002E0788EADF8180007910798002802D1C6
:103330007FF00F00B4E0ADF80E20BDF80E1038009D
:10334000FFF781FF010049B2002901D040B2A7E098
:10335000B7F862B08DF810A0B86E002800F0C980F0
:10336000BD6E00E02D6828680028FBD1A87AC00750
:1033700001D5042200E00022A87A800701D50020B0
:1033800000E00020A97A090701D5002100E0002112
:1033900082188A18BDF818102889091A8A1AB7F8ED
:1033A0006400ADF80C00BDF80C00002826D02E00FB
:1033B000BDF80C00BDF80E10884202D2BDF80C001A
:1033C00001E0BDF80E00110089B2814201DA904699
:1033D0000AE0BDF80C00BDF80E10884202D2BDF81C
:1033E0000C8001E0BDF80E8018EB0909BDF80C0057
:1033F000B0EB0800ADF80C00B2EB08024846BDF88F
:103400000E1080B2884280F0AF80100080B2002899
:1034100000F0AA802889002800F0A680110089B257
:10342000BDF80E30484680B21B1A994202DAADF858
:10343000122005E0BDF80E00B0EB0900ADF8120057
:103440002E009DF81000C0073AD5012002909DF88B
:1034500010000190009703AB92B2BDF81210042047
:10346000FFF7B2FE059000281DD1B87E50F0800015
:10347000B876DFF85809B0F89C10491CA0F89C10E9
:103480000598002802D00598FEF77CFB002C02D09E
:103490002000FFF704FBB7F8620000285FF0FF3060
:1034A00009B0BDE8F08FBDF812200798494689B2EF
:1034B00001440598D0F804A0504601F085FA0EE0CA
:1034C0000122BDF812100420FEF7C0F90590002873
:1034D000CBD00798494689B2084405994860BDF8A1
:1034E000120010EB09090598FEF78AFB10EB0B0B95
:1034F0003AE039E00898066033E00798494689B217
:103500000844706000229DF8111089B20020FEF777
:103510009DF90190002877D031000198FEF785FBD6
:103520000198FEF76DFB10EB0B0B584680B2092893
:103530006EDA584680B24FF6FD71884268D29DF827
:103540001A000090BB6D484680B2C3180022019952
:103550003800FFF7CCFD060000285DD0002CC9D153
:10356000340008961AEB09094846BDF80E1080B2DF
:10357000884252D2BDF80E00B0EB0900BDF8181019
:103580009DF811A0B1EB0A0A5146020089B292B22D
:10359000914200D382469DF81000C00729D5002C27
:1035A00001D1012000E00020C0B202909DF810007F
:1035B0000190009703ABBDF818209DF8111011EB96
:1035C0000A0189B20020FFF7FFFD019000280FD00B
:1035D000524692B20798494689B201440198406820
:1035E0009DF8113000EB0306300001F0EDF997E78C
:1035F0003BE70122514689B20020FEF727F9060079
:1036000000287FF47AAF30E73000FEF7BBFA2CE7F2
:103610000198FEF7B7FA28E727E7404680B200286E
:1036200028D0D5F804901DE0B9F8080018EB000088
:10363000A9F80800D9F80000002811D1424692B23A
:103640000799D9F80400B9F80A3000EB030A50468C
:1036500001F0BAF9B9F80A0018EB0000A9F80A005D
:10366000D9F80090B9F1000FDED1288918EB0008D5
:10367000A5F80880BDF80C00A7F86400059800289C
:1036800008D005996868FEF7D0FA2989059800895D
:1036900041182981002D01D1BC6600E02C60B96D74
:1036A000BDF80E004118B965B7F86010BDF80E00FE
:1036B000091AA7F86010A7F862B0B7F862000028EE
:1036C000002E0ED0F06800280BD09DF81000800767
:1036D00007D40820FEF7B2FCF16889890843F16835
:1036E00088810020DCE67CB504000D000026002067
:1036F000B4F86200082805DAB4F862004FF6FD71EC
:1037000088420FD3E8070DD4DFF8C006B0F89C104C
:10371000491CA0F89C10A07E50F08000A0765FF0BD
:10372000FF306AE0A80700D50126F00701D5042183
:1037300000E00021B00701D5002000E000203207A2
:1037400001D5002200E00022411851180022C9B220
:1037500089B20020FEF77AF8010000280DD1A07E82
:1037600050F08000A076DFF86406B0F89C10491C89
:10377000A0F89C105FF0FF303FE0F6B20096A36D1A
:103780002A00D2B22000FFF7B2FC010000280DD1C0
:10379000A07E50F08000A076DFF83006B0F89C10D4
:1037A000491CA0F89C105FF0FF3026E0A06E0028B6
:1037B00001D1A16606E0A26E00E012681068002840
:1037C000FBD111600020A4F8640015F0030F02D0B3
:1037D000A06D401CA065E80703D5A07E50F0200036
:1037E000A0764868FEF70CFAB4F862104018A4F806
:1037F0006200B4F862000028002076BDFEB5060025
:103800000024F06CFEF722FC03000022E4B2210049
:1038100089B23000FFF704FC0500002D06D1B07E10
:1038200050F00300B0767FF0010030E06F68301D8B
:1038300001F03AF90400002C02D17FF0030414E0F7
:10384000301D009033002A8906212800FEF779FBFD
:103850003882029406200190707A0090B37A321D6B
:103860003100280001F09CFA04002800FEF78AF9D4
:10387000200040B2002804D0B07E50F00300B076A3
:1038800003E0B07E10F0FC00B076200040B2FEBD38
:103890002DE9F0470600DFF838060068B04201D194
:1038A0000020CFE0B6F85C00B6F84810884202D29B
:1038B000B6F85C8001E0B6F84880B46EB07E800750
:1038C0000FD5002C09D0E0684068FEF7BFFB716C93
:1038D000401A21890818804503D23000FFF78EFF77
:1038E000B0E0F76E002F04D000E03F683868002891
:1038F000FBD1301D01F0D8F80500002D02D17FF07A
:1039000003009FE0002E02D0306800285AD1002D1D
:1039100001D0281D00E00020002802D17FF0030024
:1039200090E0006830604DE02000FFF7C1F848E00B
:10393000307D022807D01020FEF780FBE1688989DE
:103940000843E16888812A003100200000F0B6F8C1
:10395000010049B2002977D12068B066307D022885
:1039600003D0B07E10F0FC00B076E0684068FEF74F
:103970006DFB8146E0688089FEF760FB10F0030F65
:1039800068D00121208910EB090911EB0909F06CBD
:10399000B0EB0900002801D5C6F84C90E06880899A
:1039A000FEF74CFB10F0030F56D001202189401880
:1039B0000028B9D000202060F06E00284ED1F466B7
:1039C0002700B46E002C32D0E0684068FEF73EFB62
:1039D000716C401A21890818804528D3E0688089D5
:1039E000FEF72CFBF06E002817D0B07E10F0440FCD
:1039F00013D1B06E002808D0B06E006800280CD13A
:103A0000B06E0089718E884207D2B6F86000002837
:103A100003D0B6F86200082801DB012000E0002096
:103A2000002885D1B07E10F0A00F7FF481AFB06E7A
:103A3000002802D10020A6F86400B07E10F07F00BC
:103A4000B0760020BDE8F087B17E51F08001B176FC
:103A500040B2F7E7002195E70020A7E7E06840685B
:103A6000FEF7F4FA8146F8684068FEF7EFFAB9EB22
:103A70000009B9F1000F1ED516F16C0901E0D9F863
:103A80000090D9F8000000280FD0D9F80000C068D5
:103A90004068FEF7DBFA8246E0684068FEF7D6FA37
:103AA000BAEB000ABAF1000FE9D4D9F8000020609F
:103AB000C9F8004085E73C603F6882E7FEB5040036
:103AC0000E0015006068C089012801D0002062E066
:103AD000706AFEF7BBFAE1688860708DFEF7AEFA97
:103AE000E168C881716A708D4118F162E06810F177
:103AF0001407A07AC0070BD5311D4FF4E670FFF70D
:103B00008FF980B250F00170FEF7A0FA3860381DCE
:103B1000B6F93000002801D500203086706B0028EF
:103B200008D1DFF8B00300687063E0684068FEF712
:103B30008DFAB063E16860684068081A6168498975
:103B4000091A6268518161680989081A61680881E7
:103B5000E068616848600020E1680882301D0090DC
:103B600033006068028906216068FEF7EAF9E168BF
:103B700008829648B0F89010491CA0F89010029561
:103B800006200190707A0090B37A321D310060688F
:103B900001F006F940B2FEBD2DE9FF478246894695
:103BA00016001F00002214210120FDF74FFE040023
:103BB000002C4AD00D9D0C98D4F8048080B2FEF7FA
:103BC0003DFAA8F80000280080B2FEF737FAA8F8FE
:103BD00002005046FEF73AFAC8F804004846FEF7DD
:103BE00035FAC8F8080045F21400FEF727FAA8F8DD
:103BF0000C000A20A8F80E000020A8F810000020F1
:103C0000A8F812007148B0F89010491CA0F8901064
:103C1000380000F049FF0500002D13D00097330055
:103C2000228906212000FEF78CF9A8F810000295E1
:103C30000620019000200090FF233A003100200070
:103C400001F0AEF82000FDF79DFFBDE8FF8780B5CD
:103C5000C16E002914D0C26E00E0126811680029FC
:103C6000FBD1816E1160C16E81660021C16690F842
:103C70004210491C80F8421000214163FFF708FE02
:103C800001BDF8B50400E06E002826D0E56E286876
:103C9000E06614F1680600E03668306800280CD051
:103CA0003068C0684068FEF7D1F90700E8684068EE
:103CB000FEF7CCF93F1A002FEED43068286035604B
:103CC0002868002802D10020A4F8640094F842007B
:103CD000401C84F8420000206063F1BD10B5040070
:103CE000E06E002833D0A07E400730D42000FFF7DC
:103CF000C8FFB4F85C00B4F84810884207D2B4F8A2
:103D00005C00022190FBF1F0A4F84A0006E0B4F850
:103D10004800022190FBF1F0A4F84A00B4F84A00F0
:103D2000618EB0EB410F04D2608E80B24000A4F8E7
:103D30004A00B4F84A10628E032000FB0211A4F876
:103D40004810A07E50F00400A0760020208610BD10
:103D5000FEB50600F06C401EFEF778F90300002265
:103D600000213000FFF75CF90400002C02D15FF065
:103D7000FF3029E0301D00F097FE0500002D02D134
:103D80007FF003051BE06768301D00903300228937
:103D900006212000FEF7D5F838820C48B0F89010C4
:103DA000491CA0F890100295062001900020009078
:103DB000B37A321D3100200000F0F2FF0500200030
:103DC000FDF7E0FE280040B2FEBD000008D900204B
:103DD0002DE9FF410700FC6E002C00D1BC6E002CC9
:103DE00001D1002070E0E0688089FEF727F9C00764
:103DF00004D52089002801D1012600E000263000EA
:103E0000C0B2002801D0002200E00122E06843682F
:103E100092B200213800FFF703F90500002D02D10E
:103E20005FF0FF3050E0D5F80480F6B2002E0BD0E2
:103E30001120FEF703F9B8F80C204CF2FF010A40FC
:103E40001043A8F80C000BE0686810F114016068DA
:103E5000038920891B1A9BB201226068FDF76AFF63
:103E6000E0684068FEF7F2F8401CF96C091A002976
:103E700000D5F864381D00F017FE0400002C02D1B4
:103E80007FF003041BE0381D00903B002A890621C7
:103E90002800FEF756F8A8F810000F48B0F8901068
:103EA000491CA0F890100294062001900020009078
:103EB000BB7A3A1D3900280000F072FF0400280088
:103EC000FDF760FE200040B204B0BDE8F0810000C4
:103ED0008CE5002064E5002008D9002080B5FEF7BD
:103EE000C4F883480068002803D18248006800288D
:103EF00005D000228049FA2000F038F802E00020C6
:103F00007E49086001BD80B57C49086800280ED153
:103F100077480068002803D176480068002806D05A
:103F20000120086000227449FA2000F01FF801BD4A
:103F300038B5040025006868804722007049286869
:103F400000F014F831BD10B5012408E06D4800EB15
:103F5000C4026B4950F8340000F008F8641C032CCC
:103F6000F4D301F075FA6849086010BDF8B5050092
:103F70000E0017000A20FFF720F80400002C4BD099
:103F800001F066FA0100614A1068002803D10020A0
:103F90005D4B196003E05C480068091A08000021C5
:103FA0002160A660E760401960601068002801D1B8
:103FB000146031E010684068854208D2106840689B
:103FC000451B1068456010682060146024E010688C
:103FD00000E0006800281FD0636841685B1A6360D6
:103FE0000168002904D0616803685B689942F0D2D7
:103FF0000168002906D001684A686168521A0168A0
:104000004A6006E061688D4203D2116849684D1923
:104010006560016821600460F1BD2DE9F0473B4C0B
:10402000206800282BD001F013FA374D2F68C71BEA
:104030000026216800291FD0486887421CD301262A
:104040002A68486882182A6048683F1A0868206011
:10405000D1F80880D1F80C900A20FEF7CEFF404638
:10406000002809D0DFF8A8A0504600F08CF9484697
:10407000C047504600F08EF9F6B2002ED8D1BDE808
:10408000F08710B5214C2068002802D15FF0FF3086
:104090000EE001F0DDF901001B480068081A2168F4
:1040A0004968814201D2002002E021684968081A6B
:1040B00010BD38B504000D000DE0FFF7E2FF02006F
:1040C000002A06D02900200000F07FF810F1010F2F
:1040D0000BD1FFF7A2FF0D4800680028EDD10022A8
:1040E0002900200000F071F8FFE731BD000000005A
:1040F00070E5002074E50020DD3E0008A8E5002002
:10410000313F000848F90008A4E50020A0E50020A0
:104110009CE500201CB50400B548D0E90023CDE99A
:10412000002300910021684601F0CDFA2060B148DB
:10413000B0F8F410491CA0F8F410B0F8F610B0F87C
:10414000F420914203D2B0F8F410A0F8F6102068E1
:10415000002802D15FF0FF3000E0002016BD10B54E
:104160000400206801F044FB002805D0A148B0F805
:10417000F810491CA0F8F810206801F047FB9D4892
:10418000B0F8F410491EA0F8F41010BD38B50400C2
:104190000D005FF0FF322900206801F09BFA002833
:1041A000F7D131BD80B50022006801F093FA0028F4
:1041B00001D1002007E05FF0FF308E49B1F8F82010
:1041C000521CA1F8F82040B202BDFEB505000E0059
:1041D000140001F05AF90700002C11D022002968C0
:1041E000684601F0A7FA0098102806D101983060BF
:1041F00001F04BF9C71B38000EE05FF0FF300BE019
:104200005FF0FF322968684601F094FA0198306047
:1042100001F03BF9C71B3800FEBD1FB50C000022A2
:104220000168684601F086FA0098102803D10198C9
:104230002060002001E05FF0FF3004B010BD006896
:10424000002801D1002000E001207047002101601A
:10425000704738B504000D006748006800900121E0
:10426000684601F0A9F920602068002808D161485B
:10427000B0F8EC10491CA0F8EC105FF0FF3017E02C
:10428000EDB2002D03D10021206801F0AAF95948B0
:10429000B0F8E810491CA0F8E810B0F8EA10B0F83F
:1042A000E820914203D2B0F8E810A0F8EA1000200C
:1042B00032BD70B505000C0001F0E7F80600002CD7
:1042C0000DD02100286801F08CF9002804D101F0FC
:1042D000DCF8861B30000DE05FF0FF300AE05FF095
:1042E000FF31286801F07DF90028F8D101F0CDF800
:1042F000861B300070BD80B5006801F0AEF901BDCD
:1043000080B53C49B1F8E820521EA1F8E8200068C9
:1043100001F0CCF901BD0068002801D1002000E0C7
:104320000120704700210160704780B5334801F0DB
:10433000D9F83349086001BD1CB504003148006854
:104340000090684601F0CEF820602068002808D16F
:104350002848B0F8F210491CA0F8F2105FF0FF30C6
:1043600010E02448B0F8EE10491CA0F8EE10B0F8A8
:10437000F010B0F8EE20914203D2B0F8EE10A0F8A1
:10438000F010002016BD80B55FF0FF31006801F02D
:10439000AEF801BD80B5006801F0E5F801BD2DE97A
:1043A000F84185B007000E0014001D00DDF83080D4
:1043B0006846142101F038FA00970196ADF808809C
:1043C00004952100684601F06BF806B0BDE8F08165
:1043D00080B55FF0FF310A48006801F088F80120DD
:1043E00002BD80B50648006801F0BDF801BD0000BF
:1043F00074FB000808D90020A4FB0008ACFB0008EF
:1044000024E50020A8FB00081CB5674908680028BF
:1044100003D06648006809688847654C2000FFF7AC
:10442000B2FFFFE72000FFF7B5FF69466148FFF7DD
:1044300040FE2000FFF7A7FF00980028F2D0009868
:104440000078022804D01FD3042817D00CD31BE017
:104450000098816800984068009AD2689047009957
:104460000920FEF7CAFDDDE70098806800994968D9
:10447000884700990820FEF7C0FDD3E700988068C0
:10448000009949688847CDE7CCE72DE9F041050060
:104490000E001700DFF81C814046FFF7D0FE092010
:1044A000FEF78BFD0400002C02D15FF0FF3012E01C
:1044B000022020706560A660E76021004046FFF79B
:1044C00071FE002806D021000920FEF796FD5FF05E
:1044D000FF3000E00020BDE8F08180B591F82B208E
:1044E00012F0180F03D0344AFFF7CFFF02E0334A2F
:1044F000FFF7CBFF02BD2DE9F04106000F001500CC
:10450000DFF8B0804046FFF79AFE0820FEF755FD21
:104510000400002C02D15FF0FF300BE0032020707C
:104520006660A760EDB2002D06D021004046FFF77F
:104530002DFE0020BDE8F08121004046FFF732FE4D
:104540000028F6D021000820FEF757FD5FF0FF306D
:10455000F0E770B504000D00154E3000FFF713FFB3
:104560002800A0473000FFF715FF002070BD38B5C8
:1045700004000D0001F05BF90B4804600B48056076
:1045800006210C48FFF7C6FD00280948FFF7D4FEB6
:104590000028032000904FF40063002208490948D6
:1045A000FFF7FDFE31BD000090E5002094E50020FE
:1045B0009CE5002098E5002009A10008294B00088F
:1045C00009440008FCFA000810B4DFF8E42311687D
:1045D00003880B44984215D01979002912D1DFF8CD
:1045E000D41309688B420DD0DFF8CC130C689C42C1
:1045F00000D10860198801801168411A14681B886D
:1046000023445980116843880B44834210D01979A0
:1046100000290DD1DFF8A0130C68844200D10B6093
:104620000188198011685B1A11680088084443806A
:1046300010BC704710B5DFF87823DFF880038008DE
:104640008000106011684FF4C860088000234B8020
:1046500000230B71DFF85C13136813F5C8630B605C
:1046600001230C6823710B68188009684880116861
:10467000DFF844231160DFF84813A1F8AA00DFF83F
:104680004403FFF759FE002810BD70B50400002C4C
:104690002ED0C74D2868844203D3C64800688442A0
:1046A0000AD3FFF795FEC649B1F8B020521CA1F815
:1046B000B020FFF796FE1BE0C24E3000FFF763FE0E
:1046C000B4F1080000210171BB490A68904200D290
:1046D0000860BB4AB2F8AC3001885B1A2968411AFD
:1046E000CB18A2F8AC30FFF76FFF3000FFF752FE97
:1046F00070BD2DE9F04789B2C91C4FF6FC7211401C
:104700000D00290089B20C2900D20C25290089B29C
:1047100040F24162914201D3002099E00400DFF8A9
:104720009082D8F80000844203D3A24800688442F3
:104730000BD3FFF74DFEA249B1F8B020521CA1F8EF
:10474000B020FFF74EFE200082E0B4F10807D8F851
:104750000060BE1B3988300080B2091AB1F1080927
:104760004846290080B289B2884201D200206FE019
:104770002800494680B289B2884201D1200067E012
:10478000DFF840A25046FFF7FEFDD8F80000398858
:1047900000EB0103187900282BD11888A9190831DA
:1047A000854AD2F800C09C4506D1D8F800308C4626
:1047B0001FFA8CFC63441360D8F800200B009BB2F6
:1047C0001A44002313711080568039801088B0F588
:1047D000C86F04D0D8F8000012881044418078488F
:1047E000B0F8AC10B1EB090915EB0905A0F8AC5015
:1047F0002AE0484680B2290089B21431884223D386
:10480000A8190830D8F80010020092B211446A4A80
:104810001368994200D2116000220A713A880A8016
:104820004E8038800A88B2F5C86F04D0D8F80020CE
:104830000988114448806248B0F8AC10B1EB09090E
:1048400015EB0905A0F8AC505046FFF7A3FD20007A
:10485000BDE8F087F8B50600300080B2002801D12D
:104860000020A3E0B6B2F61C4FF6FC700640300004
:1048700080B20C2800D20C26300080B240F2416198
:10488000884201D3002091E04E4C2000FFF77BFDD1
:104890004749494A10680B68C31A02E008689BB28E
:1048A000C35A180080B23500ADB2D5F5C865A8422C
:1048B00072D208681D00ADB2054428790028EDD1F8
:1048C0002F88180080B23F1A083F300080B287421C
:1048D000E4D32F88180080B23F1A083F300080B21E
:1048E000143087422CD3F01808300F6884461FFA22
:1048F0008CFC67445FF0000C87F804C0B5F800C07A
:10490000A7F800C07B80288001232B713B88B3F57A
:10491000C86F03D00B683F883B4458802848B0F8E4
:10492000AC300836F618A0F8AC60B0F8AE30B0F88D
:10493000AC60B34203D2B0F8AC30A0F8AE3015E0B2
:10494000012028711E4BB3F8AC60288886190868CE
:10495000281A361AA3F8AC60B3F8AE00B3F8AC600E
:10496000B04203D2B3F8AC00A3F8AE0010688542A1
:104970000CD1136802E008681B88034418790028EA
:1049800003D00C4800688342F5D113602000FFF784
:1049900001FD15F1080009E00948B0F8A810491C0C
:1049A000A0F8A8102000FFF7F5FC0020F2BD0000E1
:1049B000D0E40020D4E40020D8E400206FCA002016
:1049C00008D90020DCE4002062B38B0708D0521E17
:1049D00011F8013B00F8013B00F024808B07F6D171
:1049E000830740F0208000BF103A07D330B4B1E80D
:1049F0003810103AA0E83810F9D230BC530724BF61
:104A0000B1E80810A0E8081044BF51F8043B40F892
:104A1000043BD20724BF31F8022B20F8022B44BFFD
:104A20000B7803707047121F17D35B0009D151F840
:104A3000043B20F8023B1B0C121F20F8023BF6D26D
:104A40000BE051F8043B00F8013B1B0A20F8023B45
:104A50001B0C121F00F8013BF3D238BF121D521E6F
:104A600024BF11F8013B00F8013BF8D8704730B47F
:104A7000002513E050F8042BD30744BFA9F101032C
:104A80009A18091F042942F8045BFAD213468C07CE
:104A900044BF15809B1CC90748BF1D7050F8041BFC
:104AA0000029E7D130BC704710B40200DFF854048D
:104AB000006808E090F82B10890703D41168C368D8
:104AC000994214D00068002812D090F82B1011F0F1
:104AD00005010529F6D141680029F3D013688168E2
:104AE0000B40446881680C40A342E3D11AE019E00E
:104AF000DFF81414086800280AD0086890F82B0022
:104B000010F00500052803D108684068002808D186
:104B1000DFF8F803B0F85610491CA0F85610002032
:104B200000E0086810BC70472DE9F84F06000F0040
:104B3000DFF8D8A3BAF84A00401CAAF84A00D6F811
:104B4000048098F80000C0B20009C0B204280ED05A
:104B50003000FDF717F8BAF85C00401CAAF85C00BA
:104B6000BAF84E00401CAAF84E00002016E198F852
:104B7000000010F00F0080B25FEA8009B8F8020070
:104B8000FDF75CFA04002000318980B2884204D22B
:104B9000210089B23000FCF750FF7089494689B284
:104BA000884207D33089A4B2A04203D3484680B2DA
:104BB00014280EDA3000FCF7E5FFBAF85200401C6A
:104BC000AAF85200BAF84E00401CAAF84E00002085
:104BD000E4E0494689B24046FDF7BBF900280ED013
:104BE0003000FCF7CFFFBAF85000401CAAF8500084
:104BF000BAF84E00401CAAF84E000020CEE0DFF8C4
:104C000010B3D8F81000CBF81400D8F80C00CBF88B
:104C100010009BF8140010F0F000E02820D197F865
:104C20002B00C0071AD57868002817D03C0039003F
:104C3000DBF81000FDF7CAF8002805D19BF810003A
:104C400010F0F000E0282ED13000FCF79BFFBAF8FE
:104C50004E00401CAAF84E0000209FE00024E6E72A
:104C600001253C0094F82B00C0070ED56068002891
:104C70000BD0DBF814006168884211D02100DBF80A
:104C80001400FDF7A3F800280AD1002D09D0002553
:104C90009C480468BC4200D12468002CE2D1C6E7DD
:104CA000C5E72468F6E7002C04D13000FCF76AFF62
:104CB000002073E0B8F806004FF63F71084209D0B3
:104CC000300000F028FF0600002E01D1002065E032
:104CD000D6F80480CBF80040CBF80470CBF80880FD
:104CE00098F8000010F00F0080B28000ABF80C00C4
:104CF000494609B2494209B23000FCF737FF98F83B
:104D0000090001280DD0062806D011280ED139003F
:104D1000300001F047F92EE039003000FBF732FA9D
:104D200029E03900300001F0AFFB24E02100DBF87E
:104D30001400FDF74BF8002810D19BF8140010F078
:104D4000F000E0280AD0494609B23000FCF714FF11
:104D5000C6F804800221300001F0A6FC3000FCF708
:104D600011FFBAF85800401CAAF85800BAF84E00D3
:104D7000401CAAF84E000020CBF800000020CBF821
:104D800004000020CBF808000020ABF80C00002045
:104D9000CBF810000020CBF814000020BDE8F28F03
:104DA0007FB50A9E0C00002A05D0002902D00968B0
:104DB000002900D1341D0999089D0296C9B20191BC
:104DC000EDB20095DBB2210000F002F804B070BD36
:104DD0002DE9F84306000D00140099460027002C29
:104DE00071D05FF0140814213000FCF7BFFE0028DA
:104DF00008D04648B0F85C10491CA0F85C107FF061
:104E000001007DE0099908984A46D6F8049089F88F
:104E1000082089F80910C9B2D2B252EA0122D21987
:104E20002168C9F81010D9F8101089B28A18D9F879
:104E3000101012EB11421FFA88F8042198FBF1F1CF
:104E400051F0400189F8001089F80100C0B299F8CA
:104E5000001051EA00218A1817003089FDF7EEF89A
:104E6000A9F80200B9F80200C7190020A9F8060045
:104E7000DFF8A080B8F80000FDF7E0F8A9F804001A
:104E8000B9F80400C719B8F80000401CA8F80000E1
:104E9000002D04D120480068C9F80C0002E0286801
:104EA000C9F80C00D9F80C0080B2C719D9F80C0069
:104EB00017EB1047B8B210EB174010EB1040C0438F
:104EC000A9F80A0003E07068006900906C460A9B2C
:104ED0000E48B0F84810491CA0F84810588C00281B
:104EE00009D0588C3189884205D22200190030003F
:104EF00000F015FF04E02200310018005B699847BC
:104F0000BDE8F28314E5002018E5002008D9002050
:104F100038E30020BCE500209CFB000862F30F2270
:104F200062F31F42401810F0030308D0C91A1FD3C0
:104F3000DB0748BF00F8012D28BF20F8022D130021
:104F400030B414461546103928BF20E93C00FAD881
:104F5000490728BF20E90C0048BF40F8042D89000C
:104F600028BF20F8022D48BF00F8012D30BC704743
:104F7000C91818BF00F8012DCB0728BF00F8012D74
:104F80007047B1F5807F02D34FF0FF30704701705A
:104F9000012070470078401E8041C043C00F704719
:104FA00080B586B00068DFF86814884240F09580CC
:104FB00000200590DFF85C04016851F00071016089
:104FC000016811F0007105910599002105910168B2
:104FD00051F080610160016811F0806105910599CF
:104FE00000210591016851F000610160016811F034
:104FF00000610591059900210591016851F00401B6
:105000000160016811F004010591059900210591E5
:10501000016851F001010160016811F00101059181
:10502000059900210591016851F0020101600168B4
:1050300011F002010591059900210591016851F0D7
:1050400040010160006810F0400005900598322092
:1050500000900220019000200290032003900B207A
:1050600004906946DFF8B00301F076FB86200090DB
:105070000220019000200290032003900B20049056
:105080006946DFF8980301F067FB4FF40050009089
:105090000220019000200290032003900B20049036
:1050A0006946DFF87C0301F057FB4FF42050009075
:1050B0000220019000200290032003900B20049016
:1050C0006946DFF8600301F047FB002205213D201F
:1050D00001F0E7FC3D2001F0F5FC07B000BD80B514
:1050E000D148006800F0B9FA01BD30B589B00400BC
:1050F00000200090CD4DC648286001206860002047
:10510000288200208DF8080002A880214170E1214A
:1051100081701221C170342101715621417102A8A0
:1051200068610120A8610020E8615FF40000286246
:10513000280001F0E7FCC0B2002805D194F82B004C
:1051400050F0040084F82B000423B94AB949280020
:1051500001F0F3FD0423B84AB849280001F02BFE02
:10516000062084F824006869007884F825006869BE
:10517000407884F826006869807884F82700686998
:10518000C07884F828006869007984F82900686983
:10519000407984F82A0040F2DC50608494F82B00B7
:1051A00050F00A0084F82B00A54800680190012106
:1051B00001A800F001FA9C49086004A8A149142242
:1051C000FFF712FC210004A800F06AF9280001F0A2
:1051D000DAFF6A461D21280001F053FF009850F0C5
:1051E0000B000090009A1D21280001F08CFF6A46F8
:1051F0001D21280001F045FF09B030BD2DE9F84F11
:105200008A4DE86AD0F808B05FF00009002000205D
:105210000020EE6A5FF0000A0C000DE03A006068C2
:1052200000EB08010BEB0A084046FFF7CDFB17EB3C
:105230000A0A17EB09092468002C32D030680028CC
:1052400003D467895FF0000813E07FF007002DE0CA
:10525000D6F808B0AAF2F450C71908F2F458B8EB1F
:105260000A0809F2F4594846D146B0EB09095FF043
:10527000000A1AEB070040F2F5518842CED340F203
:10528000F452B2EB0A02606800EB0801D3445846BE
:10529000FFF79AFBF66830680028D9D57FF0070041
:1052A00004E04946280001F0C5FD002041F2140148
:1052B0002A685258920607D520222B685A5000219E
:1052C0002A6841F20403D15040B2BDE8F28F2DE9C3
:1052D000F84F0025002000200020002000200020A2
:1052E000524E300001F03DFE002801D0002062E067
:1052F000F16BD6F84080080080B2002805D0032268
:1053000089B20420FCF7A2FA0500002D36D0376BD5
:105310005FF0000A2C002AE040F2F452B2EB0A02DD
:1053200008EB0A01606800EB0B084046FFF74CFBF6
:10533000FF68D7F80880AAF2F45010EB09090BF2C5
:10534000F45BBBEB0A0AD3465FF0000A1AEB0900D4
:1053500040F2F5518842DFD24A4608EB0A01606804
:1053600083445846FFF730FB19EB0A0A2468002CE7
:1053700004D0B4F80A905FF0000BE7E7306B00212F
:1053800005E0026852F000420260C068491CB26B3E
:105390009142F6D30020B06341F2140031680958FD
:1053A000090607D58021326811500020316841F28A
:1053B000080288502800BDE8F28F38B505005FF07C
:1053C000FF311948006800F00CF90028F7D12800D7
:1053D000FFF77DFF0400002C08D0290020002A6977
:1053E0009047002802D02000FCF7CCFB002CEED127
:1053F000E5E780B5732180F82C10742180F82D101A
:105400001149416111498161FFF76FFE002002BD22
:105410000080024030380240000802400000024094
:1054200000040240001802409CE4002028E2002012
:105430009CB20020C8DF0020CC9A002048DF00206A
:1054400094FB00089CF90008FB9A0008FD51000835
:1054500080B502F07DF802BD010000200A0012B202
:10546000842A03D009B2C91C091808007047EFF359
:105470000580002801D0012000E00020C0B2704764
:1054800080B502F0D6F9002002BD80B5FFF7EFFF2E
:10549000002802D002F07BFA01E002F074FA02BDAB
:1054A0003EB504000D00B4F90800FFF7D5FF02A9CE
:1054B000019100902B00226992B22168606802F08D
:1054C0004DF8012801D0002000E002983EBD80B5D3
:1054D0000121B0FBF1F0002800D1012002F01FF9FA
:1054E000002002BD80B5012002F002FE02BD38B5E9
:1054F000050000200090002D01D1802028E000242C
:1055000011F1010F02D15FF0FF3407E0002905D04F
:105510000120B1FBF0F4002C00D10124FFF7A7FF1C
:10552000002816D06A460021280003F061F80128FF
:1055300001D0FF200CE00098002808D05FF08050D8
:10554000DFF8A8120860BFF34F8FBFF36F8F002002
:1055500032BD002322000021280002F06CFF012848
:10556000F5D0FF20F4E738B50400002500200090B6
:10557000FFF77DFF002814D06946200002F0FFFEEF
:10558000012801D0FF2016E00098002812D05FF01B
:105590008050DFF858120860BFF34F8FBFF36F8F52
:1055A00008E0002300220021200002F0AEFD0128C7
:1055B00000D0FF25280032BD10B501290FD10322EC
:1055C0000021012002F04FFD0400002C05D0002333
:1055D00000220021200002F098FD200000E00020C1
:1055E00010BD38B5050000200090002D01D18020AD
:1055F00028E0002411F1010F02D15FF0FF3407E031
:10560000002905D00120B1FBF0F4002C00D10124C9
:10561000FFF72DFF002816D06A460021280002F06F
:10562000E7FF012801D0FF200CE00098002808D0F7
:105630005FF08050DFF8B4110860BFF34F8FBFF305
:105640006F8F002032BD002322000021280002F0CD
:10565000F2FE0128F5D0FF20F4E738B5040000255C
:1056600000200090FFF703FF002814D069462000B7
:1056700002F085FE012801D0FF2016E000980028E6
:1056800012D05FF08050DFF864110860BFF34F8FD5
:10569000BFF36F8F08E0002300220021200002F0FA
:1056A00034FD012800D0FF25280032BD10B50400CC
:1056B000FFF7DDFE002801D0822003E0200003F088
:1056C0000DF8002010BD80B500224168006802F08E
:1056D000CAFC02BD33B581B0050000200090012056
:1056E000B2FBF0F4002C00D10124FFF7C0FE00282B
:1056F00016D000236A4602A9280002F0D1FD012835
:1057000001D0FF200BE00098002807D05FF0805008
:1057100036490860BFF34F8FBFF36F8F00203EBD47
:105720000023220002A9280002F0EFFC0128F5D096
:10573000FF20F4E77FB506000D00029500200190E0
:10574000002D07D180200090684690E80E0086E882
:105750000E0042E000200390002412F1010F02D15C
:105760005FF0FF3407E0002A05D00120B2FBF0F41F
:10577000002C00D10124FFF77AFE002817D003AADD
:1057800001A9280002F034FF012802D11020009066
:1057900001E0002000900398002819D05FF08050AD
:1057A00012490860BFF34F8FBFF36F8F10E00023E3
:1057B000220001A9280002F03EFE012802D110209B
:1057C000009005E0002C01D1002000E04020009076
:1057D000684690E80E0086E80E007FBD80B502F0B6
:1057E000D2FA012801D003F0DEF801BD04ED00E09B
:1057F00010B50400FFF73BFE002803D0200002F0A4
:1058000061FF02E0200002F04AFF10BD10B5040065
:10581000FFF72DFE002801D0822003E0200002F0D7
:105820005DFF002010BD0000002203F01BB980B511
:1058300003F031F9FEF779FDFEF7FCFEFDF77AFB88
:1058400003F02AF900F060FBFCF70EFCFEF77BFB8F
:1058500001BD000038B50025DFF89C06046804E0AF
:10586000E07F401EE07725002468002C08D0E07F10
:105870000028F5D120002468290000F002F8F4E7A0
:1058800031BD2DE9F04107000D000026002D78689C
:1058900041688888002815D17C68086878601422DF
:1058A00017F10801D4F804804046FFF78DF8012174
:1058B000200000F000FF2000FCF7A2F9861920006C
:1058C000FCF760F97C6809E06068A046046840461F
:1058D000FCF796F986194046FCF754F9002CF3D1F1
:1058E0002900380000F07CF8DFF810060188891BD9
:1058F0000180B6B23000BDE8F081F8B504000D00BB
:10590000002600205FF0000C00230027DFF8E815D8
:10591000096814E0C27F91F81FE072450AD30800BD
:10592000634607E00022002A04D07F1C0028F1D142
:10593000080063460A68002A00D08C4609680029DE
:1059400010D04A69D4F80CE0724509D18A69D4F8BC
:1059500010E0724504D18A89B4F804E07245E1D0C0
:105960000122E0E7002803D01900FFF78AFF86191B
:10597000AE4201DA022FC4DA3000F2BD70B5050084
:105980000E000420FDF719FB0400002C12D1310099
:105990002800FFF7B2FFB04203DB0420FDF70DFB48
:1059A0000400002C06D1DFF85805818F491C81873F
:1059B000002014E02021002226003000FFF7AEFA7C
:1059C0000320E077DFF830050168216004601422CD
:1059D00014F1080629003000FEF7F6FF200070BD24
:1059E00080B5DFF814251368834202D10168116085
:1059F00001E002680A6001000420FDF7FEFA01BD23
:105A00002DE9F84306000F0000240125D7F8049083
:105A1000B9F80200FCF712FB80461FFA88F899F8E3
:105A2000000010F00F00B8EB8008B9F80600FCF792
:105A300005FBC004C00C80B2C000796800220A6077
:105A4000888018EB0000C880706810E08888938810
:105A500098423CD08888D388984239D3002C04D00F
:105A6000E0889388984200D0002510681400002830
:105A700022D042688B88B2F804C06345E6D2086041
:105A8000002C18D08B88B4F806C0634503D39288E5
:105A9000CB889A420DD23800FCF7B2F8DFF85C14DC
:105AA0000A88101A08803800FCF76CF80020BDE85E
:105AB000F283276000E0776000280BD1002C08D02B
:105AC0002760E0888A88904204D0002502E0E2E75F
:105AD000E1E77760B07FC0071BD5002D17D0706855
