:020000040800F2
:1000000070F200204D0D0108190C01081B0C0108AD
:100010001D0C01081F0C0108210C01080000000044
:10002000000000000000000000000000DBBF00082E
:10003000230C01080000000095BF000895B40008DB
:10004000A10D0108A50D0108A90D0108AD0D0108BC
:10005000B10D0108B50D0108B90D0108BD0D01086C
:10006000C10D0108250C01082B0C0108C50D010864
:10007000C90D0108CD0D0108D10D0108D50D0108EC
:10008000D90D0108DD0D0108E10D0108E50D01089C
:10009000E90D0108ED0D0108F10D0108F50D01084C
:1000A000F90D0108FD0D0108010E0108050E0108FA
:1000B000090E0108310C01080D0E0108110E01088E
:1000C000150E0108190E01081D0E0108210E010868
:1000D000250E0108290E01082D0E0108310E010818
:1000E000350E0108390E01083D0E0108410E0108C8
:1000F000450E0108490E01084D0E0108510E010878
:10010000550E0108590E01085D0E0108610E010827
:10011000650E0108690E0108370C01086D0E010813
:10012000710E0108750E0108790E01087D0E010897
:10013000810E01083D0C0108850E0108890E010899
:100140008D0E0108910E0108950E0108990E010807
:100150009D0E0108A10E0108A50E0108A90E0108B7
:10016000AD0E0108B10E0108B50E0108B90E010867
:10017000BD0E0108C10E0108C50E010800000000F7
:10018000C90E01082DE9FE4F0646DFF8187B70689E
:1001900038627189142947DBDFF80C8BD8F800101E
:1001A000D8F8140001F0D2FA002840F0DA8198F86B
:1001B000140000F0F000E02800F0D381386A00F06D
:1001C00086FD000B81001429A4BF308988422BDBF7
:1001D0000022A1F114007A62B8827289DFF8CC9A09
:1001E000DFF8CCAA8A4206DBF882494209B23046DF
:1001F00001F010FD35E0306828B95346B2220FF205
:10020000CC3101F042F96FF01301304601F002FDEC
:100210007189BC8AF9823046641A09B201F038F952
:1002200030684189A4B2A142C0F29B8142687A62DF
:1002300021B201F02DF9318970890C1B348128B16C
:100240005346CF220FF2943101F01FF93168308903
:100250000A89904205D05346D0220FF28C3101F02A
:1002600014F9386ADFF84CBA008802F079F8396A74
:100270000880488802F074F8396A4880486802F0BB
:1002800075F8396A4860B862886802F06FF8396AB0
:100290008860F862C88902F063F8396AC88100F0A2
:1002A00012FD00F03F00387010F00300318918BFD4
:1002B00001204018B8830025DBF800400FF24830D9
:1002C000009001E02546E468002C00F05181207D7B
:1002D00028B95346E2220FF2583101F0D6F8207DBA
:1002E0000A2805D15346E3220FF26C3101F0CDF814
:1002F000207D012804D100995346E42201F0C5F87D
:10030000386A218B0288914202BFE18A408881428B
:10031000D8D16168D8F81000814202BF2168D8F8AE
:1003200014008142CED1E168A14205D15346EC22AE
:100330000FF2503101F0A9F835B1E068E860DBF860
:100340000010E160CBF80040E068A04205D15346C0
:10035000F4220FF25C3101F098F8002078603189C6
:10036000386AB98138610021396379707983BE6058
:100370003878010703D5707B40F0010070736FF08F
:100380000C05606F00286AD0204602F029FDA842C3
:1003900005D0606F00281CBFB88B00285FD0608D2F
:1003A000002802D1204603F085FDD0E0E468002C4F
:1003B00000F0E480207D0A2804D05346FE225946EE
:1003C00001F063F8386A218B0388994202BF45889F
:1003D000E08AA842EAD16168D8F81000814202BFE1
:1003E0002168D8F814008142E0D13A7851072046BC
:1003F00023D4B98B940712D5BC6A426AB4EB020CC1
:1004000013D4028DACEB0202002A0EDC019300959E
:1004100008F11003F86A08F114020919C8E0D207BC
:1004200003D5DFF894381C680462002905D0817E6A
:1004300041F00201817603F072FD92E0C88A5C8887
:10044000A04209D10868D8F81440A04218BF00297A
:1004500018BF002800F0AF800A46C96893E07C63AB
:10046000204600F0F5F9A84271D0787801070FD541
:10047000D4F88C201AB120696FF00D019047214605
:10048000584602F049FE2146012004F057FA5EE08A
:100490007A8B42B1E36F23B1206921469847A84285
:1004A00055D000207883204600F03EF900284ED138
:1004B000386B38B3606F30B14FEA0A034FF4D27231
:1004C00086A100F0E2FFA07E3A6BC10606D5104679
:1004D00001F0A4FB204602F027F938E0D4F880C0F0
:1004E000BCF1000F04D0206900232146E04704E05E
:1004F00000232146002002F0D1FCA84227D008B1F9
:10050000386B60677878810618D5606F20B1417BC1
:1005100041F02001417311E0208DB0F5066F1CBF42
:10052000401C2085D4F880C0BCF1000F06D02069A3
:10053000002300222146E047A84208D0002078632B
:10054000204600F0F1F810B9204603F0E8FC002046
:1005500078633863B86848B101F060FB0020B86088
:1005600004E03046BDE8FE4F01F058BBBDE8F78F10
:10057000DFF848070FF2801B046818E7DFF84057E0
:100580003B6A2968002200297FF458AF988901F05E
:10059000E7FE4007E5D4386A0188019108F11003AD
:1005A0004088B96A009008F11402B88B4118F86AC3
:1005B00003F00AFED5E722B1C868D0602A68CA6095
:1005C0002960084600F0CEF8CBE70000702D3E6EA3
:1005D00065787420213D204E554C4C00702D3E6CAA
:1005E000656E203D3D203000702D3E746F745F6C51
:1005F000656E203D3D20702D3E6E6578742D3E74F5
:100600006F745F6C656E00007463705F696E707507
:10061000743A20616374697665207063622D3E735D
:100620007461746520213D204C495354454E0000AF
:100630007463705F696E7075743A20616374697673
:1006400065207063622D3E737461746520213D20C6
:10065000434C4F53454400007463705F696E70757E
:10066000743A20616374697665207063622D3E730D
:100670007461746520213D2054494D452D574149F1
:10068000540000007463705F696E7075743A207076
:1006900063622D3E6E65787420213D207063622078
:1006A000286265666F726520636163686529000072
:1006B0007463705F696E7075743A207063622D3E6A
:1006C0006E65787420213D20706362202861667415
:1006D0006572206361636865290000007063622DA4
:1006E0003E726566757365645F64617461203D3D4B
:1006F000204E554C4C0000007463705F696E70753D
:10070000743A2054494D452D574149542070636235
:100710002D3E7374617465203D3D2054494D452D37
:10072000574149540000000010B50446DFF8740535
:100730004178C80614D5A17EC80606D4D4F88C200A
:100740001AB120696FF00E0190472146DFF8640569
:1007500002F0E2FC2146012004F0F0F8012010BD77
:10076000002010BDFEB5DFF83C550646287841074D
:100770006CD4C106DFF830750FD5286A0188AC8BC0
:10078000019107F110034088A96A009007F1140253
:10079000E86A611803F018FDF7BD800756D5707D33
:1007A00002F0C4FB04000AD1B369002B4ED03069BB
:1007B00003B0BDE8F0404FF0FF32002118477869E0
:1007C000206003223969616004F15C07F08AE082ED
:1007D000296A088820832275A86A401C6062E0624A
:1007E000204602F0E1FC6065E0646064A065A86AF0
:1007F000401E206530692061FE61307A00F00C00F7
:100800002072DFF8B00400F0FFF9DFF8341C01209B
:100810000870204600F059FE286AC0893880788028
:10082000211D608E02F0C6FC60861221204603F076
:10083000B1FA30B1204603B0BDE8F040002101F02C
:10084000FBBE2046BDE8FE4003F069BBF7BD0000DB
:100850002DE9FE4FDFF84C54DFF850A4DFF8508448
:1008600004462878410704F1440627D5207D022854
:1008700005D1E86AB168884240F09D810BE0616A69
:10088000AA6A8A4212D130B9434640F2E7220FF2F7
:100890002C3100F0D0F9687840F008006870A07E34
:1008A00000F0FE00A0766FF00D0085E1511A00F116
:1008B0008281208D091A0029DEDC88E0800704D5BA
:1008C000207D022818BF0328F7D1A07EC10603D4DB
:1008D000DFF8E40302682262002084F8960041F207
:1008E0001C19204600F0F1FDAA6AA88B2B6ADFF8DC
:1008F000B8E38018029094F814B02F78E86AABF14E
:10090000020BBBF1070F07F0100162D8DFE81BF004
:1009100008007900D300DC000801D300190143016D
:1009200007F01207122F02BF35686D1CA84251D183
:10093000511C6162E1623060521ED889308370833D
:10094000F26004202075211D608E02F033FC42000D
:100950004A458CBF13464B4660868100994238BF9A
:10096000800003D34A458CBF40004846B080F08BDE
:1009700028B9434640F21A3298A100F05CF9F08B96
:10098000B56A411EF1835DB9756A35B94FEA08034E
:1009900040F2223297A100F04EF92868706201E01F
:1009A0002968B162284602F059FAB06A00280EBFE1
:1009B0004FF0FF30002084F842002086336C33B1C2
:1009C000206900222146984710F10D0F40D000F019
:1009D00024F9F0E00029FCD0198801915A88029985
:1009E00000920EF110030EF1140203F0EDFB94F8E7
:1009F0004200062804DA00212186204603F076FC16
:100A0000D9E000294DD03168411A491E3DD4B16862
:100A1000411A002939DC04202075706BA8B1806967
:100A200040B9434640F251320FF69C3100F003F9D1
:100A3000706B50B1706B83693BB120690022214615
:100A4000984740B110F10D0F02D0204601F06CFE26
:100A50006FF00C00B0E000F0ECF8688B08B1401EBD
:100A60006883608E42004A458CBF13464B46810026
:100A7000994238BF800003D34A458CBF40004846A6
:100A8000B080687881061BD495E01A8801920EF137
:100A90001402598800910EF11003029903F094FB9F
:100AA00089E0B807FCD5616A491E8A4202D1204616
:100AB00003F033FC7FE000F0BCF8687881067AD55B
:100AC00000F0ABF8072129E000F0B3F86A78287845
:100AD000E96A930600F0100017D590B1B268914210
:100AE00004BF706A00280CD100F09CF800F091F867
:100AF00039D000E00846002841D0C168A142F9D1B0
:100B00003BE000F08AF8082108E0002853D0B268E2
:100B1000914204BF706A00284DD1062121754AE038
:100B200000F087F86878810645D500F07BF800F082
:100B300070F818D000E0084608B3C168A142FAD1A5
:100B40001BE000F076F82878C10634D5E86AB16871
:100B5000884204BF706A00282DD1204602F0B9FAFD
:100B600000F057F805D153480168CA68026006E0F2
:100B7000084620B1C168A142FAD1E168C1600020F5
:100B8000DFF8BC28E060012111700A2020754B4875
:100B900000F03AF80FE000F04CF82878C1060AD5CA
:100BA000E86AB168884204BF706A002803D1687897
:100BB00040F0100068700020BDE8FE8F7463705F25
:100BC000696E7075743A207063622D3E737461743F
:100BD0006520213D20434C4F534544007063622DF6
:100BE0003E736E645F71756575656C656E203E2041
:100BF000300000006E6F207365676D656E74207441
:100C00006F206672656500000168E160046003F0B2
:100C100055BF28480068A0427047A07E40F00200FF
:100C2000A0767047A07E40F00200A076204602F039
:100C300050BA20464EE0504604F07CB870B50546E8
:100C40000C46E96800F03FF8C00713D5204602F0D3
:100C5000FCF8002423E000F03AF8C00706D5012094
:100C600001F07EFBE9688A89104388812046246868
:100C700002F0F4F89CB10B482A89816AE068268961
:100C800043685218D31A9B1BE5D54068121A002AF4
:100C900005DD411A298189B2686800F003FF2C60E4
:100CA00070BD000014ED0020A4ED002044150008E4
:100CB0006C1500082C0000202000002030000020CF
:100CC00028000020C168888901F04ABB306980890A
:100CD00001F046BB2DE9F84F07460FF66809387D4D
:100CE0000FF6880A042806DA53464FF481620FF69D
:100CF000F80100F0CAFBDFF844683078C10607F15C
:100D0000440540F13E81D5F80CC0B06AD5F810809A
:100D10002C8B316AF36ABCEB000E08EB040209D499
:100D200002D1B8EB030C05D498451DD1B1F80E8063
:100D3000444519D2C989298307F1440C8846BCF877
:100D40001A40A04538BFA046A5F81A80E86007F110
:100D500094042B61607821B930B901212070617051
:100D600002E008B10020607007F14201D5F800C030
:100D70000FF6B8040FF68C08A3EB0C00002828DC53
:100D8000B08B002801BFD5F810E0288B704490424A
:100D90001CD1B7F93020002A18D49C4516D14878C8
:100DA000421CD3B2984238BF4A704878042807DB07
:100DB000A888798E09188AB2904200D2A9809EE054
:100DC0000328FCD1384603F0D1FA98E0002048709F
:100DD00095E0401E6ED4A868181A00286ADCB87E18
:100DE000420704D500F0FB00B876E888A88000220E
:100DF0000A70B7F93C00B7F93E2002EBE002A7F811
:100E00004020002048702B60397D042932DBA888FF
:100E1000E9888842798E04D209188AB2904229D290
:100E200009E0494391FBF0F1091807F14400838878
:100E3000994238BF1946A9801CE083460068A86221
:100E400000F00AFBE98B814205D2534640F29E42F4
:100E5000414600F01AFB00F0FFFA00F001FBE88BBE
:100E600040B1A86A30B9686AE0B9534640F2A74277
:100E700000F00AFBA86AA8B1C068406801F076FAE1
:100E80008346A86AFFF71EFF10F00301A86A0289D3
:100E900018BF012193448B44F16AABEB0101002997
:100EA000CBDD10B94FF0FF3000E000203886002085
:100EB000F87624E0384602F0FDFF20E08346006823
:100EC000686200B9288400F0C7FAE98B814205D234
:100ED000534640F2D542414600F0D7FA00F0BCFA42
:100EE00000F0BEFAE88B50B1A86A002804BF686A17
:100EF000002804D1534640F2DD4200F0C5FA686A8A
:100F0000C0B1C068406801F031FA8346686AFFF7F3
:100F1000D9FEF16A10F00302686A0389A1EB0B0B9A
:100F200018BF0122ABEB03039A1A03D4AA68891AEB
:100F30000029C3DDA98B708B4118A983786B00B39E
:100F4000BA6BF16A521A1CD5DFF8F4251368B7F9A9
:100F50003C10181A00B2A0EBE1004118B98704B2A6
:100F6000002CB7F93E2048BF40428018A0EBA200F9
:100F7000F88709B200B200EBE100A7F840000020BA
:100F80007863B08BB16A002800F046823A7D072A68
:100F900080F242827A6AA2EB0108B8F1010354D4CC
:100FA000A8EB0000401C50DCB068834630B95346C3
:100FB00040F23C520FF2946100F067FA47F6FF707E
:100FC000804506DB534640F23D520FF2906100F03F
:100FD0005CFAB0680FF2A464418941451FDA0089C8
:100FE000404506DA534640F23F520FF2806100F06E
:100FF0004CFAB0680289A2EB08025846414604E068
:10100000C91A002302814381006843898B42F7DBC0
:1010100000F03EFA78B1534640F24C5209E0C8F174
:1010200000080FFA88F100F0F5FD20B1534640F2B8
:10103000515200F029FA796AB289B06A521A8218BC
:10104000B281B1623069416005E0891A03D5B87E8A
:1010500040F00200B876796AB26A531A00F1D7817B
:10106000388D1B1A5B1C00F3D28191420FF2206B6A
:1010700040F01381FFF72AFE10F00300B18918BF7A
:1010800001204018B08380B23A8D82422BD2FFF704
:101090001DFEC00709D53169FFF715FE00F03E00BF
:1010A00001F05EF9326900F0D0F9388DB081316914
:1010B000FFF709FE00F0DFF9FFF708FE10F003016B
:1010C000B08918BF01210918B183B26A7B6A388DD3
:1010D00089B28918C318994205D0534640F27F520D
:1010E000594600F0D2F9E86A002858D0FFF7EEFD23
:1010F000C00707D5E86A002851D00168E96201F00D
:10110000ADFEF7E7EC6A1CE0FFF7E1FDC00714D580
:101110003169FFF7D8FD80070FD4012001F020F9D5
:1011200031698A891043888101F01AF910F00300AF
:10113000B18918BF01204018B0832046246801F00F
:101140008DFE5CB3E068B16AB28B4368B4F8088086
:101150005218D31AB3EB0803D6D54068121A002AE6
:101160001CDD411AB181FFF7B1FD00F084F9FFF7F2
:10117000ADFD10F00300B18918BF01204018B08305
:10118000B26AE16880B280184A68904206D053463D
:1011900040F2AF520FF2305100F077F9EC62B18BB0
:1011A000B26A8A187A623B8D8B4206D2534640F26D
:1011B000B9520FF2505100F068F9398DB08B091A0D
:1011C0003985384601F023FBB168088910B13163D5
:1011D0000020B060FFF77AFDC00703D5717841F0B9
:1011E00020017170EC6A002C00F02381E068796ABC
:1011F0004068884240F01D81B062E068FFF767FDFB
:1012000010F003002289796A18BF01208018401865
:101210007862E068FFF75BFD10F003002289398DEA
:1012200018BF01208018814206D2534640F2DE5298
:101230000FF2F04100F029F9E068FFF748FD10F0E7
:101240000300398D228918BF0120891A081A3885B0
:10125000384601F0DCFA6168088938B1306B002843
:101260000CBF316300F060FD00206060E068FFF7B4
:101270002EFDC00708D5717841F020017170387DCE
:10128000042804BF072139752068E862204601F070
:10129000E5FDA7E740F00100C8E0384602F00AFE8D
:1012A000D5F82C80B8F1000F03D100F0CBF8E8623C
:1012B000BDE00024D8F80C20B16A5068814208D003
:1012C000B4B9081A1CD500F0BDF80028F0D0E862C7
:1012D0000CE0B8F80800B1898842E9D200F0B2F811
:1012E0000028E5D0002C14BF2060E86241462AE0C7
:1012F000E3685B68CB1A5B1E02D4081A401C0BDD46
:10130000D8F8000018B95268891A00291EDC444632
:101310005FEA0008CED18AE000F094F8002800903F
:10132000F9D0E06841682289B06A5218121A002A7E
:1013300005DD411A218189B2606800F0B3FB009895
:10134000206041460098BDE8F44F77E4D8F80C00DF
:10135000FFF7BDFCC0076AD400F074F80028C8F895
:10136000000064D0D8F80C004168B8F80820B06AD2
:101370005218121A002A07DD411AA8F8081089B27B
:10138000D8F8040000F08EFBB28BB06A796A82183C
:10139000388D521A121A002A49DD00F07DF8C00774
:1013A0000AD500F079F800F03E0000F0D9FFD8F837
:1013B0000010CA6800F049F87A6A388DB16A82185C
:1013C000D8F80000511A018189B2406800F06AFB28
:1013D000D8F80000FFF776FC10F00301D8F8000001
:1013E000028918BF01218918B18389B2B06A7A6A6B
:1013F0000918388D8218914219D0534659464846EB
:1014000001B0BDE8F04F40F27B6203F093BC384678
:10141000BDE8F24F02F04EBD786A091A03D4388D48
:10142000091A491C03DDB87E40F00200B876BDE819
:10143000F18FB87EC1077FF52DAF00F0FE00F3E716
:101440001C000020301D01F017BD93894CF2FF01F4
:101450000B40184390817047DBF8040000F042BC59
:10146000E98B081AE883BBF80810708B08187083A2
:10147000584601F0F3BC800702D5B189481EB081FF
:10148000B189B06800F00EBB2146484603F052BC5B
:10149000494209B200F0BEBBD8F80010C868808984
:1014A00000F05EBF10B525490A8B486A531C10B185
:1014B000CC8AA24204D2086A0B831044007D10BD7E
:1014C000121BD2B20B83805C10BDF8B51B4DAC8AE9
:1014D000064664B30020288317E0FFF7E3FF0428E3
:1014E00025D1298B891C8C4221DBFFF7DBFF0746C6
:1014F000FFF7D8FF40EA072040F21922904201DAB4
:10150000010001D14FF406707086288BA0420ED2E4
:10151000FFF7C8FF58B10228DFD0F6D3FFF7C2FFAC
:101520000228A1BF298B801E41182983EDDAF1BD65
:101530000248417841F010014170704714ED0020DD
:1015400020000020417373657274696F6E2022253C
:101550007322206661696C6564206174206C696E19
:101560006520256420696E2025730A00443A5C6476
:10157000656D69616E2E7A5C667265655C55574271
:101580005F52544C535C7577622D72746C735C615E
:101590006E63686F725C4D6964646C6577617265D7
:1015A000735C54686972645F50617274795C4C77E3
:1015B00049505C7372635C636F72655C7463705FE7
:1015C000696E2E63000000007063622D3E6C6973CB
:1015D00074656E65722D3E61636365707420213D94
:1015E000204E554C4C0000007463705F726563655B
:1015F0006976653A2077726F6E67207374617465DF
:10160000000000007063622D3E736E645F7175654B
:1016100075656C656E203E3D20706275665F636C1B
:10162000656E286E6578742D3E7029007463705F56
:10163000726563656976653A2076616C69642071CC
:1016400075657565206C656E67746800696E736595
:10165000672E7020213D204E554C4C00696E736101
:101660006E65206F66667365742100007062756632
:1016700020746F6F2073686F7274210070627566DA
:101680005F686561646572206661696C656400000D
:101690007463705F726563656976653A2073656728
:1016A0006D656E74206E6F74207472696D6D656403
:1016B00020636F72726563746C7920746F2072633B
:1016C000765F776E640A00007463705F72656365AD
:1016D0006976653A207365676D656E74206E6F7408
:1016E000207472696D6D656420636F7272656374D6
:1016F0006C7920746F206F6F7365712071756575DB
:10170000650A00007463705F726563656976653AA7
:10171000207463706C656E203E207263765F776E16
:10172000640A00007463705F726563656976653A88
:10173000206F6F736571207463706C656E203E203E
:101740007263765F776E640A00000000C24318BFC0
:10175000002810D091F82B2093070ED54A689042AC
:101760000BD0896801EA00030A40934202BFC943D3
:101770000840884201D10120704700207047F0B432
:101780000246106895681318506803EB5004C007B0
:101790001DD54D441BE013F8017B05F8017B491E64
:1017A000F9D1A0B1B60813F8011B06F00306032E09
:1017B00008BF13F8016B01EB06214942801C294444
:1017C00005D011F8016B05F8016B401EF9D1A34259
:1017D0000ED013F8016B16F0030104BF13F8011BC0
:1017E000C91C30090F28DAD113F8010B0F30D6E7E6
:1017F000F0BC02F10C00704710B503F089FB154AEC
:101800000021117003F08DFB1348046800E0E468C8
:1018100034B1206F0028FAD001F017FB00202067B8
:1018200010BD38B503F074FB0A4C257801212170F6
:1018300003F077FB6DB900220021084803F0F3FBA9
:1018400038B103F065FB00212170BDE8324003F0A0
:1018500068BB31BD6CEE00202C000020F917000899
:101860002DE9F84F042814460FF2C46B0FF20478E8
:101870001BD8DFE800F00314161818003625032CD7
:101880000F4600F2CD80DFE804F092BFBF020C20CB
:1018900003F022F806000ED1FFF7C3FFB9E02225BE
:1018A000EDE70E25EBE70025E9E743464FF48B72A1
:1018B0000FF2A461B9E00320307300213160EC1C09
:1018C000711901F11000C01CA4088008A400800058
:1018D000C4F514747060A742378138BF3D4605D304
:1018E000ED1C4FF6FC700540C5F5147575817068E8
:1018F000718906F51879014489450FF2D06A04D23E
:1019000043464FF4987200F099F834B943464FF4C7
:1019100099720FF2EC6100F092F870890121F18167
:1019200035463F1A36E003200021207361734FF6DD
:10193000FF72216097422C6006DB43464FF4A6728B
:101940000FF2F06100F07BF8B8B2B0F5147F278198
:101950002CBF4FF414703846608104F110006060B1
:10196000217911F0030F06D043464FF4A9720FF20C
:10197000D86100F064F8706871890144894504D227
:10198000434640F2551200F059F861890120E08188
:101990007F1A2546012F30DB0C2002F09DFF04004A
:1019A000C1D1FFF73EFF304600F038F931E005F1D4
:1019B00013004FF6FC72FB1C104013401818FA1C61
:1019C00081B29208B1EB820F23D380B203F07AFD8B
:1019D00006001ED070191030C01C8008800000F076
:1019E00027F83173307910F0030F06D0434640F2E8
:1019F00077120FF2846100F022F80120F0810021BB
:101A000071733046BDE8F28F0B2002F065FF0600CF
:101A100001D10020F6E7002000F00AF83473ECE76B
:101A200043464FF4C6720FF27C6100F008F8F0E70D
:101A30007060378177810021316070475146584688
:101A400003F078B938B50446042C184610D8DFE8FE
:101A500004F003090B0D0D003824059B0D19AB4252
:101A600012D20FE02424F8E71024F6E70024F4E76C
:101A70000FF200530FF248610FF2B44040F2C5126A
:101A800003F058F9002032BD049B0025056003B126
:101A90002344436002730223018141810122437385
:101AA000C28132BD2DE9F04704000F460FF2804598
:101AB0000FF2C04806D1434640F2F3120FF2246100
:101AC00000F056F8207B032818BF01280AD0002810
:101AD00018BF022806D0434640F2F7120FF21C61ED
:101AE00000F046F82689B74240D2BE1B0FF23C698F
:101AF0000FF2246A16E03F1A4FF6FF708642BFB21B
:101B000005DB434640F20B22514600F031F82089B4
:101B10003018208124682CB9434640F20F224946F0
:101B200000F026F86089B842E5DB207BA8B960891F
:101B3000874212D0617B88070FD46168091B79182E
:101B400089B2204603F03EFC040006D1434640F231
:101B50001D220FF2F05100F00BF86781608920819F
:101B6000206808B100F05AF800202060BDE8F08736
:101B7000284603F0DFB8F8B50FF2B4340FF2F433AF
:101B800038B940F23F220FF2D851204603F0D2F884
:101B900035E00D0033D04F4200290AD5BC464589B7
:101BA0001FFA8CF6B54206D240F247220FF2BC5122
:101BB0002BE01FFA81FC057B4668002D18BF032D22
:101BC00007D100F11003F2199A42426011D2466027
:101BD0001EE0022D18BF012D13D1002905D5428921
:101BE0001FFA8CF39A4202D212E011DD82B1F2198F
:101BF0004260428903898A18C91842810181002004
:101C0000F2BD40F277220FF28451204603F092F8A1
:101C10000120F2BD0022AEE70122ACE72DE9F84F2A
:101C200004000FF20C390FF24C3A08D1534640F23F
:101C3000D2220FF22C5100F052F800204DE0207B10
:101C4000002818BF01280AD0022818BF032806D090
:101C5000534640F2DE220FF2445100F040F80025D6
:101C60000FF2685B0FF24C5803F052F90646E08918
:101C700028B9534640F2EB22414600F030F8E089A3
:101C8000471EE781304603F04CF9BFB227BB617BAA
:101C90002668207B8A070BD5206928B9534640F275
:101CA000F922594600F01BF821692046884710E0C8
:101CB000032802D121460C2005E0012818BF022884
:101CC00004D121460B2002F039FE02E0204603F049
:101CD0002DFB6D1C3400C7D1E8B2BDE8F28F484639
:101CE00003F028B80146002001E00968401C0029E3
:101CF000FBD180B2704710B5040014D003F008F98E
:101D0000E189491CE18103F00CF9E08958B9BDE88B
:101D100010400FF260230FF2D8410FF2142040F26E
:101D2000393203F007B810BDF8B504000D4618BFEE
:101D3000002D0FF2FC160FF23C270FD13B46304628
:101D400001B0BDE8F04040F24D320FF2B84102F070
:101D5000F1BF21892A895118218104462068002871
:101D6000F7D120896189884207D03B4640F255323D
:101D70000FF2C841304602F0DDFF206838B13B4623
:101D800040F256320FF2E441304602F0D3FF21898F
:101D90002889411821812560F1BD10B50C46FFF757
:101DA000C3FF2046BDE81040A5E72DE9F84F0546E2
:101DB000002600270C46002D18BF002C6FF00F09DD
:101DC0000FF26C1A0FF2AC1803D0288923899842BD
:101DD0005CD2434640F2BD320FF2A04144E060685D
:101DE0006B68C1191FFA8BF2981903F017FD5E4456
:101DF0006889B6B25F44B042BFB206DA434640F2E9
:101E0000CD320FF2A84100F08FF86089B84206DAAF
:101E1000434640F2CE320FF2AC4100F085F86089C3
:101E200087426889A4BF00272468864202BF002633
:101E30002D68002D11D02CB160892189884201D1F3
:101E40002068A8B92DB168892989884201D12868FC
:101E5000C0B9DCB90020BDE8F28F002CFAD04346AF
:101E60004FF476720FF2784100F05EF84846F2E7E0
:101E7000434640F2DE320FF2784100F055F86FF041
:101E80000500E8E7434640F2E332F4E763896889F6
:101E9000811BDA1B9142ACBFA3EB070BA0EB060B37
:101EA0009DE700002DE9F8430446894617460026C1
:101EB0001FA00FF2C0012CB90B4640F2FE320FF208
:101EC0005C4107E0B9F1000F08D10B4640F2FF3248
:101ED0000FF2684102F02EFF00200BE0B0461FE039
:101EE000658998B240B1A84206D324685B1B002CD8
:101EF000F6D1B0B2BDE8F283ED1AADB2B8B29BB282
:101F0000A8426068B8BFBDB2C1181FFA88F02A465F
:101F1000484403F083FC2468AE19A8447F1B0023C7
:101F2000B8B20028E5D0E2E7504602F003BF000057
:101F3000417373657274696F6E2022257322206667
:101F400061696C6564206174206C696E652025642C
:101F500020696E2025730A00706275665F616C6C83
:101F60006F633A206261642070627566206C6179EB
:101F700065720000443A5C64656D69616E2E7A5C3E
:101F8000667265655C5557425F52544C535C757779
:101F9000622D72746C735C616E63686F725C4D6904
:101FA00064646C6577617265735C54686972645FC0
:101FB00050617274795C4C7749505C7372635C63F6
:101FC0006F72655C706275662E630000636865639E
:101FD0006B20702D3E7061796C6F6164202B2070D6
:101FE0002D3E6C656E20646F6573206E6F74206F7C
:101FF000766572666C6F772070627566000000000F
:10200000504255465F504F4F4C5F42554653495AD8
:1020100045206D757374206265206269676765721B
:10202000207468616E204D454D5F414C49474E4DCF
:10203000454E540072656D5F6C656E203C206D618D
:10204000785F7531365F7400706275665F616C6CC5
:102050006F633A207062756620712D3E7061796CF5
:102060006F61642070726F7065726C7920616C6949
:10207000676E656400000000706275665F616C6C7D
:102080006F633A20706275662D3E7061796C6F6186
:10209000642070726F7065726C7920616C69676E14
:1020A00065640000706275665F616C6C6F633A20F6
:1020B0006572726F6E656F7573207479706500005C
:1020C000706275665F616C6C6F6365645F63757386
:1020D000746F6D3A206261642070627566206C6175
:1020E00079657200706275665F7265616C6C6F63B2
:1020F0003A207020213D204E554C4C007062756690
:102100005F7265616C6C6F633A2073616E652070FD
:102110002D3E74797065000067726F77203C206DEA
:1021200061785F7531365F7400000000706275661B
:102130005F7265616C6C6F633A207120213D204EA7
:10214000554C4C006D656D5F7472696D20726574DD
:1021500075726E65642071203D3D204E554C4C00DB
:102160007020213D204E554C4C000000696E63727A
:10217000656D656E745F6D61676E69747564652009
:102180003C3D20702D3E6C656E0000006261642055
:102190007062756620747970650000007062756603
:1021A0005F667265653A2073616E6520747970654B
:1021B00000000000706275665F667265653A2070A7
:1021C0002D3E726566203E203000000070632D3E7B
:1021D000637573746F6D5F667265655F66756E6358
:1021E00074696F6E20213D204E554C4C000000005C
:1021F0007062756620726566206F766572666C6FB8
:1022000077000000286820213D204E554C4C2920A5
:10221000262620287420213D204E554C4C2920286C
:1022200070726F6772616D6D65722076696F6C6137
:10223000746573204150492900000000702D3E74E0
:102240006F745F6C656E203D3D20702D3E6C656E39
:1022500020286F66206C6173742070627566206937
:102260006E20636861696E2900000000702D3E6E6B
:10227000657874203D3D204E554C4C00706275666B
:102280005F636F70793A20746172676574206E6F56
:10229000742062696720656E6F75676820746F20AF
:1022A000686F6C6420736F75726365006F66667328
:1022B00065745F746F203C3D20705F746F2D3E6CC1
:1022C000656E00006F66667365745F66726F6D2081
:1022D0003C3D20705F66726F6D2D3E6C656E000038
:1022E000705F746F20213D204E554C4C0000000063
:1022F000706275665F636F7079282920646F6573FB
:10230000206E6F7420616C6C6F77207061636B65F9
:1023100074207175657565732100000070627566C3
:102320005F636F70795F7061727469616C3A206984
:102330006E76616C69642062756600007062756615
:102340005F636F70795F7061727469616C3A206964
:102350006E76616C696420646174617074720000EF
:102360000146000A40EA012080B270470146080297
:1023700000F47F000A0A40EA016002F47F42104341
:1023800040EA1160704730B4002513E050F8042B88
:10239000D30744BFA9F101039A18091F042942F881
:1023A000045BFAD213468C0744BF15809B1CC907F7
:1023B00048BF1D7050F8041B0029E7D130BC70479E
:1023C000704780B500F0D7FCDFF84C0B0178491C52
:1023D0000170C80702D5BDE801401FE301BD000040
:1023E000FEB504460029227DDFF8305BDFF8306B54
:1023F000DFF8307B4BD0042A18BF072A47D1606F23
:10240000002804BF208DB0F5066F40D0A07EC30623
:1024100006D43B4640F20F1261A1304602F08AFC1E
:10242000208B0190231DE18A00912246616AE06CB5
:1024300001F0CAFE204600F04CFE2869A04203D1FC
:10244000C068286106E0084620B1C168A142FAD1FF
:10245000E168C1600020E06001212970207D04282E
:1024600008D10A2121756869E0606C6102F026FBE1
:102470000020FEBDDFF8B00A0168A14202D1FFF7DB
:1024800057F8F5E72146012002F058FAF0E71AB1B3
:10249000022A3FD013D346E0E08A0028F2D0A86891
:1024A000A04203D1C068A86006E0084620B1C16818
:1024B000A142FAD1E168C1600020E060E2E77CB9A6
:1024C0003B46C02243A1304602F034FC0020017D8F
:1024D000012905D03B46C12238A1304602F02AFC32
:1024E00001210FF23C42002652F82100006804E06E
:1024F000836FA34208BF8667C0680028F8D1491CD3
:102500000429F1D3214605F10C0000F005FE214617
:102510000220B9E7214605F1100000F0FDFD012081
:1025200028702146B0E72046BDE8FE4038B50500DA
:1025300040F00980DFF8EC3926A1DFF8E40940F229
:102540004D1202F0F7FB287D032804D004280AD09E
:10255000072813D019E0284601F080F8040007D1BD
:102560000520287505E0284601F078F80400F7D02A
:102570006CB9284601F0D3FC204632BD284601F054
:102580006DF80400F4D10920EBE7002032BD14F10E
:10259000010FF1D1A87E40F00800A876F5E7000011
:1025A0007063622D3E666C61677320262054465F1F
:1025B0005258434C4F534544000000007063622D55
:1025C0003E7374617465203D3D204C495354454E23
:1025D0000000000070636220213D204E554C4C00ED
:1025E000017D012903D0817E41F010018176012116
:1025F000F6E610B50446207D012819D089B1A07EE9
:1026000040F01000A07622B101212046BDE8104024
:10261000E6E6606F18B1FFF701FB0020606700205D
:1026200010BD002AFBD0C01E0128EED9001FECD03F
:102630006FF00A0010BD00002DE9FE4F06468B46E4
:10264000307D012840F00980DFF8D83829A1DFF873
:10265000D0084FF4F07202F06DFB317DDFF8BC78EA
:102660000A290BD1314607F1140000F055FD31461F
:1026700003B0BDE8F04F012002F060B9F06C0290A9
:102680000024756AD6F88C80D6F810A0F08AA1468E
:1026900021B960B100F0ADF8F46008E08146314640
:1026A00007F1100000F038FD01205C463870F06E34
:1026B00008B100F0CAFBB06E08B100F0C6FB306F85
:1026C00008B100F0C2FB4CB1308B0190CDF8009006
:1026D000331D02983246294601F076FD314600F05E
:1026E00085F85FEA080003D06FF00C015046C04740
:1026F000BDE8F78F646F6E27742063616C6C207483
:1027000063705F61626F72742F7463705F61626186
:102710006E646F6E20666F72206C697374656E2DC7
:102720007063627300000000012185E7F8B50C00BA
:10273000054608BFDFF8044B002D18BF002C1346D8
:102740006FF005060BD095F8140050B1DFF8D437C0
:102750001BA1DFF8CC074FF4117202F0EBFA304600
:10276000F2BD180006D100F0B5F8030018D16FF0E3
:102770000100F2BD00260FF2A81757F826000268E4
:102780005AB1D08A984206D1BAB11168A9B120686D
:1027900098B1814211D0D268F2E7761C042EECDBAE
:1027A000206800B12860DFF8980AEB828168E96050
:1027B000856002F083F90020F2BD6FF00700F2BDE2
:1027C0007463705F62696E643A2063616E206F6E3D
:1027D0006C792062696E6420696E2073746174651F
:1027E00020434C4F534544002946ED68012002F038
:1027F000A5B8B868B04203D1C068B8607047084651
:1028000020B1C168B142FAD1F168C160704770B5BA
:102810000446218D656A628E481940F23146B24203
:10282000E36AA8BF4FF48662C01A821A01D4618598
:1028300070BDE81A0028C8BF00250DDC5D1BB5F58A
:10284000803F09D30FF638230FF68C210FF60820AE
:102850004FF4427202F06EFA6585002070BDF8B543
:1028600004460F46207D0FF6F0150FF614260128BA
:1028700006D133464FF448720FF6782100F091FCF0
:10288000208D40F661023F18B9B29142278506DAE1
:10289000BFB27FB9207D072818BF092803D14FF4A4
:1028A0000660208506E0334640F22D320FF66C219B
:1028B00000F077FC2046FFF7AAFFB0F5067F08DBA3
:1028C000A07E40F00200A0762046BDE8F24001F074
:1028D00026BBF1BD70B5002211A3DFF8684921883D
:1028E000481C4FF6FF75A94208BF4FF440402080B6
:1028F00000252088E9B253F82110096800E0C96872
:1029000049B1CE8A8642FAD1521C90B2B0F5804FBE
:10291000E5DB002070BD6D1CE9B20429EADB70BD67
:1029200028000020240000202C000020300000207F
:102930002DE9F041040014BF00296FF0050098460E
:102940006AD0207D60B10FF638130FF6F4110FF640
:1029500008104FF45E7202F0EDF96FF009005BE0D1
:10296000086860602283206850B9201D02F0B8FF1B
:1029700008B1001D02D16FF003004DE00068206037
:10298000E58A35B9FFF7A6FFE08210B96FF00100C4
:1029900042E0DFF8AC78B96978684118B961002283
:1029A00004F14806626271604FF40660491E61647A
:1029B000F160316160852085616AE162B082211D2C
:1029C0004FF40670608600F0F5FB6086022101205E
:1029D0003080C6F83C80204601F0DCF906001AD1B0
:1029E0000220207575B1B868A04203D1C068B860F4
:1029F00006E0084620B1C168A142FAD1E168C16091
:102A00000020E0603869E0603C6102F057F8012086
:102A1000387000F0E2F93046BDE8F0812DE9FE4F54
:102A2000DFF8F8044168491C416001460E464878C9
:102A3000401C487040E1ED68002D00F08C81287D3D
:102A400048B90FF63C030FF628110FF60C004FF4AF
:102A50007C7202F06FF9287D012809D10FF620035E
:102A60000FF638110FF2F07040F2F13202F062F915
:102A7000287D0FF2E47B0A2808D10FF604030FF635
:102A8000481140F2F232584602F054F97078697FEA
:102A90008142D0D0297D687700270229B84605F108
:102AA000400905F1940A05D199F802000628A8BF4B
:102AB00001276DDA99F802200C2AA8BF01275BDAFA
:102AC0009AF80100F0B10FF60C3108449AF80010A2
:102AD00010F8010C8142BCBF491C8AF800109AF81A
:102AE0000010814248DB284601F08DFC002843D1CC
:102AF0008AF800009AF8010006283DD8401C8AF8A0
:102B0000010039E0B5F9300003005CBF401C2886A5
:102B1000D9F82C0080B3B5F93000B9F900309842EB
:102B20002ADB02290ED0B5F93C00B5F93E100C2A7B
:102B300001EBE00128BF0C220FF68820825691405D
:102B4000A9F8001005F1400005F14001A5F830801A
:102B500000898A8B698E904288BF104649004008E0
:102B60008BB2984238BF0846A9F80A00688EA9F8C7
:102B70000800284601F0BAFB287D062808D1A87E67
:102B8000C10605D57068296A401A292828BF7F1C0C
:102B9000287A01072BD5287D042818BF072826D1BD
:102BA0007168286ADFF8A026081AD9F85010521860
:102BB0004FF4FA73B2FBF3F3834203D27F1C4FF05E
:102BC000010814E09AF80220DFF8803603FB0211B6
:102BD0004FF4FA72B1FBF2F1814208D2284601F0BB
:102BE000ECFB20B99AF80200401C8AF80200D9F8E0
:102BF000300068B171682A6AB9F90030891A062272
:102C00005343994204D300F020F90020C9F8300062
:102C1000791C287D032804D170682A6A801A292823
:102C200005E0092805D170682A6A801AF12828BFB2
:102C30000F46FFB2002F42D0D9F84CA0284600F032
:102C400048FA002C30690DD0854208D10FF230636C
:102C50000FF2A47140F28942584602F06BF8E8681E
:102C6000E0600CE0A84208D00FF214630FF2B471D8
:102C700040F28D42584602F05DF8E8683061B8F1E4
:102C8000000F0AD0288B01902B1DE98A00912A465B
:102C9000696AD9F80C0001F097FA2F69FFF7A4FDD3
:102CA0000020BAF1000F307008D06FF00C013846E8
:102CB000D0473078002801D035690024BCE62C4686
:102CC000E07E217FED68401CE076C0B28842F5D3FB
:102CD0000020E0763070D4F888203AB1206921468F
:102CE000904731780029E7D1002801D100F075F82C
:102CF000A2E6A84206D0534640F2CF4231464846AB
:102D000002F018F8E8687861FFF76EFD8DB3287D52
:102D10000A2806D0534640F2BD424146484602F0DA
:102D200009F87868296A401AF12811D3284600F07A
:102D3000D0F97869002CDCD0854206D1534640F2A8
:102D4000CB425946484601F0F5FFE868E060DBE712
:102D50002C46ED68DAE7374600247D690FF24876A5
:102D60000FF21C7B0FF2E8680FF2EC490FF2105AD9
:102D7000CCE7BDE8F78F70B5DFF8C4546878401C25
:102D800068702C691EE06077A07EC10705D500F051
:102D900021F8A07E00F0FC00A076A07E010705D5FA
:102DA00000F0F700A0762046FFF7C0FBE668606FF2
:102DB00038B100212970204600F012F82878002848
:102DC000DFD134462CB16878617F8142DBD1E46881
:102DD000F8E770BD40F00200A076204601F09FB8F1
:102DE0002DE9F041054600206F6FD5F880407E7BCD
:102DF0006867002C03463A46294602D02869A04756
:102E000001E000F04BF801006FF00C0812D1B006A1
:102E100018D5288DB0F5066F1CBF401C2885D5F845
:102E200080407CB12869002300222946A047404504
:102E300008D101E0404501D1404604E06F676FF0E2
:102E4000040000E00020BDE8F08110B5002803E098
:102E5000046800F003F82000FAD110BD10B504009A
:102E600009D0606808B1FEF7D9FE2146BDE81040E0
:102E7000032001F063BD10BD38B50546032001F005
:102E80002BFD040001D1002032BD1022294602F0A2
:102E9000C5FC6068FEF72FFF204632BD10B5140058
:102EA000084607D02189FFF7DAFC2046FEF7B6FE78
:102EB000002010BD002BFBD1BDE81040FFF790BBF8
:102EC000B0B5082818BF0928044609D00FF2B0335E
:102ED0000FF2FC510FF2803040F2DC5201F02AFF79
:102EE000DFF85C3318695F680021002209E0057D86
:102EF000A54205D1056A7D1B8D4224BF29460246A5
:102F0000C0680028F3D12AB1BDE8B04000211046C6
:102F1000FFF792BBB0BD00006DEE00201C0000204A
:102F2000583200088032000848ED0020F8B5064607
:102F300000F06EF80400C24D42D168696C6800224E
:102F4000002106E0036AE31A934224BF1A460146B1
:102F5000C0680028F6D111B10846FFF7E5FB00F084
:102F600057F804002CD10920FFF7AAFF00F050F811
:102F7000040025D10820FFF7A3FF00F049F8040062
:102F80001ED1802EACBF7F2232462869002300214B
:102F90000DE0447DA24221BFD5F804E0076AAEEB04
:102FA00007079F4202D33B4601462246C0680028DD
:102FB000EFD111B10846FFF7B7FB00F029F804463E
:102FC00024B39821204602F051FE04F148006675B2
:102FD0004FF4E66101834FF40662628522854FF467
:102FE0000673FF22A27263860622A4F84020E287BD
:102FF00001234FF0FF32228603806A6822626B78D9
:10300000934A637741808264924981632046F2BD8E
:10301000012001F061BC000000BF402086E700B144
:103020000161704738B504000D460ED0207D01289F
:1030300009D100BF0FF248230FF2A44186A040F24D
:10304000BB6201F077FEC4F8805031BD38B5040092
:103050000D460DD0207D012809D100BF0FF220239D
:103060000FF2A4417CA040F2CC6201F063FEE56760
:1030700031BD000038B50C4670B100F11405287858
:10308000012808D10FF2F8130FF2A44172A04FF4F7
:10309000DC6201F04FFEAC6731BD18B1027D012A40
:1030A00008BF81617047000070B504460D46207D61
:1030B0000128164609D100BF0FF2C4130FF2984140
:1030C00065A040F2037201F035FEC4F888502677FF
:1030D00070BD38B50546287D00281CBF0A28012888
:1030E00019D005F16404206918B1FEF797FD00209E
:1030F0002061E068FFF7A9FE0020E0604FF0FF319B
:1031000029866068FFF7A1FEA068FFF79EFE0020F9
:103110006060A060208031BD70B502460C4610682A
:10312000A04203D1C068106006E0084620B1C16823
:10313000A142FAD1E168C1600022E2602046FFF7B7
:10314000C8FF207D0A2809D0012826D0A07EC1070B
:1031500004D5FFF73FFE207D01281ED0D4F868007B
:103160000FF2F40546A630B1334640F253720FF227
:10317000084100F016F8E06E30B1334640F2547268
:103180000FF20C4100F00DF8206F30B1334640F2E1
:1031900056720FF2184100F004F800202075E0820A
:1031A00070BD284601F0C6BD254A906951680818CF
:1031B0009061704710B50446084602F091FB002864
:1031C0001EBF408C01B2002904D0283880B284424E
:1031D00088BF0446204610BD38B50446084600E0C6
:1031E000284638B101682268C568914208BFFFF7D8
:1031F0009BFAF5E731BD70B504001CBF20680028BC
:103200000D4619D00E4E31692046FFF7E5FFB16833
:103210002046FFF7E1FF002D1CBF286800280BD0D7
:10322000F068002807E002682368C1689A4204BF7A
:103230002E6806600800F6D170BD00009C0D0108E4
:103240001C000020C0010020B84C0A00F824010036
:1032500000DD6D009D2E0008417373657274696F07
:103260006E2022257322206661696C65642061747A
:10327000206C696E6520256420696E2025730A0024
:10328000443A5C64656D69616E2E7A5C6672656550
:103290005C5557425F52544C535C7577622D727483
:1032A0006C735C616E63686F725C4D6964646C65BD
:1032B00077617265735C54686972645F506172749F
:1032C000795C4C7749505C7372635C636F72655CC8
:1032D0007463702E630000006E65775F7263765FC3
:1032E000616E6E5F776E64203C3D20307866666666
:1032F00066000000646F6E27742063616C6C20743C
:1033000063705F72656376656420666F72206C69B6
:103310007374656E2D706362730000007463705F78
:103320007265637665643A206C656E2077726170B1
:10333000706564207263765F776E640A0000000037
:103340007463705F636F6E6E6563743A2063616E61
:10335000206F6E6C7920636F6E6E65637420667289
:103360006F6D20737461746520434C4F5345440066
:103370007463705F736C6F77746D723A20616374FD
:10338000697665207063622D3E73746174652021D7
:103390003D20434C4F5345440A0000007463705F66
:1033A000736C6F77746D723A20616374697665200F
:1033B0007063622D3E737461746520213D204C4919
:1033C0005354454E0A0000007463705F736C6F774E
:1033D000746D723A20616374697665207063622D42
:1033E0003E737461746520213D2054494D452D572D
:1033F0004149540A000000007463705F736C6F777A
:10340000746D723A206D6964646C65207463702019
:10341000213D207463705F6163746976655F7063DA
:10342000627300007463705F736C6F77746D723ACF
:1034300020666972737420706362203D3D2074635E
:10344000705F6163746976655F706362730000002A
:103450007463705F736C6F77746D723A2054494D6A
:10346000452D57414954207063622D3E7374617439
:1034700065203D3D2054494D452D5741495400009C
:103480007463705F736C6F77746D723A206D6964EA
:10349000646C652074637020213D207463705F74D8
:1034A000775F7063627300007463705F736C6F7733
:1034B000746D723A20666972737420706362203D85
:1034C0003D207463705F74775F7063627300000007
:1034D000696E76616C6964207374617465000000C4
:1034E000696E76616C696420736F636B65742073B9
:1034F0007461746520666F72207265637620636103
:103500006C6C6261636B0000696E76616C6964204B
:10351000736F636B657420737461746520666F727A
:103520002073656E742063616C6C6261636B000074
:10353000696E76616C696420736F636B6574207368
:103540007461746520666F72206572722063616CAD
:103550006C6261636B000000696E76616C69642067
:10356000736F636B657420737461746520666F722A
:1035700020706F6C6C000000756E73656E74207344
:1035800065676D656E7473206C65616B696E67004D
:10359000756E61636B6564207365676D656E7473CA
:1035A000206C65616B696E67000000006F6F73656A
:1035B00071207365676D656E7473206C65616B69EE
:1035C0006E670000010203040506070707070707E7
:1035D0000700000003060C18306078002DE9F04168
:1035E0000E4605461146891914319846002289B2C3
:1035F0000120FEF735F904002DD0608906F1140191
:10360000884204DA00F02AFE732201F093FB676817
:10361000E88AFEF7A5FE38803606288BFEF7A0FE66
:103620007880C7F80480B60E686AFEF79FFE761DA4
:10363000B860360346F01006B0B2FEF791FEB881CE
:10364000688DFEF78DFEF8810020388278826A6AE4
:10365000688D8218EA622046BDE8F08138B50546DB
:10366000AC6EC4B100E0044620680028FBD1E168DC
:103670008889FEF775FE10F0070F0CD10120FEF7C8
:103680006FFEE1688A8910438881A87E40F020009F
:10369000A876002032BD2846BDE83440012179E3F8
:1036A0002DE9F047089D8146E8074CBF0426002617
:1036B0000F4692469846032001F00EF9040003D10C
:1036C0003846FEF7ABFA1AE0A5720020206067606A
:1036D0003989B14280F208800FF68C331CA10FF6B5
:1036E000E430BA2201F026FB3889801B20811421A6
:1036F0003846FEF78FFA20B12046FFF7AFFB0020D7
:1037000023E060684168E160B9F81600FEF728FE22
:10371000E1680880B9F81800FEF722FEE1684880E9
:103720004046FEF723FEE1684860701006EB907695
:10373000B610761D4AEA063188B2FEF711FEE1683E
:1037400088810020E16848822046BDE8F0870000BB
:10375000702D3E746F745F6C656E203E3D206F70FF
:10376000746C656E00000000F8B50D461E4691426F
:103770002B461AD2079989070BD4069CA17E4F06C7
:1037800013D4089929B1A16E002904BFE16E002964
:103790000BD003F21B239B08B2EB830F31BF134600
:1037A00005F21B234FF6FC74234000221946FEF756
:1037B00057F8040001D10020F2BDD4F8000040B158
:1037C0000FF6A42306A10FF6FC204FF4887201F037
:1037D000B1FA6089401B3080258165812046F2BDA9
:1037E0006E65656420756E636861696E65642070DE
:1037F000627566002DE9F84F8CB01C460546002323
:103800009B460793CDF814B00A93ADF80C3009939A
:103810000B930026B5F85E006F8E4008874234BFD8
:10382000ADF81270ADF81200BDF81200994608B953
:10383000ADF81270089161B90FF62C230FF22051E8
:103840000FF680204FF4C97201F074FA6FF00F0088
:10385000E0E1287D042818BF072805D002281CBFF6
:1038600003286FF00A00F3D1ADF81020E2B105F1A2
:103870005E004188914230D3808811282DDA4FF6BE
:10388000FD72904229D2C8B105F16801486800284C
:1038900004BFA86E002807D10FF6CC130FF65841CD
:1038A0004FF4AB7200F038FC05F15E00A96E87881A
:1038B0008DF80E40002900F0E58014E005F1680065
:1038C0004168002904BF00680028EDD00FF6981366
:1038D0000FF6604140F25912E4E7A87E40F0800004
:1038E000A87695E1014608680028FBD10591897A00
:1038F000C8070599BDF812000A894CBF04240024AA
:10390000A218904209DA0FF660130FF65C410FF629
:10391000B41040F2C71201F00DFA059ABDF812106A
:103920001089091A0C1B05F15E01CA88ADF80C203C
:10393000002A3ED0A0B2904209D20FF62C130FF607
:1039400040410FF6801040F2D91201F0F3F9BDF8B2
:103950000C10BDF81000DDF81490814238BF084605
:10396000A1B28142B8BF204606DBBDF80C00BDF80D
:103970001010884288BF084680B2099009A8BDF897
:103980000C2006880999921BADF80C20641ABDF82A
:103990000C0000281CBFBDF81000864209D00FF6AD
:1039A000C8030FF6FC310FF61C1040F2E11201F0D3
:1039B000C1F9BDF81000864273DAA0B200281EBF1C
:1039C00005990889002861D0BDF81010A0B2891BA4
:1039D0008842B1BFADF81840BDF81000801BADF8AB
:1039E000180008999DF80E00DDF81490BDF818A095
:1039F00001EB0608C10715D59DF80E1001910120B5
:103A00000290009503ABBDF81810A2B20420FFF796
:103A1000ABFE0028079070D040685246414601F046
:103A2000FDFE27E0D9F8041000E0014608680028F0
:103A3000FBD1087B012813D14868498901440898C3
:103A400081420DD14EB10FF620030FF674310FF6FF
:103A500074004FF4037201F06DF9CDF82CA00DE065
:103A6000012251460420FDF7FBFE0028079044D0B8
:103A7000C0F804800798FEF735F9C719BDF818009B
:103A8000861942E005F15E01C88800283ED00FF299
:103A9000D8730FF658310FF62C0040F2252201F0B2
:103AA00049F933E00A9848B90FF2BC730FF6BC31FC
:103AB0000FF6100040F2852201F03CF90A98C0F898
:103AC00000901FE04946FEF72FF92046FEF70AF95D
:103AD000C719BFB2112F00F341814FF6FD70874225
:103AE00080F03C81002100910022AB6DF31821464B
:103AF0002846FFF7D5FD0028814665D0BBF1000FB1
:103B0000D0D1CB46CDF828904644B6B2BDF81000CF
:103B1000864280F21381821BBDF8120091B281426D
:103B200034BF1FFA82F8804608989DF80E1000EB0B
:103B3000060AC80725D5BBF1000F0CBF01200020E5
:103B40000290009503AB9DF80E00BDF81220019085
:103B500041460020FFF708FE0446A8B360894045AF
:103B600009DA0FF204730FF6B4210FF2587040F225
:103B7000412201F0DFF860684246514601F04EFEF6
:103B8000A3E7BDF80C0048B10FF2DC630FF6CC21BF
:103B90000FF2307040F24B2201F0CCF80122414686
:103BA0000020FDF75DFE5FEA00090DD0C9F804A012
:103BB000002200210020FDF753FE002804467FF478
:103BC00081AF4846FEF72AF8A87E40F08000A8762C
:103BD000079808B1FEF722F8BBF1000F1CBF58464A
:103BE000FFF733F905F15E01888888B105F16800B7
:103BF0004168002904BF0068002809D10FF26863FA
:103C00000FF6EC210FF2BC6040F2023201F092F8A4
:103C10004FF0FF300DB0BDE8F08F39892144398174
:103C2000386848B978687B8908992246184401F0B9
:103C3000F5FD7889204478813F68002FEDD1059803
:103C400001892144018106F15E07BDF80C000FF2E5
:103C500074690FF21464F8800798B0B1059838B908
:103C6000234640F2BB220FF61821484601F062F8C5
:103C7000059807994068FEF757F80598079A018953
:103C80001089059A4118118125E00B9880B210B374
:103C9000059800281CBF4068002807D1234640F241
:103CA000C1220FF61421484601F044F805980B99FB
:103CB000426803E01389CB1813810246106800287C
:103CC000F8D11089538908181081CB1853810598B1
:103CD000028989180181059800280CBFC6F868B0D0
:103CE000C0F800B0B26D4244B2657988A1EB08001B
:103CF0007880009ABA80B88878B106F16800416887
:103D0000002904BF0068002807D1234640F2ED22B5
:103D10000FF6DC11484601F00DF8002D1CBFE868D5
:103D2000002809D05FEA8A7006D40820FEF718FB45
:103D3000E9688A891043888100206BE780460998EA
:103D400008999DF80EA02E4600284D4600973FF496
:103D50007AAF059847680891099C6EE7204631E7DD
:103D60007463705F77726974653A20617267203D91
:103D70003D204E554C4C202870726F6772616D6DFE
:103D800065722076696F6C617465732041504929B2
:103D9000000000002DE9F84F8946002719F0030FB5
:103DA00005460FF2205A0FF2C04806D1434640F2B2
:103DB0001B320FF65C1100F07AF805F162063088CC
:103DC000112803DA4FF6FD72904202D35FEAC97000
:103DD00020D55FEA897146BF01274FF0040BBB462F
:103DE000002259460020FDF73BFD040012D06089F7
:103DF000584506DA434640F241320FF66C1100F0A6
:103E000056F800974A46AB6D21462846FFF748FC16
:103E1000040006D1A87E40F08000A8764FF0FF3065
:103E200043E0207B10F0030F06D0434640F24932B6
:103E30000FF6701100F03BF8208930B1434640F294
:103E40004A320FF6781100F032F805F16807396848
:103E500011B93C6004E0014608680028FBD10C6001
:103E6000002019F0030F708002D0A86D401CA865D7
:103E70005FEAC97003D5A97E41F02001A976606888
:103E8000FDF730FF31884018308080B260B178682B
:103E9000002804BF3968002906D1434640F26D323C
:103EA0000FF6441100F003F80020BDE8F28F5046F1
:103EB00000F040BFFEB50646F06CFEF757FA034629
:103EC000002200213046FFF789FB040006D1B07EB6
:103ED00040F00300B0766FF00100FEBD301D01F030
:103EE000FFFC10B96FF003070BE00290321D0620B3
:103EF00001902046717A00913146B37A01F0D3FDEA
:103F000007463D462046FDF789FEB07E002D14BFD2
:103F100040F0030000F0FC00B0763846FEBD2DE90D
:103F2000F84F05460FF24038287D012806D1434658
:103F300040F2ED320FF6D80100F0EEF8A049086823
:103F4000A84200F0DB8005F14806B18A3088814242
:103F500034BF00910090A87E346A810709D524B14E
:103F600000F000FA00F0D1F803D22846BDE8F24F85
:103F7000A0E7D6F82490B9F1000F05D000E0814603
:103F8000D9F800000028FAD1281D01F0A9FC5FEA49
:103F9000000A07D0002D1CBF2868002807D11AF19D
:103FA000040002D16FF00300A9E000682860002C33
:103FB00013D000F0D7F900F0A8F80FD273B1B18A8E
:103FC0008B420BD1706A48B905F1940148780028FA
:103FD00003D1002201200A70487087E000F0C2F986
:103FE00000F093F8F9D300F06AFA400706D543468B
:103FF00040F246420FF6400100F08EF8706A98B128
:10400000AA7E12F0440F0FD1316A29B1086858B95D
:104010000889698E884207D2308B28B1708B1128AD
:1040200002DA12F0A00F61D0287D022806D01020FD
:10403000FEF796F9E1688A8910438881524629463D
:10404000204600F06CF8010027D120683062297DFD
:10405000022903D0A87E00F0FC00A87600F082F9C7
:10406000074600F02CFA10F00301208918BF012147
:10407000C719CF197168C91B48BF776000F01FFAD4
:1040800010F00300218918BF0120401827D000221A
:104090002260706A30B974621FE0A97E41F080012D
:1040A000A9762CE000F05EF90746D9F80C0000F084
:1040B0005AF93F1A0FD505F16C07386808B3C06884
:1040C00000F051F9834600F04DF9BBEB000048BF0A
:1040D0003F68F2D415E0C9F80040A14602E020464E
:1040E000FEF7BCFE346A002C7FF478AF306A08B962
:1040F0000021B183A87E00F07F00A8760020BDE8F3
:10410000F28F386820603C60ECE76A6C2189009B84
:10411000801A0818834270476AA000F00BBEFEB5F3
:1041200004460E466068C1890129154601D0002069
:10413000FEBD706AFEF71AF9E1688860708DFEF7BF
:104140000FF9E168C881726A708D8218F26201F11C
:104150001407A07AC10709D5311D4FF40670FFF787
:1041600029F840F00170FEF701F93860B6F9300027
:10417000002844BF00213186706B38B911490868A6
:104180007063E1684868FEF7F1F8B0636068E16861
:1041900042680489438941608A1A92B29B1AA21A22
:1041A0000281438100220A82062102950191314653
:1041B000727A0092321DB37A01F075FCFEBD0000E8
:1041C00048ED0020200000202DE9FF478146884669
:1041D00015469A46002214210120FDF741FB0400F8
:1041E0003AD06089142805D200F038F840F24D52D8
:1041F00000F0A0FD0D9E0C986768FEF7B1F83880BE
:104200003046FEF7ADF878804846FEF7AFF87860A4
:104210004046FEF7ABF8B86045F21400FEF7A0F890
:10422000B881002146F20800F8813982798250462F
:1042300001F056FB50B1029000220620019000923E
:104240002946FF235246204601F02DFC204604B0AB
:10425000BDE8F047FDF7E2BCBDE8FF870FF20803B9
:104260000FF2642117A07047443A5C64656D696180
:104270006E2E7A5C667265655C5557425F52544C8F
:10428000535C7577622D72746C735C616E63686FDA
:10429000725C4D6964646C6577617265735C5468C7
:1042A0006972645F50617274795C4C7749505C73D9
:1042B00072635C636F72655C7463705F6F75742E9C
:1042C00063000000417373657274696F6E2022256C
:1042D0007322206661696C6564206174206C696E6C
:1042E0006520256420696E2025730A0000F13403DF
:1042F0009A6B0AB970470A4611680029FBD1596BBD
:10430000116000219A6B99635A63997BFF291CBF46
:10431000491C99730021196001E6F8B500F13405D4
:10432000AC6BF4B12168A96300F16806306850B144
:10433000C1684868FEF71AF8074600F013F83F1AFC
:1043400048BF3668F2D4316821603460206808B90B
:1043500000212986A87BFF281CBF401CA8730020D1
:104360002860F1BDE0684068FEF700B838B5044643
:1043700004F14805686AF8B1A07E41071CD42046C4
:10438000FFF7CBFFA88A2988814238BF084600EB97
:10439000D0704010618E82B2B2EB410F38BF48003E
:1043A000688001EB41016888091829800020A17EFE
:1043B000208641F00401A17631BD3EB50546E86C8A
:1043C000401EFDF7D3FF0346002200212846FFF7D9
:1043D00005F9040002D14FF0FF303EBD281D01F069
:1043E0007FFA10B96FF0030508E000F062F82A1DAB
:1043F000AB7A2946204601F056FB05462046FDF7DC
:104400000DFC28463EBD2DE9FF410646F46E1CB961
:10441000B46E0CB9002049E000F051F8C00704D593
:1044200021894D1EAD41ED0F00E00025E068436895
:1044300085F0010200213046FFF7D0F85FEA00085E
:1044400008BF4FF0FF3031D0D8F804704DB11120C3
:10445000FDF786FFBA894CF2FF010A401043B8818C
:1044600009E06068218903895B1A9BB2012207F188
:104470001401FDF717FDFFF775FFF16C401C091AD9
:1044800048BFF064301D01F02BFA10B96FF003043F
:1044900008E000F00EF8321DB37A3146404601F0D4
:1044A00002FB04464046FDF7B9FB204604B0BDE8D8
:1044B000F081029000210620019000917047E06891
:1044C0008089FDF74DBF0000636865636B207468E9
:1044D000617420666972737420706275662063610E
:1044E0006E20686F6C6420737472756374207463DB
:1044F000705F6864720000007463705F7772697443
:10450000653A207062756673206F6E2071756575EF
:1045100065203D3E206174206C65617374206F6E70
:1045200065207175657565206E6F6E2D656D707493
:10453000790000007463705F77726974653A206E69
:104540006F207062756673206F6E2071756575657A
:10455000203D3E20626F746820717565756573201B
:10456000656D7074790000006D73735F6C6F6361CB
:104570006C20697320746F6F20736D616C6C000028
:10458000696E636F6E73697374656E74206F7665A0
:104590007273697A652076732E207370616365008B
:1045A000696E636F6E73697374656E74206F766580
:1045B0007273697A652076732E206C656E00000038
:1045C0007463705F77726974653A20524F4D207042
:1045D000627566732063616E6E6F74206265206F12
:1045E00076657273697A656400000000756E7365A4
:1045F0006E745F6F76657273697A65206D69736D2D
:104600006174636820287063622D3E756E73656EF9
:1046100074206973204E554C4C2900007463705F00
:1046200077726974653A20636865636B20746861AA
:104630007420666972737420706275662063616E9F
:1046400020686F6C642074686520636F6D706C65A2
:104650007465207365676C656E0000006F76657227
:1046600073697A65203D3D203000000070726576E8
:104670005F73656720213D204E554C4C00000000C3
:104680007463705F77726974653A2063616E6E6FF0
:104690007420636F6E636174656E61746520776802
:1046A000656E207063622D3E756E73656E74206951
:1046B0007320656D707479007463705F77726974CC
:1046C000653A20657874656E73696F6E206F662039
:1046D0007265666572656E63652072657175697273
:1046E0006573207265666572656E63650000000023
:1046F0007463705F77726974653A2076616C69647F
:10470000207175657565206C656E677468000000C2
:104710007463705F656E71756575655F666C616702
:10472000733A206E6565642065697468657220540B
:1047300043505F53594E206F72205443505F464997
:104740004E20696E20666C616773202870726F67F7
:1047500072616D6D65722076696F6C61746573202E
:1047600041504929000000007463705F656E7175E7
:104770006575655F666C6167733A20636865636B36
:104780002074686174206669727374207062756643
:104790002063616E20686F6C64206F70746C656E4E
:1047A000000000007365672D3E74637068647220BA
:1047B0006E6F7420616C69676E6564007463705F0E
:1047C000656E71756575655F666C6167733A2069C2
:1047D0006E76616C6964207365676D656E74206CBC
:1047E000656E6774680000007463705F656E717554
:1047F0006575655F666C6167733A20696E76616C9A
:104800006964207175657565206C656E67746800F4
:10481000646F6E27742063616C6C207463705F6FCB
:10482000757470757420666F72206C697374656E30
:104830002D70636273000000525354206E6F742019
:104840006578706563746564206865726521000031
:1048500030B5816800220A6000234268D21C9208A9
:10486000920005E00C6814600A605B1C05882A440D
:104870004488A342F6DB30BD38B5002478A5A0B249
:1048800055F82000FFF7E4FF641CA1B20D29F6D310
:1048900031BD000038B5044600F03AFB0546A0687B
:1048A00004689CB12168016014F0030009D000BFC6
:1048B0000FF2F8030FF2D00129A040F2491200F0E4
:1048C00039FA284600F02DFB204632BD284600F07C
:1048D00028FB002032BD000080B50D2808DB00BF9A
:1048E0000FF2C8030FF21C111DA040F2871203E063
:1048F0005BA151F8200003E000F01CFA002002BD8B
:10490000BDE80240C6E7000038B504460D4615F084
:10491000030008D00FF294030FF2081110A040F228
:104920009D1200F007FA00F0F3FAA1680A682A6005
:104930000D60BDE8324000F0F4BA00000D2808DB3D
:104940000FF268030FF2FC0105A040F2DB1200F049
:10495000F1B919B142A252F82000D5E77047000022
:10496000417373657274696F6E202225732220660D
:1049700061696C6564206174206C696E65202564D2
:1049800020696E2025730A006D656D705F6D616C26
:104990006C6F633A206D656D702070726F70657218
:1049A0006C7920616C69676E65640000443A5C64F0
:1049B000656D69616E2E7A5C667265655C555742FD
:1049C0005F52544C535C7577622D72746C735C61EA
:1049D0006E63686F725C4D6964646C657761726563
:1049E000735C54686972645F50617274795C4C776F
:1049F00049505C7372635C636F72655C6D656D706A
:104A00002E6300006D656D705F6D616C6C6F633A55
:104A10002074797065203C204D454D505F4D4158C4
:104A2000000000006D656D705F667265653A206D0F
:104A3000656D2070726F7065726C7920616C69674A
:104A40006E6564006D656D705F667265653A2074B1
:104A5000797065203C204D454D505F4D4158000018
:104A600064090108700901087C0901088809010826
:104A700094090108A0090108AC090108B809010856
:104A8000C4090108D0090108DC090108E809010886
:104A9000F409010880B5FDF794FC6849086800280E
:104AA00002BF67490868002805D0BDE80840002219
:104AB0006449FA2032E06449086001BD624908682F
:104AC00068B95E4A1068002802BF5D4A1068002875
:104AD00005D001220A60FA2000225A491EE07047E0
:104AE00010B5044660688047206858492246BDE8F2
:104AF000104013E038B5554C88A505F1080200F0C8
:104B000009F805F1100200F005F801F0A9FA504982
:104B1000486031BD21464FF47A70FFE7F8B505468D
:104B20000E4617460A20FFF7D7FE04000AD101B04F
:104B3000BDE8F0400FF288130FF2441146A0D422D2
:104B400000F0F8B801F08CFA414B0146186810B932
:104B50002A46596002E05A6849198A1A00212160E0
:104B6000A660E760626028B141688D4204D24D1BA7
:104B7000456020601C60F1BD024661685368CB1A35
:104B80006360116869B14E68B34228BF0A46F4D227
:104B900007E09D4202D240684519656021601460BB
:104BA000F1BD0029F5D04E68F31A4B60F6E72DE908
:104BB000F04781468A46DFF89C80254E336833B93A
:104BC00051464846BDE8F047002200F0F9B801F030
:104BD00047FA7268821A30684068904208D3821A95
:104BE00006D05146484600F0EBF810F1010F22D1F3
:104BF00030680028E4D001F033FA7768C71B3168C9
:104C00000029DBD048688742E1D37268821872605D
:104C10003F1A086830608D68CC680A20FFF78EFE66
:104C20002800ECD0404600F055F92046A847404601
:104C300000F055F9E3E7BDE8F08700002C00002004
:104C400030000020954A000858EE0020E14A000894
:104C50000CEE0020F4ED0020417373657274696FEF
:104C60006E2022257322206661696C656420617460
:104C7000206C696E6520256420696E2025730A000A
:104C80007379735F74696D656F75743A2074696DBB
:104C9000656F757420213D204E554C4C2C20706F53
:104CA0006F6C204D454D505F5359535F54494D45EE
:104CB0004F555420697320656D70747900000000B1
:104CC000443A5C64656D69616E2E7A5C66726565F6
:104CD0005C5557425F52544C535C7577622D727429
:104CE0006C735C616E63686F725C4D6964646C6563
:104CF00077617265735C54686972645F5061727445
:104D0000795C4C7749505C7372635C636F72655C6D
:104D100074696D656F7574732E630000FA0000008E
:104D2000C3230008E803000051730008E8030000F3
:104D30004DB500080EB4C0B5024603A8002101908D
:104D4000009101AB0121044878440C3001F0D0F906
:104D500006BC5DF810FB00BFD1BF0000DCB5044607
:104D600075A0D0E90067CDE9006700916846002191
:104D700002F058FA206010B94FF0FF30D6BD002085
:104D8000D6BD10B50446206802F0C0FA2068BDE820
:104D9000104002F0C3BA38B504460D4620684FF003
:104DA000FF32294602F043FA0028F7D131BD80B521
:104DB0000068002202F03BFA08B14FF0FF3002BD5C
:104DC000FEB505460E46144602F05BF9074654B19F
:104DD00029682246684602F048FA0098102808D050
:104DE0004FF0FF30FEBD29684FF0FF32684602F0F9
:104DF0003CFA0198306002F044F9C01BFEBD1FB5BB
:104E00000C4601680022684602F02FFA009810282C
:104E100003BF0198206000204FF0FF3004B010BDA8
:104E200037E03CE038B5044641A0026800920D46E8
:104E30000121684602F08AF9206010B94FF0FF3076
:104E400032BD15B9002102F097F9002032BD70B5CE
:104E500005460C4602F015F906463CB12868214685
:104E600002F08AF948B14FF0FF3070BD28684FF06A
:104E7000FF3102F081F90028F8D102F002F9801B1D
:104E800070BD006802F09FB9006802F0C1B900006F
:104E900000BF006800B101207047000000BF002182
:104EA0000160704780B500BF25A002F010F91F49CE
:104EB000086001BD1CB500BF1EA10A68009204462F
:104EC000684602F004F9206010B94FF0FF3016BDBB
:104ED000002016BD00684FF0FF3102F0FBB821E062
:104EE0002DE9F84185B006460C460C9F90461D46BC
:104EF0006846142100F0BAFE00960194ADF80870DF
:104F000004954146684602F0C4F806B0BDE8F08159
:104F100080B5064800684FF0FF3102F0DBF8012051
:104F200002BD0248006802F0F6B8000054EE00200E
:104F3000000000000000000000000000040000006D
:104F400000000000F8B5754C216809B16068884719
:104F500004F10C00FFF7BEFF0FF2D0150FF2F416AC
:104F600084A705E03B46692231462846FFF7E2FE6A
:104F700004F10C00FFF7B3FF694604F10800FFF7E6
:104F800016FE04F10C00FFF7A5FF00980028E9D0F9
:104F90000178022904D019D3042912D00AD315E0CC
:104FA000009A81684068D368984700990920FFF704
:104FB000C5FCDDE7009980684A68904700990820A1
:104FC000F5E7009980684A689047D1E73B469B2205
:104FD000CAE72DE9F04100F04FF820B900F056F88B
:104FE000B522FFF7A7FE0920FFF776FC04000ED0DC
:104FF000022020706560A660E760214608F1080085
:10500000FFF7D5FE28B121460920FFF797FC4FF0A6
:10501000FF30BDE8F08191F82B2012F0180F14BF7B
:105020003F4A404AD5E72DE9F04100F025F820B984
:1050300000F02CF8EE22FFF77DFE0820FFF74CFC75
:10504000040002D14FF0FF300BE003202070002F4E
:105050006560A660214608F1080004D0FFF79BFEBA
:105060000020BDE8F081FFF7A2FE0028F8D021461D
:105070000820FFF763FCE5E70546DFF8A0800E4651
:10508000174608F10800FFF7CBBE00000FF2E4035B
:105090000FF2381125A0704770B500F008F82846C7
:1050A000A04706F10C00FFF71AFF002070BD044670
:1050B0001A4E0D4606F10C00FFF70CBF7CB50446F6
:1050C0000D4602F032F9154E06213460756006F186
:1050D0000800FFF743FE00BF0FF2500425A538B1CA
:1050E0004FEA050340F2D5123CA12046FFF722FE0D
:1050F00006F10C00FFF7DEFE30B12B4640F2D9126C
:105100003FA12046FFF716FE032000904FF4806376
:105110000022054943A0FFF7E3FE73BDE8ED002040
:105120001DC0000833590008454F000841737365DE
:105130007274696F6E2022257322206661696C6526
:1051400064206174206C696E6520256420696E207E
:1051500025730A0074637069705F746872656164B6
:105160003A20696E76616C6964206D65737361675E
:1051700065000000443A5C64656D69616E2E7A5C7E
:10518000667265655C5557425F52544C535C757747
:10519000622D72746C735C616E63686F725C4D69D2
:1051A00064646C6577617265735C54686972645F8E
:1051B00050617274795C4C7749505C7372635C61C6
:1051C00070695C74637069702E630000496E76616B
:1051D0006C6964206D626F78000000006661696C24
:1051E000656420746F2063726561746520746370F8
:1051F00069705F746872656164206D626F78000029
:105200006661696C656420746F20637265617465A2
:10521000206C6F636B5F74637069705F636F72653E
:105220000000000074637069705F74687265616487
:1052300000000000F8B5DFF898530FF2A0362B6895
:105240000FF2D83704469C4206D23B4640F25D122C
:105250000FF2B03100F0BEF96868844206D33B46D5
:105260004FF4AF720FF20C4100F0B4F9207930B175
:105270003B4640F25F120FF2184100F0ABF9208874
:1052800040F24161884206D33B464FF4B1720FF2BF
:105290001C4100F09FF9296822888B189C420ED08F
:1052A000187960B96868834209D0AE689E4208BF29
:1052B000AC60188820808E1C1B88601AF0526688AB
:1052C0008B19A3420BD0187948B9A868A04208BF2F
:1052D000AB60208818805A1A2388891CCA52F1BDF5
:1052E000BB4810B500F10F01890800238900016057
:1052F0004B800B714FF4C8620A8001F5C8634360AC
:1053000001241C711A805A80816000F5CC60FFF77F
:10531000D1FD50B1BDE810400FF200330FF2B831AB
:10532000AEA04FF4CC72FFF705BD10BD2DE9F041E2
:10533000040045D014F003000FF2A025B7A607D053
:1053400033464FF4D6720FF2AC312846FFF7F2FC29
:105350009F4F3868844202D379688C4207D3334622
:1053600040F2AF120FF2B0312846FFF7E3FC386885
:10537000844202D379688C4205D3FFF7C9FDBDE8AA
:10538000F041FFF7CEBD00F097F814F8040C38B9DF
:1053900033464FF4E0720FF298312846FFF7CAFC0B
:1053A000002004F8040CA4F10800B968884238BF52
:1053B000B860FFF73FFF4046BDE8F041FFF78FBD03
:1053C000BDE8F0812DE9F047C91C4FF6FC72114091
:1053D0000D460C2932BF0C2540F24162914233D276
:1053E0007B4F0FF2F8180FF2342A81463868814556
:1053F00002D37B68994507D353464FF4FA720FF2F4
:1054000044314046FFF796FC3E68B14502D37868C8
:10541000814504D3FFF77CFDFFF783FD49E0A9F147
:10542000080039F8081C861B891BA1F10804A4B2E6
:10543000AC4207DA4FEA0A0340F20622C7A140460F
:10544000FFF778FCAC4201DA002033E0A54230D00F
:1054500000F032F8396839F8080CBA680B18187976
:1054600058B9AD190835ADB21C8848199A4208BF21
:10547000B8600022027104800FE005F1140084423C
:1054800014D3AD190835ABB2C818904238BFB86014
:105490000022027139F8083C0380468029F8085C34
:1054A0000088B0F5C86F1CBF891C0D524046FFF73D
:1054B00016FD4846BDE8F08707F5CC684046FFF783
:1054C00009BD00002DE9F84390B1C61C4FF6FC70F1
:1054D00006400C2E09D20C263D4FFFF7EDFFB968B0
:1054E0003A688B1A9BB2354607E0B6F5C86FF3D918
:1054F0000020BDE8F283BCF80030C5F5C864A342C3
:1055000035D202EB030C644620790028F3D12088C1
:10551000C01A0838A842EED305F1140C604516D322
:10552000F6180836B0B210444FF0000E80F804E0D0
:10553000B4F800C0A0F800C0438026800123237186
:105540000088B0F5C86F04D01044468001E0012007
:1055500020718C4221A60FF2C40918D17B6808790A
:1055600048B199421CBF08881118F8D103E04046A1
:10557000FFF7B5FCBCE7994218BF0028B96006D018
:105580004FEA090340F2CF227CA100F023F8404605
:10559000FFF7A5FC78682D190835A84205D24B46BF
:1055A0004FF435727CA100F015F814F003000CD014
:1055B0004FEA090340F2D62283A100F00BF84B46D4
:1055C0004FF436728CA100F005F804F1080090E762
:1055D000CCD000203046FFF7ADBB000041737365AF
:1055E0007274696F6E2022257322206661696C6572
:1055F00064206174206C696E6520256420696E20CA
:1056000025730A00706C75675F686F6C65733A206C
:105610006D656D203E3D2072616D0000443A5C6412
:10562000656D69616E2E7A5C667265655C55574280
:105630005F52544C535C7577622D72746C735C616D
:105640006E63686F725C4D6964646C6577617265E6
:10565000735C54686972645F50617274795C4C77F2
:1056600049505C7372635C636F72655C6D656D2E2F
:1056700063000000706C75675F686F6C65733A203B
:105680006D656D203C2072616D5F656E6400000089
:10569000706C75675F686F6C65733A206D656D2D12
:1056A0003E75736564203D3D20300000706C756769
:1056B0005F686F6C65733A206D656D2D3E6E657821
:1056C00074203C3D204D454D5F53495A455F414C48
:1056D00049474E45440000006661696C656420746A
:1056E0006F20637265617465206D656D5F6D7574A3
:1056F000657800006D656D5F667265653A2073615F
:105700006E69747920636865636B20616C69676E8C
:105710006D656E74000000006D656D5F6672656595
:105720003A206C6567616C206D656D6F7279000061
:105730006D656D5F667265653A206D656D2D3E75B0
:10574000736564006D656D5F7472696D3A206C6598
:1057500067616C206D656D6F727900006D656D5FBE
:105760007472696D2063616E206F6E6C792073684E
:1057700072696E6B206D656D6F7279006D656D5F1E
:105780006D616C6C6F633A20216C667265652D3EAD
:1057900075736564000000006D656D5F6D616C6C14
:1057A0006F633A20616C6C6F6361746564206D6532
:1057B0006D6F7279206E6F742061626F76652072F2
:1057C000616D5F656E642E006D656D5F6D616C6C03
:1057D0006F633A20616C6C6F6361746564206D6502
:1057E0006D6F72792070726F7065726C7920616C68
:1057F00069676E65642E00006D656D5F6D616C6C30
:105800006F633A2073616E69747920636865636BB6
:1058100020616C69676E6D656E74000062B38B0702
:1058200008D0521E11F8013B00F8013B00F0248023
:105830008B07F6D1830740F0208000BF103A07D3D2
:1058400030B4B1E83810103AA0E83810F9D230BCC2
:10585000530724BFB1E80810A0E8081044BF51F86E
:10586000043B40F8043BD20724BF31F8022B20F858
:10587000022B44BF0B7803707047121F17D35B00D5
:1058800009D151F8043B20F8023B1B0C121F20F8F1
:10589000023BF6D20BE051F8043B00F8013B1B0A37
:1058A00020F8023B1B0C121F00F8013BF3D238BF5B
:1058B000121D521E24BF11F8013B00F8013BF8D81D
:1058C0007047B1F5807F02D34FF0FF307047017011
:1058D000012070470078401E8041C043C00F7047D0
:1058E00070B50246AC4814680068A0B190F82B303F
:1058F00003F005010529F7D141680029F4D0856836
:1059000005EA040629408E4204D09907ECD4C36806
:105910009C42E9D170BDA148006840B190F82B10BD
:1059200001F00501052902D141680029F2D10020CA
:1059300070BD2DE9F84F06468B467768397808091F
:10594000042833D1880000F03C087888FCF708FD73
:1059500031898842044603D221463046FCF7A2F83A
:105960007089404522DB3189A1421FD3B8F1140F61
:105970001CDB38698A4D686100F0F000F968296124
:10598000E02817D19BF82B00C10737D5DBF80400BE
:10599000A0B35C4628695946FBF7D8FE30B9287C8D
:1059A00000F0F000E02818BF002C2BD13046FCF7A7
:1059B00035F931E04FF001095C46DFF8DCA194F8DD
:1059C0002B00C1070AD5606840B16A698242E1D004
:1059D00021461046FBF7BAFE0028DBD1B9F1000FD3
:1059E0000ED0287D7F2809D0DAF800404FF000095A
:1059F0005C4508BF2468002CE1D1CBE70024C9E74F
:105A00002468F5E7F8884FF63F71084207D0304622
:105A100001F041FE060001D1002042E077682C60D1
:105A2000C5F804B0AF60C8F100013878800000F01C
:105A30003C00A88109B23046FCF7ECF8787A0128DE
:105A40000DD0062806D011280ED15946304602F056
:105A5000E4F81FE059463046FAF794FB1AE059463D
:105A6000304602F011FB15E068692146FBF76EFE37
:105A700068B9287D00F0F000E02808D041463046A3
:105A8000FCF7CAF877600221304602F08DFB304601
:105A9000FCF7C4F8002028606860A860A88128612D
:105AA0006861BDE8F28F7FB50A9E0C4622B10029DD
:105AB0001ABF09680029341D0999089D01910296B1
:105AC0000095214600F002F804B070BD2DE9FC47B6
:105AD00006468846F0890FF2D4090FF2041A01280D
