:020000040800F2
:10000000283E0020D9660008954C0008974C00084F
:1000100000000000000000000000000000000000E0
:100020000000000000000000000000005D6100080A
:1000300000000000000000001F610008FB560008DF
:10004000F71D0008EF2000082F2A0008EB2A0008FF
:10005000FB420008EF4B00089B4C0008A54C000831
:10006000F34B0008934C0008EB500008575600086B
:10007000176100080F6600081B6600084F6600083D
:10008000B94C0008C34C0008956700080000000048
:1000900097670008996700089B6700089D6700083C
:1000A0009F670008A1670008A3670008CD4C0008FF
:1000B000A5670008A767000800000000D74C0008EB
:1000C00007494022825A1143402281520020704742
:1000D00003494022825A8A434021425200207047FD
:1000E00080BF00000EB400B50121402281520021E2
:1000F000402281524422815250228152FFF7E0FF78
:100100000020009904B00847F0B500220B780424C1
:100110006343C45AD14B2340CC78002C05D0022C29
:1001200008D00DD3032C06D00FE01C0080239B00C9
:1001300023430BE00AE01C00C023DB00234305E05F
:100140001C008023DB00234300E00122C44C234336
:100150000D78042675434353C24B0D78042675432E
:10016000455B1D400E78354325430E7804277E43BA
:1001700085530D7B002D00D09EE04D78002D3ED0A4
:1001800005005026865BAD190E7808277E43AD1911
:100190008026F600AD19CE88B6B2760876002E809D
:1001A0000D7804267543455BADB26D060AD50D7812
:1001B00004267543455B2B40AB4D1D430B7804264D
:1001C0007343C552CB78012B0DD00B7804256B43BC
:1001D000C55AA64B2B4020255D402C4309780423AB
:1001E0005943445237E10B7804256B43C55A9F4B62
:1001F0002B401C4309780423594344522BE105004A
:100200005026865BAD190E7808277E43AD19984EAF
:10021000AD19CE88B6B2760876002E80050050263D
:10022000865BAD190E7808277E43AD19914EAD1946
:100230000E69002E09D12E888F4F37402F802E88CF
:1002400080273F0237432F8012E00E693E2E08D2EE
:100250000E6976080F7CFF0700D5761CB6022E804B
:1002600006E00E697609B60280273F0237432F80E9
:100270000D7804267543455BADB26D040AD50D7843
:1002800004267543455B2B407C4D1D430B780426AB
:100290007343C5520B7804256B43C55A784B2B40EA
:1002A00080256D015D4080239B016B401C430978D4
:1002B000042359434452CEE00D7804267543465B2F
:1002C0001E40704D35430F7804267743C553050013
:1002D0005026865BAD190E7808277E43AD1980261F
:1002E000F600AD190E89B6B2760876002E800500AC
:1002F0005026865BAD190E7808277E43AD195C4EFB
:10030000AD194E89B6B2760876002E804D78002D54
:100310004BD10D7804267543455BADB26D040AD50B
:100320000D7804267543465B1E40544D35430F78C7
:1003300004267743C5530D7804267543455BADB25B
:100340006D060AD50D7804267543465B1E40464D62
:1003500035430F7804267743C5530D78042675433B
:10036000455B2B40404D1D430B7804267343C5521B
:100370000B7804256B43C55A414B2B4080256D01FA
:100380005D4080239B016B4023430D780426754319
:1003900043530B7804256B43C55A344B2B401C4305
:1003A000097804235943445255E00D7804267543D7
:1003B000455BADB26D040AD50D7804267543465BE6
:1003C0001E402E4D35430F7804267743C5530D78D4
:1003D00004267543455BADB26D060AD50D7804263B
:1003E0007543465B1E40204D35430F780426774306
:1003F000C5530D7804267543455B2B401F4D1D43A7
:100400000B7804267343C552CB78012B0DD00B78A3
:1004100004256B43C55A154B2B4020255D402543D1
:100420000B7804267343C5520AE00B7804256B430E
:10043000C55A0E4B2B4023430D7804267543435376
:100440000B7804256B43C55A0D4B2B401C43097890
:100450000423594344521000C0B2F0BD8F890000FC
:10046000808000008F8F0000C0800000BF8F0000E0
:100470000404000006040000FF83000080C00000A8
:100480008FBF00008081000030B50A7B002A42D176
:100490004A78002A1FD00A7804235A43825A92B21B
:1004A00052060BD50A7804235A43835A664A1A40E7
:1004B000664B13430A780424624383520A78042368
:1004C0005A43835A624A1A40624B13430978042202
:1004D00051434352B5E00A7804235A43825A92B2F8
:1004E00052040BD50A7804235A43835A564A1A40B9
:1004F000594B13430A780424624383520A78042335
:100500005A43835A554A1A40524B134309780422DE
:100510005143435295E04A78002A49D10A7804238E
:100520005A43825A92B252040BD50A7804235A4392
:10053000835A454A1A40484B13430A7804246243BD
:1005400083520A7804235A43825A92B252060BD538
:100550000A7804235A43835A3B4A1A403B4B1343BD
:100560000A780424624383520A7804235A43835A44
:10057000354A1A40354B13430A78042462438352A8
:100580000A7804235A43825A344B1340314A1343A6
:100590000C7804256C4303530B7804246343C45A3A
:1005A0002B4B23401A43097804235943425248E015
:1005B0000A7804235A43825A92B252040BD50A781D
:1005C00004235A43835A204A1A40234B13430A7880
:1005D0000424624383520A7804235A43825A92B213
:1005E00052060BD50A7804235A43835A164A1A40F6
:1005F000164B13430A780424624383520A78042377
:100600005A43835A104A1A40134B13430A7804245E
:10061000624383520A7804235A43825A0C4B134094
:100620000C4A13430C7804256C4303530B780424C1
:100630006343C45A094B23401A430978042359439E
:100640004252002030BD00008F8F0000C0800000AB
:10065000BF8F00008080000080C000008FBF0000BE
:1006600070B505000C006078012800D0D1E0206949
:10067000A169884204D22669A069801BA06102E0BA
:10068000A6690020A061207B002812D133009BB214
:10069000E2886169280000F013FA28005021695AA5
:1006A00040182178082251434018B6494018068066
:1006B0009EE0207804214843285A400639D5280076
:1006C0006178002925D128005021695A40182178E5
:1006D000082251434018AC494018002E09D1018826
:1006E000BC4A0A4002800188802212020A4302802A
:1006F0000EE03E2E06D27108F20700D5491C890291
:10070000018005E071098902802212020A430280F9
:100710000DE0617801290AD15021695A40182178E9
:1007200008225143401898494018310001806289DD
:1007300038E06078002825D128005021695A4018F7
:1007400021780822514340188E494018002E09D1C3
:100750000188A04A0A4002800188802212020A43CE
:1007600002800EE03E2E06D27108F20700D5491C29
:100770008902018005E071098902802212020A4380
:1007800002800EE0607801280BD128005021695AC0
:10079000401821780822514340187A494018310006
:1007A0000180228933009BB292B26169280000F077
:1007B00087F9607800280CD1207804214843295A11
:1007C000AD480840AD4901432078042250432952E6
:1007D0000EE0607801280BD1207804214843295A83
:1007E000A5480840A64901432078042250432952D5
:1007F000207804214843295AA2480840102141404A
:1008000020204840AC49014320780422504329521B
:10081000B5E02069A169884204D22069A169091A5A
:10082000A16102E0A0690021A161217B002925D1FD
:1008300029005022AA5A8918227808235A43891875
:10084000514A8918002809D10888624A02400A8062
:1008500008888022120202430A800EE03E2806D257
:100860004208C00700D5521C9002088005E04009EC
:1008700080028022120202430A806EE06178002921
:1008800025D129005022AA5A8918227808235A43D0
:1008900089183C4A8918002809D10A884D4B134011
:1008A0000B800A8880231B0213430B800EE03E2836
:1008B00006D24208C30700D5521C92020A8005E006
:1008C0004209920280231B0213430B800EE06178E1
:1008D00001290BD129005022AA5A8918227808230D
:1008E0005A438918274A891802000A802900627829
:1008F000002A25D129005022AA5A891822780823D3
:100900005A438918204A8918002809D10888314A91
:1009100002400A8008888022120202430A800EE008
:100920003E2806D24208C00700D5521C900208801B
:1009300005E0400980028022120202430A800CE096
:100940006278012A09D15022AA5A891822780823EC
:100950005A4389180C4A8918088020780421484392
:10096000295A564808408021490141408020800191
:100970004840514901432078042250432952002025
:1009800070BD0000020400000604000000B54A78B3
:10099000002A0ED00A7804235A43835A394A1A404F
:1009A00010235340444A1A430978042359434252BE
:1009B0000EE00A7804235A43835A404A1A4080239F
:1009C0005B0153403C4A1A4309780423594342527D
:1009D000002000BDFF83000010B54A78002A23D014
:1009E0000A7804235A43825A92B252060BD50A78E7
:1009F00004235A43835A204A1A40204B13430A784F
:100A00000424624383520A7804235A43835A1D4ABA
:100A10001A401023534020225A40274B1343097891
:100A200004225143435224E00A7804235A43825A51
:100A300092B252040BD50A7804235A43835A0E4AC1
:100A40001A400F4B13430A780424624383520A78F6
:100A500004235A43835A194A1A4080235B015340A6
:100A6000802292015A40144B1343097804225143C7
:100A70004352002010BD00008F8F0000C080000096
:100A800080C00000BF8F000000B5C9B2002902D1AC
:100A900080214C228152002000BD5821415A8022E1
:100AA00012020A4358214252002070474421405A02
:100AB0007047002070470000808000008FBF00005A
:100AC00010B59BB25B1C5B0892B280188022D200EA
:100AD000821809E00878491C0C782402A4B220434B
:100AE0001080921C491C5B1E002BF3D110BD30B549
:100AF0001C00A4B2640892B280188022D200801830
:100B000008E00288801C15000D70491C120A0A704A
:100B1000491C641E002CF4D1DA0701D50088087046
:100B200030BDF1B4016842184168480813180098B4
:100B30008068C9071ED5494640181BE01778521C2B
:100B40000770401C761EF9D1002C13D01678521C69
:100B500089080D40032D01D11578521C2902711806
:100B60004D424119A41C05D00D78491C0570401C4C
:100B7000641EF9D19A420FD01178521C0325032626
:100B80000E4002D11678F61C521C0C090F2CD9D13C
:100B900014780F34521CD5E700980C30F2BC704723
:100BA00030B585B00400002C01D10120A7E05548E4
:100BB000205C002806D100208A2189006054200092
:100BC00000F0EEFC03204F4960542068FFF780FAE4
:100BD0000025280031E001210200D2B220235A432F
:100BE000A2182923D1540100C9B22022514361180F
:100BF000282288540100C9B20200D2B220235A43ED
:100C0000A218D18629000200D2B220235A43A2188A
:100C10002B23D1540100C9B22022514361188D63A6
:100C20000100C9B2202251436118CD630100C9B24D
:100C30002022514361180D64401C0100C9B2626852
:100C40009142C8D3280032E029000200D2B220230A
:100C50005A43A218FF232A33D1540100C9B22022DB
:100C60005143611894225200885429000200D2B2E4
:100C700020235A43A218FF232C33D1540100C9B2B8
:100C80002022514361189C2252008D500100C9B2AC
:100C90002022514361189E2252008D500100C9B29A
:100CA000202251436118A02252008D50401C0100A7
:100CB000C9B262689142C7D3211D83B06846202221
:100CC00000F004FE0EBC2068FFF70CFA002804D0E8
:100CD00002200C496054012011E0242025540120F9
:100CE00008496054E069012802D1200000F03EFE6E
:100CF000206A012802D1200000F026FE002005B065
:100D000030BD00002902000010B504008A208000D8
:100D1000205C012801D102200EE001208A218900F7
:100D200060542068FFF7B9FE2068FFF7C9F900207A
:100D30008A2189006054002010BD38B50400206865
:100D4000FFF7B4FE000402D5200000F053FA20683B
:100D5000FFF7ACFE40050ED520684421405A694992
:100D60000140206844228152200000F05CFC0021F8
:100D7000200000F0DBF82068FFF798FE400407D55C
:100D800020684421405A6049014020684422815231
:100D90002068FFF78BFE800407D520684421405A65
:100DA0005A49014020684422815280256D01206803
:100DB000FFF77CFE2840002827D020684021405AB9
:100DC0005349014020684022815220684021405A06
:100DD0005049014020684022815298208000205CC8
:100DE000012807D1002098218900605400212000AB
:100DF00000F0D4FD200000F03BFC20684421405A64
:100E0000454901402068442281522068FFF74EFE88
:100E1000000520D520684021405A08210143206860
:100E20004022815220684421405A3C4901402068B8
:100E30004422815220684021405A04210143206805
:100E4000402281522068FFF731FE0540002D02D17B
:100E5000200000F0FDFB2068FFF728FE000631D5DA
:100E600020684421405A2E49014020684422815282
:100E700098208000205C002821D120684021405A21
:100E80000421014320684022815220684021405AB9
:100E900008210143206840228152012098218900C5
:100EA000605420685421405A80083C210140992018
:100EB000800021500121200000F070FD02E02000A0
:100EC00000F0C6FB2068FFF7F1FD80050AD5206819
:100ED0004421405A13490140206844228152200095
:100EE00000F09AFB2068FFF7E1FDC00507D52068F8
:100EF0004421405A0C49014020684422815231BDAE
:100F000000000000FFFB0000FFBF0000FFDF00004B
:100F1000FBFF0000F7FF0000FFEF0000FFF70000FD
:100F20007FFF0000FFFD0000FFFE000010B5040081
:100F30008A208000205C012801D102200EE00120DF
:100F40008A229200A05424202154C9B22068FFF7BD
:100F50009BFD00208A2189006054002010BDF8B557
:100F6000040000252E000800C0B200060AD50800C3
:100F7000C0B24007400F20277843201828300127AF
:100F800047700BE00800C0B24007400F20277843AD
:100F9000201894277F00C0192F0047704907490F78
:100FA000017092B20261C3704178002901D00178CA
:100FB000C181DBB2022B01D1290001718A21890094
:100FC000615C012901D102200CE001218A229200FA
:100FD000A15401002068FFF797F88A20800025546B
:100FE0003000C0B2F2BD10B504000800C0B2000667
:100FF0000AD50800C0B24007400F202250432018F5
:101000002830012242700BE00800C0B24007400FB8
:10101000202250432018942252008018002242704F
:101020004907490F01708A218900615C012901D1BA
:1010300002200CE001218A229200A15401002068C4
:10104000FFF722FA00208A2189006054002010BD99
:1010500070B5140007250A00D2B22A402026724338
:101060008218942676009219546193610023D3610B
:1010700053702B000B401370294204D111000068FB
:10108000FFF7EEFA03E011000068FFF7E9FA00202D
:1010900070BDC9B24907490F202251434018A2210F
:1010A00049004058704770B5140007250A00D2B2B5
:1010B0002A4020267243821828325461936100230B
:1010C000D361012353702B000B401370294204D1CC
:1010D00011000068FFF7C4FA03E011000068FFF791
:1010E000BFFA002070BD70B504000D0007266068CF
:1010F0002900C9B23140884201D2012038E02800DD
:10110000C0B200060AD52800C0B2304020214843B2
:101110002018010028310120487009E02800C0B2E1
:10112000202148432018942149004118002048708C
:10113000012002008A7032002A400A708A2292003E
:10114000A25C012A01D1022012E08A229200A0545E
:101150002068FFF71BFC354205D18C208000211848
:101160002068FFF7A6FC00208A2189006054002037
:1011700070BD38B5040060680A00D2B21207120FC1
:10118000904201D2012033E00800C0B200060AD527
:101190000800C0B24007400F2022504320182830DA
:1011A000012242700BE00800C0B24007400F20222D
:1011B00050432018942252008018002242700025CB
:1011C0002A0082704907490F01708A218900615CF9
:1011D000012901D102200BE001218A229200A154B1
:1011E00001002068FFF7F8FB8A20800025540020CA
:1011F00032BD0000F8B5040031E020680188C8481D
:1012000008400643206806802500283520685021C4
:10121000405A297808225143401821684018D8497B
:101220004018008880B28005800DE8616869E9692E
:10123000401868610021200000F0E0F92420205CC3
:1012400000280CD0A869002809D12420205C802126
:10125000014320684C2281520020242160548026C2
:10126000360220684421405A3040002800D184E1F1
:1012700020684421405A01000907090F6A4611708D
:1012800069460978002900D08FE080B2C006B4D545
:1012900094204000251820680088010089B20905C3
:1012A00024D520685021405A2978082251434018FB
:1012B00021684018B3494018008880B28005800D2D
:1012C000E861EB699BB2EA888C20800021182068D5
:1012D000FFF70DFC20680188AB48084080210143DE
:1012E00020680180200000F06FF9B8E780B230403C
:1012F0000028B4D020680188A34808408021014319
:10130000206801809F4F20685021405A2978082288
:101310005143401821684018C019008880B28005E8
:10132000800DE861E86900280AD0EB699BB2EA8881
:1013300069692068FFF7DBFB6869E9694018686143
:101340000021200000F04AF9206821685022895AC3
:101350004018C0192969002907D101888B4A0A4021
:10136000028001880E43068010E029693E2908D2D8
:10137000296949082A7CD20700D5491C89020180C5
:1013800004E02969490989020E4306802068018822
:101390007F48084080214901414080208001484029
:1013A0007C4901432068018059E720686946097833
:1013B00004225143405A694648806846408830407C
:1013C000002800D198E0206869460978042251433A
:1013D000415A6D4808408021014320686A461278CE
:1013E00004235A438152684600782021484320183C
:1013F000942149004718387B002819D120685021D2
:10140000405A3978082251434018216840185D49F4
:10141000401800888505AD0D280080B200284FD007
:101420002B009BB2FA8879692068FFF760FB47E0E0
:101430002068397804225143405A400419D5206865
:101440005021405A397808225143401821684018E9
:101450004B49401800888505AD0D280080B2002852
:1014600020D02B009BB23A8979692068FFF73FFBB7
:1014700018E020685021405A39780822514340181A
:10148000216840183F49401800888505AD0D2800A7
:1014900080B2002806D02B009BB27A897969206837
:1014A000FFF725FB2068397804225143405A3A4916
:1014B00001403A48084321683B7804225343C8520C
:1014C000F869290089B24018F8617869290089B261
:1014D00040187861B869002803D0ADB238698542F8
:1014E00004D23978200000F079F805E0BB697A6908
:1014F00039782000FFF7ACFD68464088000600D42C
:10150000ADE668460078202148432018283021683D
:101510006A46127804235A438A5A014902E000BFFE
:101520000F8F000011400E4321686A461278042391
:101530005A438E5221685022895A027808235A430E
:101540008918226889180E4A8918098889B289057C
:10155000890DC1614169C2698918416181690029A8
:1015600004D10178200000F049F878E683694269E7
:1015700001782000FFF797FD71E60020F2BD00BF63
:1015800002040000060400008F0F0000FF8300002B
:101590008FBF0000808000008F8F0000C08000009F
:1015A00080B500685E4988420DD1AC480168802250
:1015B00012040A430260002203211F2000F03CFABB
:1015C0001F2000F03EFA01BD80B58C218900411832
:1015D0009C229200805800F08BFA01BD80B50A0071
:1015E000D2B220235A4382189E235B00D258C9B23C
:1015F0009C239B00C05800F0B5FA01BD80B50A00DD
:10160000D2B220235A438218D26BC9B29C239B00CA
:10161000C05800F004FB01BD80B59C2189004058F2
:1016200000F0D6FB01BD38B505000124A8680228EA
:1016300001D000F05BFD2100C9B29C208000285839
:1016400000F0ACFB9C208000285800F075FB31BDF9
:1016500010B504009C208000205800F0A2FBA06977
:10166000002804D07E48016806220A43026010BDAB
:1016700010B50400A069002806D079480168062248
:101680009143016000F0F3F89C208000205800F0A6
:1016900093FB10BD10B5040072489C218900445092
:1016A000A621890060501E49016008214160022185
:1016B0008160016100218161C1610162FFF770FAFF
:1016C000002801D000F012FD182300220021A620DE
:1016D0008000205800F014F9582300228021A62011
:1016E0008000205800F00CF9C02300228121A620A0
:1016F0008000205800F004F988235B0000220121BB
:10170000A6208000205800F0FBF880235B00002218
:101710008221A6208000205800F0F2F8002010BDA1
:10172000005C004080B500221100A62189004058CD
:10173000FFF7EAFAC0B200F09EF8C0B202BD38B5B9
:1017400014001A0000252B002300DBB292B2C9B2AC
:10175000A624A4000059FFF702FCC0B200F08BF8E9
:10176000C0B232BD80B500231A00C9B2A6229200D1
:101770008058FFF738FCC0B200F07DF8C0B202BD5F
:1017800080B500231A00C9B2A62292008058FFF744
:10179000AAFCC0B200F06FF8C0B202BD80B5002351
:1017A0001A00C9B2A62292008058FFF7E2FCC0B22C
:1017B00000F061F8C0B202BD00B5A62292008058C8
:1017C0000A00D2B2120608D5C9B24906490E202233
:1017D000514340182A21405C08E0C9B24906490E2D
:1017E00020225143401895214900405C00BD80B53E
:1017F00000231A00C9B2A62292008058FFF796FB78
:10180000C0B200F038F8C0B202BD38B500252C00D7
:101810009BB2C9B2A624A4000059FFF744FCC0B291
:1018200000F029F8C0B232BD38B500252C009BB2BB
:10183000C9B2A624A4000059FFF70AFCC0B200F008
:101840001AF8C0B232BD80B5C9B2A6229200805843
:10185000FFF71FFC02BD044870470000381002402B
:1018600010ED00E034300020A8320020704780B531
:1018700000F0E1FA01BD00B5010000200200C9B28C
:10188000002905D0022906D003D3032905D006E09C
:1018900006E0022004E0012002E0022000E0022035
:1018A000C0B200BD124207D08B0706D00B78491C8E
:1018B0000370401C521EF7D87047830706D00B7880
:1018C000491C0370401C521EF9D1704770B4103A85
:1018D00003D378C9103A78C0FBD2530701D318C993
:1018E00018C001D508C908C0D20704D30B880380EB
:1018F000891C801C002A01D50B78037070BC7047CE
:1019000010B50C00A4B2240607D589B24907490FC7
:10191000202461434018283006E089B220244C433B
:10192000001994214900401892B2002A03D10021E5
:101930000173C38006E001210173190001811900C0
:10194000090C4181002010BD016801229B239B00EE
:10195000C2505820085A024358200A525820085AA8
:101960000222024358200A520020704710B4016836
:1019700001229A239B00C25000239824A4000355FF
:101980005420085A024354200A525420085A022272
:10199000024354200A52002010BC70477047D8BC44
:1019A0000121C006C00E8140284801607047F0B593
:1019B000020052B2002A23D503220F24244B050033
:1019C0006DB22540083DAD0804267543060076B289
:1019D0003440083CA408042674431E59FF27BC4623
:1019E0001400044008277C436746A740BE43890192
:1019F000C9B20240082042439140314359511AE094
:101A0000144A0323040064B2A40804256C43145947
:101A1000FF251E00064008277E43B540AC438901E0
:101A2000C9B2034008256B439940214340B2800866
:101A3000042358431150F0BD80B540B2FFF7B7FF03
:101A400001BD80B540B2FFF7ABFF01BD00E100E092
:101A50001CED00E000E400E010B5002801D10220F8
:101A600015E0A3239B00C358002B03D00023A3241D
:101A7000A4000351002902D0A2239B00C1500121E0
:101A80009D239B00C1540270FFF704FE002010BD8F
:101A900000B5020000200300002903D0A3239B000F
:101AA000D15000E00220C0B200BD80B5FFF73AFE81
:101AB000002002BD0020704710B50224A32292002E
:101AC0008258002A08D0C9B2A32292008258126814
:101AD0009047002800D100242000C0B210BD80B57E
:101AE000C9B2A3229200825852689047002002BDDA
:101AF00010B50400A0208000201800F04FFE012047
:101B00009B2189006050B048205A9C218900605078
:101B1000A0208000205CC006C00E002803D0022850
:101B20000FD007D314E0A02080002118200000F07F
:101B3000DFFA15E0A02080002118200000F016FB3D
:101B40000EE0A02080002118200000F047FB07E0F5
:101B5000A0208000215C802001402000FFF710FEC3
:101B6000002010BD10B5040010000A00D2B2002AF7
:101B700040D1A021490061189B229200A258032A5B
:101B80002AD10A69CB689A4211D2CA680B69D21A63
:101B9000CA60CA680B699A4201D2CA6800E00A6941
:101BA00092B20100200000F081FE002010BDA320B1
:101BB00080002058006900280AD09D208000205C09
:101BC000032805D12000A3218900615809698847AD
:101BD000200000F074FEE8E79B20800020580528D4
:101BE000E3D100209B218900605000212000FFF7F5
:101BF000C7FDDAE7A32080002058806900280CD0B8
:101C00009D208000205C032807D1C9B22000A322B8
:101C10009200A25892699047C7E70220C6E738B5FC
:101C2000040010000A00D2B2002A70D12500143539
:101C30009B218900615802294DD12969EA689142A6
:101C400010D2E9682A69891AE960EA6892B201004B
:101C5000200000F00BFE0023002200212000FFF7EF
:101C6000E3FD46E0A868296900F041FE002919D18A
:101C7000A8682969884215D3A8689C218900615801
:101C800088420FD200220021200000F0EFFD00204A
:101C90009C21890060500023002200212000FFF7D2
:101CA000C3FD26E0A32080002058C06800280AD089
:101CB0009D208000205C032805D12000A3218900FD
:101CC0006158C968884780212000FFF759FD20002E
:101CD00000F001FE0DE09B2080002058042804D075
:101CE0009B2080002058002803D180212000FFF78E
:101CF00047FD9E208000205C012806D12000FFF7D0
:101D0000D9FE00209E2189006054002032BDA3200E
:101D100080002058406900280CD09D208000205C65
:101D2000032807D1C9B22000A3229200A258526909
:101D30009047EAE70220E9E770B50400402300225B
:101D400000212000FFF7FBFC0125A22040002550C8
:101D50004026A82040002650402300228021200059
:101D6000FFF7EDFCA56166629D20800025540020F0
:101D70009B218900605060609F2189006050A420F1
:101D800080002058002807D06168C9B22000A32233
:101D90009200A25852689047002070BD0174002044
:101DA00070479D218900415C084A815404219D228D
:101DB00092008154002070470449415C9D229200AA
:101DC0008154002070470000860200007502000068
:101DD00080B59D218900415C03290AD1A321890096
:101DE0004158C969002904D0A32189004158C96913
:101DF0008847002002BDFEE700B585B000F0CEFDAB
:101E000000F019F800F0B1F800F05DF800F078F893
:101E100000F093F86846A4491422FFF757FD00210B
:101E2000684600F0E1FDA1490860A14800F00CFE01
:101E300000F0D5FDFEE710B59CB00EA8382100F0EB
:101E40003BFE6846142100F037FE05A8242100F06F
:101E500033FE98480168984A0A40802109011143DD
:101E6000016001200E90802040020F900221189105
:101E70001990802040031A90C02000041B900EA8E7
:101E800000F034FE002801D000F030F90F2000905F
:101E900003200190002402940394049401216846D5
:101EA00001F0EAF8002801D000F020F94120059067
:101EB00007940D9405A801F055FA002801D000F010
:101EC00015F91CB010BD80B57C487D4901608221A8
:101ED0004900416000218160C1600161416180224F
:101EE000920082610822C26101624162816207211F
:101EF000C16201F025FB002801D000F0F7F801BD18
:101F000080B570487049016082214900416000211C
:101F10008160C16001614161802292008261102272
:101F2000C2610162416281620721C16201F008FB66
:101F3000002801D000F0DAF801BD80B5634864499B
:101F40000160E1214902416000218160C1600161BD
:101F50000C2242618161C1610162416201F090FC29
:101F6000002801D000F0C2F801BDF8B586B068467F
:101F7000142100F0A1FD8021564802680A43026046
:101F800002681140059105990126016831430160FD
:101F90000168314005910599022102680A430260F7
:101FA000006801400591059800220221A020C0058B
:101FB00002F043F901220421A020C00502F03DF9FE
:101FC00080246401444F01222100380002F035F9D9
:101FD00000220721380002F030F900940196002415
:101FE000029403946946380002F01EF8162000900F
:101FF0000196029403946946A020C00502F014F8EB
:1020000008200090354D019502946946A020C00536
:1020100002F00AF8072000900196029403946946A2
:10202000380002F001F8C0200001009001950294F0
:102030006946380001F0F8FF002200210620FFF772
:10204000FBFC0620FFF7FDFC002200210720FFF724
:10205000F3FC0720FFF7F5FC07B0F0BD38B502F040
:1020600017F91D4C0121200002F0F1F8FA25AD000E
:10207000280000F0D0FC0121200002F0E8F8280040
:1020800000F0C9FCEDE710B504002068144988424F
:1020900001D102F029F920681249884203D112487F
:1020A0000168491C016010BD80660008DC39002011
:1020B0003439002000700040FFE7FFFFD4370020D4
:1020C000003001402C3800200038004054370020F8
:1020D000003801402C100240000400500000111094
:1020E0000004004000100040E03900207047FEE787
:1020F00010B500240A7860231340002B09D0202B50
:1021000001D0402B2DD1A322920082589268904793
:1021100029E04A78002A18D0012A1CD0032A17D0B7
:10212000052A09D0062A04D0082A0BD0092A06D08D
:1021300014E000F07EF913E000F02FFA10E000F058
:102140005EFA0DE000F0CAFA0AE000F0E7FA07E0F4
:1021500000F005FB04E000F00DFB01E000F032FBB5
:1021600001E000F02FFB2000C0B210BD38B5050023
:102170000C000020207860210140002903D0202994
:1021800001D0402924D19D208000285C401E0228D7
:1021900019D8A088C0B2022810D221002800A3229A
:1021A0009200AA5892689047E18800290AD1C0B2EB
:1021B000002807D1280000F082FB03E0210028005E
:1021C00000F000FB03E02100280000F0FBFA03E030
:1021D0002100280000F0F6FA002032BDF8B5040016
:1021E00000252F00888860220B781340002B0BD02D
:1021F000202B02D0402B00D015E12000A32292001A
:10220000A2589268904711E10B781A40202A07D112
:102210002000A3229200A25892689047C0B207E122
:102220004A78002A6FD0012A3BD0032A00D0F6E07A
:102230009D229200A25C022A02D0032A16D02CE032
:102240000200D2B2002A0DD00200D2B2802A09D0F8
:102250000100C9B22000FFF793FA80212000FFF7A8
:102260008FFA02E0200000F0ADFA19E04A88002A57
:102270000FD10200D2B2002A0BD00200D2B2802AC3
:1022800007D0C988002904D10100C9B22000FFF796
:1022900077FA200000F013FB02E0200000F092FA31
:1022A000C0E09D229200A25C022A02D0032A16D02E
:1022B00025E00200D2B2002A0DD00200D2B2802A5C
:1022C00009D00100C9B22000FFF75AFA802120008E
:1022D000FFF756FA02E0200000F074FA12E0498895
:1022E00000290BD14106490E002904D00100C9B2D2
:1022F0002000FFF753FA200000F0E1FA02E020008E
:1023000000F060FA8EE09D229200A25C022A02D0C8
:10231000032A28D07FE00200D2B2002A07D00200B0
:10232000D2B2802A03D0200000F04CFA76E00100FF
:10233000C9B2090608D5C0B24006400E1421484370
:1023400020180100143108E0C0B24006400E1421EC
:1023500048432018A021490041180D6002222000A6
:1023600000F071FA5AE080220300DBB21340002B28
:102370000DD00300DBB21B071B0F14267343E318B9
:102380009B69002B13D1200000F01CFA46E00300EB
:10239000DBB21B071B0F14267343E318A22676003B
:1023A0009B59002B03D1200000F00CFA36E001000D
:1023B000C9B20A40002A09D00100C9B24906490E33
:1023C0001422514361180E00143609E00100C9B20D
:1023D0004906490E142251436118A02252008E185A
:1023E0000100C9B2002903D00100C9B2802901D17E
:1023F00035600AE00100C9B22000FFF7DDF90028CE
:1024000002D00120306000E035600222310020005F
:1024100000F019FA02E0200000F0D4F902E02000F8
:1024200000F0D0F902E0200000F0CCF93800C0B292
:10243000F2BD38B504000D00688880B2000AC0B251
:10244000012808D002281CD003282FD006286FD0DE
:1024500007287CD08CE06946207CA2229200A258FA
:102460001268904769460988002900D18EE0E98802
:10247000002900D18AE069460988EA8891427CD225
:102480007EE0207C002808D16846A321890061589D
:10249000896A88470221417007E06846A3218900C4
:1024A0006158C96A884702214170DBE76888C0B279
:1024B000002808D0022816D00DD3042823D01AD320
:1024C000052828D02FE06946207CA2229200A2583D
:1024D00052689047C6E76946207CA2229200A25823
:1024E00092689047F6E76946207CA2229200A258A3
:1024F000D2689047EEE76946207CA2229200A2585B
:1025000012699047E6E76946207CA2229200A25811
:1025100052699047DEE76946207CA2229200A258C9
:1025200092699047D6E72900200000F04BF933E08C
:10253000207C002806D16846A32189006158496B98
:1025400088478FE72900200000F03CF924E0207C38
:10255000002808D16846A32189006158096B884783
:10256000072141707EE72900200000F02BF913E0DD
:102570002900200000F026F90EE0E9886A46118063
:1025800069460A880100200000F05DF9E88800280B
:1025900002D1200000F093F931BD38B505008888DC
:1025A000002828D1C888002825D14888802822D230
:1025B00088784406640E9D208000285C032803D19F
:1025C000280000F0FFF819E042482C542100C9B25D
:1025D0002800FFF70CF9280000F071F9E4B2002C94
:1025E00004D002209D218900685407E001209D212C
:1025F0008900685402E0280000F0E4F831BD70B5AD
:1026000004000E00344D708828702878022804D306
:102610003100200000F0D6F85AE09D208000205CB8
:10262000022802D003281CD04AE02878002814D0C1
:102630002878606003209D2189006054297820005B
:10264000FFF73AFA022804D13100200000F0BAF86E
:102650003EE0200000F033F902E0200000F02FF906
:1026600036E0287800280DD102209D218900605491
:102670002878606029782000FFF731FA200000F008
:102680001EF91CE028786168884215D06168C9B2DB
:102690002000FFF724FA2878606029782000FFF7EF
:1026A0000BFA022804D13100200000F08BF80FE073
:1026B000200000F004F902E0200000F000F907E03B
:1026C0003100200000F07EF829782000FFF707FA9B
:1026D00070BD000076020000243A002080B5CA8850
:1026E000012A02D000F06EF817E09D229200825C71
:1026F000521E012A02D9921E08D00CE000218160EE
:1027000001220100083100F09EF806E00122011DBF
:1027100000F099F801E000F055F801BD80B59D2268
:102720009200825C521E022A16D8CA88022A02D05F
:1027300000F048F812E00121C1609F218900415852
:10274000002903D0C16802220A43C26002220100AC
:102750000C3100F078F801E000F034F801BD80B5EC
:102760004988012905D101219F229200815000F062
:10277000A6F801BD80B59D229200825C521E022AFD
:1027800009D84988012905D100219F229200815052
:1027900000F095F801E000F015F801BD0A7802702C
:1027A0004A7842708A78CB781B02D21842800A7924
:1027B0004B791B02D21882808A79C9790902511893
:1027C000C180704710B5040080212000FEF7D8FFBB
:1027D00000212000FEF7D4FF10BDF8B5040000254D
:1027E0002E00002C23D000920F00200000F020F8D3
:1027F00002214843801C009908800098007831002D
:10280000C9B27854761C03203100C9B27854761CC2
:102810000AE020783100C9B27854641C761C280084
:102820003100C9B27854761C20780028F1D1F1BD6E
:1028300000B50100002001E0401C491C0A78002A74
:10284000FAD1C0B200BD10B5130002229B24A4002F
:1028500002511A0092B2C2611A0092B202629BB295
:102860000A000021FEF7D1FF002010BD80B5130043
:102870009BB20A000021FEF7C8FF002002BD10B580
:10288000130003229B24A40002511A0092B2A42434
:10289000640002511A0092B2A624640002519BB255
:1028A0000A000021FEF7C0FF002010BD80B5130014
:1028B0009BB20A000021FEF7B7FF002002BD80B5E1
:1028C00004219B2292008150002300220021FEF768
:1028D0009CFF002002BD80B505219B229200815003
:1028E000002300220021FEF79FFF002002BD0022EE
:1028F000030A8B420BD203098B4219D243088B4245
:102900002ED2411A00D20146524110467047FF2292
:1029100009023FD012068B4205D3121209028B42E4
:1029200001D31212090203098B4219D300E0090AEC
:10293000C3098B4201D3CB01C01A524183098B4298
:1029400001D38B01C01A524143098B4201D34B0181
:10295000C01A524103098B4201D30B01C01A5241E4
:10296000C3088B4201D3CB00C01A524183088B426B
:1029700001D38B00C01A524143088B4201D34B0054
:10298000C01A5241884200D3401A5241CFD2014668
:102990001046704708B501F0AFFC08BD10B5002423
:1029A0000848016840220A430260002001F0A6FCAA
:1029B000002801D0012401E001F0DAFC2000C0B2BF
:1029C00010BD00000020024000B5010000200A00F8
:1029D00012B2842A02D009B2C91C401800BD80B5C9
:1029E00001F066FE002002BD3EB504000D00082087
:1029F000205EFFF7E9FF02A9019100902B002269F8
:102A000092B22168606801F075FD012801D00020B4
:102A100000E002983EBD10B501242100FFF767FFDA
:102A2000002800D1200001F01DFE002010BDFEE7AF
:102A300080B51E4800F001F801BD10B5040020006B
:102A400002F02CF8200010BD00B585B0684618498A
:102A50001422FEF73BFF00216846FFF7C5FF05B0D3
:102A600000BD10B5114C200002F028F800280FD04E
:102A7000104C0221200001F0EAFBC820FFF7CBFF39
:102A80000221200001F0E3FBC820FFF7C4FFEFE7BD
:102A9000200002F037F8FA208000FFF7BCFF042185
:102AA000044801F0D4FBF3E70000000034390020B3
:102AB00094660008000400500022FFE7130010395C
:102AC00006D330B41400150010393CC0FCD230BC21
:102AD000490700D30CC000D504C0890002D302808E
:102AE000801C002900D502707047FEE7FEB5040087
:102AF000002C01D10120A7E2AF4800680C21014061
:102B00000091AD4805688020400205402078C0074C
:102B10005DD50098082806D000980C280CD180209C
:102B20004002854208D1A548006880034FD56068FF
:102B300000284CD1012087E2606880214902884248
:102B400006D19E480168802252020A4302601FE0BB
:102B50006068A021C90288420BD198480168802290
:102B6000D2020A4302600168802252020A430260D4
:102B70000EE092480168C24A0A4002600168802261
:102B800052021140019101990168BE4A0A40026057
:102B9000606800280DD001F0F7FF06008748006844
:102BA000800314D401F0F0FF801B6528F6D30320C6
:102BB0004AE201F0E9FF060080480068800306D57C
:102BC00001F0E2FF801B6528F6D303203CE2207869
:102BD000800758D5E0682022104205D077490B685D
:102BE0001A430A60202188430099042904D00099DF
:102BF0000C292BD1002D29D170490A68520703D521
:102C0000002801D101201FE2B44A1368B44D1D40D1
:102C100023691B022B4313600A6809239A4310435C
:102C2000086000F007FBAF49634A126812091207F7
:102C3000120F895CC840AC490860002001F05EFBBF
:102C40000100C9B200291ED0C0B2FDE1002829D080
:102C50005A4D2968092291430843286001F094FFE6
:102C600006002868400706D401F08EFF801B032869
:102C7000F7D30320E8E199480168994A0A4021699D
:102C80000902114301602078C0066AD50098002827
:102C900043D14A480068800516D5E069002813D161
:102CA0000120D1E1454D286801218843286001F0C9
:102CB0006BFF060028684007E5D501F065FF801B23
:102CC0000328F7D30320BFE184480168A84A0A40DB
:102CD000616A1143016001680902090A226A120649
:102CE0000A4302600120616A490B491C8840802127
:102CF000090248437B49304A126812091207120F31
:102D0000895CC84078490860002001F0F7FA0100AA
:102D1000C9B2002925D0C0B296E1E069002838D0B8
:102D2000264D2868802149000143296001F02CFFCD
:102D300006002868800506D401F026FF801B0328C2
:102D4000F7D3032080E165480168894A0A40616A37
:102D50001143016001680902090A226A12060A4346
:102D60000260207800073DD56069002828D0B74D63
:102D7000286801210143296001F006FF0600286848
:102D800080072FD401F000FF801B0328F7D3032016
:102D90005AE10A4D2868AE490140296001F0F4FE6D
:102DA000060028688005DCD501F0EEFE801B0328B4
:102DB000F7D3032048E100BF0C100240001002408E
:102DC000A24D286801218843286001F0DDFE06003D
:102DD0002868800706D501F0D7FE801B0328F7D3AB
:102DE000032031E12078400700D487E000258020CF
:102DF0004005984909680140002904D195490A68AD
:102E0000104308600125944F8026760038683040D2
:102E1000002811D138683043386001F0B5FE0190C8
:102E200038683040002807D101F0AEFE0199401A01
:102E30006528F5D3032007E1A068B04204D1834898
:102E400001680E43066028E0A068002809D17F4889
:102E500001687F4A0A4002600168804A0A400260B5
:102E60001BE0A068A021C90088420DD17748016805
:102E70008022D2000A43026001680E4306600CE023
:102E8000FFFFFEFFFFFFFBFF70480168704A0A402A
:102E900002600168714A0A400260A06800280ED0F2
:102EA00001F072FE06006948006880051ED401F03A
:102EB0006BFE801B6A498842F5D30320C4E001F011
:102EC00063FE06006148006880050FD501F05CFED6
:102ED000801B63498842F5D30320B5E0041002400B
:102EE000FFE0FFFFA866000808000020EDB2012DFA
:102EF00004D1584801685B4A0A4002602078800685
:102F000038D5A06900281BD0574D012128680843F7
:102F100028605648026811430160554801688022C4
:102F200092010A43026001F02FFE06002868800724
:102F300020D401F029FE801B0328F7D3032083E06F
:102F4000494D286801218843286049480168494A59
:102F50000A40026001F018FE06002868800709D5C3
:102F600001F012FE801B0328F7D303206CE000BFA2
:102F7000FF1FFFFFA06A002865D000980C2847D0EB
:102F8000A06A022832D1A64D2868A64901402960CE
:102F900001F0FAFD07008026B604286830400028BA
:102FA00006D001F0F1FDC01B0328F4D303204BE051
:102FB0009D4801689D4A0A40E16A1143226B0A4319
:102FC000616B114301602868802149040143296035
:102FD00001F0DAFD040028683040002833D101F008
:102FE000D3FD001B0328F6D303202DE08C4C206872
:102FF0008C490140216001F0C7FD05002068800177
:1030000021D501F0C1FD401B0328F7D303201BE0AD
:10301000A06A012801D1012016E0834800688021C0
:1030200049020140E26A91420BD1F021890301403B
:10303000226B914205D1C02109040140606B81429D
:1030400001D0012000E00020FEBD00005010024031
:10305000FFFEFFFF3810024000700040FFFBFFFF43
:1030600089130000FFFFFFEF0810024034100240F8
:1030700020000140FFDFFFFFFEB50400002C01D15E
:103080000120CBE000910125694F38682840009964
:1030900088420CD238680121884300990143396085
:1030A000386828400099884201D00120B6E0207895
:1030B000800706D55C480168F0229143A2680A4364
:1030C00002602068284000286BD06068022805D183
:1030D00053480068800319D401209FE060680328EA
:1030E00005D14F480068800110D4012096E0606847
:1030F000012805D14A480068400707D401208DE027
:1031000047480068800501D4012087E0464E3068BA
:103110000321884361680143316001F035FD01906E
:10312000606802280DD130680C210140082938D090
:1031300001F02AFD0199401A6D498842F3D303201A
:103140006CE0606803280DD130680C2101400C2927
:1031500027D001F019FD0199401A65498842F3D33F
:1031600003205BE0606801280DD130680C2101402C
:10317000042916D001F008FD0199401A5C498842E3
:10318000F3D303204AE030680C210140002908D025
:1031900001F0FAFC0199401A55498842F3D3032003
:1031A0003CE000983968294088420CD238680121F7
:1031B000884300990143396038680540009885428A
:1031C00001D001202AE02078400706D51648016882
:1031D000484A0A40E168114301602078000707D59A
:1031E00011480168444A0A402169C900114301603D
:1031F00000F020F841490C4A126812091207120F18
:10320000895CC8404D490860002001F077F8010052
:10321000C9B2002901D0C0B200E00020FEBD00000C
:1032200000100240FFFFFFFE0C100240FFFF02FFF4
:103230000020024000B5274A11680C2008400428ED
:1032400004D008280AD00C280AD028E03C4800689E
:10325000C00601D53B4800E03B482BE03B4829E055
:103260003B488B0C1B071B0FC05C890D8907890F1E
:10327000491C1268D20304D5344A5043FFF737FB88
:103280000CE02F4A1268D20604D52E4A5043FFF7AD
:103290002EFB03E02C4A5043FFF729FB0AE02D48A0
:1032A0000068400B4107490F0120491C88408021DC
:1032B0000902484300BD21480068704780B5FFF708
:1032C000FAFF2549254A1268120A5207520F895CF3
:1032D000C84002BD0C10024080B5FFF7ECFF1E494C
:1032E0001E4A1268D20A5207520F895CC84002BDBA
:1032F00089130000FFF8FFFFFFC7FFFFA866000863
:1033000010B40F220260154A13689B079B0F43609D
:103310001368F0241C408460E023DB0014681C4028
:10332000C4601268D208134003610D4800680200AF
:10333000D207D20F0A6010BC7047000008000020BE
:103340000010024000093D000024F40000127A0041
:103350001867000804100240686700080C1002405B
:1033600000200240F8B504002078800600D482E0F6
:1033700020788006002580204005634909680140C7
:10338000002904D160490A681043086001255F4E96
:103390003068C00511D43068802149000143316094
:1033A00001F0F2FB07003068C00506D401F0ECFB29
:1033B000C01B6528F7D30320A4E055480168C0204E
:1033C000800308406168C02292030A4090420BD0FB
:1033D000C020800261680140814205D14C480068EC
:1033E000800301D501208DE04A4EC027BF0230681E
:1033F0003840002824D061683940884220D02078A5
:1034000080061DD531684448084031688022120387
:103410000A4332603168414A0A4032603060C00578
:103420000ED501F0B1FB00903068800508D401F0A2
:10343000ABFB0099401A3A498842F5D3032061E07A
:1034400060683840B84209D13148026835491140B6
:103450006268C0239B0313400B43036030686168BC
:103460000F4007433760EDB2012D04D126480168B3
:103470002D4A0A4002602078C00706D52B48016813
:1034800003229143A2680A4302602078800706D590
:10349000264801680C229143E2680A4302602078C2
:1034A000400706D521480168214A0A402169114395
:1034B00001602078000706D51C4801681D4A0A40B3
:1034C0006169114301602068C00506D5174801688D
:1034D000114A0A40A169114301602078400606D5CF
:1034E00012480168144A0A40216A11430160207899
:1034F000000606D50D480168104A0A40E1691143EB
:1035000001600020F2BD0000381002400070004051
:103510000010024050100240FFFFFCFFFFFFF7FFCA
:1035200089130000FFFFCFFFFFFFFFEF4C100240A9
:10353000FFF3FFFFFFCFFFFFFFFFFFFBFFFFF3FFE7
:1035400038B50400002C01D101203FE0606A00285A
:103550000025A5625120205C002805D128005021BB
:103560006054200000F025FF0220512160542068A3
:10357000006840218843216808606068A1680143B1
:10358000E06808432169014360690843A16980221A
:10359000920011400143E0690843216A0143A06A97
:1035A000084321680860A069000C04210840616A92
:1035B0000143206841602068C069054901402068D6
:1035C000C1616565012051216054002032BD0000B9
:1035D000FFF7FFFFFBB50400170000263500E06889
:1035E000002806D1E068002803D1380080B2022804
:1035F000FFD35020205C012801D10220BFE0012030
:103600005021605401F0C0FA009038005121615CF3
:10361000012901D00225ABE00199002903D03A002D
:1036200092B2002A01D10125A2E003225123E254E3
:1036300066652163A786E786A6633100A18731000E
:10364000E18766642664A16880221202914206D155
:10365000216809688022D2010A4321680A6040215A
:10366000226812680A40002A04D1226812681143B5
:1036700022681160029FE1688022120191422FD1DD
:103680006168002902D080B2012814D1206B008823
:103690002168C860206B801C2063E08E401EE0869D
:1036A00009E0206B00882168C860206B801C2063C3
:1036B000E08E401EE086E08E002841D020688068C1
:1036C0008007EED401F060FA0099401AB84203D3A3
:1036D0000020C043874201D1002FECD1032547E0F1
:1036E0006168002902D080B2012814D1206B0078D3
:1036F00021680873206B401C2063E08E401EE0862A
:1037000009E0206B007821680873206B401C20635F
:10371000E08E401EE086E08E002811D02068806890
:103720008007EED401F030FA0099401AB84203D372
:103730000020C043874201D1002FECD1032517E0C0
:10374000009A3900200000F06FF8002801D02020F6
:103750006065A068002807D100962068C0680090C6
:103760002068806800900098606D002800D00125D6
:10377000012051216054502026542800C0B2FEBDC3
:103780005121405C7047F4B504000F001D00069EF7
:10379000206880683840B84201D1012000E0002054
:1037A0006946097888423DD00020C0438542EFD069
:1037B00001F0EAF9801BA84201D2002DE8D120686F
:1037C0004068E021884321684860606882214900A0
:1037D00088420FD1A06880210902884204D0A068E5
:1037E0008021C900884205D12068006840218843B3
:1037F0002168086080208001A16A81420AD1216885
:1038000009681E4A0A4021680A602168096808435D
:10381000216808600120512160540020502160542B
:10382000032000E00020F2BD1CB504000B0060681E
:103830008221490088420DD100920022802120007F
:10384000FFF7A1FF002817D0606D202101436165BB
:10385000032012E05120205C05280DD100920022A7
:1038600001212000FFF78FFF002805D0606D202187
:1038700001436165032000E0002016BDFFDFFFFF6C
:1038800010B50400002C01D1012035E0A06900280A
:10389000FFD1606F002805D1002070216054200006
:1038A00000F0E5FD2420606720680068012188435E
:1038B00021680860200000F0DBF8012801D1012018
:1038C0001AE0606A002802D0200000F091FA206817
:1038D00040680A49014020684160206880682A21C8
:1038E00088432168886020680068012101432068BE
:1038F0000160200000F0EEFA10BD0000FFB7FFFFEE
:1039000070B504002068C06921680968226892685F
:1039100003071B0F002B0AD1850608D58D0606D597
:10392000206E002802D02000216E88479DE0002BE9
:103930007CD001231A4204D190256D000D40002D4A
:1039400074D01D000540EDB2002D06D0CD0504D584
:1039500025682B62E56F1D43E56785070BD51D00C4
:103960001540EDB2002D06D0022526683562E56FC0
:1039700004262E43E66745070BD51D001540EDB222
:10398000002D06D0042526683562E56F02262E43F9
:10399000E66705070BD58D0603D41340DBB2002B79
:1039A00005D0082223681A62E36F1A43E267E26FC8
:1039B000002A3AD0800607D5880605D5206E002853
:1039C00002D02000216E8847E06F2168896849068F
:1039D00001D4000724D5200000F0E2FA20688068B6
:1039E000400619D520688068402188432168886096
:1039F000E06E00280CD01D48E16E8863E06E01F097
:103A0000C9F8002811D0E06EE16E896B88470CE0A0
:103A1000200001F0EBF808E0200001F0E7F804E0F6
:103A2000200001F0E3F80020E0671EE0C30209D5A2
:103A3000520207D58020400321680862200001F06F
:103A4000D7F812E0020608D50A0606D5606E0028EF
:103A500002D02000616E884707E0400605D5480681
:103A600003D5200000F0CEFAFFE770BDF13F00085B
:103A7000F8B5040010221000002000250021236862
:103A80008E4EB342FFD0A36826691E436769374351
:103A9000E3693B4326683668894F37403B432668D5
:103AA000336023685B68874E1E40E36833432668B3
:103AB0007360A3690093814B26689E4203D0009FE8
:103AC000266A3E4300962668B768AF4E3E40009F88
:103AD00037432668B7602668AC4FBE4215D1AC4E5E
:103AE0003668B607B60F002E05D0022E05D006D3D5
:103AF000032E06D007E0012650E002264EE0042601
:103B00004CE008264AE0160048E02668B24FBE4264
:103B100016D19F4E36680C273740002F06D0042F51
:103B200008D0082F04D00C2F06D007E0002635E07F
:103B3000022633E0042631E008262FE016002DE0AF
:103B40002668A64FBE4201D1002627E02668A44F72
:103B5000BE4201D1002621E026689E421DD18C4E36
:103B60003768C02636013E40002E0CD08027FF006B
:103B7000BE420CD080273F01BE4206D0C0273F0185
:103B8000BE4206D007E0002608E0022606E0042632
:103B900004E0082602E0160000E0160027689F42B5
:103BA0004BD1F6B2002E06D0022E08D0042E0FD034
:103BB000082E11D013E0FFF781FB010010E08948C7
:103BC00000680240002A01D0874900E0874907E0E9
:103BD000FFF730FB010003E08021090200E001252E
:103BE000002900D1F2E0606803225043814205D3EE
:103BF0006068802252015043884201D20125E5E0ED
:103C00000800002180225200002300F0F3FF020090
:103C10000B00606840080021801859416268002349
:103C200001F001F8C0218900411AA94A914202D24B
:103C30002168C860CAE00125C8E080210902E36963
:103C40008B4269D1F6B2002E08D0012E12D0022E7E
:103C50001CD0042E38D0082E42D04BE0FFF72EFBAC
:103C6000022148436168490840186168FEF73FFE39
:103C700080B240E0FFF730FB022148436168490809
:103C800040186168FEF733FE80B234E055480068A2
:103C90000240002A08D060684008A64940186168C0
:103CA000FEF725FE80B207E060684008A249401890
:103CB0006168FEF71CFE80B21DE000BF00480040B6
:103CC000F369FFEFFFCFFFFFFFF7B4FA022148438C
:103CD0006168490840186168FEF709FE80B20AE091
:103CE000606840088021490240186168FEF7FFFDC6
:103CF00080B200E00125B3490200103A8A4209D29D
:103D00000200114040084007400F084380B221687C
:103D1000C8605BE0012559E0F6B2002E08D0012E04
:103D200010D0022E18D0042E34D0082E3CD043E000
:103D3000FFF7C4FA6168490840186168FEF7D7FDCB
:103D400080B23AE0FFF7C8FA616849084018616834
:103D5000FEF7CDFD80B230E0224800680240002A24
:103D600008D060684008204940186168FEF7BFFD30
:103D700080B207E0606840081C4940186168FEF79F
:103D8000B6FD80B219E000BFFFF4FFFF003801402C
:103D90004C100240FFF74EFA61684908401861680C
:103DA000FEF7A5FD80B208E0606840084018616831
:103DB000FEF79DFD80B200E0012501001039814A27
:103DC000914202D22168C86000E0012500202066EF
:103DD00060662800C0B2F2BD00440040004C0040C4
:103DE000005000400010024000093D000024F40093
:103DF00000B52421415CC90707D501684968724AAA
:103E00000A40816A1143026851602421415C89079C
:103E100007D5016849686D4A0A40C16A11430268C2
:103E200051602421415C490707D501684968684A07
:103E30000A40016B1143026851602421415C09076B
:103E400007D501684968634A0A40416B114302681B
:103E500051602421415CC90607D5016889685E4A22
:103E60000A40816B1143026891602421415C8906FC
:103E700007D501688968594A0A40C16B1143026835
:103E800091602421415C490614D501684968544A6F
:103E90000A40016C114302685160016C8022520398
:103EA000914207D1016849684E4A0A40416C11436A
:103EB000026851602421415C090607D50168496800
:103EC000494A0A40816C11430068416000BD00000E
:103ED00000FD0F007CB504000025E56700F054FEEE
:103EE00006002068006800070CD5404800903300A9
:103EF000002280218903200000F020F8002801D052
:103F0000032016E02068006840070CD53748009071
:103F1000330000228021C903200000F00FF80028A0
:103F200001D0032005E020206067A06770202554A1
:103F3000002076BD00127A000048E801F4B50400C4
:103F40000D001F00069E2068C0692840A84201D1CC
:103F5000012000E000206946097888421ED1002037
:103F6000C0438642EFD000F00FFEC01B864201D353
:103F7000002EE8D1206800682949014020680160CE
:103F8000206880680121884321688860202060675C
:103F9000A067002070216054032000E00020F2BDE3
:103FA000016809681F4A0A4001680A600168896857
:103FB00001229143026891602021816700210166FE
:103FC00070470000F0FF0000FFFFFDFFFFFFFEFF56
:103FD000FFFFFBFFFF7FFFFFFFEFFFFFFFDFFFFFA5
:103FE000FFFFEFFFFFFF9FFFFFFFF7FFFFFFFF0157
:103FF00080B5806A00215A2281525222815200F0FB
:10400000F5FD01BD80B50168096840229143026851
:104010001160202141670021416600F039FE01BD99
:104020005FFEFFFFDFFEFFFFF8B502000023002068
:10403000002032E0062403E0744CA242FAD10524A9
:104040001F003E4004277E43B440044370489E084E
:1040500004277E4384516F4C2068A8434E68F603C2
:1040600000D5284320606C4C2068A8434E68B603F6
:1040700000D528432060694C2068A8434E68F602AA
:1040800000D528432060664C2068A8434E68B602DD
:1040900001D50543280020605B1C0868D840002833
:1040A00000D1B2E00124086825009D400540002DA4
:1040B000F2D04868022802D0486812281ED1D808D9
:1040C000042670431018076A072000970F26B4468D
:1040D0001F000740042677436646BE40009FB74353
:1040E000BC460E691F003840042778438640674667
:1040F0003E43D80804277843101806624868012810
:1041000008D04868022805D04868112802D04868BD
:1041100012281BD19668032084461F0002204743C3
:104120006046B8408643CF68BC46180002277843F3
:10413000674687403743976056682000984086431B
:1041400048680009204098403043506017680326B3
:10415000BC461F00022047433000B84067468743F3
:1041600000974868304084461F000220474360465D
:10417000B840009F38431060D768BC461F0002203B
:1041800047433000B84067468743009788688446B5
:104190001F00022047436046B840009F3843D0606C
:1041A0004868C00000D477E73348076827430760B2
:1041B000174884469F08042047436046C059009032
:1041C0000F27BC461F00300038400427784367465D
:1041D00087400098B843A027FF05BA4201D10024C8
:1041E0002EE7264FBA4200D12AE7254CA24201D140
:1041F000022425E7234CA24201D1340020E7224CBF
:10420000A24200D018E704241AE7F1BD001C0050B8
:10421000080001400004014004040140080401407A
:104220000C04014000B5006989B20840002801D0A3
:10423000012000E00020C0B200BD00B5D2B2002ACB
:1042400002D089B2816101E089B2816200BD426918
:1042500089B24A404261704780B50C490A68030040
:104260009BB21A40002A05D0020092B20A6080B2C6
:1042700000F036FD01BD0000341002400004005083
:1042800000080050000C00500010005014040140C1
:1042900010B5114C002211492000FDF7DDFB00286C
:1042A00001D0FDF723FF0E492000FDF7F1FB0028A8
:1042B00001D0FDF71BFF0B49200000F0D7FE0028BE
:1042C00001D0FDF713FF2000FDF7EFFB002801D020
:1042D000FDF70CFF10BD00BF982D00202C01002021
:1042E000180000201C01002002480168491C0160E0
:1042F000704700BFE43900207047FEE738B586B04C
:10430000010000242000200000221020FDF794FB73
:104310001020FDF796FB1148016802220A43026053
:10432000694601A8FEF7ECFFFEF7C8FF0C49FEF74F
:10433000DEFA401E0B4D0C4929600C49E9606860AB
:104340002C61AC60280000F0D1FE002803D12800C9
:1043500000F0E8FE00E0012007B030BD3810024058
:1043600040420F00C038002000040040E703000076
:10437000E0B5574803C86A4603C2083A5548016881
:1043800001220A43026054480168802252050A4310
:104390000260002203210120C043FDF74DFB802075
:1043A000009000200190684600F0BAFF00F0EDFF99
:1043B00007BD10B586B0040068461421FEF77CFBEB
:1043C0002068464988421DD1424801688022520136
:1043D0000A4302600121424802680A430260006801
:1043E000014005910598E0200090022001900020F6
:1043F00002900321039104906946A020C005FFF7B5
:1044000013FE1FE02068374988421BD132480168FB
:104410008022D2010A430260022031490A68024325
:104420000A600968014005910599E021090200919F
:1044300001900020029003210391049069462A48CC
:10444000FFF7F2FD06B010BD80B50068274988422D
:104450000CD12148016810220A4302600022032186
:104460001120FDF7E9FA1120FDF7EBFA01BD10B5B7
:1044700086B0040001A81421FEF71EFB20681C4929
:10448000884222D1134801688022D2010A43026087
:10449000022013490A6802430A600968014000913A
:1044A0000099C02101910290002003900321049102
:1044B000059001A90C48FFF7B7FD002203211B203E
:1044C000FDF7BAFA1B20FDF7BCFA06B010BD0000DC
:1044D000606700083410024038100240003001408C
:1044E0002C10024000380040000400500010004032
:1044F00000380140F7B584B007001D006846018B05
:104500000420484300F054FF0600002E0BD0542036
:1045100000F04EFF0400002C01D0266304E03000C0
:1045200000F0B4FF00E00024002C12D00D9A0C9E85
:104530002B000599380000250395029401920096FE
:104540006A46128B00F00AF8200000F04CF80120B7
:1045500001E00020C04307B0F0BD0000FEB50A9C9A
:10456000256B04267243AA18121F0725AA4300923E
:10457000009A520701D072B6FEE700252A00019189
:1045800000E0521C102A08D20199895CA618342731
:10459000F1550199895C0029F3D1089E2900432235
:1045A000A154072E00D30626099F01930290E662CC
:1045B0006664A564201D01F010F82000183001F099
:1045C0000CF824610720801BA0616462E564502020
:1045D0002554019A0299009801F03EF82060002FBE
:1045E00000D03C60F7BD38B5040001F06DF82948F3
:1045F0000168491C0160284D2968002906D12C60FA
:10460000006801280CD100F09FF909E026480068F5
:10461000002805D1E06A2968C96A884200D32C6065
:104620001E480168491C01601D480168E26A914208
:1046300001D2E16A0160211D1A48E26A14235A433B
:10464000801800F0CDFF01F049F8174800680028F5
:1046500006D02868C06AE16A884201D201F02AF8CF
:1046600031BD000010B504000020002C0DD00F4813
:104670000068002801D072B6FEE700F03BF8002188
:10468000200000F0CFF900F03BF8002801D101F044
:1046900011F810BDF8390020E8390020143A002044
:1046A000003A0020C8360020043A0020203A0020BA
:1046B000E0B57A48019000200090002380227849DC
:1046C0007848FFF717FF01280DD172B60020C043CC
:1046D0007549086001208C49086000208B490860FA
:1046E00000F0D3FF07BD0021C9438842FAD172B65A
:1046F000FEE700002F480168491C01607047000078
:10470000F8B50024250027002A4E3068002801D182
:1047100072B6FEE700F0D8FF3068401E30603068A7
:10472000002843D124480068002821D13EE0C06819
:10473000C5682800183000F07AFF281D00F077FFC8
:104740001F480168EA6A914201D2E96A0160291DA5
:104750005148EA6A14235A43801800F041FFE86A7E
:104760006B490968C96A884202D301206949086017
:10477000124801680029DAD1002D01D000F02AF991
:10478000654D2E68002E0AD000F01CF8002802D0DB
:10479000012060490860761E002EF5D12C605D482E
:1047A0000068002802D0012700F084FF00F096FF87
:1047B0003800F2BD203A0020F8390020803900206E
:1047C000003A0020F8B5002454480068002857D16A
:1047D0004E4807687F1C0760002F11D150490868B8
:1047E0000068002801D072B6FEE708684D4A1368D9
:1047F0000B6010604C480168491C016000F0EAF849
:10480000294E306887422CD31FE0281D00F00FFF8F
:10481000A86A002803D02800183000F008FF434899
:104820000168EA6A914201D2E96A0160291D1A48C9
:10483000EA6A14235A43801800F0D2FEE86A344929
:104840000968C96A884200D30124354801680968AB
:10485000002911D00068C068C56868688742D4D252
:1048600030602B4800680C49C06A14225043085835
:10487000022809D3012407E00020C0433060F0E79C
:1048800025480168491C016022480068002800D0C2
:1048900001242000F2BD0000C83600201C3A002090
:1048A0007067000831490008183A002010B51B480D
:1048B0000068002803D001201649086023E000208A
:1048C000144908601949086800E0401E1D4A142375
:1048D0004343D358002B03D10028F6D172B6FEE72C
:1048E00014234343D21853685B6853605368140021
:1048F0000834A34202D153685B6853605268D2689F
:10490000034B1A60086010BD043A0020FC390020F7
:10491000E83900200C3A0020083A0020203A002014
:10492000EC390020F0390020103A0020003A002035
:1049300080B500F02BF8314800680228F9D300F068
:10494000B9FEF6E7C836002038B5002406E02B484B
:1049500014216143401800F031FE641C072CF6D38B
:10496000274D280000F02AFE264C200000F026FEED
:10497000214800F023FE244800F020FE234800F0E8
:104980001DFE234805602348046031BD38B513E09F
:1049900000F09AFE1C48C068C568281D00F047FE5C
:1049A0001D480168491E01602068401E206000F01B
:1049B00095FE280000F005F8184C20680028E7D183
:1049C00031BD10B50400206B00F060FD200000F048
:1049D0005DFD10BD00B50E4801680968002904D1CD
:1049E0000020C0430E49086005E00068C068C06848
:1049F00040680B49086000BD80390020C83600209F
:104A0000583900206C39002094390020A839002042
:104A1000EC390020F0390020F8390020F43900206A
:104A2000183A0020F8B507000C0017480568154E25
:104A30003068001D00F0FBFD0020C043874207D115
:104A4000002C05D03068011D104800F0C9FD16E0AB
:104A5000EC1930684460AC4206D23068011D0C4845
:104A6000006800F0C9FD0AE03068011D09480068CF
:104A700000F0C2FD084801688C4200D20460F1BD1C
:104A800000000000E8390020FC390020A83900208F
:104A9000F0390020EC390020183A002010B504004D
:104AA0002000143035490C22FCF7FCFE01202021A7
:104AB000605433482061E060200010BD10B5040050
:104AC00000F06CFE00F0ADFE012000F0E3FE0021DE
:104AD000C943884202D10120C04312E000F0A8FE81
:104AE0002100200000F03DF82100200000F034F803
:104AF000E06880B201F0ECF8206980B201F0F0F8D3
:104B0000002010BD10B50400802200210F2001F00C
:104B1000B9F90022210014310C2001F0E9F800223B
:104B200000210C2001F0FAF8002001F08CFA00219D
:104B30000F2001F06FF90006F9D5802200210F2027
:104B400001F0A0F92020205C2018007D401C2021CD
:104B5000615C6118087510BD80B5080000F082FF27
:104B600001BD3EB508006946064A38CA38C10C3A4C
:104B70000C3969460C22FCF795FE37BDF466000837
:104B8000344000000067000801480068704700BF1B
:104B9000E439002038B500210C002522825C022A6D
:104BA00003D00421C16301241DE0026812680E23B2
:104BB0009A4303681A600268126801239A430368E3
:104BC0001A6001224423C35C1C251D401300AB4026
:104BD000056C6B602523C25424228154816B00290B
:104BE00001D0816B88472000C0B232BD7047FEE71C
:104BF0007047FEE730B4434351435D18010C0C008D
:104C0000130C5C432D1980B2434392B251430024EC
:104C1000C918644124040B04090C09195043C01835
:104C2000694130BC7047124224D0994228D970B5EE
:104C300000251B4202D00C00002109E000240126BF
:104C400049186441944200D3A41A7641F8D3310044
:104C5000012601E0764109D2001864416D41A41A91
:104C60009D41F7D2A4185D41B619F5D3300022005A
:104C70002B0070BD1B42D8D108B501F047FA08BD22
:104C800001D19042D3D202000B00002100207047D6
:104C90007047FEE7704700B5FEE780B50820FFF7D4
:104CA000DBFA01BD80B58020C000FFF7D5FA802077
:104CB0000001FFF7D1FA01BD80B5114800F046FAB6
:104CC00001BD80B50F4800F041FA01BD80B50E4826
:104CD000FEF716FE01BD80B50C48FCF72EF801BDAD
:104CE00080B5010089B2042903D101200849086078
:104CF00004E080B2082801D100F0A1FD01BD000050
:104D0000C038002084380020543700203430002080
:104D1000C4390020F8B5040000263700207C0028A4
:104D200013D180239B00022281212000FCF707FD84
:104D30000125E56280239B00022201212000FCF76F
:104D4000FEFCAC204000255010E0402302228121CF
:104D50002000FCF7F4FC0125E5624023022201213A
:104D60002000FCF7ECFCAC20400025500823032277
:104D700082212000FCF7E3FC0125256487208000C8
:104D8000FCF769FDA42189006050A4208000205810
:104D9000002801D12F0022E0A42080002558A52062
:104DA0008000205800688047852080002E50862093
:104DB00080002E50207C002809D180239B00812078
:104DC00080002A5801212000FCF72EFD07E0402337
:104DD000812080002A5801212000FCF725FD3800A1
:104DE000C0B2F2BD70B5040000252E008121200064
:104DF000FCF7B8FCE56201212000FCF7B3FCAC2015
:104E00004000255082212000FCF7ACFC2564A42042
:104E10008000205800280CD0A52080002058406831
:104E20008047A42080002058FCF720FDA4208000AB
:104E300025503000C0B270BDF8B506000C00A420AB
:104E40008000375800252800694608702800694608
:104E5000488020786021014000292BD0202965D18D
:104E6000E08800281DD0207800060DD5E2883900A2
:104E70006078A5239B00F3589B689847E288390027
:104E80003000FDF7E0FC14E0607880218900785460
:104E9000E08871497854E28839003000FDF7EFFC72
:104EA00007E0002221006078A5239B00F3589B684F
:104EB000984740E06078002804D00A2814D00B28D6
:104EC00023D02DE09D208000305C032806D10222F3
:104ED00000A9891C3000FDF7B6FC04E02100300079
:104EE000FDF770FC022520E09D208000305C032847
:104EF00005D1012269463000FDF7A5FC04E0210040
:104F00003000FDF75FFC02250FE09D208000305C43
:104F1000032804D021003000FDF754FC022504E0F2
:104F200021003000FDF74EFC022504E02100300096
:104F3000FDF748FC02252800C0B2F2BD70B505009F
:104F4000A42080002E58A62080002A58A42080008B
:104F5000285800282DD00C002000C0B2142148434E
:104F60002818C06900281ED02000C0B21421484370
:104F70002818C0692100C9B2202359435118896BF0
:104F8000FDF7B5FC00290ED100202100C9B2142282
:104F900051436918C861002300222100C9B22800CA
:104FA000FCF733FC03E000208521890070500020CD
:104FB00000E0022070BD38B50400A4208000255810
:104FC000C9B22000FCF73FFC832189006850A4206F
:104FD0008000205800280CD08320800029188120D0
:104FE00080002858A5229200A258D268904700203D
:104FF00000E0022032BD38B50300A42080001C5818
:10500000A52080001858002814D080208000205C43
:10501000FF280FD01048225C92B22100802080002F
:10502000205CA525AD005B599B689847FF20802137
:1050300089006054002032BD432101800748704739
:10504000432101800648704743210180054870478D
:105050000A210180044870470102000094000020EA
:1050600050000020D80000200C00002000B50200F5
:105070000220002903D0A520800011500020C0B2DA
:1050800000BDA4239B00C05882239B00C15092B254
:1050900084218900425000207047A4229200805849
:1050A0008122920081500020704780B5A4218900A0
:1050B0004158A42292008258002A14D0027C002A6F
:1050C00008D180239B00812292008A580121FCF79D
:1050D000ABFB06E04023812292008A580121FCF7B5
:1050E000A3FB002000E0022002BDFEE710B5040093
:1050F000002C01D1012014E03920205C002805D1CA
:105100000020382160542000FFF79EF90220392149
:105110006054211D206800F0CBF801203921605433
:10512000002010BD00B501210268D2680A4303685F
:10513000DA60026892685207520F062A04D00268A9
:105140001268114300680160002000BD70B50400C2
:10515000022620680069304000281CD02068C06802
:105160003040002817D00220C04321680861012088
:105170002076206880698007800F002803D02000F7
:1051800000F0C5FF05E0200000F0C2FF200000F0A5
:10519000C0FF0020207604252068006928400028F0
:1051A0001CD02068C0682840002817D00420C043C5
:1051B00021680861267620688069C0218900014045
:1051C000002903D0200000F0A2FF05E0200000F03D
:1051D0009FFF200000F09DFF002020760826206819
:1051E0000069304000281BD02068C068304000288B
:1051F00016D00820C0432168086125762068C06960
:105200008007800F002803D0200000F080FF05E019
:10521000200000F07DFF200000F07BFF00202076C2
:10522000102021680969014000291CD02168C96843
:105230000840002817D01020C04321680861267656
:105240002068C069C02189000140002903D02000E6
:1052500000F05DFF05E0200000F05AFF200000F0A4
:1052600058FF0020207601202168096901400029AB
:105270000BD02168C9680840002806D00120C0432F
:10528000216808612000FCF7FEFE402021680969C2
:10529000014000290BD02168C9680840002806D0C9
:1052A0004020C04321680861200000F033FF70BD3A
:1052B00010B502688023DB05984208D0144CA04248
:1052C00005D0144CA04202D0134CA04204D170244B
:1052D000A24314004A682243984208D00C4B9842DB
:1052E00005D00C4B984202D00B4B984203D10B4B8C
:1052F0001340CA681A4380239A430B69134303601F
:105300008A68C262096881620121416110BD0000A2
:10531000000400400008014000140140FFFCFFFFB2
:1053200070B51D490A68E0239A43036813430B6074
:105330001A4A1B490B6813400B601A4B1C68144037
:105340001C60194C256815402560184D2E683240A8
:105350002A608022520246681640002E02D01E6843
:1053600016431E6043689B0302D50B6813430B6012
:105370000179C90702D5296811432960007980079E
:1053800002D520680243226070BD034801681022E4
:105390000A4302607047000000700040FFFFFEFFFC
:1053A00004040140000401400C04014008040140D1
:1053B000FEB5050000240094FFF79CF978480068CA
:1053C000002801D100F090F82900764F3868084095
:1053D000002851D100290ED0734800680918072011
:1053E000014208D00A0008320140511A0840002842
:1053F00001D072B6FEE700293ED06C4D2868884285
:105400003AD36B480190066801E0019636687068EF
:10541000884202D230680028F7D16148006886428D
:105420002AD06148019A12680368D2180092326843
:10543000019B1A60006840007268521A90420BD2B9
:1054400070180200520701D072B6FEE77268521A55
:105450004260716000F075F828687168401A286031
:10546000544829680268914201D229680160706835
:105470003968014371603460FFF742F900984007D2
:1054800001D072B6FEE70098FEBD000010B5010025
:10549000002828D04448006842428C18414861687E
:1054A00002680A40002A01D172B6FEE7216800298D
:1054B00001D072B6FEE7616802680A40002A12D085
:1054C000216800290FD16168006881436160FFF79E
:1054D00011F936480168626889180160200000F0FF
:1054E00030F8FFF70DF910BD10B580229201324956
:1054F000080043075B0F002B04D0C01D072398430F
:10550000121A52182A4B1860002159608218264B33
:105510001B68D21A07239A43214B1A601C686160EA
:105520001C682160111A4160196801604168214AB4
:10553000116040681D490860802000061949086014
:1055400010BD10B51A4900E009680A688242FBD311
:105550000A004B68D218824204D14A684068101889
:105560004860080002004368D2180B689A4210D1C4
:105570000B4A0B681468A34208D042680B685B684A
:10558000D21842600A681268026004E01268026081
:1055900001E00A680260814200D0086010BD00008E
:1055A000CC390020D839002090670008D03900207D
:1055B000BC390020D43900207C01002001000831D2
:1055C00041600021C943816001000831C1600100D0
:1055D00008310161002101607047002101617047BD
:1055E00042684A6093688B60936859609160086173
:1055F0000168491C0160704710B50B680022D24356
:10560000934201D1026907E00200083200E05268CB
:1056100054682468A342FAD253684B604B6899607F
:105620008A60516008610168491C016010BD00B5C5
:105630000169826843689A60426883685A604A6870
:10564000824201D182684A60002202610868401EDD
:105650000860086800BDFEE7001F80235B0403604C
:10566000001F0160001F36490160143802602038B5
:105670007047000000B5334800680021C9438842E4
:1056800001D072B6FEE772B6FEE780B52E4801681B
:10569000FF2212040A4302600168FF2212060A4335
:1056A000026000F03AF800202649086000F057FD3B
:1056B000002002BD8020400524490860BFF34F8FC1
:1056C000BFF36F8F7047000072B61E480168491C17
:1056D0000160BFF34F8FBFF36F8F704700B519485C
:1056E0000168002901D172B6FEE70168491E016018
:1056F0000068002800D162B600BD10B500F040FD82
:105700000400FFF75FF8002803D0802040050F4910
:105710000860200000F038FD10BD10B50C4C0020D2
:1057200020600C4908600C480068FA218900FDF7E8
:10573000DEF8401E094908600720206010BD000007
:10574000755600080400002020ED00E004ED00E0A4
:1057500010E000E018E000E00800002014E000E0A5
:105760000121C006C00E81404548016070470121FB
:10577000C006C00E814043480160704780B5FDF708
:105780004AF901BD3E49420904235A438958C006DB
:10579000C00EC1400800C007C00F704718B585B0E3
:1057A000042000901120019000200390A024E40523
:1057B00069462000FEF738FC002204212000FEF795
:1057C0003CFD0120FFF7DAFF002000F005F8022081
:1057D000FFF7D4FF06B010BD18B585B000280BD078
:1057E0000420009028480190002002906946A020E3
:1057F000C005FEF719FC12E0042000901120019072
:105800000020029002200390A024E40569462000B5
:10581000FEF70AFC012204212000FEF70EFD06B06F
:1058200010BD80B519482021C161FDF789FE01BD79
:1058300080B516480821C161FDF782FE01BD80B523
:1058400002E013480068804700F012F80028F8D101
:1058500001BD80B50620FFF78AFF01BD80B5062097
:10586000FFF77EFF01BD80B50620FFF78BFF02BD6D
:1058700080B50821A020C005FEF7D4FC02BD0000C1
:1058800000E100E080E100E000001110D4370020CA
:10589000C8390020F8B506000024270020006A4D12
:1058A00020002968087520002968487520002968AB
:1058B000C882286884622868C462286804632868EB
:1058C000446300F0C9F86149884202D00020C04317
:1058D000B8E0B00701D400F0E9FBB00703D5F82029
:1058E0003040002802D1002000F032FB04220021C9
:1058F000242000F0B1FAB00712D4042000F0D8FA46
:10590000C0B200281AD0022212212D2000F0A4FAE1
:105910002868C08A8021490101432868C1820DE0BE
:105920003021282000F076FA4949884206D02868BC
:10593000C08A8021490101432868C182B00703D58C
:105940000A2030400A2809D11E2000F0B1FA0700D1
:10595000380080B2000A2968C87202E02000296875
:10596000C872B00706D4F80600D110273800C0B2BC
:1059700000F0BEFBF00605D5062000F099FA296874
:10598000086001E028680460B00605D5072000F033
:105990008FFA2968486001E028684460700605D5E0
:1059A000082000F085FA2968087202E020002968C2
:1059B0000872300605D5092000F07AFA2968487285
:1059C00001E028684472B00717D4F00709D500F049
:1059D000A6FA2868C08A8021090101432868C1828B
:1059E00014E00521362000F028FA1A4A024092B24B
:1059F0000521362000F038FA08E0700706D4286840
:105A0000C08A8021090101432868C182012000F079
:105A10009FFA00220A212C2000F01EFA0021042007
:105A200000F0F8F92968086128680069000C80070F
:105A3000800F296888720021082000F0EBF929689E
:105A4000C8600020F2BD0000000000203001CADE66
:105A500088888888FFFD000080B50021002000F0C4
:105A6000D9F902BDF8B5040000200600050027782A
:105A7000B249627902235A43895A6A465180617851
:105A8000491E6A4611703900C9B2042903D0390091
:105A9000C9B2072903D101206946487001E069466F
:105AA0004870E07900280ED1A54801680969802274
:105AB000D2030A43006802616846408880B2C00889
:105AC0006946488006E09E48016809699D4A0A4087
:105AD00000680261207A9A490968887298480068CB
